{
  "_format": "hh-sol-artifact-1",
  "contractName": "BalanceDeltaLibrary",
  "sourceName": "types/BalanceDelta.sol",
  "abi": [
    {
      "inputs": [],
      "name": "ZERO_DELTA",
      "outputs": [
        {
          "internalType": "BalanceDelta",
          "name": "",
          "type": "int256"
        }
      ],
      "stateMutability": "view",
      "type": "function"
    }
  ],
  "bytecode": "0x6080806040523460175760759081601d823930815050f35b600080fdfe6080806040526004361015601257600080fd5b60003560e01c6391cb466914602657600080fd5b6000366003190112603a5780600060209252f35b600080fdfea2646970667358221220e6fff4e354689515534ad0eebcbd24ba715d14f44cb1d0fcc5f10c409dbf1d1a64736f6c634300081c0033",
  "linkReferences": {},
  "deployedLinkReferences": {}
}