{
  "_format": "hh-sol-artifact-1",
  "contractName": "SimpleLiquidity",
  "sourceName": "contracts/SimpleLiquidity.sol",
  "abi": [
    {
      "anonymous": false,
      "inputs": [
        {
          "indexed": true,
          "internalType": "address",
          "name": "token0",
          "type": "address"
        },
        {
          "indexed": true,
          "internalType": "address",
          "name": "token1",
          "type": "address"
        },
        {
          "indexed": false,
          "internalType": "uint256",
          "name": "amount0",
          "type": "uint256"
        },
        {
          "indexed": false,
          "internalType": "uint256",
          "name": "amount1",
          "type": "uint256"
        },
        {
          "indexed": true,
          "internalType": "address",
          "name": "provider",
          "type": "address"
        }
      ],
      "name": "LiquidityAdded",
      "type": "event"
    },
    {
      "inputs": [
        {
          "internalType": "address",
          "name": "token0",
          "type": "address"
        },
        {
          "internalType": "address",
          "name": "token1",
          "type": "address"
        },
        {
          "internalType": "int24",
          "name": "tickLower",
          "type": "int24"
        },
        {
          "internalType": "int24",
          "name": "tickUpper",
          "type": "int24"
        },
        {
          "internalType": "uint256",
          "name": "fee",
          "type": "uint256"
        },
        {
          "internalType": "uint256",
          "name": "amount0Desired",
          "type": "uint256"
        },
        {
          "internalType": "uint256",
          "name": "amount1Desired",
          "type": "uint256"
        }
      ],
      "name": "addLiquidity",
      "outputs": [],
      "stateMutability": "payable",
      "type": "function"
    },
    {
      "inputs": [
        {
          "internalType": "address",
          "name": "token",
          "type": "address"
        }
      ],
      "name": "getTokenBalance",
      "outputs": [
        {
          "internalType": "uint256",
          "name": "",
          "type": "uint256"
        }
      ],
      "stateMutability": "view",
      "type": "function"
    },
    {
      "inputs": [
        {
          "internalType": "address",
          "name": "token",
          "type": "address"
        },
        {
          "internalType": "uint256",
          "name": "amount",
          "type": "uint256"
        }
      ],
      "name": "withdrawToken",
      "outputs": [],
      "stateMutability": "nonpayable",
      "type": "function"
    }
  ],
  "bytecode": "0x6080604052348015600f57600080fd5b506106e58061001f6000396000f3fe6080604052600436106100345760003560e01c80633aecd0e3146100395780638f570a1e146100765780639e281a9814610092575b600080fd5b34801561004557600080fd5b50610060600480360381019061005b91906103ad565b6100bb565b60405161006d91906103f3565b60405180910390f35b610090600480360381019061008b9190610473565b61013e565b005b34801561009e57600080fd5b506100b960048036038101906100b49190610515565b6102c7565b005b60008173ffffffffffffffffffffffffffffffffffffffff166370a08231306040518263ffffffff1660e01b81526004016100f69190610564565b602060405180830381865afa158015610113573d6000803e3d6000fd5b505050506040513d601f19601f820116820180604052508101906101379190610594565b9050919050565b8673ffffffffffffffffffffffffffffffffffffffff166323b872dd3330856040518463ffffffff1660e01b815260040161017b939291906105c1565b6020604051808303816000875af115801561019a573d6000803e3d6000fd5b505050506040513d601f19601f820116820180604052508101906101be9190610630565b508573ffffffffffffffffffffffffffffffffffffffff166323b872dd3330846040518463ffffffff1660e01b81526004016101fc939291906105c1565b6020604051808303816000875af115801561021b573d6000803e3d6000fd5b505050506040513d601f19601f8201168201806040525081019061023f9190610630565b503373ffffffffffffffffffffffffffffffffffffffff168673ffffffffffffffffffffffffffffffffffffffff168873ffffffffffffffffffffffffffffffffffffffff167f6c663e88dcc86a651e6a0758b9902b496aa7e7a85977182c8fac129a8ad15ed385856040516102b692919061065d565b60405180910390a450505050505050565b8173ffffffffffffffffffffffffffffffffffffffff1663a9059cbb33836040518363ffffffff1660e01b8152600401610302929190610686565b6020604051808303816000875af1158015610321573d6000803e3d6000fd5b505050506040513d601f19601f820116820180604052508101906103459190610630565b505050565b600080fd5b600073ffffffffffffffffffffffffffffffffffffffff82169050919050565b600061037a8261034f565b9050919050565b61038a8161036f565b811461039557600080fd5b50565b6000813590506103a781610381565b92915050565b6000602082840312156103c3576103c261034a565b5b60006103d184828501610398565b91505092915050565b6000819050919050565b6103ed816103da565b82525050565b600060208201905061040860008301846103e4565b92915050565b60008160020b9050919050565b6104248161040e565b811461042f57600080fd5b50565b6000813590506104418161041b565b92915050565b610450816103da565b811461045b57600080fd5b50565b60008135905061046d81610447565b92915050565b600080600080600080600060e0888a0312156104925761049161034a565b5b60006104a08a828b01610398565b97505060206104b18a828b01610398565b96505060406104c28a828b01610432565b95505060606104d38a828b01610432565b94505060806104e48a828b0161045e565b93505060a06104f58a828b0161045e565b92505060c06105068a828b0161045e565b91505092959891949750929550565b6000806040838503121561052c5761052b61034a565b5b600061053a85828601610398565b925050602061054b8582860161045e565b9150509250929050565b61055e8161036f565b82525050565b60006020820190506105796000830184610555565b92915050565b60008151905061058e81610447565b92915050565b6000602082840312156105aa576105a961034a565b5b60006105b88482850161057f565b91505092915050565b60006060820190506105d66000830186610555565b6105e36020830185610555565b6105f060408301846103e4565b949350505050565b60008115159050919050565b61060d816105f8565b811461061857600080fd5b50565b60008151905061062a81610604565b92915050565b6000602082840312156106465761064561034a565b5b60006106548482850161061b565b91505092915050565b600060408201905061067260008301856103e4565b61067f60208301846103e4565b9392505050565b600060408201905061069b6000830185610555565b6106a860208301846103e4565b939250505056fea2646970667358221220a0eeb3efba0f5d490eb2231924d5d00d507edf2dcae5b810ef5146050eba29b864736f6c634300081c0033",
  "linkReferences": {},
  "deployedLinkReferences": {}
}