{
  "_format": "hh-sol-artifact-1",
  "contractName": "SimpleLiquidity",
  "sourceName": "contracts/SimpleLiquidity.sol",
  "abi": [
    {
      "anonymous": false,
      "inputs": [
        {
          "indexed": true,
          "internalType": "address",
          "name": "token0",
          "type": "address"
        },
        {
          "indexed": true,
          "internalType": "address",
          "name": "token1",
          "type": "address"
        },
        {
          "indexed": false,
          "internalType": "uint256",
          "name": "amount0",
          "type": "uint256"
        },
        {
          "indexed": false,
          "internalType": "uint256",
          "name": "amount1",
          "type": "uint256"
        },
        {
          "indexed": true,
          "internalType": "address",
          "name": "provider",
          "type": "address"
        }
      ],
      "name": "LiquidityAdded",
      "type": "event"
    },
    {
      "inputs": [
        {
          "internalType": "address",
          "name": "token0",
          "type": "address"
        },
        {
          "internalType": "address",
          "name": "token1",
          "type": "address"
        },
        {
          "internalType": "int24",
          "name": "tickLower",
          "type": "int24"
        },
        {
          "internalType": "int24",
          "name": "tickUpper",
          "type": "int24"
        },
        {
          "internalType": "uint256",
          "name": "fee",
          "type": "uint256"
        },
        {
          "internalType": "uint256",
          "name": "amount0Desired",
          "type": "uint256"
        },
        {
          "internalType": "uint256",
          "name": "amount1Desired",
          "type": "uint256"
        }
      ],
      "name": "addLiquidity",
      "outputs": [],
      "stateMutability": "payable",
      "type": "function"
    },
    {
      "inputs": [
        {
          "internalType": "address",
          "name": "token",
          "type": "address"
        }
      ],
      "name": "getTokenBalance",
      "outputs": [
        {
          "internalType": "uint256",
          "name": "",
          "type": "uint256"
        }
      ],
      "stateMutability": "view",
      "type": "function"
    },
    {
      "inputs": [
        {
          "internalType": "address",
          "name": "token",
          "type": "address"
        },
        {
          "internalType": "uint256",
          "name": "amount",
          "type": "uint256"
        }
      ],
      "name": "withdrawToken",
      "outputs": [],
      "stateMutability": "nonpayable",
      "type": "function"
    }
  ],
  "bytecode": "0x6080806040523460155761033c908161001b8239f35b600080fdfe608080604052600436101561001357600080fd5b60003560e01c9081633aecd0e3146101fa575080638f570a1e146100d257639e281a981461004057600080fd5b346100cd5760403660031901126100cd576000602061005d610280565b60405163a9059cbb60e01b8152336004820152602480359082015292839160449183916001600160a01b03165af180156100c15761009757005b6100b89060203d6020116100ba575b6100b081836102b6565b8101906102ee565b005b503d6100a6565b6040513d6000823e3d90fd5b600080fd5b60e03660031901126100cd576100e6610280565b6024356001600160a01b038116908190036100cd57610103610296565b5061010c6102a6565b506040516323b872dd60e01b815233600482015230602482015260a43560448201819052926001600160a01b03169060c435906020816064816000875af180156100c1576101dd575b506040516323b872dd60e01b8152336004820152306024820152604481018290526020816064816000885af180156100c1576101c0575b5060405193845260208401527f6c663e88dcc86a651e6a0758b9902b496aa7e7a85977182c8fac129a8ad15ed360403394a4005b6101d89060203d6020116100ba576100b081836102b6565b61018c565b6101f59060203d6020116100ba576100b081836102b6565b610155565b346100cd5760203660031901126100cd576020816024816001600160a01b03610221610280565b6370a0823160e01b8352306004840152165afa80156100c15760009061024d575b602090604051908152f35b506020813d602011610278575b81610267602093836102b6565b810103126100cd5760209051610242565b3d915061025a565b600435906001600160a01b03821682036100cd57565b604435908160020b82036100cd57565b606435908160020b82036100cd57565b90601f8019910116810190811067ffffffffffffffff8211176102d857604052565b634e487b7160e01b600052604160045260246000fd5b908160209103126100cd575180151581036100cd579056fea2646970667358221220221bc3b59798dbba30fa4108b83600a17c9816f957d41c0a5a7cb0a8c03ac26a64736f6c634300081c0033",
  "linkReferences": {},
  "deployedLinkReferences": {}
}