{
  "_format": "hh-sol-artifact-1",
  "contractName": "PriceOracle",
  "sourceName": "contracts/PriceOracle.sol",
  "abi": [
    {
      "inputs": [],
      "stateMutability": "nonpayable",
      "type": "constructor"
    },
    {
      "anonymous": false,
      "inputs": [
        {
          "indexed": true,
          "internalType": "address",
          "name": "token0",
          "type": "address"
        },
        {
          "indexed": true,
          "internalType": "address",
          "name": "token1",
          "type": "address"
        },
        {
          "indexed": false,
          "internalType": "uint256",
          "name": "price",
          "type": "uint256"
        },
        {
          "indexed": false,
          "internalType": "uint256",
          "name": "timestamp",
          "type": "uint256"
        }
      ],
      "name": "PriceUpdated",
      "type": "event"
    },
    {
      "inputs": [
        {
          "internalType": "address",
          "name": "updater",
          "type": "address"
        }
      ],
      "name": "addAuthorizedUpdater",
      "outputs": [],
      "stateMutability": "nonpayable",
      "type": "function"
    },
    {
      "inputs": [
        {
          "internalType": "address",
          "name": "",
          "type": "address"
        }
      ],
      "name": "authorizedUpdaters",
      "outputs": [
        {
          "internalType": "bool",
          "name": "",
          "type": "bool"
        }
      ],
      "stateMutability": "view",
      "type": "function"
    },
    {
      "inputs": [
        {
          "internalType": "uint256",
          "name": "reserve0",
          "type": "uint256"
        },
        {
          "internalType": "uint256",
          "name": "reserve1",
          "type": "uint256"
        },
        {
          "internalType": "uint256",
          "name": "decimals0",
          "type": "uint256"
        },
        {
          "internalType": "uint256",
          "name": "decimals1",
          "type": "uint256"
        }
      ],
      "name": "calculatePriceFromReserves",
      "outputs": [
        {
          "internalType": "uint256",
          "name": "",
          "type": "uint256"
        }
      ],
      "stateMutability": "pure",
      "type": "function"
    },
    {
      "inputs": [
        {
          "internalType": "address",
          "name": "token0",
          "type": "address"
        },
        {
          "internalType": "address",
          "name": "token1",
          "type": "address"
        }
      ],
      "name": "getPrice",
      "outputs": [
        {
          "internalType": "uint256",
          "name": "",
          "type": "uint256"
        }
      ],
      "stateMutability": "view",
      "type": "function"
    },
    {
      "inputs": [
        {
          "internalType": "address",
          "name": "token0",
          "type": "address"
        },
        {
          "internalType": "address",
          "name": "token1",
          "type": "address"
        }
      ],
      "name": "getPriceData",
      "outputs": [
        {
          "components": [
            {
              "internalType": "uint256",
              "name": "price",
              "type": "uint256"
            },
            {
              "internalType": "uint256",
              "name": "timestamp",
              "type": "uint256"
            },
            {
              "internalType": "uint256",
              "name": "blockNumber",
              "type": "uint256"
            }
          ],
          "internalType": "struct PriceOracle.PriceData",
          "name": "",
          "type": "tuple"
        }
      ],
      "stateMutability": "view",
      "type": "function"
    },
    {
      "inputs": [
        {
          "internalType": "address",
          "name": "",
          "type": "address"
        },
        {
          "internalType": "address",
          "name": "",
          "type": "address"
        }
      ],
      "name": "prices",
      "outputs": [
        {
          "internalType": "uint256",
          "name": "price",
          "type": "uint256"
        },
        {
          "internalType": "uint256",
          "name": "timestamp",
          "type": "uint256"
        },
        {
          "internalType": "uint256",
          "name": "blockNumber",
          "type": "uint256"
        }
      ],
      "stateMutability": "view",
      "type": "function"
    },
    {
      "inputs": [
        {
          "internalType": "address",
          "name": "updater",
          "type": "address"
        }
      ],
      "name": "removeAuthorizedUpdater",
      "outputs": [],
      "stateMutability": "nonpayable",
      "type": "function"
    },
    {
      "inputs": [
        {
          "internalType": "address",
          "name": "token0",
          "type": "address"
        },
        {
          "internalType": "address",
          "name": "token1",
          "type": "address"
        },
        {
          "internalType": "uint256",
          "name": "price",
          "type": "uint256"
        }
      ],
      "name": "updatePrice",
      "outputs": [],
      "stateMutability": "nonpayable",
      "type": "function"
    }
  ],
  "bytecode": "0x60808060405234602e573360005260016020526040600020600160ff198254161790556105e690816100348239f35b600080fdfe6080604052600436101561001257600080fd5b60003560e01c80631f31240414610436578063603cda09146103e25780638c23d57b1461032f5780638c9b9fdc146102d55780638fbb2a90146101ce5780638ff29cfe1461018f578063ac41865a146101275763fcf362a51461007457600080fd5b3461012257604036600319011261012257606060406100916104a1565b6100996104b7565b906000836100a561057a565b8281526020810183905201526001600160a01b03908116906100cb908316821415610541565b60005260006020528160002060009160018060a01b03168252602052206100f061057a565b815491828252604060026001830154926020850193845201549201918252604051928352516020830152516040820152f35b600080fd5b34610122576040366003190112610122576101406104a1565b6101486104b7565b906001600160a01b0390811690610163908316821415610541565b600052600060205260406000209060018060a01b03166000526020526020604060002054604051908152f35b34610122576020366003190112610122576001600160a01b036101b06104a1565b166000526001602052602060ff604060002054166040519015158152f35b34610122576060366003190112610122576101e76104a1565b6101ef6104b7565b6044359033600052600160205261020d60ff604060002054166104cd565b6001600160a01b0390811692169061022782841415610541565b80156102a05760407f1c9890ff47aa52a490371b4421aeeef1bb9bbca0a7ab9944550f4b6c4d0880cb9161025961057a565b8181526002602082014281528483019043825287600052600060205285806000206000908b82526020522093518455516001840155519101558151908152426020820152a3005b60405162461bcd60e51b815260206004820152600d60248201526c496e76616c696420707269636560981b6044820152606490fd5b34610122576020366003190112610122576102ee6104a1565b33600052600160205261030860ff604060002054166104cd565b6001600160a01b03166000908152600160208190526040909120805460ff19169091179055005b3461012257608036600319011261012257600435602435811515806103d9575b156103a15761036c6103789161036660443561050a565b9061052e565b9161036660643561050a565b90811561038b5760209160405191048152f35b634e487b7160e01b600052601260045260246000fd5b60405162461bcd60e51b815260206004820152601060248201526f496e76616c696420726573657276657360801b6044820152606490fd5b5080151561034f565b34610122576020366003190112610122576103fb6104a1565b33600052600160205261041560ff604060002054166104cd565b6001600160a01b03166000908152600160205260409020805460ff19169055005b3461012257604036600319011261012257606060406104536104a1565b61045b6104b7565b9060018060a01b031660005260006020528160002060009160018060a01b0316825260205220805490600260018201549101549060405192835260208301526040820152f35b600435906001600160a01b038216820361012257565b602435906001600160a01b038216820361012257565b156104d457565b60405162461bcd60e51b815260206004820152600e60248201526d139bdd08185d5d1a1bdc9a5e995960921b6044820152606490fd5b604d811161051857600a0a90565b634e487b7160e01b600052601160045260246000fd5b8181029291811591840414171561051857565b1561054857565b60405162461bcd60e51b815260206004820152600a60248201526929b0b6b2903a37b5b2b760b11b6044820152606490fd5b604051906060820182811067ffffffffffffffff82111761059a57604052565b634e487b7160e01b600052604160045260246000fdfea26469706673582212200bbeaa29c8b505cecd8582a02138b0c60b422c6b96b9d53cfbbf3067693162ef64736f6c634300081c0033",
  "linkReferences": {},
  "deployedLinkReferences": {}
}