{
  "_format": "hh-sol-artifact-1",
  "contractName": "CreatePool",
  "sourceName": "contracts/CreatePool.sol",
  "abi": [
    {
      "inputs": [
        {
          "internalType": "address",
          "name": "_poolManager",
          "type": "address"
        }
      ],
      "stateMutability": "nonpayable",
      "type": "constructor"
    },
    {
      "inputs": [
        {
          "internalType": "address",
          "name": "tokenA",
          "type": "address"
        },
        {
          "internalType": "address",
          "name": "tokenB",
          "type": "address"
        },
        {
          "internalType": "uint24",
          "name": "fee",
          "type": "uint24"
        },
        {
          "internalType": "int24",
          "name": "tickSpacing",
          "type": "int24"
        },
        {
          "internalType": "uint160",
          "name": "sqrtPriceX96",
          "type": "uint160"
        }
      ],
      "name": "createPool",
      "outputs": [
        {
          "internalType": "bytes32",
          "name": "poolId",
          "type": "bytes32"
        }
      ],
      "stateMutability": "nonpayable",
      "type": "function"
    },
    {
      "inputs": [],
      "name": "poolManager",
      "outputs": [
        {
          "internalType": "contract IPoolManager",
          "name": "",
          "type": "address"
        }
      ],
      "stateMutability": "view",
      "type": "function"
    }
  ],
  "bytecode": "0x608034607057601f61073338819003918201601f19168301916001600160401b03831184841017607557808492602094604052833981010312607057516001600160a01b03811690819003607057600080546001600160a01b0319169190911790556040516106a7908161008c8239f35b600080fd5b634e487b7160e01b600052604160045260246000fdfe608080604052600436101561001357600080fd5b60003560e01c90816321fb350614610063575063dc4c90d31461003557600080fd5b3461005e57600036600319011261005e576000546040516001600160a01b039091168152602090f35b600080fd5b3461005e5760a036600319011261005e576004356001600160a01b0381169182820361005e57602435926001600160a01b03841680850361005e576044359462ffffff861680960361005e57606435918260020b80930361005e576084356001600160a01b038116949085900361005e571094851561053e5780955b156105365750905b6000546348028ecf60e01b85526001600160a01b039586166004860181905292861660248601819052604486018890526064860183905295169493602081608481895afa90811561052a576000916104e1575b506001600160a01b031661049c5760209460a4936000926040519889978896630cbfcfef60e21b8852600488015260248701526044860152606485015260848401525af160009181610468575b5061045d57600060033d1161044b575b6308c379a0146103c8575b3d156103c1573d6101b281610644565b906101c06040519283610545565b81523d6000602083013e5b60408051916101da8284610545565b601083526f181899199a1a9b1b9c1cb0b131b232b360811b602084015280518060011b90808204600214901517156103255760020190816002116103255761023961022483610644565b9261023185519485610545565b808452610644565b602083019390601f19013685378251156103ab57603084538251600110156103ab576078602184015360005b825181101561033b576001600160f81b031961029460ff600f6102888588610660565b5160fc1c161688610660565b51168160011b908282046002148315171561032557816002019081600211610325576102c49060001a9187610660565b536001600160f81b03196102e8600f6102dd8588610660565b5160f81c1689610660565b5116600091600301918260031161031157600193929161030a911a9187610660565b5301610265565b634e487b7160e01b81526011600452602490fd5b634e487b7160e01b600052601160045260246000fd5b6103a761038083610391603e888a84519586927f437265617465506f6f6c3a206c6f772d6c6576656c206572726f72202d2000006020850152518092858501906105f5565b81010301601f198101845283610545565b5162461bcd60e51b815291829160048301610618565b0390fd5b634e487b7160e01b600052603260045260246000fd5b60606101cb565b6103d061057d565b806103db57506101a2565b6103a790610433603c60405180937f437265617465506f6f6c3a2072657665727420726561736f6e202d2000000000602083015261042281518092602086860191016105f5565b81010301601f198101835282610545565b60405162461bcd60e51b815291829160048301610618565b5060046000803e60005160e01c610197565b602090604051908152f35b9091506020813d602011610494575b8161048460209383610545565b8101031261005e57519082610187565b3d9150610477565b60405162461bcd60e51b815260206004820152601f60248201527f437265617465506f6f6c3a20506f6f6c20616c726561647920657869737473006044820152606490fd5b6020813d602011610522575b816104fa60209383610545565b8101031261051e5751906001600160a01b038216820361051b57508761013a565b80fd5b5080fd5b3d91506104ed565b6040513d6000823e3d90fd5b9050906100e7565b81956100df565b90601f8019910116810190811067ffffffffffffffff82111761056757604052565b634e487b7160e01b600052604160045260246000fd5b600060443d106105e4576040513d600319016004823e8051913d602484011167ffffffffffffffff8411176105ef578282019283519167ffffffffffffffff83116105e7573d840160031901858401602001116105e757506105e492910160200190610545565b90565b949350505050565b92915050565b60005b8381106106085750506000910152565b81810151838201526020016105f8565b6040916020825261063881518092816020860152602086860191016105f5565b601f01601f1916010190565b67ffffffffffffffff811161056757601f01601f191660200190565b9081518110156103ab57016020019056fea264697066735822122015782409ed48656410e094df4277687600a269dfe74a48901217ebae59d682bc64736f6c634300081c0033",
  "linkReferences": {},
  "deployedLinkReferences": {}
}