{
  "_format": "hh-sol-artifact-1",
  "contractName": "Transactions",
  "sourceName": "contracts/Transactions.sol",
  "abi": [
    {
      "inputs": [],
      "name": "ReentrancyGuardReentrantCall",
      "type": "error"
    },
    {
      "anonymous": false,
      "inputs": [
        {
          "indexed": true,
          "internalType": "address",
          "name": "sender",
          "type": "address"
        },
        {
          "indexed": true,
          "internalType": "address",
          "name": "receiver",
          "type": "address"
        },
        {
          "indexed": false,
          "internalType": "uint256",
          "name": "value",
          "type": "uint256"
        },
        {
          "indexed": false,
          "internalType": "uint256",
          "name": "timestamp",
          "type": "uint256"
        },
        {
          "indexed": false,
          "internalType": "enum Transactions.TransactionState",
          "name": "state",
          "type": "uint8"
        }
      ],
      "name": "Transfer",
      "type": "event"
    },
    {
      "inputs": [],
      "name": "getMyTransactionCount",
      "outputs": [
        {
          "internalType": "uint256",
          "name": "",
          "type": "uint256"
        }
      ],
      "stateMutability": "view",
      "type": "function"
    },
    {
      "inputs": [
        {
          "internalType": "uint256",
          "name": "start",
          "type": "uint256"
        },
        {
          "internalType": "uint256",
          "name": "count",
          "type": "uint256"
        }
      ],
      "name": "getMyTransactions",
      "outputs": [
        {
          "components": [
            {
              "internalType": "address",
              "name": "sender",
              "type": "address"
            },
            {
              "internalType": "address",
              "name": "receiver",
              "type": "address"
            },
            {
              "internalType": "uint256",
              "name": "value",
              "type": "uint256"
            },
            {
              "internalType": "uint256",
              "name": "timestamp",
              "type": "uint256"
            },
            {
              "internalType": "enum Transactions.TransactionState",
              "name": "state",
              "type": "uint8"
            }
          ],
          "internalType": "struct Transactions.TransferStruct[]",
          "name": "",
          "type": "tuple[]"
        }
      ],
      "stateMutability": "view",
      "type": "function"
    },
    {
      "inputs": [
        {
          "internalType": "address payable",
          "name": "receiver",
          "type": "address"
        },
        {
          "internalType": "uint256",
          "name": "value",
          "type": "uint256"
        }
      ],
      "name": "makeTransaction",
      "outputs": [],
      "stateMutability": "payable",
      "type": "function"
    },
    {
      "inputs": [
        {
          "internalType": "address",
          "name": "",
          "type": "address"
        }
      ],
      "name": "pendingWithdrawals",
      "outputs": [
        {
          "internalType": "uint256",
          "name": "",
          "type": "uint256"
        }
      ],
      "stateMutability": "view",
      "type": "function"
    },
    {
      "inputs": [],
      "name": "withdrawFailed",
      "outputs": [],
      "stateMutability": "nonpayable",
      "type": "function"
    }
  ],
  "bytecode": "0x60808060405234601a5760016000556108a890816100208239f35b600080fdfe6080604052600436101561001257600080fd5b60003560e01c80633e39af53146104af57806367b2cd05146103e057806383a7dd03146103bd578063e6beded8146100965763f3f437031461005357600080fd5b34610091576020366003190112610091576004356001600160a01b038116908190036100915760005260026020526020604060002054604051908152f35b600080fd5b6040366003190112610091576004356001600160a01b03811690819003610091576024356100c2610850565b60008215610378576611c37937e08000821061032557662386f26fc1000082116102d457813403610284578080808486617530f16100fe6107c9565b501561024b5760015b61010f610707565b903382526020820191848352604081019284845260608201428152608083019461013985876107ae565b600154680100000000000000008110156102355780600161015d9201600155610765565b93909361021f57935183546001600160a01b03199081166001600160a01b03928316178555945160018501805490961691161790935591516002820155905160038083019190915592519260049190910190831015610209576101dc9260ff8019835416911617905560405192835242602084015260408301906106ed565b7fc35a7fce54223101e5dbbacdbc167cd5802bd5336afd19786eee986f7d04f52a60603392a36001600055005b634e487b7160e01b600052602160045260246000fd5b634e487b7160e01b600052600060045260246000fd5b634e487b7160e01b600052604160045260246000fd5b600260008080808533617530f16102606107c9565b50610107573360005280602052604060002061027d8382546106fa565b9055610107565b60405162461bcd60e51b815260206004820152602260248201527f6d73672e76616c7565206d75737420657175616c20746f2076616c75652073656044820152611b9d60f21b6064820152608490fd5b60405162461bcd60e51b815260206004820152602360248201527f56616c7565206d75737420626520736d616c6c6572207468616e20302e30312060448201526208aa8960eb1b6064820152608490fd5b60405162461bcd60e51b815260206004820152602560248201527f56616c7565206d7573742062652067726561746572207468616e20302e303034604482015264072408aa8960db1b6064820152608490fd5b60405162461bcd60e51b815260206004820152601860248201527f496e76616c6964207265636569766572206164647265737300000000000000006044820152606490fd5b346100915760003660031901126100915760206103d8610805565b604051908152f35b34610091576000366003190112610091576103f9610850565b3360005260026020526040600020548015610473576000808080933382526002602052816040812055335af161042d6107c9565b501561043a576001600055005b60405162461bcd60e51b815260206004820152601160248201527015da5d1a191c985dd85b0819985a5b1959607a1b6044820152606490fd5b60405162461bcd60e51b81526020600482015260146024820152734e6f2066756e647320746f20776974686472617760601b6044820152606490fd5b34610091576040366003190112610091576004356104cb610805565b90818110156106a8576104e0602435826106fa565b918083116106a0575b50810390811161068a576105046104ff8261074d565b610727565b90808252610514601f199161074d565b0160005b8181106106545782600080600154915b8281106105b4578360405180916020820160208352815180915260206040840192019060005b81811061055c575050500390f35b91935091602060a06001926105a6608088518680861b0381511684528680861b038682015116868501526040810151604085015260608101516060850152015160808301906106ed565b01940191019184939261054e565b6105bd81610765565b50546001600160a01b031633146105d7575b600101610528565b9061064c6001916105e784610765565b5061063160ff60046105f7610707565b845460a089901b899003908116825288860154166020820152600285015460408201526003850154606082015293015416608083016107ae565b61063b828861079a565b52610646818761079a565b506107ba565b9190506105cf565b60209061065f610707565b6000815260008382015260006040820152600060608201526000608082015282828601015201610518565b634e487b7160e01b600052601160045260246000fd5b9150826104e9565b60405162461bcd60e51b815260206004820152601960248201527f537461727420696e646578206f7574206f6620626f756e6473000000000000006044820152606490fd5b9060038210156102095752565b9190820180921161068a57565b6040519060a0820182811067ffffffffffffffff82111761023557604052565b6040519190601f01601f1916820167ffffffffffffffff81118382101761023557604052565b67ffffffffffffffff81116102355760051b60200190565b6001548110156107845760016000526005602060002091020190600090565b634e487b7160e01b600052603260045260246000fd5b80518210156107845760209160051b010190565b60038210156102095752565b600019811461068a5760010190565b3d15610800573d9067ffffffffffffffff8211610235576107f3601f8301601f1916602001610727565b9182523d6000602084013e565b606090565b600080600154905b81811061081957505090565b61082281610765565b50546001600160a01b0316331461083c575b60010161080d565b916108486001916107ba565b929050610834565b600260005414610861576002600055565b633ee5aeb560e01b60005260046000fdfea264697066735822122098348183efc63a14c320245f8f6d806d0d5d711f2482d5cec33087518504696564736f6c634300081c0033",
  "linkReferences": {},
  "deployedLinkReferences": {}
}