{
  "_format": "hh-sol-artifact-1",
  "contractName": "SimpleDEX",
  "sourceName": "contracts/SimpleDEX.sol",
  "abi": [
    {
      "anonymous": false,
      "inputs": [
        {
          "indexed": true,
          "internalType": "address",
          "name": "token0",
          "type": "address"
        },
        {
          "indexed": true,
          "internalType": "address",
          "name": "token1",
          "type": "address"
        },
        {
          "indexed": false,
          "internalType": "uint256",
          "name": "amount0",
          "type": "uint256"
        },
        {
          "indexed": false,
          "internalType": "uint256",
          "name": "amount1",
          "type": "uint256"
        },
        {
          "indexed": false,
          "internalType": "uint256",
          "name": "liquidity",
          "type": "uint256"
        },
        {
          "indexed": true,
          "internalType": "address",
          "name": "provider",
          "type": "address"
        }
      ],
      "name": "LiquidityAdded",
      "type": "event"
    },
    {
      "anonymous": false,
      "inputs": [
        {
          "indexed": true,
          "internalType": "address",
          "name": "token0",
          "type": "address"
        },
        {
          "indexed": true,
          "internalType": "address",
          "name": "token1",
          "type": "address"
        },
        {
          "indexed": false,
          "internalType": "uint256",
          "name": "amount0",
          "type": "uint256"
        },
        {
          "indexed": false,
          "internalType": "uint256",
          "name": "amount1",
          "type": "uint256"
        },
        {
          "indexed": false,
          "internalType": "uint256",
          "name": "liquidity",
          "type": "uint256"
        },
        {
          "indexed": true,
          "internalType": "address",
          "name": "provider",
          "type": "address"
        }
      ],
      "name": "LiquidityRemoved",
      "type": "event"
    },
    {
      "anonymous": false,
      "inputs": [
        {
          "indexed": true,
          "internalType": "address",
          "name": "tokenIn",
          "type": "address"
        },
        {
          "indexed": true,
          "internalType": "address",
          "name": "tokenOut",
          "type": "address"
        },
        {
          "indexed": false,
          "internalType": "uint256",
          "name": "amountIn",
          "type": "uint256"
        },
        {
          "indexed": false,
          "internalType": "uint256",
          "name": "amountOut",
          "type": "uint256"
        },
        {
          "indexed": true,
          "internalType": "address",
          "name": "trader",
          "type": "address"
        }
      ],
      "name": "Swap",
      "type": "event"
    },
    {
      "inputs": [],
      "name": "FEE_DENOMINATOR",
      "outputs": [
        {
          "internalType": "uint256",
          "name": "",
          "type": "uint256"
        }
      ],
      "stateMutability": "view",
      "type": "function"
    },
    {
      "inputs": [],
      "name": "SWAP_FEE",
      "outputs": [
        {
          "internalType": "uint256",
          "name": "",
          "type": "uint256"
        }
      ],
      "stateMutability": "view",
      "type": "function"
    },
    {
      "inputs": [
        {
          "internalType": "address",
          "name": "token0",
          "type": "address"
        },
        {
          "internalType": "address",
          "name": "token1",
          "type": "address"
        },
        {
          "internalType": "uint256",
          "name": "amount0Desired",
          "type": "uint256"
        },
        {
          "internalType": "uint256",
          "name": "amount1Desired",
          "type": "uint256"
        }
      ],
      "name": "addLiquidity",
      "outputs": [
        {
          "internalType": "uint256",
          "name": "liquidity",
          "type": "uint256"
        }
      ],
      "stateMutability": "nonpayable",
      "type": "function"
    },
    {
      "inputs": [
        {
          "internalType": "address",
          "name": "token0",
          "type": "address"
        },
        {
          "internalType": "address",
          "name": "token1",
          "type": "address"
        },
        {
          "internalType": "address",
          "name": "user",
          "type": "address"
        }
      ],
      "name": "getBalance",
      "outputs": [
        {
          "internalType": "uint256",
          "name": "",
          "type": "uint256"
        }
      ],
      "stateMutability": "view",
      "type": "function"
    },
    {
      "inputs": [
        {
          "internalType": "address",
          "name": "token0",
          "type": "address"
        },
        {
          "internalType": "address",
          "name": "token1",
          "type": "address"
        }
      ],
      "name": "getLiquidity",
      "outputs": [
        {
          "internalType": "uint256",
          "name": "",
          "type": "uint256"
        }
      ],
      "stateMutability": "view",
      "type": "function"
    },
    {
      "inputs": [
        {
          "internalType": "address",
          "name": "token0",
          "type": "address"
        },
        {
          "internalType": "address",
          "name": "token1",
          "type": "address"
        }
      ],
      "name": "getPrice",
      "outputs": [
        {
          "internalType": "uint256",
          "name": "",
          "type": "uint256"
        }
      ],
      "stateMutability": "view",
      "type": "function"
    },
    {
      "inputs": [
        {
          "internalType": "address",
          "name": "token0",
          "type": "address"
        },
        {
          "internalType": "address",
          "name": "token1",
          "type": "address"
        }
      ],
      "name": "getReserves",
      "outputs": [
        {
          "internalType": "uint256",
          "name": "reserve0",
          "type": "uint256"
        },
        {
          "internalType": "uint256",
          "name": "reserve1",
          "type": "uint256"
        }
      ],
      "stateMutability": "view",
      "type": "function"
    },
    {
      "inputs": [
        {
          "internalType": "address",
          "name": "",
          "type": "address"
        },
        {
          "internalType": "address",
          "name": "",
          "type": "address"
        }
      ],
      "name": "pools",
      "outputs": [
        {
          "internalType": "uint256",
          "name": "reserve0",
          "type": "uint256"
        },
        {
          "internalType": "uint256",
          "name": "reserve1",
          "type": "uint256"
        },
        {
          "internalType": "uint256",
          "name": "totalSupply",
          "type": "uint256"
        }
      ],
      "stateMutability": "view",
      "type": "function"
    },
    {
      "inputs": [
        {
          "internalType": "address",
          "name": "token0",
          "type": "address"
        },
        {
          "internalType": "address",
          "name": "token1",
          "type": "address"
        },
        {
          "internalType": "uint256",
          "name": "liquidity",
          "type": "uint256"
        }
      ],
      "name": "removeLiquidity",
      "outputs": [
        {
          "internalType": "uint256",
          "name": "amount0",
          "type": "uint256"
        },
        {
          "internalType": "uint256",
          "name": "amount1",
          "type": "uint256"
        }
      ],
      "stateMutability": "nonpayable",
      "type": "function"
    },
    {
      "inputs": [
        {
          "internalType": "address",
          "name": "tokenIn",
          "type": "address"
        },
        {
          "internalType": "address",
          "name": "tokenOut",
          "type": "address"
        },
        {
          "internalType": "uint256",
          "name": "amountIn",
          "type": "uint256"
        }
      ],
      "name": "swap",
      "outputs": [
        {
          "internalType": "uint256",
          "name": "amountOut",
          "type": "uint256"
        }
      ],
      "stateMutability": "nonpayable",
      "type": "function"
    },
    {
      "inputs": [
        {
          "internalType": "address",
          "name": "tokenIn",
          "type": "address"
        },
        {
          "internalType": "address",
          "name": "tokenOut",
          "type": "address"
        },
        {
          "internalType": "uint256",
          "name": "amountIn",
          "type": "uint256"
        }
      ],
      "name": "swapExactTokensForTokens",
      "outputs": [
        {
          "internalType": "uint256",
          "name": "amountOut",
          "type": "uint256"
        }
      ],
      "stateMutability": "nonpayable",
      "type": "function"
    },
    {
      "inputs": [
        {
          "internalType": "address",
          "name": "tokenIn",
          "type": "address"
        },
        {
          "internalType": "address",
          "name": "tokenOut",
          "type": "address"
        },
        {
          "internalType": "uint256",
          "name": "amountOut",
          "type": "uint256"
        }
      ],
      "name": "swapTokensForExactTokens",
      "outputs": [
        {
          "internalType": "uint256",
          "name": "amountIn",
          "type": "uint256"
        }
      ],
      "stateMutability": "nonpayable",
      "type": "function"
    }
  ],
  "bytecode": "0x60808060405234601557611056908161001b8239f35b600080fdfe6080604052600436101561001257600080fd5b60003560e01c80634b916e6714610880578063768aebde14610864578063901754d7146107f8578063ac41865a146107c4578063bdedcbc014610113578063cf6c62ea146104c9578063d52bb6f41461044f578063d6bd603c146103b3578063d73792a914610396578063d752fab214610118578063df791e50146101135763ea526de7146100a057600080fd5b3461010e57604036600319011261010e576100b9610a6f565b6100c1610a85565b906001600160a01b038083169082161015610108575b6001600160a01b03908116600090815260208181526040808320949093168252928352819020600201549051908152f35b906100d7565b600080fd5b610ad5565b3461010e5761012636610a9b565b90916001600160a01b0380841690821661014281831415610cdc565b61014d841515610f72565b1015610390575b6001600160a01b039081166000818152602081815260408083209487168352938152838220338352600381019182905293909120549194929390929091821161034b576101a2845483610e63565b60028501946101b386548093610e76565b956101cc60018301936101c7855488610e63565b610e76565b9587151580610342575b6101df90610f72565b60018060a01b03331660005260205260406000206101fe868254610fbe565b905561020b858254610fbe565b9055610218868254610fbe565b9055610225848254610fbe565b905560405163a9059cbb60e01b81523360048201526024810185905260208160448160008a5af1801561031957610325575b5060405163a9059cbb60e01b815233600482015260248101849052946001600160a01b0391909116906020866044816000865af1958615610319576040966102ec575b507faa29d8bbadb22be3bb6dbe493ae8a0f5b6bba22ed4da0ab6c4808bab559de8358651806102dd3396888a846040919493926060820195825260208201520152565b0390a482519182526020820152f35b61030d9060203d602011610312575b6103058183610dfb565b810190610e33565b61029a565b503d6102fb565b6040513d6000823e3d90fd5b61033d9060203d602011610312576103058183610dfb565b610257565b508615156101d6565b60405162461bcd60e51b815260206004820152601e60248201527f494e53554646494349454e545f4c49515549444954595f42414c414e434500006044820152606490fd5b91610154565b3461010e57600036600319011261010e5760206040516103e88152f35b3461010e57606036600319011261010e576103cc610a6f565b6103d4610a85565b604435906001600160a01b038216820361010e576003926001600160a01b038281169082161015610449575b60018060a01b0316600052600060205260406000209060018060a01b031660005260205260406000209060018060a01b0316600052016020526020604060002054604051908152f35b90610400565b3461010e57604036600319011261010e57610468610a6f565b610470610a85565b906001600160a01b0380831690821610156104c3575b60018060a01b0316600052600060205260406000209060018060a01b03166000526020526040806000206001815491015482519182526020820152f35b90610486565b3461010e57608036600319011261010e576104e2610a6f565b6104ea610a85565b6064356044356001600160a01b0383811690851661050a81831415610cdc565b821515806107bb575b61051c90610daf565b109384156107b55792935b156107af5790915b6001600160a01b03908116600081815260208181526040808320948816835293815283822093516323b872dd60e01b815233600482015230602482015260448101869052939692939182906064908290875af1801561031957610792575b506040516323b872dd60e01b8152336004820152306024820152604481018590526001600160a01b039190911691906020816064816000875af1801561031957610775575b50600285018054959086610731576105ea8686610e63565b600060038211156107235750808060011c6001810180911161070d57905b8282106106ee5750505b955b86156106a957600383889361066a8560209c6106528c7fa7c0bc175494aac705fdccdb501213f94fb9a6f1dd9be0b3488298cb2dc160889a54610f65565b855560018501610663888254610f65565b9055610f65565b905533600090815291018952604090208054610687908490610f65565b90556040805196875260208701919091528501523393606090a4604051908152f35b60405162461bcd60e51b815260206004820152601d60248201527f494e53554646494349454e545f4c49515549444954595f4d494e5445440000006044820152606490fd5b909150610704826106ff8184610e76565b610f65565b60011c90610608565b634e487b7160e01b600052601160045260246000fd5b901561061257506001610612565b61074661073e8887610e63565b835490610e76565b61075e6107538989610e63565b600185015490610e76565b8082101561076e57505b95610614565b9050610768565b61078d9060203d602011610312576103058183610dfb565b6105d2565b6107aa9060203d602011610312576103058183610dfb565b61058d565b9161052f565b93610527565b50831515610513565b3461010e57604036600319011261010e5760206107f06107e2610a6f565b6107ea610a85565b90610e96565b604051908152f35b3461010e57604036600319011261010e576040610813610a6f565b61081b610a85565b6001600160a01b03918216600090815260208181528482209290931681529082529190912080546001820154600290920154604080519283529382019290925291820152606090f35b3461010e57600036600319011261010e57602060405160038152f35b3461010e5761088e36610a9b565b6001600160a01b0383811693908316906108aa85831415610cdc565b6108b5831515610d1e565b8185108015610a6657604085835b60018060a01b031660005260006020528160002060009160018060a01b031682526020522090815480151580610a59575b6108fd90610d6a565b8115610a4b5761090d8682610e63565b906103e88202918083046103e8149015171561070d576109409215610a42575061093a6001840154610e4b565b90610e76565b946001860180961161070d57610957861515610daf565b6040516323b872dd60e01b8152336004820152306024820152604481018790529260208460648160008c5af19384156103195761099b94610a25575b508587610fcb565b60405163a9059cbb60e01b815233600482015260248101839052936020856044816000865af194851561031957602095610a0a575b5060405192848452858401527fb39c9bc43f811e1a7ce159c5f147458fdb80266bf23c17322013316e27e086d060403394a4604051908152f35b610a2090863d8811610312576103058183610dfb565b6109d0565b610a3d9060203d602011610312576103058183610dfb565b610993565b61093a90610e4b565b61090d866001850154610e63565b50600183015415156108f4565b604082866108c3565b600435906001600160a01b038216820361010e57565b602435906001600160a01b038216820361010e57565b606090600319011261010e576004356001600160a01b038116810361010e57906024356001600160a01b038116810361010e579060443590565b3461010e57610ae336610a9b565b6001600160a01b03808416939290811690600090610b0386841415610cdc565b610b0e841515610daf565b8286108015610cd55781865b60018060a01b0316845283602052604084209060018060a01b0316845260205260408320928354151580610cc8575b610b5290610d6a565b6040516323b872dd60e01b815233600482015230602482015260448101879052602081606481858d5af18015610cbd57610ca0575b50610b9186610e4b565b908215610c9657610ba760018601545b83610e63565b9215610c8b578454905b6103e88202918083046103e81490151715610c7757509161093a610bda92610bed969594610f65565b95610be6871515610d1e565b8686610fcb565b60405163a9059cbb60e01b815233600482015260248101849052936020856044816000865af194851561031957602095610c5c575b5060405192835283858401527fb39c9bc43f811e1a7ce159c5f147458fdb80266bf23c17322013316e27e086d060403394a4604051908152f35b610c7290863d8811610312576103058183610dfb565b610c22565b634e487b7160e01b81526011600452602490fd5b600185015490610bb1565b610ba78554610ba1565b610cb89060203d602011610312576103058183610dfb565b610b87565b6040513d84823e3d90fd5b5060018401541515610b49565b8582610b1a565b15610ce357565b60405162461bcd60e51b81526020600482015260136024820152724944454e544943414c5f41444452455353455360681b6044820152606490fd5b15610d2557565b60405162461bcd60e51b815260206004820152601a60248201527f494e53554646494349454e545f4f55545055545f414d4f554e540000000000006044820152606490fd5b15610d7157565b60405162461bcd60e51b8152602060048201526016602482015275494e53554646494349454e545f4c495155494449545960501b6044820152606490fd5b15610db657565b60405162461bcd60e51b815260206004820152601960248201527f494e53554646494349454e545f494e5055545f414d4f554e54000000000000006044820152606490fd5b90601f8019910116810190811067ffffffffffffffff821117610e1d57604052565b634e487b7160e01b600052604160045260246000fd5b9081602091031261010e5751801515810361010e5790565b906103e58202918083046103e5149015171561070d57565b8181029291811591840414171561070d57565b8115610e80570490565b634e487b7160e01b600052601260045260246000fd5b6001600160a01b0380831690821610916040918315610f5f575b6001600160a01b03908116600090815260208181528482209390921681529190522080549091811590818015610f53575b610f4a5715610f1e5750906001015490670de0b6b3a7640000820291808304670de0b6b3a7640000149015171561070d57610f1b91610e76565b90565b670de0b6b3a76400008202918204670de0b6b3a764000014171561070d576001610f1b92015490610e76565b50505050600090565b50600184015415610ee1565b90610eb0565b9190820180921161070d57565b15610f7957565b60405162461bcd60e51b815260206004820152601d60248201527f494e53554646494349454e545f4c49515549444954595f4255524e45440000006044820152606490fd5b9190820391821161070d57565b90939290916001600160a01b03918216911610156110035781610ff4600192610fff9454610f65565b815501918254610fbe565b9055565b9181611015600192610fff9454610fbe565b815501918254610f6556fea2646970667358221220d2470ffc1f9de4c6d7a675ea8f30f5936a67099b904349376e4b40f2b556857364736f6c634300081c0033",
  "linkReferences": {},
  "deployedLinkReferences": {}
}