{
  "_format": "hh-sol-artifact-1",
  "contractName": "SimpleDEX",
  "sourceName": "contracts/SimpleDEX.sol",
  "abi": [
    {
      "anonymous": false,
      "inputs": [
        {
          "indexed": true,
          "internalType": "address",
          "name": "token0",
          "type": "address"
        },
        {
          "indexed": true,
          "internalType": "address",
          "name": "token1",
          "type": "address"
        },
        {
          "indexed": false,
          "internalType": "uint256",
          "name": "amount0",
          "type": "uint256"
        },
        {
          "indexed": false,
          "internalType": "uint256",
          "name": "amount1",
          "type": "uint256"
        },
        {
          "indexed": false,
          "internalType": "uint256",
          "name": "liquidity",
          "type": "uint256"
        },
        {
          "indexed": true,
          "internalType": "address",
          "name": "provider",
          "type": "address"
        }
      ],
      "name": "LiquidityAdded",
      "type": "event"
    },
    {
      "anonymous": false,
      "inputs": [
        {
          "indexed": true,
          "internalType": "address",
          "name": "token0",
          "type": "address"
        },
        {
          "indexed": true,
          "internalType": "address",
          "name": "token1",
          "type": "address"
        },
        {
          "indexed": false,
          "internalType": "uint256",
          "name": "amount0",
          "type": "uint256"
        },
        {
          "indexed": false,
          "internalType": "uint256",
          "name": "amount1",
          "type": "uint256"
        },
        {
          "indexed": false,
          "internalType": "uint256",
          "name": "liquidity",
          "type": "uint256"
        },
        {
          "indexed": true,
          "internalType": "address",
          "name": "provider",
          "type": "address"
        }
      ],
      "name": "LiquidityRemoved",
      "type": "event"
    },
    {
      "anonymous": false,
      "inputs": [
        {
          "indexed": true,
          "internalType": "address",
          "name": "tokenIn",
          "type": "address"
        },
        {
          "indexed": true,
          "internalType": "address",
          "name": "tokenOut",
          "type": "address"
        },
        {
          "indexed": false,
          "internalType": "uint256",
          "name": "amountIn",
          "type": "uint256"
        },
        {
          "indexed": false,
          "internalType": "uint256",
          "name": "amountOut",
          "type": "uint256"
        },
        {
          "indexed": true,
          "internalType": "address",
          "name": "trader",
          "type": "address"
        }
      ],
      "name": "Swap",
      "type": "event"
    },
    {
      "inputs": [],
      "name": "FEE_DENOMINATOR",
      "outputs": [
        {
          "internalType": "uint256",
          "name": "",
          "type": "uint256"
        }
      ],
      "stateMutability": "view",
      "type": "function"
    },
    {
      "inputs": [],
      "name": "SWAP_FEE",
      "outputs": [
        {
          "internalType": "uint256",
          "name": "",
          "type": "uint256"
        }
      ],
      "stateMutability": "view",
      "type": "function"
    },
    {
      "inputs": [
        {
          "internalType": "address",
          "name": "token0",
          "type": "address"
        },
        {
          "internalType": "address",
          "name": "token1",
          "type": "address"
        },
        {
          "internalType": "uint256",
          "name": "amount0Desired",
          "type": "uint256"
        },
        {
          "internalType": "uint256",
          "name": "amount1Desired",
          "type": "uint256"
        }
      ],
      "name": "addLiquidity",
      "outputs": [
        {
          "internalType": "uint256",
          "name": "liquidity",
          "type": "uint256"
        }
      ],
      "stateMutability": "nonpayable",
      "type": "function"
    },
    {
      "inputs": [
        {
          "internalType": "address",
          "name": "tokenIn",
          "type": "address"
        },
        {
          "internalType": "address",
          "name": "tokenOut",
          "type": "address"
        },
        {
          "internalType": "uint256",
          "name": "amountOut",
          "type": "uint256"
        }
      ],
      "name": "getAmountIn",
      "outputs": [
        {
          "internalType": "uint256",
          "name": "amountIn",
          "type": "uint256"
        }
      ],
      "stateMutability": "view",
      "type": "function"
    },
    {
      "inputs": [
        {
          "internalType": "address",
          "name": "tokenIn",
          "type": "address"
        },
        {
          "internalType": "address",
          "name": "tokenOut",
          "type": "address"
        },
        {
          "internalType": "uint256",
          "name": "amountIn",
          "type": "uint256"
        }
      ],
      "name": "getAmountOut",
      "outputs": [
        {
          "internalType": "uint256",
          "name": "amountOut",
          "type": "uint256"
        }
      ],
      "stateMutability": "view",
      "type": "function"
    },
    {
      "inputs": [
        {
          "internalType": "address",
          "name": "token0",
          "type": "address"
        },
        {
          "internalType": "address",
          "name": "token1",
          "type": "address"
        },
        {
          "internalType": "address",
          "name": "user",
          "type": "address"
        }
      ],
      "name": "getBalance",
      "outputs": [
        {
          "internalType": "uint256",
          "name": "",
          "type": "uint256"
        }
      ],
      "stateMutability": "view",
      "type": "function"
    },
    {
      "inputs": [
        {
          "internalType": "address",
          "name": "token0",
          "type": "address"
        },
        {
          "internalType": "address",
          "name": "token1",
          "type": "address"
        }
      ],
      "name": "getLiquidity",
      "outputs": [
        {
          "internalType": "uint256",
          "name": "",
          "type": "uint256"
        }
      ],
      "stateMutability": "view",
      "type": "function"
    },
    {
      "inputs": [
        {
          "internalType": "address",
          "name": "token0",
          "type": "address"
        },
        {
          "internalType": "address",
          "name": "token1",
          "type": "address"
        }
      ],
      "name": "getPoolInfo",
      "outputs": [
        {
          "internalType": "uint256",
          "name": "reserve0",
          "type": "uint256"
        },
        {
          "internalType": "uint256",
          "name": "reserve1",
          "type": "uint256"
        },
        {
          "internalType": "uint256",
          "name": "totalSupply",
          "type": "uint256"
        },
        {
          "internalType": "uint256",
          "name": "price0to1",
          "type": "uint256"
        },
        {
          "internalType": "uint256",
          "name": "price1to0",
          "type": "uint256"
        }
      ],
      "stateMutability": "view",
      "type": "function"
    },
    {
      "inputs": [
        {
          "internalType": "address",
          "name": "token0",
          "type": "address"
        },
        {
          "internalType": "address",
          "name": "token1",
          "type": "address"
        }
      ],
      "name": "getPrice",
      "outputs": [
        {
          "internalType": "uint256",
          "name": "",
          "type": "uint256"
        }
      ],
      "stateMutability": "view",
      "type": "function"
    },
    {
      "inputs": [
        {
          "internalType": "address",
          "name": "token0",
          "type": "address"
        },
        {
          "internalType": "address",
          "name": "token1",
          "type": "address"
        }
      ],
      "name": "getReserves",
      "outputs": [
        {
          "internalType": "uint256",
          "name": "reserve0",
          "type": "uint256"
        },
        {
          "internalType": "uint256",
          "name": "reserve1",
          "type": "uint256"
        }
      ],
      "stateMutability": "view",
      "type": "function"
    },
    {
      "inputs": [
        {
          "internalType": "address",
          "name": "",
          "type": "address"
        },
        {
          "internalType": "address",
          "name": "",
          "type": "address"
        }
      ],
      "name": "pools",
      "outputs": [
        {
          "internalType": "uint256",
          "name": "reserve0",
          "type": "uint256"
        },
        {
          "internalType": "uint256",
          "name": "reserve1",
          "type": "uint256"
        },
        {
          "internalType": "uint256",
          "name": "totalSupply",
          "type": "uint256"
        }
      ],
      "stateMutability": "view",
      "type": "function"
    },
    {
      "inputs": [
        {
          "internalType": "address",
          "name": "token0",
          "type": "address"
        },
        {
          "internalType": "address",
          "name": "token1",
          "type": "address"
        },
        {
          "internalType": "uint256",
          "name": "liquidity",
          "type": "uint256"
        }
      ],
      "name": "removeLiquidity",
      "outputs": [
        {
          "internalType": "uint256",
          "name": "amount0",
          "type": "uint256"
        },
        {
          "internalType": "uint256",
          "name": "amount1",
          "type": "uint256"
        }
      ],
      "stateMutability": "nonpayable",
      "type": "function"
    },
    {
      "inputs": [
        {
          "internalType": "address",
          "name": "tokenIn",
          "type": "address"
        },
        {
          "internalType": "address",
          "name": "tokenOut",
          "type": "address"
        },
        {
          "internalType": "uint256",
          "name": "amountIn",
          "type": "uint256"
        }
      ],
      "name": "swap",
      "outputs": [
        {
          "internalType": "uint256",
          "name": "amountOut",
          "type": "uint256"
        }
      ],
      "stateMutability": "nonpayable",
      "type": "function"
    },
    {
      "inputs": [
        {
          "internalType": "address",
          "name": "tokenIn",
          "type": "address"
        },
        {
          "internalType": "address",
          "name": "tokenOut",
          "type": "address"
        },
        {
          "internalType": "uint256",
          "name": "amountIn",
          "type": "uint256"
        }
      ],
      "name": "swapExactTokensForTokens",
      "outputs": [
        {
          "internalType": "uint256",
          "name": "amountOut",
          "type": "uint256"
        }
      ],
      "stateMutability": "nonpayable",
      "type": "function"
    },
    {
      "inputs": [
        {
          "internalType": "address",
          "name": "tokenIn",
          "type": "address"
        },
        {
          "internalType": "address",
          "name": "tokenOut",
          "type": "address"
        },
        {
          "internalType": "uint256",
          "name": "amountOut",
          "type": "uint256"
        }
      ],
      "name": "swapTokensForExactTokens",
      "outputs": [
        {
          "internalType": "uint256",
          "name": "amountIn",
          "type": "uint256"
        }
      ],
      "stateMutability": "nonpayable",
      "type": "function"
    }
  ],
  "bytecode": "0x608080604052346015576112de908161001b8239f35b600080fdfe6080604052600436101561001257600080fd5b60003560e01c8063486e51f414610b715780634aa0665214610ad15780634b916e671461094157806353b609b5146108a1578063768aebde14610885578063901754d714610819578063ac41865a146107e5578063bdedcbc014610134578063cf6c62ea146104ea578063d52bb6f414610470578063d6bd603c146103d4578063d73792a9146103b7578063d752fab214610139578063df791e50146101345763ea526de7146100c157600080fd5b3461012f57604036600319011261012f576100da610c7c565b6100e2610c92565b906001600160a01b038083169082161015610129575b6001600160a01b03908116600090815260208181526040808320949093168252928352819020600201549051908152f35b906100f8565b600080fd5b610ce2565b3461012f5761014736610ca8565b90916001600160a01b0380841690821661016381831415610ecf565b61016e84151561111a565b10156103b1575b6001600160a01b039081166000818152602081815260408083209487168352938152838220338352600381019182905293909120549194929390929091821161036c576101c3845483610e9c565b60028501946101d486548093610eaf565b956101ed60018301936101e8855488610e9c565b610eaf565b9587151580610363575b6102009061111a565b60018060a01b033316600052602052604060002061021f868254611166565b905561022c858254611166565b9055610239868254611166565b9055610246848254611166565b905560405163a9059cbb60e01b81523360048201526024810185905260208160448160008a5af1801561033a57610346575b5060405163a9059cbb60e01b815233600482015260248101849052946001600160a01b0391909116906020866044816000865af195861561033a5760409661030d575b507faa29d8bbadb22be3bb6dbe493ae8a0f5b6bba22ed4da0ab6c4808bab559de8358651806102fe3396888a846040919493926060820195825260208201520152565b0390a482519182526020820152f35b61032e9060203d602011610333575b6103268183610fee565b810190611026565b6102bb565b503d61031c565b6040513d6000823e3d90fd5b61035e9060203d602011610333576103268183610fee565b610278565b508615156101f7565b60405162461bcd60e51b815260206004820152601e60248201527f494e53554646494349454e545f4c49515549444954595f42414c414e434500006044820152606490fd5b91610175565b3461012f57600036600319011261012f5760206040516103e88152f35b3461012f57606036600319011261012f576103ed610c7c565b6103f5610c92565b604435906001600160a01b038216820361012f576003926001600160a01b03828116908216101561046a575b60018060a01b0316600052600060205260406000209060018060a01b031660005260205260406000209060018060a01b0316600052016020526020604060002054604051908152f35b90610421565b3461012f57604036600319011261012f57610489610c7c565b610491610c92565b906001600160a01b0380831690821610156104e4575b60018060a01b0316600052600060205260406000209060018060a01b03166000526020526040806000206001815491015482519182526020820152f35b906104a7565b3461012f57608036600319011261012f57610503610c7c565b61050b610c92565b6064356044356001600160a01b0383811690851661052b81831415610ecf565b821515806107dc575b61053d90610f11565b109384156107d65792935b156107d05790915b6001600160a01b03908116600081815260208181526040808320948816835293815283822093516323b872dd60e01b815233600482015230602482015260448101869052939692939182906064908290875af1801561033a576107b3575b506040516323b872dd60e01b8152336004820152306024820152604481018590526001600160a01b039190911691906020816064816000875af1801561033a57610796575b506002850180549590866107525761060b8686610e9c565b600060038211156107445750808060011c6001810180911161072e57905b82821061070f5750505b955b86156106ca57600383889361068b8560209c6106738c7fa7c0bc175494aac705fdccdb501213f94fb9a6f1dd9be0b3488298cb2dc160889a5461110d565b85556001850161068488825461110d565b905561110d565b9055336000908152910189526040902080546106a890849061110d565b90556040805196875260208701919091528501523393606090a4604051908152f35b60405162461bcd60e51b815260206004820152601d60248201527f494e53554646494349454e545f4c49515549444954595f4d494e5445440000006044820152606490fd5b909150610725826107208184610eaf565b61110d565b60011c90610629565b634e487b7160e01b600052601160045260246000fd5b901561063357506001610633565b61076761075f8887610e9c565b835490610eaf565b61077f6107748989610e9c565b600185015490610eaf565b8082101561078f57505b95610635565b9050610789565b6107ae9060203d602011610333576103268183610fee565b6105f3565b6107cb9060203d602011610333576103268183610fee565b6105ae565b91610550565b93610548565b50831515610534565b3461012f57604036600319011261012f576020610811610803610c7c565b61080b610c92565b9061103e565b604051908152f35b3461012f57604036600319011261012f576040610834610c7c565b61083c610c92565b6001600160a01b03918216600090815260208181528482209290931681529082529190912080546001820154600290920154604080519283529382019290925291820152606090f35b3461012f57600036600319011261012f57602060405160038152f35b3461012f5760206109206108b436610ca8565b916001600160a01b038281169082166108cf81831415610ecf565b6108da851515610fa2565b101561093857604082825b6001600160a01b03908116600090815280895283812092909116815290875220805490939015158061092b575b61091b90610f5d565b6111e7565b610811811515610f11565b5060018401541515610912565b604081836108e5565b3461012f5761094f36610ca8565b6001600160a01b03838116939083169061096b85831415610ecf565b610976831515610fa2565b81851015610ac857604084825b6001600160a01b0390811660009081526020818152848220939092168152919052208054151580610abb575b6109b890610f5d565b6109c4818684876111e7565b946109d0861515610f11565b6040516323b872dd60e01b8152336004820152306024820152604481018790529260208460648160008c5af193841561033a57610a1494610a9e575b508587611253565b60405163a9059cbb60e01b815233600482015260248101839052936020856044816000865af194851561033a57602095610a83575b5060405192848452858401527fb39c9bc43f811e1a7ce159c5f147458fdb80266bf23c17322013316e27e086d060403394a4604051908152f35b610a9990863d8811610333576103268183610fee565b610a49565b610ab69060203d602011610333576103268183610fee565b610a0c565b50600181015415156109af565b60408185610983565b3461012f576020610b50610ae436610ca8565b916001600160a01b03828116908216610aff81831415610ecf565b610b0a851515610f11565b1015610b6857604082825b6001600160a01b039081166000908152808952838120929091168152908752208054909390151580610b5b575b610b4b90610f5d565b611173565b610811811515610fa2565b5060018401541515610b42565b60408183610b15565b3461012f57604036600319011261012f57610b8a610c7c565b610b92610c92565b6000916001600160a01b038281169082161015610c76575b60018060a01b0316825281602052604082209060018060a01b031682526020526040812080549060026001820154910154821593841580610c6d575b15610c605750670de0b6b3a76400008202828104670de0b6b3a7640000148315171561072e5783610c1691610eaf565b90670de0b6b3a7640000840294848604670de0b6b3a764000014171561072e57610c428360a096610eaf565b925b6040519485526020850152604084015260608301526080820152f35b60a0945090600092610c44565b50821515610be6565b90610baa565b600435906001600160a01b038216820361012f57565b602435906001600160a01b038216820361012f57565b606090600319011261012f576004356001600160a01b038116810361012f57906024356001600160a01b038116810361012f579060443590565b3461012f57610cf036610ca8565b6000926001600160a01b038082169391929190811690610d1285831415610ecf565b610d1d831515610f11565b81851015610e7d5780845b60018060a01b0316875286602052604087209060018060a01b0316875260205260408620908154151580610e70575b610d6090610f5d565b6040516323b872dd60e01b8152336004820152306024820152604481018590526020816064818b8b5af18015610e6557610dbe949596979850610e48575b50610dab82828888611173565b95610db7871515610fa2565b8686611253565b60405163a9059cbb60e01b815233600482015260248101849052936020856044816000865af194851561033a57602095610e2d575b5060405192835283858401527fb39c9bc43f811e1a7ce159c5f147458fdb80266bf23c17322013316e27e086d060403394a4604051908152f35b610e4390863d8811610333576103268183610fee565b610df3565b610e609060203d602011610333576103268183610fee565b610d9e565b6040513d8a823e3d90fd5b5060018201541515610d57565b8381610d28565b906103e58202918083046103e5149015171561072e57565b8181029291811591840414171561072e57565b8115610eb9570490565b634e487b7160e01b600052601260045260246000fd5b15610ed657565b60405162461bcd60e51b81526020600482015260136024820152724944454e544943414c5f41444452455353455360681b6044820152606490fd5b15610f1857565b60405162461bcd60e51b815260206004820152601960248201527f494e53554646494349454e545f494e5055545f414d4f554e54000000000000006044820152606490fd5b15610f6457565b60405162461bcd60e51b8152602060048201526016602482015275494e53554646494349454e545f4c495155494449545960501b6044820152606490fd5b15610fa957565b60405162461bcd60e51b815260206004820152601a60248201527f494e53554646494349454e545f4f55545055545f414d4f554e540000000000006044820152606490fd5b90601f8019910116810190811067ffffffffffffffff82111761101057604052565b634e487b7160e01b600052604160045260246000fd5b9081602091031261012f5751801515810361012f5790565b6001600160a01b0380831690821610916040918315611107575b6001600160a01b039081166000908152602081815284822093909216815291905220805490918115908180156110fb575b6110f257156110c65750906001015490670de0b6b3a7640000820291808304670de0b6b3a7640000149015171561072e576110c391610eaf565b90565b670de0b6b3a76400008202918204670de0b6b3a764000014171561072e5760016110c392015490610eaf565b50505050600090565b50600184015415611089565b90611058565b9190820180921161072e57565b1561112157565b60405162461bcd60e51b815260206004820152601d60248201527f494e53554646494349454e545f4c49515549444954595f4255524e45440000006044820152606490fd5b9190820391821161072e57565b61117f90939293610e84565b926001600160a01b039081169116109081156111dd576111a460018201545b84610e9c565b91156111d457545b6103e88102908082046103e8149015171561072e576110c3926111ce9161110d565b90610eaf565b600101546111ac565b6111a4815461119e565b6001600160a01b03928316919092161090611209908215611249578354610e9c565b906103e88202918083046103e8149015171561072e57611235926111ce91156112435760010154610e84565b6001810180911161072e5790565b54610e84565b6001840154610e9c565b90939290916001600160a01b039182169116101561128b578161127c600192611287945461110d565b815501918254611166565b9055565b918161129d6001926112879454611166565b81550191825461110d56fea2646970667358221220ceef2d48df523cd3edec61d4cc02940d7d99c97c790c4f9bdf6f71fa365efe2964736f6c634300081c0033",
  "linkReferences": {},
  "deployedLinkReferences": {}
}