{
  "_format": "hh-sol-artifact-1",
  "contractName": "Transactions",
  "sourceName": "contracts/Transactions.sol",
  "abi": [
    {
      "inputs": [],
      "name": "ReentrancyGuardReentrantCall",
      "type": "error"
    },
    {
      "anonymous": false,
      "inputs": [
        {
          "indexed": true,
          "internalType": "address",
          "name": "sender",
          "type": "address"
        },
        {
          "indexed": true,
          "internalType": "address",
          "name": "receiver",
          "type": "address"
        },
        {
          "indexed": false,
          "internalType": "uint256",
          "name": "value",
          "type": "uint256"
        },
        {
          "indexed": false,
          "internalType": "uint256",
          "name": "timestamp",
          "type": "uint256"
        },
        {
          "indexed": false,
          "internalType": "enum Transactions.TransactionState",
          "name": "state",
          "type": "uint8"
        }
      ],
      "name": "Transfer",
      "type": "event"
    },
    {
      "inputs": [],
      "name": "getMyTransactionCount",
      "outputs": [
        {
          "internalType": "uint256",
          "name": "",
          "type": "uint256"
        }
      ],
      "stateMutability": "view",
      "type": "function"
    },
    {
      "inputs": [
        {
          "internalType": "uint256",
          "name": "start",
          "type": "uint256"
        },
        {
          "internalType": "uint256",
          "name": "count",
          "type": "uint256"
        }
      ],
      "name": "getMyTransactions",
      "outputs": [
        {
          "components": [
            {
              "internalType": "address",
              "name": "sender",
              "type": "address"
            },
            {
              "internalType": "address",
              "name": "receiver",
              "type": "address"
            },
            {
              "internalType": "uint256",
              "name": "value",
              "type": "uint256"
            },
            {
              "internalType": "uint256",
              "name": "timestamp",
              "type": "uint256"
            },
            {
              "internalType": "enum Transactions.TransactionState",
              "name": "state",
              "type": "uint8"
            }
          ],
          "internalType": "struct Transactions.TransferStruct[]",
          "name": "",
          "type": "tuple[]"
        }
      ],
      "stateMutability": "view",
      "type": "function"
    },
    {
      "inputs": [
        {
          "internalType": "address payable",
          "name": "receiver",
          "type": "address"
        },
        {
          "internalType": "uint256",
          "name": "value",
          "type": "uint256"
        }
      ],
      "name": "makeTransaction",
      "outputs": [],
      "stateMutability": "payable",
      "type": "function"
    },
    {
      "inputs": [
        {
          "internalType": "address",
          "name": "",
          "type": "address"
        }
      ],
      "name": "pendingWithdrawals",
      "outputs": [
        {
          "internalType": "uint256",
          "name": "",
          "type": "uint256"
        }
      ],
      "stateMutability": "view",
      "type": "function"
    },
    {
      "inputs": [],
      "name": "withdrawFailed",
      "outputs": [],
      "stateMutability": "nonpayable",
      "type": "function"
    }
  ],
  "bytecode": "0x6080604052348015600f57600080fd5b506001600081905550611477806100276000396000f3fe60806040526004361061004a5760003560e01c80633e39af531461004f57806367b2cd051461008c57806383a7dd03146100a3578063e6beded8146100ce578063f3f43703146100ea575b600080fd5b34801561005b57600080fd5b5061007660048036038101906100719190610bc0565b610127565b6040516100839190610dde565b60405180910390f35b34801561009857600080fd5b506100a16103f5565b005b3480156100af57600080fd5b506100b8610581565b6040516100c59190610e0f565b60405180910390f35b6100e860048036038101906100e39190610e68565b610634565b005b3480156100f657600080fd5b50610111600480360381019061010c9190610ed4565b610ab0565b60405161011e9190610e0f565b60405180910390f35b60606000610133610581565b9050808410610177576040517f08c379a000000000000000000000000000000000000000000000000000000000815260040161016e90610f5e565b60405180910390fd5b600083856101859190610fad565b905081811115610193578190505b600085826101a19190610fe1565b905060008167ffffffffffffffff8111156101bf576101be611015565b5b6040519080825280602002602001820160405280156101f857816020015b6101e5610b18565b8152602001906001900390816101dd5790505b5090506000805b6001805490508110156103e6573373ffffffffffffffffffffffffffffffffffffffff166001828154811061023757610236611044565b5b906000526020600020906005020160000160009054906101000a900473ffffffffffffffffffffffffffffffffffffffff1673ffffffffffffffffffffffffffffffffffffffff16036103d9576001818154811061029857610297611044565b5b90600052602060002090600502016040518060a00160405290816000820160009054906101000a900473ffffffffffffffffffffffffffffffffffffffff1673ffffffffffffffffffffffffffffffffffffffff1673ffffffffffffffffffffffffffffffffffffffff1681526020016001820160009054906101000a900473ffffffffffffffffffffffffffffffffffffffff1673ffffffffffffffffffffffffffffffffffffffff1673ffffffffffffffffffffffffffffffffffffffff16815260200160028201548152602001600382015481526020016004820160009054906101000a900460ff16600281111561039657610395610c7c565b5b60028111156103a8576103a7610c7c565b5b815250508383815181106103bf576103be611044565b5b602002602001018190525081806103d590611073565b9250505b80806001019150506101ff565b50819550505050505092915050565b6103fd610ac8565b6000600260003373ffffffffffffffffffffffffffffffffffffffff1673ffffffffffffffffffffffffffffffffffffffff16815260200190815260200160002054905060008111610484576040517f08c379a000000000000000000000000000000000000000000000000000000000815260040161047b90611107565b60405180910390fd5b6000600260003373ffffffffffffffffffffffffffffffffffffffff1673ffffffffffffffffffffffffffffffffffffffff1681526020019081526020016000208190555060003373ffffffffffffffffffffffffffffffffffffffff16826040516104ef90611158565b60006040518083038185875af1925050503d806000811461052c576040519150601f19603f3d011682016040523d82523d6000602084013e610531565b606091505b5050905080610575576040517f08c379a000000000000000000000000000000000000000000000000000000000815260040161056c906111b9565b60405180910390fd5b505061057f610b0e565b565b6000806000905060005b60018054905081101561062c573373ffffffffffffffffffffffffffffffffffffffff16600182815481106105c3576105c2611044565b5b906000526020600020906005020160000160009054906101000a900473ffffffffffffffffffffffffffffffffffffffff1673ffffffffffffffffffffffffffffffffffffffff160361061f57818061061b90611073565b9250505b808060010191505061058b565b508091505090565b61063c610ac8565b60008073ffffffffffffffffffffffffffffffffffffffff168373ffffffffffffffffffffffffffffffffffffffff16036106ac576040517f08c379a00000000000000000000000000000000000000000000000000000000081526004016106a390611225565b60405180910390fd5b6611c37937e080008210156106f6576040517f08c379a00000000000000000000000000000000000000000000000000000000081526004016106ed906112b7565b60405180910390fd5b662386f26fc10000821115610740576040517f08c379a000000000000000000000000000000000000000000000000000000000815260040161073790611349565b60405180910390fd5b813414610782576040517f08c379a0000000000000000000000000000000000000000000000000000000008152600401610779906113db565b60405180910390fd5b60008373ffffffffffffffffffffffffffffffffffffffff1683617530906040516107ac90611158565b600060405180830381858888f193505050503d80600081146107ea576040519150601f19603f3d011682016040523d82523d6000602084013e6107ef565b606091505b50509050801561080257600191506108d5565b6002915060003373ffffffffffffffffffffffffffffffffffffffff16846175309060405161083090611158565b600060405180830381858888f193505050503d806000811461086e576040519150601f19603f3d011682016040523d82523d6000602084013e610873565b606091505b50509050806108d35783600260003373ffffffffffffffffffffffffffffffffffffffff1673ffffffffffffffffffffffffffffffffffffffff16815260200190815260200160002060008282546108cb9190610fad565b925050819055505b505b60016040518060a001604052803373ffffffffffffffffffffffffffffffffffffffff1681526020018673ffffffffffffffffffffffffffffffffffffffff16815260200185815260200142815260200184600281111561093957610938610c7c565b5b815250908060018154018082558091505060019003906000526020600020906005020160009091909190915060008201518160000160006101000a81548173ffffffffffffffffffffffffffffffffffffffff021916908373ffffffffffffffffffffffffffffffffffffffff16021790555060208201518160010160006101000a81548173ffffffffffffffffffffffffffffffffffffffff021916908373ffffffffffffffffffffffffffffffffffffffff160217905550604082015181600201556060820151816003015560808201518160040160006101000a81548160ff02191690836002811115610a3257610a31610c7c565b5b021790555050508373ffffffffffffffffffffffffffffffffffffffff163373ffffffffffffffffffffffffffffffffffffffff167fc35a7fce54223101e5dbbacdbc167cd5802bd5336afd19786eee986f7d04f52a854286604051610a9a9392919061140a565b60405180910390a35050610aac610b0e565b5050565b60026020528060005260406000206000915090505481565b600260005403610b04576040517f3ee5aeb500000000000000000000000000000000000000000000000000000000815260040160405180910390fd5b6002600081905550565b6001600081905550565b6040518060a00160405280600073ffffffffffffffffffffffffffffffffffffffff168152602001600073ffffffffffffffffffffffffffffffffffffffff168152602001600081526020016000815260200160006002811115610b7f57610b7e610c7c565b5b81525090565b600080fd5b6000819050919050565b610b9d81610b8a565b8114610ba857600080fd5b50565b600081359050610bba81610b94565b92915050565b60008060408385031215610bd757610bd6610b85565b5b6000610be585828601610bab565b9250506020610bf685828601610bab565b9150509250929050565b600081519050919050565b600082825260208201905092915050565b6000819050602082019050919050565b600073ffffffffffffffffffffffffffffffffffffffff82169050919050565b6000610c5782610c2c565b9050919050565b610c6781610c4c565b82525050565b610c7681610b8a565b82525050565b7f4e487b7100000000000000000000000000000000000000000000000000000000600052602160045260246000fd5b60038110610cbc57610cbb610c7c565b5b50565b6000819050610ccd82610cab565b919050565b6000610cdd82610cbf565b9050919050565b610ced81610cd2565b82525050565b60a082016000820151610d096000850182610c5e565b506020820151610d1c6020850182610c5e565b506040820151610d2f6040850182610c6d565b506060820151610d426060850182610c6d565b506080820151610d556080850182610ce4565b50505050565b6000610d678383610cf3565b60a08301905092915050565b6000602082019050919050565b6000610d8b82610c00565b610d958185610c0b565b9350610da083610c1c565b8060005b83811015610dd1578151610db88882610d5b565b9750610dc383610d73565b925050600181019050610da4565b5085935050505092915050565b60006020820190508181036000830152610df88184610d80565b905092915050565b610e0981610b8a565b82525050565b6000602082019050610e246000830184610e00565b92915050565b6000610e3582610c2c565b9050919050565b610e4581610e2a565b8114610e5057600080fd5b50565b600081359050610e6281610e3c565b92915050565b60008060408385031215610e7f57610e7e610b85565b5b6000610e8d85828601610e53565b9250506020610e9e85828601610bab565b9150509250929050565b610eb181610c4c565b8114610ebc57600080fd5b50565b600081359050610ece81610ea8565b92915050565b600060208284031215610eea57610ee9610b85565b5b6000610ef884828501610ebf565b91505092915050565b600082825260208201905092915050565b7f537461727420696e646578206f7574206f6620626f756e647300000000000000600082015250565b6000610f48601983610f01565b9150610f5382610f12565b602082019050919050565b60006020820190508181036000830152610f7781610f3b565b9050919050565b7f4e487b7100000000000000000000000000000000000000000000000000000000600052601160045260246000fd5b6000610fb882610b8a565b9150610fc383610b8a565b9250828201905080821115610fdb57610fda610f7e565b5b92915050565b6000610fec82610b8a565b9150610ff783610b8a565b925082820390508181111561100f5761100e610f7e565b5b92915050565b7f4e487b7100000000000000000000000000000000000000000000000000000000600052604160045260246000fd5b7f4e487b7100000000000000000000000000000000000000000000000000000000600052603260045260246000fd5b600061107e82610b8a565b91507fffffffffffffffffffffffffffffffffffffffffffffffffffffffffffffffff82036110b0576110af610f7e565b5b600182019050919050565b7f4e6f2066756e647320746f207769746864726177000000000000000000000000600082015250565b60006110f1601483610f01565b91506110fc826110bb565b602082019050919050565b60006020820190508181036000830152611120816110e4565b9050919050565b600081905092915050565b50565b6000611142600083611127565b915061114d82611132565b600082019050919050565b600061116382611135565b9150819050919050565b7f5769746864726177616c206661696c6564000000000000000000000000000000600082015250565b60006111a3601183610f01565b91506111ae8261116d565b602082019050919050565b600060208201905081810360008301526111d281611196565b9050919050565b7f496e76616c696420726563656976657220616464726573730000000000000000600082015250565b600061120f601883610f01565b915061121a826111d9565b602082019050919050565b6000602082019050818103600083015261123e81611202565b9050919050565b7f56616c7565206d7573742062652067726561746572207468616e20302e30303460008201527f3920455448000000000000000000000000000000000000000000000000000000602082015250565b60006112a1602583610f01565b91506112ac82611245565b604082019050919050565b600060208201905081810360008301526112d081611294565b9050919050565b7f56616c7565206d75737420626520736d616c6c6572207468616e20302e30312060008201527f4554480000000000000000000000000000000000000000000000000000000000602082015250565b6000611333602383610f01565b915061133e826112d7565b604082019050919050565b6000602082019050818103600083015261136281611326565b9050919050565b7f6d73672e76616c7565206d75737420657175616c20746f2076616c756520736560008201527f6e74000000000000000000000000000000000000000000000000000000000000602082015250565b60006113c5602283610f01565b91506113d082611369565b604082019050919050565b600060208201905081810360008301526113f4816113b8565b9050919050565b61140481610cd2565b82525050565b600060608201905061141f6000830186610e00565b61142c6020830185610e00565b61143960408301846113fb565b94935050505056fea2646970667358221220d5f877ac6abf14f23eb62ec901355a97f35e20ee90ad95f691688b9feca84ed264736f6c634300081c0033",
  "linkReferences": {},
  "deployedLinkReferences": {}
}