{"contracts/Transactions.sol":{"Transactions":{"abi":[{"inputs":[],"name":"ReentrancyGuardReentrantCall","type":"error"},{"anonymous":false,"inputs":[{"indexed":true,"internalType":"address","name":"sender","type":"address"},{"indexed":true,"internalType":"address","name":"receiver","type":"address"},{"indexed":false,"internalType":"uint256","name":"value","type":"uint256"},{"indexed":false,"internalType":"uint256","name":"timestamp","type":"uint256"},{"indexed":false,"internalType":"enum Transactions.TransactionState","name":"state","type":"uint8"}],"name":"Transfer","type":"event"},{"inputs":[],"name":"getMyTransactionCount","outputs":[{"internalType":"uint256","name":"","type":"uint256"}],"stateMutability":"view","type":"function"},{"inputs":[{"internalType":"uint256","name":"start","type":"uint256"},{"internalType":"uint256","name":"count","type":"uint256"}],"name":"getMyTransactions","outputs":[{"components":[{"internalType":"address","name":"sender","type":"address"},{"internalType":"address","name":"receiver","type":"address"},{"internalType":"uint256","name":"value","type":"uint256"},{"internalType":"uint256","name":"timestamp","type":"uint256"},{"internalType":"enum Transactions.TransactionState","name":"state","type":"uint8"}],"internalType":"struct Transactions.TransferStruct[]","name":"","type":"tuple[]"}],"stateMutability":"view","type":"function"},{"inputs":[{"internalType":"address payable","name":"receiver","type":"address"},{"internalType":"uint256","name":"value","type":"uint256"}],"name":"makeTransaction","outputs":[],"stateMutability":"payable","type":"function"},{"inputs":[{"internalType":"address","name":"","type":"address"}],"name":"pendingWithdrawals","outputs":[{"internalType":"uint256","name":"","type":"uint256"}],"stateMutability":"view","type":"function"},{"inputs":[],"name":"withdrawFailed","outputs":[],"stateMutability":"nonpayable","type":"function"}],"evm":{"bytecode":{"linkReferences":{},"object":"60808060405234601a5760016000556108a890816100208239f35b600080fdfe6080604052600436101561001257600080fd5b60003560e01c80633e39af53146104af57806367b2cd05146103e057806383a7dd03146103bd578063e6beded8146100965763f3f437031461005357600080fd5b34610091576020366003190112610091576004356001600160a01b038116908190036100915760005260026020526020604060002054604051908152f35b600080fd5b6040366003190112610091576004356001600160a01b03811690819003610091576024356100c2610850565b60008215610378576611c37937e08000821061032557662386f26fc1000082116102d457813403610284578080808486617530f16100fe6107c9565b501561024b5760015b61010f610707565b903382526020820191848352604081019284845260608201428152608083019461013985876107ae565b600154680100000000000000008110156102355780600161015d9201600155610765565b93909361021f57935183546001600160a01b03199081166001600160a01b03928316178555945160018501805490961691161790935591516002820155905160038083019190915592519260049190910190831015610209576101dc9260ff8019835416911617905560405192835242602084015260408301906106ed565b7fc35a7fce54223101e5dbbacdbc167cd5802bd5336afd19786eee986f7d04f52a60603392a36001600055005b634e487b7160e01b600052602160045260246000fd5b634e487b7160e01b600052600060045260246000fd5b634e487b7160e01b600052604160045260246000fd5b600260008080808533617530f16102606107c9565b50610107573360005280602052604060002061027d8382546106fa565b9055610107565b60405162461bcd60e51b815260206004820152602260248201527f6d73672e76616c7565206d75737420657175616c20746f2076616c75652073656044820152611b9d60f21b6064820152608490fd5b60405162461bcd60e51b815260206004820152602360248201527f56616c7565206d75737420626520736d616c6c6572207468616e20302e30312060448201526208aa8960eb1b6064820152608490fd5b60405162461bcd60e51b815260206004820152602560248201527f56616c7565206d7573742062652067726561746572207468616e20302e303034604482015264072408aa8960db1b6064820152608490fd5b60405162461bcd60e51b815260206004820152601860248201527f496e76616c6964207265636569766572206164647265737300000000000000006044820152606490fd5b346100915760003660031901126100915760206103d8610805565b604051908152f35b34610091576000366003190112610091576103f9610850565b3360005260026020526040600020548015610473576000808080933382526002602052816040812055335af161042d6107c9565b501561043a576001600055005b60405162461bcd60e51b815260206004820152601160248201527015da5d1a191c985dd85b0819985a5b1959607a1b6044820152606490fd5b60405162461bcd60e51b81526020600482015260146024820152734e6f2066756e647320746f20776974686472617760601b6044820152606490fd5b34610091576040366003190112610091576004356104cb610805565b90818110156106a8576104e0602435826106fa565b918083116106a0575b50810390811161068a576105046104ff8261074d565b610727565b90808252610514601f199161074d565b0160005b8181106106545782600080600154915b8281106105b4578360405180916020820160208352815180915260206040840192019060005b81811061055c575050500390f35b91935091602060a06001926105a6608088518680861b0381511684528680861b038682015116868501526040810151604085015260608101516060850152015160808301906106ed565b01940191019184939261054e565b6105bd81610765565b50546001600160a01b031633146105d7575b600101610528565b9061064c6001916105e784610765565b5061063160ff60046105f7610707565b845460a089901b899003908116825288860154166020820152600285015460408201526003850154606082015293015416608083016107ae565b61063b828861079a565b52610646818761079a565b506107ba565b9190506105cf565b60209061065f610707565b6000815260008382015260006040820152600060608201526000608082015282828601015201610518565b634e487b7160e01b600052601160045260246000fd5b9150826104e9565b60405162461bcd60e51b815260206004820152601960248201527f537461727420696e646578206f7574206f6620626f756e6473000000000000006044820152606490fd5b9060038210156102095752565b9190820180921161068a57565b6040519060a0820182811067ffffffffffffffff82111761023557604052565b6040519190601f01601f1916820167ffffffffffffffff81118382101761023557604052565b67ffffffffffffffff81116102355760051b60200190565b6001548110156107845760016000526005602060002091020190600090565b634e487b7160e01b600052603260045260246000fd5b80518210156107845760209160051b010190565b60038210156102095752565b600019811461068a5760010190565b3d15610800573d9067ffffffffffffffff8211610235576107f3601f8301601f1916602001610727565b9182523d6000602084013e565b606090565b600080600154905b81811061081957505090565b61082281610765565b50546001600160a01b0316331461083c575b60010161080d565b916108486001916107ba565b929050610834565b600260005414610861576002600055565b633ee5aeb560e01b60005260046000fdfea264697066735822122098348183efc63a14c320245f8f6d806d0d5d711f2482d5cec33087518504696564736f6c634300081c0033","opcodes":"PUSH1 0x80 DUP1 PUSH1 0x40 MSTORE CALLVALUE PUSH1 0x1A JUMPI PUSH1 0x1 PUSH1 0x0 SSTORE PUSH2 0x8A8 SWAP1 DUP2 PUSH2 0x20 DUP3 CODECOPY RETURN JUMPDEST PUSH1 0x0 DUP1 REVERT INVALID PUSH1 0x80 PUSH1 0x40 MSTORE PUSH1 0x4 CALLDATASIZE LT ISZERO PUSH2 0x12 JUMPI PUSH1 0x0 DUP1 REVERT JUMPDEST PUSH1 0x0 CALLDATALOAD PUSH1 0xE0 SHR DUP1 PUSH4 0x3E39AF53 EQ PUSH2 0x4AF JUMPI DUP1 PUSH4 0x67B2CD05 EQ PUSH2 0x3E0 JUMPI DUP1 PUSH4 0x83A7DD03 EQ PUSH2 0x3BD JUMPI DUP1 PUSH4 0xE6BEDED8 EQ PUSH2 0x96 JUMPI PUSH4 0xF3F43703 EQ PUSH2 0x53 JUMPI PUSH1 0x0 DUP1 REVERT JUMPDEST CALLVALUE PUSH2 0x91 JUMPI PUSH1 0x20 CALLDATASIZE PUSH1 0x3 NOT ADD SLT PUSH2 0x91 JUMPI PUSH1 0x4 CALLDATALOAD PUSH1 0x1 PUSH1 0x1 PUSH1 0xA0 SHL SUB DUP2 AND SWAP1 DUP2 SWAP1 SUB PUSH2 0x91 JUMPI PUSH1 0x0 MSTORE PUSH1 0x2 PUSH1 0x20 MSTORE PUSH1 0x20 PUSH1 0x40 PUSH1 0x0 KECCAK256 SLOAD PUSH1 0x40 MLOAD SWAP1 DUP2 MSTORE RETURN JUMPDEST PUSH1 0x0 DUP1 REVERT JUMPDEST PUSH1 0x40 CALLDATASIZE PUSH1 0x3 NOT ADD SLT PUSH2 0x91 JUMPI PUSH1 0x4 CALLDATALOAD PUSH1 0x1 PUSH1 0x1 PUSH1 0xA0 SHL SUB DUP2 AND SWAP1 DUP2 SWAP1 SUB PUSH2 0x91 JUMPI PUSH1 0x24 CALLDATALOAD PUSH2 0xC2 PUSH2 0x850 JUMP JUMPDEST PUSH1 0x0 DUP3 ISZERO PUSH2 0x378 JUMPI PUSH7 0x11C37937E08000 DUP3 LT PUSH2 0x325 JUMPI PUSH7 0x2386F26FC10000 DUP3 GT PUSH2 0x2D4 JUMPI DUP2 CALLVALUE SUB PUSH2 0x284 JUMPI DUP1 DUP1 DUP1 DUP5 DUP7 PUSH2 0x7530 CALL PUSH2 0xFE PUSH2 0x7C9 JUMP JUMPDEST POP ISZERO PUSH2 0x24B JUMPI PUSH1 0x1 JUMPDEST PUSH2 0x10F PUSH2 0x707 JUMP JUMPDEST SWAP1 CALLER DUP3 MSTORE PUSH1 0x20 DUP3 ADD SWAP2 DUP5 DUP4 MSTORE PUSH1 0x40 DUP2 ADD SWAP3 DUP5 DUP5 MSTORE PUSH1 0x60 DUP3 ADD TIMESTAMP DUP2 MSTORE PUSH1 0x80 DUP4 ADD SWAP5 PUSH2 0x139 DUP6 DUP8 PUSH2 0x7AE JUMP JUMPDEST PUSH1 0x1 SLOAD PUSH9 0x10000000000000000 DUP2 LT ISZERO PUSH2 0x235 JUMPI DUP1 PUSH1 0x1 PUSH2 0x15D SWAP3 ADD PUSH1 0x1 SSTORE PUSH2 0x765 JUMP JUMPDEST SWAP4 SWAP1 SWAP4 PUSH2 0x21F JUMPI SWAP4 MLOAD DUP4 SLOAD PUSH1 0x1 PUSH1 0x1 PUSH1 0xA0 SHL SUB NOT SWAP1 DUP2 AND PUSH1 0x1 PUSH1 0x1 PUSH1 0xA0 SHL SUB SWAP3 DUP4 AND OR DUP6 SSTORE SWAP5 MLOAD PUSH1 0x1 DUP6 ADD DUP1 SLOAD SWAP1 SWAP7 AND SWAP2 AND OR SWAP1 SWAP4 SSTORE SWAP2 MLOAD PUSH1 0x2 DUP3 ADD SSTORE SWAP1 MLOAD PUSH1 0x3 DUP1 DUP4 ADD SWAP2 SWAP1 SWAP2 SSTORE SWAP3 MLOAD SWAP3 PUSH1 0x4 SWAP2 SWAP1 SWAP2 ADD SWAP1 DUP4 LT ISZERO PUSH2 0x209 JUMPI PUSH2 0x1DC SWAP3 PUSH1 0xFF DUP1 NOT DUP4 SLOAD AND SWAP2 AND OR SWAP1 SSTORE PUSH1 0x40 MLOAD SWAP3 DUP4 MSTORE TIMESTAMP PUSH1 0x20 DUP5 ADD MSTORE PUSH1 0x40 DUP4 ADD SWAP1 PUSH2 0x6ED JUMP JUMPDEST PUSH32 0xC35A7FCE54223101E5DBBACDBC167CD5802BD5336AFD19786EEE986F7D04F52A PUSH1 0x60 CALLER SWAP3 LOG3 PUSH1 0x1 PUSH1 0x0 SSTORE STOP JUMPDEST PUSH4 0x4E487B71 PUSH1 0xE0 SHL PUSH1 0x0 MSTORE PUSH1 0x21 PUSH1 0x4 MSTORE PUSH1 0x24 PUSH1 0x0 REVERT JUMPDEST PUSH4 0x4E487B71 PUSH1 0xE0 SHL PUSH1 0x0 MSTORE PUSH1 0x0 PUSH1 0x4 MSTORE PUSH1 0x24 PUSH1 0x0 REVERT JUMPDEST PUSH4 0x4E487B71 PUSH1 0xE0 SHL PUSH1 0x0 MSTORE PUSH1 0x41 PUSH1 0x4 MSTORE PUSH1 0x24 PUSH1 0x0 REVERT JUMPDEST PUSH1 0x2 PUSH1 0x0 DUP1 DUP1 DUP1 DUP6 CALLER PUSH2 0x7530 CALL PUSH2 0x260 PUSH2 0x7C9 JUMP JUMPDEST POP PUSH2 0x107 JUMPI CALLER PUSH1 0x0 MSTORE DUP1 PUSH1 0x20 MSTORE PUSH1 0x40 PUSH1 0x0 KECCAK256 PUSH2 0x27D DUP4 DUP3 SLOAD PUSH2 0x6FA JUMP JUMPDEST SWAP1 SSTORE PUSH2 0x107 JUMP JUMPDEST PUSH1 0x40 MLOAD PUSH3 0x461BCD PUSH1 0xE5 SHL DUP2 MSTORE PUSH1 0x20 PUSH1 0x4 DUP3 ADD MSTORE PUSH1 0x22 PUSH1 0x24 DUP3 ADD MSTORE PUSH32 0x6D73672E76616C7565206D75737420657175616C20746F2076616C7565207365 PUSH1 0x44 DUP3 ADD MSTORE PUSH2 0x1B9D PUSH1 0xF2 SHL PUSH1 0x64 DUP3 ADD MSTORE PUSH1 0x84 SWAP1 REVERT JUMPDEST PUSH1 0x40 MLOAD PUSH3 0x461BCD PUSH1 0xE5 SHL DUP2 MSTORE PUSH1 0x20 PUSH1 0x4 DUP3 ADD MSTORE PUSH1 0x23 PUSH1 0x24 DUP3 ADD MSTORE PUSH32 0x56616C7565206D75737420626520736D616C6C6572207468616E20302E303120 PUSH1 0x44 DUP3 ADD MSTORE PUSH3 0x8AA89 PUSH1 0xEB SHL PUSH1 0x64 DUP3 ADD MSTORE PUSH1 0x84 SWAP1 REVERT JUMPDEST PUSH1 0x40 MLOAD PUSH3 0x461BCD PUSH1 0xE5 SHL DUP2 MSTORE PUSH1 0x20 PUSH1 0x4 DUP3 ADD MSTORE PUSH1 0x25 PUSH1 0x24 DUP3 ADD MSTORE PUSH32 0x56616C7565206D7573742062652067726561746572207468616E20302E303034 PUSH1 0x44 DUP3 ADD MSTORE PUSH5 0x72408AA89 PUSH1 0xDB SHL PUSH1 0x64 DUP3 ADD MSTORE PUSH1 0x84 SWAP1 REVERT JUMPDEST PUSH1 0x40 MLOAD PUSH3 0x461BCD PUSH1 0xE5 SHL DUP2 MSTORE PUSH1 0x20 PUSH1 0x4 DUP3 ADD MSTORE PUSH1 0x18 PUSH1 0x24 DUP3 ADD MSTORE PUSH32 0x496E76616C696420726563656976657220616464726573730000000000000000 PUSH1 0x44 DUP3 ADD MSTORE PUSH1 0x64 SWAP1 REVERT JUMPDEST CALLVALUE PUSH2 0x91 JUMPI PUSH1 0x0 CALLDATASIZE PUSH1 0x3 NOT ADD SLT PUSH2 0x91 JUMPI PUSH1 0x20 PUSH2 0x3D8 PUSH2 0x805 JUMP JUMPDEST PUSH1 0x40 MLOAD SWAP1 DUP2 MSTORE RETURN JUMPDEST CALLVALUE PUSH2 0x91 JUMPI PUSH1 0x0 CALLDATASIZE PUSH1 0x3 NOT ADD SLT PUSH2 0x91 JUMPI PUSH2 0x3F9 PUSH2 0x850 JUMP JUMPDEST CALLER PUSH1 0x0 MSTORE PUSH1 0x2 PUSH1 0x20 MSTORE PUSH1 0x40 PUSH1 0x0 KECCAK256 SLOAD DUP1 ISZERO PUSH2 0x473 JUMPI PUSH1 0x0 DUP1 DUP1 DUP1 SWAP4 CALLER DUP3 MSTORE PUSH1 0x2 PUSH1 0x20 MSTORE DUP2 PUSH1 0x40 DUP2 KECCAK256 SSTORE CALLER GAS CALL PUSH2 0x42D PUSH2 0x7C9 JUMP JUMPDEST POP ISZERO PUSH2 0x43A JUMPI PUSH1 0x1 PUSH1 0x0 SSTORE STOP JUMPDEST PUSH1 0x40 MLOAD PUSH3 0x461BCD PUSH1 0xE5 SHL DUP2 MSTORE PUSH1 0x20 PUSH1 0x4 DUP3 ADD MSTORE PUSH1 0x11 PUSH1 0x24 DUP3 ADD MSTORE PUSH17 0x15DA5D1A191C985DD85B0819985A5B1959 PUSH1 0x7A SHL PUSH1 0x44 DUP3 ADD MSTORE PUSH1 0x64 SWAP1 REVERT JUMPDEST PUSH1 0x40 MLOAD PUSH3 0x461BCD PUSH1 0xE5 SHL DUP2 MSTORE PUSH1 0x20 PUSH1 0x4 DUP3 ADD MSTORE PUSH1 0x14 PUSH1 0x24 DUP3 ADD MSTORE PUSH20 0x4E6F2066756E647320746F207769746864726177 PUSH1 0x60 SHL PUSH1 0x44 DUP3 ADD MSTORE PUSH1 0x64 SWAP1 REVERT JUMPDEST CALLVALUE PUSH2 0x91 JUMPI PUSH1 0x40 CALLDATASIZE PUSH1 0x3 NOT ADD SLT PUSH2 0x91 JUMPI PUSH1 0x4 CALLDATALOAD PUSH2 0x4CB PUSH2 0x805 JUMP JUMPDEST SWAP1 DUP2 DUP2 LT ISZERO PUSH2 0x6A8 JUMPI PUSH2 0x4E0 PUSH1 0x24 CALLDATALOAD DUP3 PUSH2 0x6FA JUMP JUMPDEST SWAP2 DUP1 DUP4 GT PUSH2 0x6A0 JUMPI JUMPDEST POP DUP2 SUB SWAP1 DUP2 GT PUSH2 0x68A JUMPI PUSH2 0x504 PUSH2 0x4FF DUP3 PUSH2 0x74D JUMP JUMPDEST PUSH2 0x727 JUMP JUMPDEST SWAP1 DUP1 DUP3 MSTORE PUSH2 0x514 PUSH1 0x1F NOT SWAP2 PUSH2 0x74D JUMP JUMPDEST ADD PUSH1 0x0 JUMPDEST DUP2 DUP2 LT PUSH2 0x654 JUMPI DUP3 PUSH1 0x0 DUP1 PUSH1 0x1 SLOAD SWAP2 JUMPDEST DUP3 DUP2 LT PUSH2 0x5B4 JUMPI DUP4 PUSH1 0x40 MLOAD DUP1 SWAP2 PUSH1 0x20 DUP3 ADD PUSH1 0x20 DUP4 MSTORE DUP2 MLOAD DUP1 SWAP2 MSTORE PUSH1 0x20 PUSH1 0x40 DUP5 ADD SWAP3 ADD SWAP1 PUSH1 0x0 JUMPDEST DUP2 DUP2 LT PUSH2 0x55C JUMPI POP POP POP SUB SWAP1 RETURN JUMPDEST SWAP2 SWAP4 POP SWAP2 PUSH1 0x20 PUSH1 0xA0 PUSH1 0x1 SWAP3 PUSH2 0x5A6 PUSH1 0x80 DUP9 MLOAD DUP7 DUP1 DUP7 SHL SUB DUP2 MLOAD AND DUP5 MSTORE DUP7 DUP1 DUP7 SHL SUB DUP7 DUP3 ADD MLOAD AND DUP7 DUP6 ADD MSTORE PUSH1 0x40 DUP2 ADD MLOAD PUSH1 0x40 DUP6 ADD MSTORE PUSH1 0x60 DUP2 ADD MLOAD PUSH1 0x60 DUP6 ADD MSTORE ADD MLOAD PUSH1 0x80 DUP4 ADD SWAP1 PUSH2 0x6ED JUMP JUMPDEST ADD SWAP5 ADD SWAP2 ADD SWAP2 DUP5 SWAP4 SWAP3 PUSH2 0x54E JUMP JUMPDEST PUSH2 0x5BD DUP2 PUSH2 0x765 JUMP JUMPDEST POP SLOAD PUSH1 0x1 PUSH1 0x1 PUSH1 0xA0 SHL SUB AND CALLER EQ PUSH2 0x5D7 JUMPI JUMPDEST PUSH1 0x1 ADD PUSH2 0x528 JUMP JUMPDEST SWAP1 PUSH2 0x64C PUSH1 0x1 SWAP2 PUSH2 0x5E7 DUP5 PUSH2 0x765 JUMP JUMPDEST POP PUSH2 0x631 PUSH1 0xFF PUSH1 0x4 PUSH2 0x5F7 PUSH2 0x707 JUMP JUMPDEST DUP5 SLOAD PUSH1 0xA0 DUP10 SWAP1 SHL DUP10 SWAP1 SUB SWAP1 DUP2 AND DUP3 MSTORE DUP9 DUP7 ADD SLOAD AND PUSH1 0x20 DUP3 ADD MSTORE PUSH1 0x2 DUP6 ADD SLOAD PUSH1 0x40 DUP3 ADD MSTORE PUSH1 0x3 DUP6 ADD SLOAD PUSH1 0x60 DUP3 ADD MSTORE SWAP4 ADD SLOAD AND PUSH1 0x80 DUP4 ADD PUSH2 0x7AE JUMP JUMPDEST PUSH2 0x63B DUP3 DUP9 PUSH2 0x79A JUMP JUMPDEST MSTORE PUSH2 0x646 DUP2 DUP8 PUSH2 0x79A JUMP JUMPDEST POP PUSH2 0x7BA JUMP JUMPDEST SWAP2 SWAP1 POP PUSH2 0x5CF JUMP JUMPDEST PUSH1 0x20 SWAP1 PUSH2 0x65F PUSH2 0x707 JUMP JUMPDEST PUSH1 0x0 DUP2 MSTORE PUSH1 0x0 DUP4 DUP3 ADD MSTORE PUSH1 0x0 PUSH1 0x40 DUP3 ADD MSTORE PUSH1 0x0 PUSH1 0x60 DUP3 ADD MSTORE PUSH1 0x0 PUSH1 0x80 DUP3 ADD MSTORE DUP3 DUP3 DUP7 ADD ADD MSTORE ADD PUSH2 0x518 JUMP JUMPDEST PUSH4 0x4E487B71 PUSH1 0xE0 SHL PUSH1 0x0 MSTORE PUSH1 0x11 PUSH1 0x4 MSTORE PUSH1 0x24 PUSH1 0x0 REVERT JUMPDEST SWAP2 POP DUP3 PUSH2 0x4E9 JUMP JUMPDEST PUSH1 0x40 MLOAD PUSH3 0x461BCD PUSH1 0xE5 SHL DUP2 MSTORE PUSH1 0x20 PUSH1 0x4 DUP3 ADD MSTORE PUSH1 0x19 PUSH1 0x24 DUP3 ADD MSTORE PUSH32 0x537461727420696E646578206F7574206F6620626F756E647300000000000000 PUSH1 0x44 DUP3 ADD MSTORE PUSH1 0x64 SWAP1 REVERT JUMPDEST SWAP1 PUSH1 0x3 DUP3 LT ISZERO PUSH2 0x209 JUMPI MSTORE JUMP JUMPDEST SWAP2 SWAP1 DUP3 ADD DUP1 SWAP3 GT PUSH2 0x68A JUMPI JUMP JUMPDEST PUSH1 0x40 MLOAD SWAP1 PUSH1 0xA0 DUP3 ADD DUP3 DUP2 LT PUSH8 0xFFFFFFFFFFFFFFFF DUP3 GT OR PUSH2 0x235 JUMPI PUSH1 0x40 MSTORE JUMP JUMPDEST PUSH1 0x40 MLOAD SWAP2 SWAP1 PUSH1 0x1F ADD PUSH1 0x1F NOT AND DUP3 ADD PUSH8 0xFFFFFFFFFFFFFFFF DUP2 GT DUP4 DUP3 LT OR PUSH2 0x235 JUMPI PUSH1 0x40 MSTORE JUMP JUMPDEST PUSH8 0xFFFFFFFFFFFFFFFF DUP2 GT PUSH2 0x235 JUMPI PUSH1 0x5 SHL PUSH1 0x20 ADD SWAP1 JUMP JUMPDEST PUSH1 0x1 SLOAD DUP2 LT ISZERO PUSH2 0x784 JUMPI PUSH1 0x1 PUSH1 0x0 MSTORE PUSH1 0x5 PUSH1 0x20 PUSH1 0x0 KECCAK256 SWAP2 MUL ADD SWAP1 PUSH1 0x0 SWAP1 JUMP JUMPDEST PUSH4 0x4E487B71 PUSH1 0xE0 SHL PUSH1 0x0 MSTORE PUSH1 0x32 PUSH1 0x4 MSTORE PUSH1 0x24 PUSH1 0x0 REVERT JUMPDEST DUP1 MLOAD DUP3 LT ISZERO PUSH2 0x784 JUMPI PUSH1 0x20 SWAP2 PUSH1 0x5 SHL ADD ADD SWAP1 JUMP JUMPDEST PUSH1 0x3 DUP3 LT ISZERO PUSH2 0x209 JUMPI MSTORE JUMP JUMPDEST PUSH1 0x0 NOT DUP2 EQ PUSH2 0x68A JUMPI PUSH1 0x1 ADD SWAP1 JUMP JUMPDEST RETURNDATASIZE ISZERO PUSH2 0x800 JUMPI RETURNDATASIZE SWAP1 PUSH8 0xFFFFFFFFFFFFFFFF DUP3 GT PUSH2 0x235 JUMPI PUSH2 0x7F3 PUSH1 0x1F DUP4 ADD PUSH1 0x1F NOT AND PUSH1 0x20 ADD PUSH2 0x727 JUMP JUMPDEST SWAP2 DUP3 MSTORE RETURNDATASIZE PUSH1 0x0 PUSH1 0x20 DUP5 ADD RETURNDATACOPY JUMP JUMPDEST PUSH1 0x60 SWAP1 JUMP JUMPDEST PUSH1 0x0 DUP1 PUSH1 0x1 SLOAD SWAP1 JUMPDEST DUP2 DUP2 LT PUSH2 0x819 JUMPI POP POP SWAP1 JUMP JUMPDEST PUSH2 0x822 DUP2 PUSH2 0x765 JUMP JUMPDEST POP SLOAD PUSH1 0x1 PUSH1 0x1 PUSH1 0xA0 SHL SUB AND CALLER EQ PUSH2 0x83C JUMPI JUMPDEST PUSH1 0x1 ADD PUSH2 0x80D JUMP JUMPDEST SWAP2 PUSH2 0x848 PUSH1 0x1 SWAP2 PUSH2 0x7BA JUMP JUMPDEST SWAP3 SWAP1 POP PUSH2 0x834 JUMP JUMPDEST PUSH1 0x2 PUSH1 0x0 SLOAD EQ PUSH2 0x861 JUMPI PUSH1 0x2 PUSH1 0x0 SSTORE JUMP JUMPDEST PUSH4 0x3EE5AEB5 PUSH1 0xE0 SHL PUSH1 0x0 MSTORE PUSH1 0x4 PUSH1 0x0 REVERT INVALID LOG2 PUSH5 0x6970667358 0x22 SLT KECCAK256 SWAP9 CALLVALUE DUP2 DUP4 0xEF 0xC6 GASPRICE EQ 0xC3 KECCAK256 0x24 PUSH0 DUP16 PUSH14 0x806D0D5D711F2482D5CEC3308751 DUP6 DIV PUSH10 0x6564736F6C634300081C STOP CALLER "},"methodIdentifiers":{"getMyTransactionCount()":"83a7dd03","getMyTransactions(uint256,uint256)":"3e39af53","makeTransaction(address,uint256)":"e6beded8","pendingWithdrawals(address)":"f3f43703","withdrawFailed()":"67b2cd05"}}}}}