{"contracts/SwapDex.sol":{"SwapDex":{"abi":[{"anonymous":false,"inputs":[{"indexed":true,"internalType":"address","name":"token0","type":"address"},{"indexed":true,"internalType":"address","name":"token1","type":"address"},{"indexed":false,"internalType":"uint256","name":"amount0","type":"uint256"},{"indexed":false,"internalType":"uint256","name":"amount1","type":"uint256"},{"indexed":false,"internalType":"uint256","name":"liquidity","type":"uint256"},{"indexed":true,"internalType":"address","name":"provider","type":"address"}],"name":"LiquidityAdded","type":"event"},{"anonymous":false,"inputs":[{"indexed":true,"internalType":"address","name":"token0","type":"address"},{"indexed":true,"internalType":"address","name":"token1","type":"address"},{"indexed":false,"internalType":"uint256","name":"amount0","type":"uint256"},{"indexed":false,"internalType":"uint256","name":"amount1","type":"uint256"},{"indexed":false,"internalType":"uint256","name":"liquidity","type":"uint256"},{"indexed":true,"internalType":"address","name":"provider","type":"address"}],"name":"LiquidityRemoved","type":"event"},{"anonymous":false,"inputs":[{"indexed":true,"internalType":"address","name":"tokenIn","type":"address"},{"indexed":true,"internalType":"address","name":"tokenOut","type":"address"},{"indexed":false,"internalType":"uint256","name":"amountIn","type":"uint256"},{"indexed":false,"internalType":"uint256","name":"amountOut","type":"uint256"},{"indexed":true,"internalType":"address","name":"trader","type":"address"}],"name":"Swap","type":"event"},{"inputs":[],"name":"FEE_DENOMINATOR","outputs":[{"internalType":"uint256","name":"","type":"uint256"}],"stateMutability":"view","type":"function"},{"inputs":[],"name":"SWAP_FEE","outputs":[{"internalType":"uint256","name":"","type":"uint256"}],"stateMutability":"view","type":"function"},{"inputs":[{"internalType":"address","name":"token0","type":"address"},{"internalType":"address","name":"token1","type":"address"},{"internalType":"uint256","name":"amount0Desired","type":"uint256"},{"internalType":"uint256","name":"amount1Desired","type":"uint256"}],"name":"addLiquidity","outputs":[{"internalType":"uint256","name":"liquidity","type":"uint256"}],"stateMutability":"nonpayable","type":"function"},{"inputs":[{"internalType":"address","name":"user","type":"address"}],"name":"getAllUserSwapHistory","outputs":[{"components":[{"internalType":"address","name":"tokenIn","type":"address"},{"internalType":"address","name":"tokenOut","type":"address"},{"internalType":"uint256","name":"amountIn","type":"uint256"},{"internalType":"uint256","name":"amountOut","type":"uint256"},{"internalType":"uint256","name":"timestamp","type":"uint256"},{"internalType":"address","name":"trader","type":"address"},{"internalType":"uint256","name":"blockNumber","type":"uint256"}],"internalType":"struct SwapDex.SwapHistory[]","name":"","type":"tuple[]"}],"stateMutability":"view","type":"function"},{"inputs":[{"internalType":"address","name":"tokenIn","type":"address"},{"internalType":"address","name":"tokenOut","type":"address"},{"internalType":"uint256","name":"amountOut","type":"uint256"}],"name":"getAmountIn","outputs":[{"internalType":"uint256","name":"amountIn","type":"uint256"}],"stateMutability":"view","type":"function"},{"inputs":[{"internalType":"address","name":"tokenIn","type":"address"},{"internalType":"address","name":"tokenOut","type":"address"},{"internalType":"uint256","name":"amountIn","type":"uint256"}],"name":"getAmountOut","outputs":[{"internalType":"uint256","name":"amountOut","type":"uint256"}],"stateMutability":"view","type":"function"},{"inputs":[{"internalType":"address","name":"token0","type":"address"},{"internalType":"address","name":"token1","type":"address"},{"internalType":"address","name":"user","type":"address"}],"name":"getBalance","outputs":[{"internalType":"uint256","name":"","type":"uint256"}],"stateMutability":"view","type":"function"},{"inputs":[{"internalType":"address","name":"token0","type":"address"},{"internalType":"address","name":"token1","type":"address"}],"name":"getLiquidity","outputs":[{"internalType":"uint256","name":"","type":"uint256"}],"stateMutability":"view","type":"function"},{"inputs":[{"internalType":"address","name":"token0","type":"address"},{"internalType":"address","name":"token1","type":"address"}],"name":"getPoolInfo","outputs":[{"internalType":"uint256","name":"reserve0","type":"uint256"},{"internalType":"uint256","name":"reserve1","type":"uint256"},{"internalType":"uint256","name":"totalSupply","type":"uint256"},{"internalType":"uint256","name":"price0to1","type":"uint256"},{"internalType":"uint256","name":"price1to0","type":"uint256"}],"stateMutability":"view","type":"function"},{"inputs":[{"internalType":"address","name":"token0","type":"address"},{"internalType":"address","name":"token1","type":"address"}],"name":"getPrice","outputs":[{"internalType":"uint256","name":"","type":"uint256"}],"stateMutability":"view","type":"function"},{"inputs":[{"internalType":"address","name":"token0","type":"address"},{"internalType":"address","name":"token1","type":"address"}],"name":"getReserves","outputs":[{"internalType":"uint256","name":"reserve0","type":"uint256"},{"internalType":"uint256","name":"reserve1","type":"uint256"}],"stateMutability":"view","type":"function"},{"inputs":[{"internalType":"uint256","name":"swapIndex","type":"uint256"}],"name":"getSwapDetails","outputs":[{"components":[{"internalType":"address","name":"tokenIn","type":"address"},{"internalType":"address","name":"tokenOut","type":"address"},{"internalType":"uint256","name":"amountIn","type":"uint256"},{"internalType":"uint256","name":"amountOut","type":"uint256"},{"internalType":"uint256","name":"timestamp","type":"uint256"},{"internalType":"address","name":"trader","type":"address"},{"internalType":"uint256","name":"blockNumber","type":"uint256"}],"internalType":"struct SwapDex.SwapHistory","name":"","type":"tuple"}],"stateMutability":"view","type":"function"},{"inputs":[],"name":"getTotalSwapCount","outputs":[{"internalType":"uint256","name":"","type":"uint256"}],"stateMutability":"view","type":"function"},{"inputs":[{"internalType":"address","name":"user","type":"address"}],"name":"getUserSwapCount","outputs":[{"internalType":"uint256","name":"","type":"uint256"}],"stateMutability":"view","type":"function"},{"inputs":[{"internalType":"address","name":"user","type":"address"},{"internalType":"uint256","name":"start","type":"uint256"},{"internalType":"uint256","name":"count","type":"uint256"}],"name":"getUserSwapHistory","outputs":[{"components":[{"internalType":"address","name":"tokenIn","type":"address"},{"internalType":"address","name":"tokenOut","type":"address"},{"internalType":"uint256","name":"amountIn","type":"uint256"},{"internalType":"uint256","name":"amountOut","type":"uint256"},{"internalType":"uint256","name":"timestamp","type":"uint256"},{"internalType":"address","name":"trader","type":"address"},{"internalType":"uint256","name":"blockNumber","type":"uint256"}],"internalType":"struct SwapDex.SwapHistory[]","name":"","type":"tuple[]"}],"stateMutability":"view","type":"function"},{"inputs":[{"internalType":"address","name":"","type":"address"},{"internalType":"address","name":"","type":"address"}],"name":"pools","outputs":[{"internalType":"uint256","name":"reserve0","type":"uint256"},{"internalType":"uint256","name":"reserve1","type":"uint256"},{"internalType":"uint256","name":"totalSupply","type":"uint256"}],"stateMutability":"view","type":"function"},{"inputs":[{"internalType":"address","name":"token0","type":"address"},{"internalType":"address","name":"token1","type":"address"},{"internalType":"uint256","name":"liquidity","type":"uint256"}],"name":"removeLiquidity","outputs":[{"internalType":"uint256","name":"amount0","type":"uint256"},{"internalType":"uint256","name":"amount1","type":"uint256"}],"stateMutability":"nonpayable","type":"function"},{"inputs":[{"internalType":"address","name":"tokenIn","type":"address"},{"internalType":"address","name":"tokenOut","type":"address"},{"internalType":"uint256","name":"amountIn","type":"uint256"}],"name":"swap","outputs":[{"internalType":"uint256","name":"amountOut","type":"uint256"}],"stateMutability":"nonpayable","type":"function"},{"inputs":[{"internalType":"address","name":"tokenIn","type":"address"},{"internalType":"address","name":"tokenOut","type":"address"},{"internalType":"uint256","name":"amountIn","type":"uint256"}],"name":"swapExactTokensForTokens","outputs":[{"internalType":"uint256","name":"amountOut","type":"uint256"}],"stateMutability":"nonpayable","type":"function"},{"inputs":[{"internalType":"uint256","name":"","type":"uint256"}],"name":"swapHistory","outputs":[{"internalType":"address","name":"tokenIn","type":"address"},{"internalType":"address","name":"tokenOut","type":"address"},{"internalType":"uint256","name":"amountIn","type":"uint256"},{"internalType":"uint256","name":"amountOut","type":"uint256"},{"internalType":"uint256","name":"timestamp","type":"uint256"},{"internalType":"address","name":"trader","type":"address"},{"internalType":"uint256","name":"blockNumber","type":"uint256"}],"stateMutability":"view","type":"function"},{"inputs":[{"internalType":"address","name":"tokenIn","type":"address"},{"internalType":"address","name":"tokenOut","type":"address"},{"internalType":"uint256","name":"amountOut","type":"uint256"}],"name":"swapTokensForExactTokens","outputs":[{"internalType":"uint256","name":"amountIn","type":"uint256"}],"stateMutability":"nonpayable","type":"function"},{"inputs":[{"internalType":"address","name":"","type":"address"},{"internalType":"uint256","name":"","type":"uint256"}],"name":"userSwapIndices","outputs":[{"internalType":"uint256","name":"","type":"uint256"}],"stateMutability":"view","type":"function"}],"evm":{"bytecode":{"linkReferences":{},"object":"608080604052346015576119ec908161001b8239f35b600080fdfe6080604052600436101561001257600080fd5b60003560e01c80630ddd03ba14610fb4578063486e51f414610ea95780634aa0665214610e095780634b916e6714610c6757806353b609b514610bc7578063619db68814610b45578063715e86b514610b0b578063768aebde14610aef578063901754d714610a83578063a7ff350c1461096c578063ac41865a14610938578063b2109e2f146108a9578063bdedcbc0146101f8578063cf6c62ea146105ae578063d52bb6f414610534578063d6bd603c14610498578063d73792a91461047b578063d752fab2146101fd578063df791e50146101f8578063ea526de71461018a578063ec0193c1146101315763ed11da2a1461010e57600080fd5b3461012c57600036600319011261012c576020600154604051908152f35b600080fd5b3461012c57604036600319011261012c5761014a611070565b6001600160a01b031660009081526002602052604090208054602435919082101561012c5760209161017b916112fc565b90549060031b1c604051908152f35b3461012c57604036600319011261012c576101a3611070565b6101ab611086565b906001600160a01b0380831690821610156101f2575b6001600160a01b03908116600090815260208181526040808320949093168252928352819020600201549051908152f35b906101c1565b61116b565b3461012c5761020b3661109c565b90916001600160a01b038084169082166102278183141561135f565b6102328415156116e4565b1015610475575b6001600160a01b03908116600081815260208181526040808320948716835293815283822033835260038101918290529390912054919492939092909182116104305761028784548361132c565b60028501946102988654809361133f565b956102b160018301936102ac85548861132c565b61133f565b9587151580610427575b6102c4906116e4565b60018060a01b03331660005260205260406000206102e3868254611608565b90556102f0858254611608565b90556102fd868254611608565b905561030a848254611608565b905560405163a9059cbb60e01b81523360048201526024810185905260208160448160008a5af180156103fe5761040a575b5060405163a9059cbb60e01b815233600482015260248101849052946001600160a01b0391909116906020866044816000865af19586156103fe576040966103d1575b507faa29d8bbadb22be3bb6dbe493ae8a0f5b6bba22ed4da0ab6c4808bab559de8358651806103c23396888a846040919493926060820195825260208201520152565b0390a482519182526020820152f35b6103f29060203d6020116103f7575b6103ea81836114b0565b8101906114d2565b61037f565b503d6103e0565b6040513d6000823e3d90fd5b6104229060203d6020116103f7576103ea81836114b0565b61033c565b508615156102bb565b60405162461bcd60e51b815260206004820152601e60248201527f494e53554646494349454e545f4c49515549444954595f42414c414e434500006044820152606490fd5b91610239565b3461012c57600036600319011261012c5760206040516103e88152f35b3461012c57606036600319011261012c576104b1611070565b6104b9611086565b604435906001600160a01b038216820361012c576003926001600160a01b03828116908216101561052e575b60018060a01b0316600052600060205260406000209060018060a01b031660005260205260406000209060018060a01b0316600052016020526020604060002054604051908152f35b906104e5565b3461012c57604036600319011261012c5761054d611070565b610555611086565b906001600160a01b0380831690821610156105a8575b60018060a01b0316600052600060205260406000209060018060a01b03166000526020526040806000206001815491015482519182526020820152f35b9061056b565b3461012c57608036600319011261012c576105c7611070565b6105cf611086565b6064356044356001600160a01b038381169085166105ef8183141561135f565b821515806108a0575b610601906113a1565b1093841561089a5792935b156108945790915b6001600160a01b03908116600081815260208181526040808320948816835293815283822093516323b872dd60e01b815233600482015230602482015260448101869052939692939182906064908290875af180156103fe57610877575b506040516323b872dd60e01b8152336004820152306024820152604481018590526001600160a01b039190911691906020816064816000875af180156103fe5761085a575b50600285018054959086610816576106cf868661132c565b600060038211156108085750808060011c600181018091116107f257905b8282106107d35750505b955b861561078e57600383889361074f8560209c6107378c7fa7c0bc175494aac705fdccdb501213f94fb9a6f1dd9be0b3488298cb2dc160889a546115fb565b8555600185016107488882546115fb565b90556115fb565b90553360009081529101895260409020805461076c9084906115fb565b90556040805196875260208701919091528501523393606090a4604051908152f35b60405162461bcd60e51b815260206004820152601d60248201527f494e53554646494349454e545f4c49515549444954595f4d494e5445440000006044820152606490fd5b9091506107e9826107e4818461133f565b6115fb565b60011c906106ed565b634e487b7160e01b600052601160045260246000fd5b90156106f7575060016106f7565b61082b610823888761132c565b83549061133f565b610843610838898961132c565b60018501549061133f565b8082101561085357505b956106f9565b905061084d565b6108729060203d6020116103f7576103ea81836114b0565b6106b7565b61088f9060203d6020116103f7576103ea81836114b0565b610672565b91610614565b9361060c565b508315156105f8565b3461012c57602036600319011261012c576004356108c5611502565b506001548110156108f3576108e46108de60e09261103b565b5061159d565b6108f160405180926110d6565bf35b60405162461bcd60e51b815260206004820152601860248201527f5377617020696e646578206f7574206f6620626f756e647300000000000000006044820152606490fd5b3461012c57604036600319011261012c576020610964610956611070565b61095e611086565b90611615565b604051908152f35b3461012c57606036600319011261012c57610985611070565b6001600160a01b031660009081526002602052604090208054602435919080831015610a3e57826109cb916109bc604435836115fb565b90808211610a36575b50611608565b906109d582611539565b9260005b8381106109f257604051806109ee8782611127565b0390f35b80610a1a6108de610a0e610a08600195876115fb565b876112fc565b90549060031b1c61103b565b610a248288611589565b52610a2f8187611589565b50016109d9565b9050856109c5565b60405162461bcd60e51b815260206004820152601960248201527f537461727420696e646578206f7574206f6620626f756e6473000000000000006044820152606490fd5b3461012c57604036600319011261012c576040610a9e611070565b610aa6611086565b6001600160a01b03918216600090815260208181528482209290931681529082529190912080546001820154600290920154604080519283529382019290925291820152606090f35b3461012c57600036600319011261012c57602060405160038152f35b3461012c57602036600319011261012c576001600160a01b03610b2c611070565b1660005260026020526020604060002054604051908152f35b3461012c57602036600319011261012c576001600160a01b03610b66611070565b16600052600260205260406000208054610b7f81611539565b9160005b828110610b9857604051806109ee8682611127565b80610bab6108de610a0e600194866112fc565b610bb58287611589565b52610bc08186611589565b5001610b83565b3461012c576020610c46610bda3661109c565b916001600160a01b03828116908216610bf58183141561135f565b610c00851515611432565b1015610c5e57604082825b6001600160a01b039081166000908152808952838120929091168152908752208054909390151580610c51575b610c41906113ed565b6117a4565b6109648115156113a1565b5060018401541515610c38565b60408183610c0b565b3461012c57610c753661109c565b6001600160a01b03828116908416610c8f8183141561135f565b610c9a831515611432565b81811015610e0057604084865b60018060a01b031660005260006020528160002060009160018060a01b0316825260205220938454151580610df3575b610ce0906113ed565b610cec858288876117a4565b94610cf88615156113a1565b6040516323b872dd60e01b815233600482015230602482015260448101879052906020826064816000885af19182156103fe57610d3e92610dd6575b5082888789611810565b60405163a9059cbb60e01b815233600482015260248101859052956020876044816000885af19687156103fe5786610d8293879260209a610dbb575b503393611865565b60405192848452858401527fb39c9bc43f811e1a7ce159c5f147458fdb80266bf23c17322013316e27e086d060403394a4604051908152f35b610dd1908b3d8d116103f7576103ea81836114b0565b610d7a565b610dee9060203d6020116103f7576103ea81836114b0565b610d34565b5060018501541515610cd7565b60408585610ca7565b3461012c576020610e88610e1c3661109c565b916001600160a01b03828116908216610e378183141561135f565b610e428515156113a1565b1015610ea057604082825b6001600160a01b039081166000908152808952838120929091168152908752208054909390151580610e93575b610e83906113ed565b611730565b610964811515611432565b5060018401541515610e7a565b60408183610e4d565b3461012c57604036600319011261012c57610ec2611070565b610eca611086565b6000916001600160a01b038281169082161015610fae575b60018060a01b0316825281602052604082209060018060a01b031682526020526040812080549060026001820154910154821593841580610fa5575b15610f985750670de0b6b3a76400008202828104670de0b6b3a764000014831517156107f25783610f4e9161133f565b90670de0b6b3a7640000840294848604670de0b6b3a76400001417156107f257610f7a8360a09661133f565b925b6040519485526020850152604084015260608301526080820152f35b60a0945090600092610f7c565b50821515610f1e565b90610ee2565b3461012c57602036600319011261012c5760043560015481101561012c57610fdd60e09161103b565b50805460018201546002830154600384015460048501546005860154600690960154604080516001600160a01b0397881681529587166020870152850193909352606084019190915260808301529190921660a083015260c0820152f35b60015481101561105a5760016000526007602060002091020190600090565b634e487b7160e01b600052603260045260246000fd5b600435906001600160a01b038216820361012c57565b602435906001600160a01b038216820361012c57565b606090600319011261012c576004356001600160a01b038116810361012c57906024356001600160a01b038116810361012c579060443590565b80516001600160a01b03908116835260208083015182169084015260408083015190840152606080830151908401526080808301519084015260a0808301519091169083015260c090810151910152565b602060408183019282815284518094520192019060005b81811061114b5750505090565b909192602060e08261116060019488516110d6565b01940192910161113e565b3461012c576111793661109c565b6000916001600160a01b0380821691908516906111988284141561135f565b6111a38415156113a1565b828210156112f55780865b60018060a01b0316865285602052604086209060018060a01b03168652602052604085209485541515806112e8575b6111e6906113ed565b6040516323b872dd60e01b8152336004820152306024820152604481018690529060208260648184885af19081156112dc57506112bf575b5061124361122e86838988611730565b9561123a871515611432565b82888888611810565b60405163a9059cbb60e01b815233600482015260248101869052956020876044816000885af19687156103fe578561128693889260209a610dbb57503393611865565b60405192835283858401527fb39c9bc43f811e1a7ce159c5f147458fdb80266bf23c17322013316e27e086d060403394a4604051908152f35b6112d79060203d6020116103f7576103ea81836114b0565b61121e565b604051903d90823e3d90fd5b50600186015415156111dd565b85816111ae565b805482101561105a5760005260206000200190600090565b906103e58202918083046103e514901517156107f257565b818102929181159184041417156107f257565b8115611349570490565b634e487b7160e01b600052601260045260246000fd5b1561136657565b60405162461bcd60e51b81526020600482015260136024820152724944454e544943414c5f41444452455353455360681b6044820152606490fd5b156113a857565b60405162461bcd60e51b815260206004820152601960248201527f494e53554646494349454e545f494e5055545f414d4f554e54000000000000006044820152606490fd5b156113f457565b60405162461bcd60e51b8152602060048201526016602482015275494e53554646494349454e545f4c495155494449545960501b6044820152606490fd5b1561143957565b60405162461bcd60e51b815260206004820152601a60248201527f494e53554646494349454e545f4f55545055545f414d4f554e540000000000006044820152606490fd5b60e0810190811067ffffffffffffffff82111761149a57604052565b634e487b7160e01b600052604160045260246000fd5b90601f8019910116810190811067ffffffffffffffff82111761149a57604052565b9081602091031261012c5751801515810361012c5790565b67ffffffffffffffff811161149a5760051b60200190565b6040519061150f8261147e565b600060c0838281528260208201528260408201528260608201528260808201528260a08201520152565b90611543826114ea565b61155060405191826114b0565b8281528092611561601f19916114ea565b019060005b82811061157257505050565b60209061157d611502565b82828501015201611566565b805182101561105a5760209160051b010190565b906040516115aa8161147e565b82546001600160a01b03908116825260018401548116602083015260028401546040830152600384015460608301526004840154608083015260058401541660a082015260069092015460c0830152565b919082018092116107f257565b919082039182116107f257565b6001600160a01b03808316908216109160409183156116de575b6001600160a01b039081166000908152602081815284822093909216815291905220805490918115908180156116d2575b6116c9571561169d5750906001015490670de0b6b3a7640000820291808304670de0b6b3a764000014901517156107f25761169a9161133f565b90565b670de0b6b3a76400008202918204670de0b6b3a76400001417156107f257600161169a9201549061133f565b50505050600090565b50600184015415611660565b9061162f565b156116eb57565b60405162461bcd60e51b815260206004820152601d60248201527f494e53554646494349454e545f4c49515549444954595f4255524e45440000006044820152606490fd5b61173c90939293611314565b926001600160a01b0390811691161090811561179a5761176160018201545b8461132c565b911561179157545b6103e88102908082046103e814901517156107f25761169a9261178b916115fb565b9061133f565b60010154611769565b611761815461175b565b6001600160a01b039283169190921610906117c690821561180657835461132c565b906103e88202918083046103e814901517156107f2576117f29261178b91156118005760010154611314565b600181018091116107f25790565b54611314565b600184015461132c565b90939290916001600160a01b0391821691161015611848578161183960019261184494546115fb565b815501918254611608565b9055565b918161185a6001926118449454611608565b8155019182546115fb565b91909293604051926118768461147e565b60018060a01b03168352602083019360018060a01b0316845260408301918252606083019485526080830142815260a084019160018060a01b03169586835260c0850193438552600154600160401b81101561149a578060016118dc920160015561103b565b9790976119a057955187546001600160a01b03199081166001600160a01b039283161789559651600189810180548a169284169290921790915591516002808a0191909155925160038901559251600488015592516005870180549096169216919091179093559051600693909301929092556000928352602052604090912090546000198101919082116107f2578054600160401b81101561149a57611988916001820181556112fc565b819291549060031b91821b91600019901b1916179055565b634e487b7160e01b600052600060045260246000fdfea2646970667358221220838c935e950124bcefdffeca0d800f22ff32487eb4a6bc00d1a9f5570c50672b64736f6c634300081c0033","opcodes":"PUSH1 0x80 DUP1 PUSH1 0x40 MSTORE CALLVALUE PUSH1 0x15 JUMPI PUSH2 0x19EC SWAP1 DUP2 PUSH2 0x1B DUP3 CODECOPY RETURN JUMPDEST PUSH1 0x0 DUP1 REVERT INVALID PUSH1 0x80 PUSH1 0x40 MSTORE PUSH1 0x4 CALLDATASIZE LT ISZERO PUSH2 0x12 JUMPI PUSH1 0x0 DUP1 REVERT JUMPDEST PUSH1 0x0 CALLDATALOAD PUSH1 0xE0 SHR DUP1 PUSH4 0xDDD03BA EQ PUSH2 0xFB4 JUMPI DUP1 PUSH4 0x486E51F4 EQ PUSH2 0xEA9 JUMPI DUP1 PUSH4 0x4AA06652 EQ PUSH2 0xE09 JUMPI DUP1 PUSH4 0x4B916E67 EQ PUSH2 0xC67 JUMPI DUP1 PUSH4 0x53B609B5 EQ PUSH2 0xBC7 JUMPI DUP1 PUSH4 0x619DB688 EQ PUSH2 0xB45 JUMPI DUP1 PUSH4 0x715E86B5 EQ PUSH2 0xB0B JUMPI DUP1 PUSH4 0x768AEBDE EQ PUSH2 0xAEF JUMPI DUP1 PUSH4 0x901754D7 EQ PUSH2 0xA83 JUMPI DUP1 PUSH4 0xA7FF350C EQ PUSH2 0x96C JUMPI DUP1 PUSH4 0xAC41865A EQ PUSH2 0x938 JUMPI DUP1 PUSH4 0xB2109E2F EQ PUSH2 0x8A9 JUMPI DUP1 PUSH4 0xBDEDCBC0 EQ PUSH2 0x1F8 JUMPI DUP1 PUSH4 0xCF6C62EA EQ PUSH2 0x5AE JUMPI DUP1 PUSH4 0xD52BB6F4 EQ PUSH2 0x534 JUMPI DUP1 PUSH4 0xD6BD603C EQ PUSH2 0x498 JUMPI DUP1 PUSH4 0xD73792A9 EQ PUSH2 0x47B JUMPI DUP1 PUSH4 0xD752FAB2 EQ PUSH2 0x1FD JUMPI DUP1 PUSH4 0xDF791E50 EQ PUSH2 0x1F8 JUMPI DUP1 PUSH4 0xEA526DE7 EQ PUSH2 0x18A JUMPI DUP1 PUSH4 0xEC0193C1 EQ PUSH2 0x131 JUMPI PUSH4 0xED11DA2A EQ PUSH2 0x10E JUMPI PUSH1 0x0 DUP1 REVERT JUMPDEST CALLVALUE PUSH2 0x12C JUMPI PUSH1 0x0 CALLDATASIZE PUSH1 0x3 NOT ADD SLT PUSH2 0x12C JUMPI PUSH1 0x20 PUSH1 0x1 SLOAD PUSH1 0x40 MLOAD SWAP1 DUP2 MSTORE RETURN JUMPDEST PUSH1 0x0 DUP1 REVERT JUMPDEST CALLVALUE PUSH2 0x12C JUMPI PUSH1 0x40 CALLDATASIZE PUSH1 0x3 NOT ADD SLT PUSH2 0x12C JUMPI PUSH2 0x14A PUSH2 0x1070 JUMP JUMPDEST PUSH1 0x1 PUSH1 0x1 PUSH1 0xA0 SHL SUB AND PUSH1 0x0 SWAP1 DUP2 MSTORE PUSH1 0x2 PUSH1 0x20 MSTORE PUSH1 0x40 SWAP1 KECCAK256 DUP1 SLOAD PUSH1 0x24 CALLDATALOAD SWAP2 SWAP1 DUP3 LT ISZERO PUSH2 0x12C JUMPI PUSH1 0x20 SWAP2 PUSH2 0x17B SWAP2 PUSH2 0x12FC JUMP JUMPDEST SWAP1 SLOAD SWAP1 PUSH1 0x3 SHL SHR PUSH1 0x40 MLOAD SWAP1 DUP2 MSTORE RETURN JUMPDEST CALLVALUE PUSH2 0x12C JUMPI PUSH1 0x40 CALLDATASIZE PUSH1 0x3 NOT ADD SLT PUSH2 0x12C JUMPI PUSH2 0x1A3 PUSH2 0x1070 JUMP JUMPDEST PUSH2 0x1AB PUSH2 0x1086 JUMP JUMPDEST SWAP1 PUSH1 0x1 PUSH1 0x1 PUSH1 0xA0 SHL SUB DUP1 DUP4 AND SWAP1 DUP3 AND LT ISZERO PUSH2 0x1F2 JUMPI JUMPDEST PUSH1 0x1 PUSH1 0x1 PUSH1 0xA0 SHL SUB SWAP1 DUP2 AND PUSH1 0x0 SWAP1 DUP2 MSTORE PUSH1 0x20 DUP2 DUP2 MSTORE PUSH1 0x40 DUP1 DUP4 KECCAK256 SWAP5 SWAP1 SWAP4 AND DUP3 MSTORE SWAP3 DUP4 MSTORE DUP2 SWAP1 KECCAK256 PUSH1 0x2 ADD SLOAD SWAP1 MLOAD SWAP1 DUP2 MSTORE RETURN JUMPDEST SWAP1 PUSH2 0x1C1 JUMP JUMPDEST PUSH2 0x116B JUMP JUMPDEST CALLVALUE PUSH2 0x12C JUMPI PUSH2 0x20B CALLDATASIZE PUSH2 0x109C JUMP JUMPDEST SWAP1 SWAP2 PUSH1 0x1 PUSH1 0x1 PUSH1 0xA0 SHL SUB DUP1 DUP5 AND SWAP1 DUP3 AND PUSH2 0x227 DUP2 DUP4 EQ ISZERO PUSH2 0x135F JUMP JUMPDEST PUSH2 0x232 DUP5 ISZERO ISZERO PUSH2 0x16E4 JUMP JUMPDEST LT ISZERO PUSH2 0x475 JUMPI JUMPDEST PUSH1 0x1 PUSH1 0x1 PUSH1 0xA0 SHL SUB SWAP1 DUP2 AND PUSH1 0x0 DUP2 DUP2 MSTORE PUSH1 0x20 DUP2 DUP2 MSTORE PUSH1 0x40 DUP1 DUP4 KECCAK256 SWAP5 DUP8 AND DUP4 MSTORE SWAP4 DUP2 MSTORE DUP4 DUP3 KECCAK256 CALLER DUP4 MSTORE PUSH1 0x3 DUP2 ADD SWAP2 DUP3 SWAP1 MSTORE SWAP4 SWAP1 SWAP2 KECCAK256 SLOAD SWAP2 SWAP5 SWAP3 SWAP4 SWAP1 SWAP3 SWAP1 SWAP2 DUP3 GT PUSH2 0x430 JUMPI PUSH2 0x287 DUP5 SLOAD DUP4 PUSH2 0x132C JUMP JUMPDEST PUSH1 0x2 DUP6 ADD SWAP5 PUSH2 0x298 DUP7 SLOAD DUP1 SWAP4 PUSH2 0x133F JUMP JUMPDEST SWAP6 PUSH2 0x2B1 PUSH1 0x1 DUP4 ADD SWAP4 PUSH2 0x2AC DUP6 SLOAD DUP9 PUSH2 0x132C JUMP JUMPDEST PUSH2 0x133F JUMP JUMPDEST SWAP6 DUP8 ISZERO ISZERO DUP1 PUSH2 0x427 JUMPI JUMPDEST PUSH2 0x2C4 SWAP1 PUSH2 0x16E4 JUMP JUMPDEST PUSH1 0x1 DUP1 PUSH1 0xA0 SHL SUB CALLER AND PUSH1 0x0 MSTORE PUSH1 0x20 MSTORE PUSH1 0x40 PUSH1 0x0 KECCAK256 PUSH2 0x2E3 DUP7 DUP3 SLOAD PUSH2 0x1608 JUMP JUMPDEST SWAP1 SSTORE PUSH2 0x2F0 DUP6 DUP3 SLOAD PUSH2 0x1608 JUMP JUMPDEST SWAP1 SSTORE PUSH2 0x2FD DUP7 DUP3 SLOAD PUSH2 0x1608 JUMP JUMPDEST SWAP1 SSTORE PUSH2 0x30A DUP5 DUP3 SLOAD PUSH2 0x1608 JUMP JUMPDEST SWAP1 SSTORE PUSH1 0x40 MLOAD PUSH4 0xA9059CBB PUSH1 0xE0 SHL DUP2 MSTORE CALLER PUSH1 0x4 DUP3 ADD MSTORE PUSH1 0x24 DUP2 ADD DUP6 SWAP1 MSTORE PUSH1 0x20 DUP2 PUSH1 0x44 DUP2 PUSH1 0x0 DUP11 GAS CALL DUP1 ISZERO PUSH2 0x3FE JUMPI PUSH2 0x40A JUMPI JUMPDEST POP PUSH1 0x40 MLOAD PUSH4 0xA9059CBB PUSH1 0xE0 SHL DUP2 MSTORE CALLER PUSH1 0x4 DUP3 ADD MSTORE PUSH1 0x24 DUP2 ADD DUP5 SWAP1 MSTORE SWAP5 PUSH1 0x1 PUSH1 0x1 PUSH1 0xA0 SHL SUB SWAP2 SWAP1 SWAP2 AND SWAP1 PUSH1 0x20 DUP7 PUSH1 0x44 DUP2 PUSH1 0x0 DUP7 GAS CALL SWAP6 DUP7 ISZERO PUSH2 0x3FE JUMPI PUSH1 0x40 SWAP7 PUSH2 0x3D1 JUMPI JUMPDEST POP PUSH32 0xAA29D8BBADB22BE3BB6DBE493AE8A0F5B6BBA22ED4DA0AB6C4808BAB559DE835 DUP7 MLOAD DUP1 PUSH2 0x3C2 CALLER SWAP7 DUP9 DUP11 DUP5 PUSH1 0x40 SWAP2 SWAP5 SWAP4 SWAP3 PUSH1 0x60 DUP3 ADD SWAP6 DUP3 MSTORE PUSH1 0x20 DUP3 ADD MSTORE ADD MSTORE JUMP JUMPDEST SUB SWAP1 LOG4 DUP3 MLOAD SWAP2 DUP3 MSTORE PUSH1 0x20 DUP3 ADD MSTORE RETURN JUMPDEST PUSH2 0x3F2 SWAP1 PUSH1 0x20 RETURNDATASIZE PUSH1 0x20 GT PUSH2 0x3F7 JUMPI JUMPDEST PUSH2 0x3EA DUP2 DUP4 PUSH2 0x14B0 JUMP JUMPDEST DUP2 ADD SWAP1 PUSH2 0x14D2 JUMP JUMPDEST PUSH2 0x37F JUMP JUMPDEST POP RETURNDATASIZE PUSH2 0x3E0 JUMP JUMPDEST PUSH1 0x40 MLOAD RETURNDATASIZE PUSH1 0x0 DUP3 RETURNDATACOPY RETURNDATASIZE SWAP1 REVERT JUMPDEST PUSH2 0x422 SWAP1 PUSH1 0x20 RETURNDATASIZE PUSH1 0x20 GT PUSH2 0x3F7 JUMPI PUSH2 0x3EA DUP2 DUP4 PUSH2 0x14B0 JUMP JUMPDEST PUSH2 0x33C JUMP JUMPDEST POP DUP7 ISZERO ISZERO PUSH2 0x2BB JUMP JUMPDEST PUSH1 0x40 MLOAD PUSH3 0x461BCD PUSH1 0xE5 SHL DUP2 MSTORE PUSH1 0x20 PUSH1 0x4 DUP3 ADD MSTORE PUSH1 0x1E PUSH1 0x24 DUP3 ADD MSTORE PUSH32 0x494E53554646494349454E545F4C49515549444954595F42414C414E43450000 PUSH1 0x44 DUP3 ADD MSTORE PUSH1 0x64 SWAP1 REVERT JUMPDEST SWAP2 PUSH2 0x239 JUMP JUMPDEST CALLVALUE PUSH2 0x12C JUMPI PUSH1 0x0 CALLDATASIZE PUSH1 0x3 NOT ADD SLT PUSH2 0x12C JUMPI PUSH1 0x20 PUSH1 0x40 MLOAD PUSH2 0x3E8 DUP2 MSTORE RETURN JUMPDEST CALLVALUE PUSH2 0x12C JUMPI PUSH1 0x60 CALLDATASIZE PUSH1 0x3 NOT ADD SLT PUSH2 0x12C JUMPI PUSH2 0x4B1 PUSH2 0x1070 JUMP JUMPDEST PUSH2 0x4B9 PUSH2 0x1086 JUMP JUMPDEST PUSH1 0x44 CALLDATALOAD SWAP1 PUSH1 0x1 PUSH1 0x1 PUSH1 0xA0 SHL SUB DUP3 AND DUP3 SUB PUSH2 0x12C JUMPI PUSH1 0x3 SWAP3 PUSH1 0x1 PUSH1 0x1 PUSH1 0xA0 SHL SUB DUP3 DUP2 AND SWAP1 DUP3 AND LT ISZERO PUSH2 0x52E JUMPI JUMPDEST PUSH1 0x1 DUP1 PUSH1 0xA0 SHL SUB AND PUSH1 0x0 MSTORE PUSH1 0x0 PUSH1 0x20 MSTORE PUSH1 0x40 PUSH1 0x0 KECCAK256 SWAP1 PUSH1 0x1 DUP1 PUSH1 0xA0 SHL SUB AND PUSH1 0x0 MSTORE PUSH1 0x20 MSTORE PUSH1 0x40 PUSH1 0x0 KECCAK256 SWAP1 PUSH1 0x1 DUP1 PUSH1 0xA0 SHL SUB AND PUSH1 0x0 MSTORE ADD PUSH1 0x20 MSTORE PUSH1 0x20 PUSH1 0x40 PUSH1 0x0 KECCAK256 SLOAD PUSH1 0x40 MLOAD SWAP1 DUP2 MSTORE RETURN JUMPDEST SWAP1 PUSH2 0x4E5 JUMP JUMPDEST CALLVALUE PUSH2 0x12C JUMPI PUSH1 0x40 CALLDATASIZE PUSH1 0x3 NOT ADD SLT PUSH2 0x12C JUMPI PUSH2 0x54D PUSH2 0x1070 JUMP JUMPDEST PUSH2 0x555 PUSH2 0x1086 JUMP JUMPDEST SWAP1 PUSH1 0x1 PUSH1 0x1 PUSH1 0xA0 SHL SUB DUP1 DUP4 AND SWAP1 DUP3 AND LT ISZERO PUSH2 0x5A8 JUMPI JUMPDEST PUSH1 0x1 DUP1 PUSH1 0xA0 SHL SUB AND PUSH1 0x0 MSTORE PUSH1 0x0 PUSH1 0x20 MSTORE PUSH1 0x40 PUSH1 0x0 KECCAK256 SWAP1 PUSH1 0x1 DUP1 PUSH1 0xA0 SHL SUB AND PUSH1 0x0 MSTORE PUSH1 0x20 MSTORE PUSH1 0x40 DUP1 PUSH1 0x0 KECCAK256 PUSH1 0x1 DUP2 SLOAD SWAP2 ADD SLOAD DUP3 MLOAD SWAP2 DUP3 MSTORE PUSH1 0x20 DUP3 ADD MSTORE RETURN JUMPDEST SWAP1 PUSH2 0x56B JUMP JUMPDEST CALLVALUE PUSH2 0x12C JUMPI PUSH1 0x80 CALLDATASIZE PUSH1 0x3 NOT ADD SLT PUSH2 0x12C JUMPI PUSH2 0x5C7 PUSH2 0x1070 JUMP JUMPDEST PUSH2 0x5CF PUSH2 0x1086 JUMP JUMPDEST PUSH1 0x64 CALLDATALOAD PUSH1 0x44 CALLDATALOAD PUSH1 0x1 PUSH1 0x1 PUSH1 0xA0 SHL SUB DUP4 DUP2 AND SWAP1 DUP6 AND PUSH2 0x5EF DUP2 DUP4 EQ ISZERO PUSH2 0x135F JUMP JUMPDEST DUP3 ISZERO ISZERO DUP1 PUSH2 0x8A0 JUMPI JUMPDEST PUSH2 0x601 SWAP1 PUSH2 0x13A1 JUMP JUMPDEST LT SWAP4 DUP5 ISZERO PUSH2 0x89A JUMPI SWAP3 SWAP4 JUMPDEST ISZERO PUSH2 0x894 JUMPI SWAP1 SWAP2 JUMPDEST PUSH1 0x1 PUSH1 0x1 PUSH1 0xA0 SHL SUB SWAP1 DUP2 AND PUSH1 0x0 DUP2 DUP2 MSTORE PUSH1 0x20 DUP2 DUP2 MSTORE PUSH1 0x40 DUP1 DUP4 KECCAK256 SWAP5 DUP9 AND DUP4 MSTORE SWAP4 DUP2 MSTORE DUP4 DUP3 KECCAK256 SWAP4 MLOAD PUSH4 0x23B872DD PUSH1 0xE0 SHL DUP2 MSTORE CALLER PUSH1 0x4 DUP3 ADD MSTORE ADDRESS PUSH1 0x24 DUP3 ADD MSTORE PUSH1 0x44 DUP2 ADD DUP7 SWAP1 MSTORE SWAP4 SWAP7 SWAP3 SWAP4 SWAP2 DUP3 SWAP1 PUSH1 0x64 SWAP1 DUP3 SWAP1 DUP8 GAS CALL DUP1 ISZERO PUSH2 0x3FE JUMPI PUSH2 0x877 JUMPI JUMPDEST POP PUSH1 0x40 MLOAD PUSH4 0x23B872DD PUSH1 0xE0 SHL DUP2 MSTORE CALLER PUSH1 0x4 DUP3 ADD MSTORE ADDRESS PUSH1 0x24 DUP3 ADD MSTORE PUSH1 0x44 DUP2 ADD DUP6 SWAP1 MSTORE PUSH1 0x1 PUSH1 0x1 PUSH1 0xA0 SHL SUB SWAP2 SWAP1 SWAP2 AND SWAP2 SWAP1 PUSH1 0x20 DUP2 PUSH1 0x64 DUP2 PUSH1 0x0 DUP8 GAS CALL DUP1 ISZERO PUSH2 0x3FE JUMPI PUSH2 0x85A JUMPI JUMPDEST POP PUSH1 0x2 DUP6 ADD DUP1 SLOAD SWAP6 SWAP1 DUP7 PUSH2 0x816 JUMPI PUSH2 0x6CF DUP7 DUP7 PUSH2 0x132C JUMP JUMPDEST PUSH1 0x0 PUSH1 0x3 DUP3 GT ISZERO PUSH2 0x808 JUMPI POP DUP1 DUP1 PUSH1 0x1 SHR PUSH1 0x1 DUP2 ADD DUP1 SWAP2 GT PUSH2 0x7F2 JUMPI SWAP1 JUMPDEST DUP3 DUP3 LT PUSH2 0x7D3 JUMPI POP POP JUMPDEST SWAP6 JUMPDEST DUP7 ISZERO PUSH2 0x78E JUMPI PUSH1 0x3 DUP4 DUP9 SWAP4 PUSH2 0x74F DUP6 PUSH1 0x20 SWAP13 PUSH2 0x737 DUP13 PUSH32 0xA7C0BC175494AAC705FDCCDB501213F94FB9A6F1DD9BE0B3488298CB2DC16088 SWAP11 SLOAD PUSH2 0x15FB JUMP JUMPDEST DUP6 SSTORE PUSH1 0x1 DUP6 ADD PUSH2 0x748 DUP9 DUP3 SLOAD PUSH2 0x15FB JUMP JUMPDEST SWAP1 SSTORE PUSH2 0x15FB JUMP JUMPDEST SWAP1 SSTORE CALLER PUSH1 0x0 SWAP1 DUP2 MSTORE SWAP2 ADD DUP10 MSTORE PUSH1 0x40 SWAP1 KECCAK256 DUP1 SLOAD PUSH2 0x76C SWAP1 DUP5 SWAP1 PUSH2 0x15FB JUMP JUMPDEST SWAP1 SSTORE PUSH1 0x40 DUP1 MLOAD SWAP7 DUP8 MSTORE PUSH1 0x20 DUP8 ADD SWAP2 SWAP1 SWAP2 MSTORE DUP6 ADD MSTORE CALLER SWAP4 PUSH1 0x60 SWAP1 LOG4 PUSH1 0x40 MLOAD SWAP1 DUP2 MSTORE RETURN JUMPDEST PUSH1 0x40 MLOAD PUSH3 0x461BCD PUSH1 0xE5 SHL DUP2 MSTORE PUSH1 0x20 PUSH1 0x4 DUP3 ADD MSTORE PUSH1 0x1D PUSH1 0x24 DUP3 ADD MSTORE PUSH32 0x494E53554646494349454E545F4C49515549444954595F4D494E544544000000 PUSH1 0x44 DUP3 ADD MSTORE PUSH1 0x64 SWAP1 REVERT JUMPDEST SWAP1 SWAP2 POP PUSH2 0x7E9 DUP3 PUSH2 0x7E4 DUP2 DUP5 PUSH2 0x133F JUMP JUMPDEST PUSH2 0x15FB JUMP JUMPDEST PUSH1 0x1 SHR SWAP1 PUSH2 0x6ED JUMP JUMPDEST PUSH4 0x4E487B71 PUSH1 0xE0 SHL PUSH1 0x0 MSTORE PUSH1 0x11 PUSH1 0x4 MSTORE PUSH1 0x24 PUSH1 0x0 REVERT JUMPDEST SWAP1 ISZERO PUSH2 0x6F7 JUMPI POP PUSH1 0x1 PUSH2 0x6F7 JUMP JUMPDEST PUSH2 0x82B PUSH2 0x823 DUP9 DUP8 PUSH2 0x132C JUMP JUMPDEST DUP4 SLOAD SWAP1 PUSH2 0x133F JUMP JUMPDEST PUSH2 0x843 PUSH2 0x838 DUP10 DUP10 PUSH2 0x132C JUMP JUMPDEST PUSH1 0x1 DUP6 ADD SLOAD SWAP1 PUSH2 0x133F JUMP JUMPDEST DUP1 DUP3 LT ISZERO PUSH2 0x853 JUMPI POP JUMPDEST SWAP6 PUSH2 0x6F9 JUMP JUMPDEST SWAP1 POP PUSH2 0x84D JUMP JUMPDEST PUSH2 0x872 SWAP1 PUSH1 0x20 RETURNDATASIZE PUSH1 0x20 GT PUSH2 0x3F7 JUMPI PUSH2 0x3EA DUP2 DUP4 PUSH2 0x14B0 JUMP JUMPDEST PUSH2 0x6B7 JUMP JUMPDEST PUSH2 0x88F SWAP1 PUSH1 0x20 RETURNDATASIZE PUSH1 0x20 GT PUSH2 0x3F7 JUMPI PUSH2 0x3EA DUP2 DUP4 PUSH2 0x14B0 JUMP JUMPDEST PUSH2 0x672 JUMP JUMPDEST SWAP2 PUSH2 0x614 JUMP JUMPDEST SWAP4 PUSH2 0x60C JUMP JUMPDEST POP DUP4 ISZERO ISZERO PUSH2 0x5F8 JUMP JUMPDEST CALLVALUE PUSH2 0x12C JUMPI PUSH1 0x20 CALLDATASIZE PUSH1 0x3 NOT ADD SLT PUSH2 0x12C JUMPI PUSH1 0x4 CALLDATALOAD PUSH2 0x8C5 PUSH2 0x1502 JUMP JUMPDEST POP PUSH1 0x1 SLOAD DUP2 LT ISZERO PUSH2 0x8F3 JUMPI PUSH2 0x8E4 PUSH2 0x8DE PUSH1 0xE0 SWAP3 PUSH2 0x103B JUMP JUMPDEST POP PUSH2 0x159D JUMP JUMPDEST PUSH2 0x8F1 PUSH1 0x40 MLOAD DUP1 SWAP3 PUSH2 0x10D6 JUMP JUMPDEST RETURN JUMPDEST PUSH1 0x40 MLOAD PUSH3 0x461BCD PUSH1 0xE5 SHL DUP2 MSTORE PUSH1 0x20 PUSH1 0x4 DUP3 ADD MSTORE PUSH1 0x18 PUSH1 0x24 DUP3 ADD MSTORE PUSH32 0x5377617020696E646578206F7574206F6620626F756E64730000000000000000 PUSH1 0x44 DUP3 ADD MSTORE PUSH1 0x64 SWAP1 REVERT JUMPDEST CALLVALUE PUSH2 0x12C JUMPI PUSH1 0x40 CALLDATASIZE PUSH1 0x3 NOT ADD SLT PUSH2 0x12C JUMPI PUSH1 0x20 PUSH2 0x964 PUSH2 0x956 PUSH2 0x1070 JUMP JUMPDEST PUSH2 0x95E PUSH2 0x1086 JUMP JUMPDEST SWAP1 PUSH2 0x1615 JUMP JUMPDEST PUSH1 0x40 MLOAD SWAP1 DUP2 MSTORE RETURN JUMPDEST CALLVALUE PUSH2 0x12C JUMPI PUSH1 0x60 CALLDATASIZE PUSH1 0x3 NOT ADD SLT PUSH2 0x12C JUMPI PUSH2 0x985 PUSH2 0x1070 JUMP JUMPDEST PUSH1 0x1 PUSH1 0x1 PUSH1 0xA0 SHL SUB AND PUSH1 0x0 SWAP1 DUP2 MSTORE PUSH1 0x2 PUSH1 0x20 MSTORE PUSH1 0x40 SWAP1 KECCAK256 DUP1 SLOAD PUSH1 0x24 CALLDATALOAD SWAP2 SWAP1 DUP1 DUP4 LT ISZERO PUSH2 0xA3E JUMPI DUP3 PUSH2 0x9CB SWAP2 PUSH2 0x9BC PUSH1 0x44 CALLDATALOAD DUP4 PUSH2 0x15FB JUMP JUMPDEST SWAP1 DUP1 DUP3 GT PUSH2 0xA36 JUMPI JUMPDEST POP PUSH2 0x1608 JUMP JUMPDEST SWAP1 PUSH2 0x9D5 DUP3 PUSH2 0x1539 JUMP JUMPDEST SWAP3 PUSH1 0x0 JUMPDEST DUP4 DUP2 LT PUSH2 0x9F2 JUMPI PUSH1 0x40 MLOAD DUP1 PUSH2 0x9EE DUP8 DUP3 PUSH2 0x1127 JUMP JUMPDEST SUB SWAP1 RETURN JUMPDEST DUP1 PUSH2 0xA1A PUSH2 0x8DE PUSH2 0xA0E PUSH2 0xA08 PUSH1 0x1 SWAP6 DUP8 PUSH2 0x15FB JUMP JUMPDEST DUP8 PUSH2 0x12FC JUMP JUMPDEST SWAP1 SLOAD SWAP1 PUSH1 0x3 SHL SHR PUSH2 0x103B JUMP JUMPDEST PUSH2 0xA24 DUP3 DUP9 PUSH2 0x1589 JUMP JUMPDEST MSTORE PUSH2 0xA2F DUP2 DUP8 PUSH2 0x1589 JUMP JUMPDEST POP ADD PUSH2 0x9D9 JUMP JUMPDEST SWAP1 POP DUP6 PUSH2 0x9C5 JUMP JUMPDEST PUSH1 0x40 MLOAD PUSH3 0x461BCD PUSH1 0xE5 SHL DUP2 MSTORE PUSH1 0x20 PUSH1 0x4 DUP3 ADD MSTORE PUSH1 0x19 PUSH1 0x24 DUP3 ADD MSTORE PUSH32 0x537461727420696E646578206F7574206F6620626F756E647300000000000000 PUSH1 0x44 DUP3 ADD MSTORE PUSH1 0x64 SWAP1 REVERT JUMPDEST CALLVALUE PUSH2 0x12C JUMPI PUSH1 0x40 CALLDATASIZE PUSH1 0x3 NOT ADD SLT PUSH2 0x12C JUMPI PUSH1 0x40 PUSH2 0xA9E PUSH2 0x1070 JUMP JUMPDEST PUSH2 0xAA6 PUSH2 0x1086 JUMP JUMPDEST PUSH1 0x1 PUSH1 0x1 PUSH1 0xA0 SHL SUB SWAP2 DUP3 AND PUSH1 0x0 SWAP1 DUP2 MSTORE PUSH1 0x20 DUP2 DUP2 MSTORE DUP5 DUP3 KECCAK256 SWAP3 SWAP1 SWAP4 AND DUP2 MSTORE SWAP1 DUP3 MSTORE SWAP2 SWAP1 SWAP2 KECCAK256 DUP1 SLOAD PUSH1 0x1 DUP3 ADD SLOAD PUSH1 0x2 SWAP1 SWAP3 ADD SLOAD PUSH1 0x40 DUP1 MLOAD SWAP3 DUP4 MSTORE SWAP4 DUP3 ADD SWAP3 SWAP1 SWAP3 MSTORE SWAP2 DUP3 ADD MSTORE PUSH1 0x60 SWAP1 RETURN JUMPDEST CALLVALUE PUSH2 0x12C JUMPI PUSH1 0x0 CALLDATASIZE PUSH1 0x3 NOT ADD SLT PUSH2 0x12C JUMPI PUSH1 0x20 PUSH1 0x40 MLOAD PUSH1 0x3 DUP2 MSTORE RETURN JUMPDEST CALLVALUE PUSH2 0x12C JUMPI PUSH1 0x20 CALLDATASIZE PUSH1 0x3 NOT ADD SLT PUSH2 0x12C JUMPI PUSH1 0x1 PUSH1 0x1 PUSH1 0xA0 SHL SUB PUSH2 0xB2C PUSH2 0x1070 JUMP JUMPDEST AND PUSH1 0x0 MSTORE PUSH1 0x2 PUSH1 0x20 MSTORE PUSH1 0x20 PUSH1 0x40 PUSH1 0x0 KECCAK256 SLOAD PUSH1 0x40 MLOAD SWAP1 DUP2 MSTORE RETURN JUMPDEST CALLVALUE PUSH2 0x12C JUMPI PUSH1 0x20 CALLDATASIZE PUSH1 0x3 NOT ADD SLT PUSH2 0x12C JUMPI PUSH1 0x1 PUSH1 0x1 PUSH1 0xA0 SHL SUB PUSH2 0xB66 PUSH2 0x1070 JUMP JUMPDEST AND PUSH1 0x0 MSTORE PUSH1 0x2 PUSH1 0x20 MSTORE PUSH1 0x40 PUSH1 0x0 KECCAK256 DUP1 SLOAD PUSH2 0xB7F DUP2 PUSH2 0x1539 JUMP JUMPDEST SWAP2 PUSH1 0x0 JUMPDEST DUP3 DUP2 LT PUSH2 0xB98 JUMPI PUSH1 0x40 MLOAD DUP1 PUSH2 0x9EE DUP7 DUP3 PUSH2 0x1127 JUMP JUMPDEST DUP1 PUSH2 0xBAB PUSH2 0x8DE PUSH2 0xA0E PUSH1 0x1 SWAP5 DUP7 PUSH2 0x12FC JUMP JUMPDEST PUSH2 0xBB5 DUP3 DUP8 PUSH2 0x1589 JUMP JUMPDEST MSTORE PUSH2 0xBC0 DUP2 DUP7 PUSH2 0x1589 JUMP JUMPDEST POP ADD PUSH2 0xB83 JUMP JUMPDEST CALLVALUE PUSH2 0x12C JUMPI PUSH1 0x20 PUSH2 0xC46 PUSH2 0xBDA CALLDATASIZE PUSH2 0x109C JUMP JUMPDEST SWAP2 PUSH1 0x1 PUSH1 0x1 PUSH1 0xA0 SHL SUB DUP3 DUP2 AND SWAP1 DUP3 AND PUSH2 0xBF5 DUP2 DUP4 EQ ISZERO PUSH2 0x135F JUMP JUMPDEST PUSH2 0xC00 DUP6 ISZERO ISZERO PUSH2 0x1432 JUMP JUMPDEST LT ISZERO PUSH2 0xC5E JUMPI PUSH1 0x40 DUP3 DUP3 JUMPDEST PUSH1 0x1 PUSH1 0x1 PUSH1 0xA0 SHL SUB SWAP1 DUP2 AND PUSH1 0x0 SWAP1 DUP2 MSTORE DUP1 DUP10 MSTORE DUP4 DUP2 KECCAK256 SWAP3 SWAP1 SWAP2 AND DUP2 MSTORE SWAP1 DUP8 MSTORE KECCAK256 DUP1 SLOAD SWAP1 SWAP4 SWAP1 ISZERO ISZERO DUP1 PUSH2 0xC51 JUMPI JUMPDEST PUSH2 0xC41 SWAP1 PUSH2 0x13ED JUMP JUMPDEST PUSH2 0x17A4 JUMP JUMPDEST PUSH2 0x964 DUP2 ISZERO ISZERO PUSH2 0x13A1 JUMP JUMPDEST POP PUSH1 0x1 DUP5 ADD SLOAD ISZERO ISZERO PUSH2 0xC38 JUMP JUMPDEST PUSH1 0x40 DUP2 DUP4 PUSH2 0xC0B JUMP JUMPDEST CALLVALUE PUSH2 0x12C JUMPI PUSH2 0xC75 CALLDATASIZE PUSH2 0x109C JUMP JUMPDEST PUSH1 0x1 PUSH1 0x1 PUSH1 0xA0 SHL SUB DUP3 DUP2 AND SWAP1 DUP5 AND PUSH2 0xC8F DUP2 DUP4 EQ ISZERO PUSH2 0x135F JUMP JUMPDEST PUSH2 0xC9A DUP4 ISZERO ISZERO PUSH2 0x1432 JUMP JUMPDEST DUP2 DUP2 LT ISZERO PUSH2 0xE00 JUMPI PUSH1 0x40 DUP5 DUP7 JUMPDEST PUSH1 0x1 DUP1 PUSH1 0xA0 SHL SUB AND PUSH1 0x0 MSTORE PUSH1 0x0 PUSH1 0x20 MSTORE DUP2 PUSH1 0x0 KECCAK256 PUSH1 0x0 SWAP2 PUSH1 0x1 DUP1 PUSH1 0xA0 SHL SUB AND DUP3 MSTORE PUSH1 0x20 MSTORE KECCAK256 SWAP4 DUP5 SLOAD ISZERO ISZERO DUP1 PUSH2 0xDF3 JUMPI JUMPDEST PUSH2 0xCE0 SWAP1 PUSH2 0x13ED JUMP JUMPDEST PUSH2 0xCEC DUP6 DUP3 DUP9 DUP8 PUSH2 0x17A4 JUMP JUMPDEST SWAP5 PUSH2 0xCF8 DUP7 ISZERO ISZERO PUSH2 0x13A1 JUMP JUMPDEST PUSH1 0x40 MLOAD PUSH4 0x23B872DD PUSH1 0xE0 SHL DUP2 MSTORE CALLER PUSH1 0x4 DUP3 ADD MSTORE ADDRESS PUSH1 0x24 DUP3 ADD MSTORE PUSH1 0x44 DUP2 ADD DUP8 SWAP1 MSTORE SWAP1 PUSH1 0x20 DUP3 PUSH1 0x64 DUP2 PUSH1 0x0 DUP9 GAS CALL SWAP2 DUP3 ISZERO PUSH2 0x3FE JUMPI PUSH2 0xD3E SWAP3 PUSH2 0xDD6 JUMPI JUMPDEST POP DUP3 DUP9 DUP8 DUP10 PUSH2 0x1810 JUMP JUMPDEST PUSH1 0x40 MLOAD PUSH4 0xA9059CBB PUSH1 0xE0 SHL DUP2 MSTORE CALLER PUSH1 0x4 DUP3 ADD MSTORE PUSH1 0x24 DUP2 ADD DUP6 SWAP1 MSTORE SWAP6 PUSH1 0x20 DUP8 PUSH1 0x44 DUP2 PUSH1 0x0 DUP9 GAS CALL SWAP7 DUP8 ISZERO PUSH2 0x3FE JUMPI DUP7 PUSH2 0xD82 SWAP4 DUP8 SWAP3 PUSH1 0x20 SWAP11 PUSH2 0xDBB JUMPI JUMPDEST POP CALLER SWAP4 PUSH2 0x1865 JUMP JUMPDEST PUSH1 0x40 MLOAD SWAP3 DUP5 DUP5 MSTORE DUP6 DUP5 ADD MSTORE PUSH32 0xB39C9BC43F811E1A7CE159C5F147458FDB80266BF23C17322013316E27E086D0 PUSH1 0x40 CALLER SWAP5 LOG4 PUSH1 0x40 MLOAD SWAP1 DUP2 MSTORE RETURN JUMPDEST PUSH2 0xDD1 SWAP1 DUP12 RETURNDATASIZE DUP14 GT PUSH2 0x3F7 JUMPI PUSH2 0x3EA DUP2 DUP4 PUSH2 0x14B0 JUMP JUMPDEST PUSH2 0xD7A JUMP JUMPDEST PUSH2 0xDEE SWAP1 PUSH1 0x20 RETURNDATASIZE PUSH1 0x20 GT PUSH2 0x3F7 JUMPI PUSH2 0x3EA DUP2 DUP4 PUSH2 0x14B0 JUMP JUMPDEST PUSH2 0xD34 JUMP JUMPDEST POP PUSH1 0x1 DUP6 ADD SLOAD ISZERO ISZERO PUSH2 0xCD7 JUMP JUMPDEST PUSH1 0x40 DUP6 DUP6 PUSH2 0xCA7 JUMP JUMPDEST CALLVALUE PUSH2 0x12C JUMPI PUSH1 0x20 PUSH2 0xE88 PUSH2 0xE1C CALLDATASIZE PUSH2 0x109C JUMP JUMPDEST SWAP2 PUSH1 0x1 PUSH1 0x1 PUSH1 0xA0 SHL SUB DUP3 DUP2 AND SWAP1 DUP3 AND PUSH2 0xE37 DUP2 DUP4 EQ ISZERO PUSH2 0x135F JUMP JUMPDEST PUSH2 0xE42 DUP6 ISZERO ISZERO PUSH2 0x13A1 JUMP JUMPDEST LT ISZERO PUSH2 0xEA0 JUMPI PUSH1 0x40 DUP3 DUP3 JUMPDEST PUSH1 0x1 PUSH1 0x1 PUSH1 0xA0 SHL SUB SWAP1 DUP2 AND PUSH1 0x0 SWAP1 DUP2 MSTORE DUP1 DUP10 MSTORE DUP4 DUP2 KECCAK256 SWAP3 SWAP1 SWAP2 AND DUP2 MSTORE SWAP1 DUP8 MSTORE KECCAK256 DUP1 SLOAD SWAP1 SWAP4 SWAP1 ISZERO ISZERO DUP1 PUSH2 0xE93 JUMPI JUMPDEST PUSH2 0xE83 SWAP1 PUSH2 0x13ED JUMP JUMPDEST PUSH2 0x1730 JUMP JUMPDEST PUSH2 0x964 DUP2 ISZERO ISZERO PUSH2 0x1432 JUMP JUMPDEST POP PUSH1 0x1 DUP5 ADD SLOAD ISZERO ISZERO PUSH2 0xE7A JUMP JUMPDEST PUSH1 0x40 DUP2 DUP4 PUSH2 0xE4D JUMP JUMPDEST CALLVALUE PUSH2 0x12C JUMPI PUSH1 0x40 CALLDATASIZE PUSH1 0x3 NOT ADD SLT PUSH2 0x12C JUMPI PUSH2 0xEC2 PUSH2 0x1070 JUMP JUMPDEST PUSH2 0xECA PUSH2 0x1086 JUMP JUMPDEST PUSH1 0x0 SWAP2 PUSH1 0x1 PUSH1 0x1 PUSH1 0xA0 SHL SUB DUP3 DUP2 AND SWAP1 DUP3 AND LT ISZERO PUSH2 0xFAE JUMPI JUMPDEST PUSH1 0x1 DUP1 PUSH1 0xA0 SHL SUB AND DUP3 MSTORE DUP2 PUSH1 0x20 MSTORE PUSH1 0x40 DUP3 KECCAK256 SWAP1 PUSH1 0x1 DUP1 PUSH1 0xA0 SHL SUB AND DUP3 MSTORE PUSH1 0x20 MSTORE PUSH1 0x40 DUP2 KECCAK256 DUP1 SLOAD SWAP1 PUSH1 0x2 PUSH1 0x1 DUP3 ADD SLOAD SWAP2 ADD SLOAD DUP3 ISZERO SWAP4 DUP5 ISZERO DUP1 PUSH2 0xFA5 JUMPI JUMPDEST ISZERO PUSH2 0xF98 JUMPI POP PUSH8 0xDE0B6B3A7640000 DUP3 MUL DUP3 DUP2 DIV PUSH8 0xDE0B6B3A7640000 EQ DUP4 ISZERO OR ISZERO PUSH2 0x7F2 JUMPI DUP4 PUSH2 0xF4E SWAP2 PUSH2 0x133F JUMP JUMPDEST SWAP1 PUSH8 0xDE0B6B3A7640000 DUP5 MUL SWAP5 DUP5 DUP7 DIV PUSH8 0xDE0B6B3A7640000 EQ OR ISZERO PUSH2 0x7F2 JUMPI PUSH2 0xF7A DUP4 PUSH1 0xA0 SWAP7 PUSH2 0x133F JUMP JUMPDEST SWAP3 JUMPDEST PUSH1 0x40 MLOAD SWAP5 DUP6 MSTORE PUSH1 0x20 DUP6 ADD MSTORE PUSH1 0x40 DUP5 ADD MSTORE PUSH1 0x60 DUP4 ADD MSTORE PUSH1 0x80 DUP3 ADD MSTORE RETURN JUMPDEST PUSH1 0xA0 SWAP5 POP SWAP1 PUSH1 0x0 SWAP3 PUSH2 0xF7C JUMP JUMPDEST POP DUP3 ISZERO ISZERO PUSH2 0xF1E JUMP JUMPDEST SWAP1 PUSH2 0xEE2 JUMP JUMPDEST CALLVALUE PUSH2 0x12C JUMPI PUSH1 0x20 CALLDATASIZE PUSH1 0x3 NOT ADD SLT PUSH2 0x12C JUMPI PUSH1 0x4 CALLDATALOAD PUSH1 0x1 SLOAD DUP2 LT ISZERO PUSH2 0x12C JUMPI PUSH2 0xFDD PUSH1 0xE0 SWAP2 PUSH2 0x103B JUMP JUMPDEST POP DUP1 SLOAD PUSH1 0x1 DUP3 ADD SLOAD PUSH1 0x2 DUP4 ADD SLOAD PUSH1 0x3 DUP5 ADD SLOAD PUSH1 0x4 DUP6 ADD SLOAD PUSH1 0x5 DUP7 ADD SLOAD PUSH1 0x6 SWAP1 SWAP7 ADD SLOAD PUSH1 0x40 DUP1 MLOAD PUSH1 0x1 PUSH1 0x1 PUSH1 0xA0 SHL SUB SWAP8 DUP9 AND DUP2 MSTORE SWAP6 DUP8 AND PUSH1 0x20 DUP8 ADD MSTORE DUP6 ADD SWAP4 SWAP1 SWAP4 MSTORE PUSH1 0x60 DUP5 ADD SWAP2 SWAP1 SWAP2 MSTORE PUSH1 0x80 DUP4 ADD MSTORE SWAP2 SWAP1 SWAP3 AND PUSH1 0xA0 DUP4 ADD MSTORE PUSH1 0xC0 DUP3 ADD MSTORE RETURN JUMPDEST PUSH1 0x1 SLOAD DUP2 LT ISZERO PUSH2 0x105A JUMPI PUSH1 0x1 PUSH1 0x0 MSTORE PUSH1 0x7 PUSH1 0x20 PUSH1 0x0 KECCAK256 SWAP2 MUL ADD SWAP1 PUSH1 0x0 SWAP1 JUMP JUMPDEST PUSH4 0x4E487B71 PUSH1 0xE0 SHL PUSH1 0x0 MSTORE PUSH1 0x32 PUSH1 0x4 MSTORE PUSH1 0x24 PUSH1 0x0 REVERT JUMPDEST PUSH1 0x4 CALLDATALOAD SWAP1 PUSH1 0x1 PUSH1 0x1 PUSH1 0xA0 SHL SUB DUP3 AND DUP3 SUB PUSH2 0x12C JUMPI JUMP JUMPDEST PUSH1 0x24 CALLDATALOAD SWAP1 PUSH1 0x1 PUSH1 0x1 PUSH1 0xA0 SHL SUB DUP3 AND DUP3 SUB PUSH2 0x12C JUMPI JUMP JUMPDEST PUSH1 0x60 SWAP1 PUSH1 0x3 NOT ADD SLT PUSH2 0x12C JUMPI PUSH1 0x4 CALLDATALOAD PUSH1 0x1 PUSH1 0x1 PUSH1 0xA0 SHL SUB DUP2 AND DUP2 SUB PUSH2 0x12C JUMPI SWAP1 PUSH1 0x24 CALLDATALOAD PUSH1 0x1 PUSH1 0x1 PUSH1 0xA0 SHL SUB DUP2 AND DUP2 SUB PUSH2 0x12C JUMPI SWAP1 PUSH1 0x44 CALLDATALOAD SWAP1 JUMP JUMPDEST DUP1 MLOAD PUSH1 0x1 PUSH1 0x1 PUSH1 0xA0 SHL SUB SWAP1 DUP2 AND DUP4 MSTORE PUSH1 0x20 DUP1 DUP4 ADD MLOAD DUP3 AND SWAP1 DUP5 ADD MSTORE PUSH1 0x40 DUP1 DUP4 ADD MLOAD SWAP1 DUP5 ADD MSTORE PUSH1 0x60 DUP1 DUP4 ADD MLOAD SWAP1 DUP5 ADD MSTORE PUSH1 0x80 DUP1 DUP4 ADD MLOAD SWAP1 DUP5 ADD MSTORE PUSH1 0xA0 DUP1 DUP4 ADD MLOAD SWAP1 SWAP2 AND SWAP1 DUP4 ADD MSTORE PUSH1 0xC0 SWAP1 DUP2 ADD MLOAD SWAP2 ADD MSTORE JUMP JUMPDEST PUSH1 0x20 PUSH1 0x40 DUP2 DUP4 ADD SWAP3 DUP3 DUP2 MSTORE DUP5 MLOAD DUP1 SWAP5 MSTORE ADD SWAP3 ADD SWAP1 PUSH1 0x0 JUMPDEST DUP2 DUP2 LT PUSH2 0x114B JUMPI POP POP POP SWAP1 JUMP JUMPDEST SWAP1 SWAP2 SWAP3 PUSH1 0x20 PUSH1 0xE0 DUP3 PUSH2 0x1160 PUSH1 0x1 SWAP5 DUP9 MLOAD PUSH2 0x10D6 JUMP JUMPDEST ADD SWAP5 ADD SWAP3 SWAP2 ADD PUSH2 0x113E JUMP JUMPDEST CALLVALUE PUSH2 0x12C JUMPI PUSH2 0x1179 CALLDATASIZE PUSH2 0x109C JUMP JUMPDEST PUSH1 0x0 SWAP2 PUSH1 0x1 PUSH1 0x1 PUSH1 0xA0 SHL SUB DUP1 DUP3 AND SWAP2 SWAP1 DUP6 AND SWAP1 PUSH2 0x1198 DUP3 DUP5 EQ ISZERO PUSH2 0x135F JUMP JUMPDEST PUSH2 0x11A3 DUP5 ISZERO ISZERO PUSH2 0x13A1 JUMP JUMPDEST DUP3 DUP3 LT ISZERO PUSH2 0x12F5 JUMPI DUP1 DUP7 JUMPDEST PUSH1 0x1 DUP1 PUSH1 0xA0 SHL SUB AND DUP7 MSTORE DUP6 PUSH1 0x20 MSTORE PUSH1 0x40 DUP7 KECCAK256 SWAP1 PUSH1 0x1 DUP1 PUSH1 0xA0 SHL SUB AND DUP7 MSTORE PUSH1 0x20 MSTORE PUSH1 0x40 DUP6 KECCAK256 SWAP5 DUP6 SLOAD ISZERO ISZERO DUP1 PUSH2 0x12E8 JUMPI JUMPDEST PUSH2 0x11E6 SWAP1 PUSH2 0x13ED JUMP JUMPDEST PUSH1 0x40 MLOAD PUSH4 0x23B872DD PUSH1 0xE0 SHL DUP2 MSTORE CALLER PUSH1 0x4 DUP3 ADD MSTORE ADDRESS PUSH1 0x24 DUP3 ADD MSTORE PUSH1 0x44 DUP2 ADD DUP7 SWAP1 MSTORE SWAP1 PUSH1 0x20 DUP3 PUSH1 0x64 DUP2 DUP5 DUP9 GAS CALL SWAP1 DUP2 ISZERO PUSH2 0x12DC JUMPI POP PUSH2 0x12BF JUMPI JUMPDEST POP PUSH2 0x1243 PUSH2 0x122E DUP7 DUP4 DUP10 DUP9 PUSH2 0x1730 JUMP JUMPDEST SWAP6 PUSH2 0x123A DUP8 ISZERO ISZERO PUSH2 0x1432 JUMP JUMPDEST DUP3 DUP9 DUP9 DUP9 PUSH2 0x1810 JUMP JUMPDEST PUSH1 0x40 MLOAD PUSH4 0xA9059CBB PUSH1 0xE0 SHL DUP2 MSTORE CALLER PUSH1 0x4 DUP3 ADD MSTORE PUSH1 0x24 DUP2 ADD DUP7 SWAP1 MSTORE SWAP6 PUSH1 0x20 DUP8 PUSH1 0x44 DUP2 PUSH1 0x0 DUP9 GAS CALL SWAP7 DUP8 ISZERO PUSH2 0x3FE JUMPI DUP6 PUSH2 0x1286 SWAP4 DUP9 SWAP3 PUSH1 0x20 SWAP11 PUSH2 0xDBB JUMPI POP CALLER SWAP4 PUSH2 0x1865 JUMP JUMPDEST PUSH1 0x40 MLOAD SWAP3 DUP4 MSTORE DUP4 DUP6 DUP5 ADD MSTORE PUSH32 0xB39C9BC43F811E1A7CE159C5F147458FDB80266BF23C17322013316E27E086D0 PUSH1 0x40 CALLER SWAP5 LOG4 PUSH1 0x40 MLOAD SWAP1 DUP2 MSTORE RETURN JUMPDEST PUSH2 0x12D7 SWAP1 PUSH1 0x20 RETURNDATASIZE PUSH1 0x20 GT PUSH2 0x3F7 JUMPI PUSH2 0x3EA DUP2 DUP4 PUSH2 0x14B0 JUMP JUMPDEST PUSH2 0x121E JUMP JUMPDEST PUSH1 0x40 MLOAD SWAP1 RETURNDATASIZE SWAP1 DUP3 RETURNDATACOPY RETURNDATASIZE SWAP1 REVERT JUMPDEST POP PUSH1 0x1 DUP7 ADD SLOAD ISZERO ISZERO PUSH2 0x11DD JUMP JUMPDEST DUP6 DUP2 PUSH2 0x11AE JUMP JUMPDEST DUP1 SLOAD DUP3 LT ISZERO PUSH2 0x105A JUMPI PUSH1 0x0 MSTORE PUSH1 0x20 PUSH1 0x0 KECCAK256 ADD SWAP1 PUSH1 0x0 SWAP1 JUMP JUMPDEST SWAP1 PUSH2 0x3E5 DUP3 MUL SWAP2 DUP1 DUP4 DIV PUSH2 0x3E5 EQ SWAP1 ISZERO OR ISZERO PUSH2 0x7F2 JUMPI JUMP JUMPDEST DUP2 DUP2 MUL SWAP3 SWAP2 DUP2 ISZERO SWAP2 DUP5 DIV EQ OR ISZERO PUSH2 0x7F2 JUMPI JUMP JUMPDEST DUP2 ISZERO PUSH2 0x1349 JUMPI DIV SWAP1 JUMP JUMPDEST PUSH4 0x4E487B71 PUSH1 0xE0 SHL PUSH1 0x0 MSTORE PUSH1 0x12 PUSH1 0x4 MSTORE PUSH1 0x24 PUSH1 0x0 REVERT JUMPDEST ISZERO PUSH2 0x1366 JUMPI JUMP JUMPDEST PUSH1 0x40 MLOAD PUSH3 0x461BCD PUSH1 0xE5 SHL DUP2 MSTORE PUSH1 0x20 PUSH1 0x4 DUP3 ADD MSTORE PUSH1 0x13 PUSH1 0x24 DUP3 ADD MSTORE PUSH19 0x4944454E544943414C5F414444524553534553 PUSH1 0x68 SHL PUSH1 0x44 DUP3 ADD MSTORE PUSH1 0x64 SWAP1 REVERT JUMPDEST ISZERO PUSH2 0x13A8 JUMPI JUMP JUMPDEST PUSH1 0x40 MLOAD PUSH3 0x461BCD PUSH1 0xE5 SHL DUP2 MSTORE PUSH1 0x20 PUSH1 0x4 DUP3 ADD MSTORE PUSH1 0x19 PUSH1 0x24 DUP3 ADD MSTORE PUSH32 0x494E53554646494349454E545F494E5055545F414D4F554E5400000000000000 PUSH1 0x44 DUP3 ADD MSTORE PUSH1 0x64 SWAP1 REVERT JUMPDEST ISZERO PUSH2 0x13F4 JUMPI JUMP JUMPDEST PUSH1 0x40 MLOAD PUSH3 0x461BCD PUSH1 0xE5 SHL DUP2 MSTORE PUSH1 0x20 PUSH1 0x4 DUP3 ADD MSTORE PUSH1 0x16 PUSH1 0x24 DUP3 ADD MSTORE PUSH22 0x494E53554646494349454E545F4C4951554944495459 PUSH1 0x50 SHL PUSH1 0x44 DUP3 ADD MSTORE PUSH1 0x64 SWAP1 REVERT JUMPDEST ISZERO PUSH2 0x1439 JUMPI JUMP JUMPDEST PUSH1 0x40 MLOAD PUSH3 0x461BCD PUSH1 0xE5 SHL DUP2 MSTORE PUSH1 0x20 PUSH1 0x4 DUP3 ADD MSTORE PUSH1 0x1A PUSH1 0x24 DUP3 ADD MSTORE PUSH32 0x494E53554646494349454E545F4F55545055545F414D4F554E54000000000000 PUSH1 0x44 DUP3 ADD MSTORE PUSH1 0x64 SWAP1 REVERT JUMPDEST PUSH1 0xE0 DUP2 ADD SWAP1 DUP2 LT PUSH8 0xFFFFFFFFFFFFFFFF DUP3 GT OR PUSH2 0x149A JUMPI PUSH1 0x40 MSTORE JUMP JUMPDEST PUSH4 0x4E487B71 PUSH1 0xE0 SHL PUSH1 0x0 MSTORE PUSH1 0x41 PUSH1 0x4 MSTORE PUSH1 0x24 PUSH1 0x0 REVERT JUMPDEST SWAP1 PUSH1 0x1F DUP1 NOT SWAP2 ADD AND DUP2 ADD SWAP1 DUP2 LT PUSH8 0xFFFFFFFFFFFFFFFF DUP3 GT OR PUSH2 0x149A JUMPI PUSH1 0x40 MSTORE JUMP JUMPDEST SWAP1 DUP2 PUSH1 0x20 SWAP2 SUB SLT PUSH2 0x12C JUMPI MLOAD DUP1 ISZERO ISZERO DUP2 SUB PUSH2 0x12C JUMPI SWAP1 JUMP JUMPDEST PUSH8 0xFFFFFFFFFFFFFFFF DUP2 GT PUSH2 0x149A JUMPI PUSH1 0x5 SHL PUSH1 0x20 ADD SWAP1 JUMP JUMPDEST PUSH1 0x40 MLOAD SWAP1 PUSH2 0x150F DUP3 PUSH2 0x147E JUMP JUMPDEST PUSH1 0x0 PUSH1 0xC0 DUP4 DUP3 DUP2 MSTORE DUP3 PUSH1 0x20 DUP3 ADD MSTORE DUP3 PUSH1 0x40 DUP3 ADD MSTORE DUP3 PUSH1 0x60 DUP3 ADD MSTORE DUP3 PUSH1 0x80 DUP3 ADD MSTORE DUP3 PUSH1 0xA0 DUP3 ADD MSTORE ADD MSTORE JUMP JUMPDEST SWAP1 PUSH2 0x1543 DUP3 PUSH2 0x14EA JUMP JUMPDEST PUSH2 0x1550 PUSH1 0x40 MLOAD SWAP2 DUP3 PUSH2 0x14B0 JUMP JUMPDEST DUP3 DUP2 MSTORE DUP1 SWAP3 PUSH2 0x1561 PUSH1 0x1F NOT SWAP2 PUSH2 0x14EA JUMP JUMPDEST ADD SWAP1 PUSH1 0x0 JUMPDEST DUP3 DUP2 LT PUSH2 0x1572 JUMPI POP POP POP JUMP JUMPDEST PUSH1 0x20 SWAP1 PUSH2 0x157D PUSH2 0x1502 JUMP JUMPDEST DUP3 DUP3 DUP6 ADD ADD MSTORE ADD PUSH2 0x1566 JUMP JUMPDEST DUP1 MLOAD DUP3 LT ISZERO PUSH2 0x105A JUMPI PUSH1 0x20 SWAP2 PUSH1 0x5 SHL ADD ADD SWAP1 JUMP JUMPDEST SWAP1 PUSH1 0x40 MLOAD PUSH2 0x15AA DUP2 PUSH2 0x147E JUMP JUMPDEST DUP3 SLOAD PUSH1 0x1 PUSH1 0x1 PUSH1 0xA0 SHL SUB SWAP1 DUP2 AND DUP3 MSTORE PUSH1 0x1 DUP5 ADD SLOAD DUP2 AND PUSH1 0x20 DUP4 ADD MSTORE PUSH1 0x2 DUP5 ADD SLOAD PUSH1 0x40 DUP4 ADD MSTORE PUSH1 0x3 DUP5 ADD SLOAD PUSH1 0x60 DUP4 ADD MSTORE PUSH1 0x4 DUP5 ADD SLOAD PUSH1 0x80 DUP4 ADD MSTORE PUSH1 0x5 DUP5 ADD SLOAD AND PUSH1 0xA0 DUP3 ADD MSTORE PUSH1 0x6 SWAP1 SWAP3 ADD SLOAD PUSH1 0xC0 DUP4 ADD MSTORE JUMP JUMPDEST SWAP2 SWAP1 DUP3 ADD DUP1 SWAP3 GT PUSH2 0x7F2 JUMPI JUMP JUMPDEST SWAP2 SWAP1 DUP3 SUB SWAP2 DUP3 GT PUSH2 0x7F2 JUMPI JUMP JUMPDEST PUSH1 0x1 PUSH1 0x1 PUSH1 0xA0 SHL SUB DUP1 DUP4 AND SWAP1 DUP3 AND LT SWAP2 PUSH1 0x40 SWAP2 DUP4 ISZERO PUSH2 0x16DE JUMPI JUMPDEST PUSH1 0x1 PUSH1 0x1 PUSH1 0xA0 SHL SUB SWAP1 DUP2 AND PUSH1 0x0 SWAP1 DUP2 MSTORE PUSH1 0x20 DUP2 DUP2 MSTORE DUP5 DUP3 KECCAK256 SWAP4 SWAP1 SWAP3 AND DUP2 MSTORE SWAP2 SWAP1 MSTORE KECCAK256 DUP1 SLOAD SWAP1 SWAP2 DUP2 ISZERO SWAP1 DUP2 DUP1 ISZERO PUSH2 0x16D2 JUMPI JUMPDEST PUSH2 0x16C9 JUMPI ISZERO PUSH2 0x169D JUMPI POP SWAP1 PUSH1 0x1 ADD SLOAD SWAP1 PUSH8 0xDE0B6B3A7640000 DUP3 MUL SWAP2 DUP1 DUP4 DIV PUSH8 0xDE0B6B3A7640000 EQ SWAP1 ISZERO OR ISZERO PUSH2 0x7F2 JUMPI PUSH2 0x169A SWAP2 PUSH2 0x133F JUMP JUMPDEST SWAP1 JUMP JUMPDEST PUSH8 0xDE0B6B3A7640000 DUP3 MUL SWAP2 DUP3 DIV PUSH8 0xDE0B6B3A7640000 EQ OR ISZERO PUSH2 0x7F2 JUMPI PUSH1 0x1 PUSH2 0x169A SWAP3 ADD SLOAD SWAP1 PUSH2 0x133F JUMP JUMPDEST POP POP POP POP PUSH1 0x0 SWAP1 JUMP JUMPDEST POP PUSH1 0x1 DUP5 ADD SLOAD ISZERO PUSH2 0x1660 JUMP JUMPDEST SWAP1 PUSH2 0x162F JUMP JUMPDEST ISZERO PUSH2 0x16EB JUMPI JUMP JUMPDEST PUSH1 0x40 MLOAD PUSH3 0x461BCD PUSH1 0xE5 SHL DUP2 MSTORE PUSH1 0x20 PUSH1 0x4 DUP3 ADD MSTORE PUSH1 0x1D PUSH1 0x24 DUP3 ADD MSTORE PUSH32 0x494E53554646494349454E545F4C49515549444954595F4255524E4544000000 PUSH1 0x44 DUP3 ADD MSTORE PUSH1 0x64 SWAP1 REVERT JUMPDEST PUSH2 0x173C SWAP1 SWAP4 SWAP3 SWAP4 PUSH2 0x1314 JUMP JUMPDEST SWAP3 PUSH1 0x1 PUSH1 0x1 PUSH1 0xA0 SHL SUB SWAP1 DUP2 AND SWAP2 AND LT SWAP1 DUP2 ISZERO PUSH2 0x179A JUMPI PUSH2 0x1761 PUSH1 0x1 DUP3 ADD SLOAD JUMPDEST DUP5 PUSH2 0x132C JUMP JUMPDEST SWAP2 ISZERO PUSH2 0x1791 JUMPI SLOAD JUMPDEST PUSH2 0x3E8 DUP2 MUL SWAP1 DUP1 DUP3 DIV PUSH2 0x3E8 EQ SWAP1 ISZERO OR ISZERO PUSH2 0x7F2 JUMPI PUSH2 0x169A SWAP3 PUSH2 0x178B SWAP2 PUSH2 0x15FB JUMP JUMPDEST SWAP1 PUSH2 0x133F JUMP JUMPDEST PUSH1 0x1 ADD SLOAD PUSH2 0x1769 JUMP JUMPDEST PUSH2 0x1761 DUP2 SLOAD PUSH2 0x175B JUMP JUMPDEST PUSH1 0x1 PUSH1 0x1 PUSH1 0xA0 SHL SUB SWAP3 DUP4 AND SWAP2 SWAP1 SWAP3 AND LT SWAP1 PUSH2 0x17C6 SWAP1 DUP3 ISZERO PUSH2 0x1806 JUMPI DUP4 SLOAD PUSH2 0x132C JUMP JUMPDEST SWAP1 PUSH2 0x3E8 DUP3 MUL SWAP2 DUP1 DUP4 DIV PUSH2 0x3E8 EQ SWAP1 ISZERO OR ISZERO PUSH2 0x7F2 JUMPI PUSH2 0x17F2 SWAP3 PUSH2 0x178B SWAP2 ISZERO PUSH2 0x1800 JUMPI PUSH1 0x1 ADD SLOAD PUSH2 0x1314 JUMP JUMPDEST PUSH1 0x1 DUP2 ADD DUP1 SWAP2 GT PUSH2 0x7F2 JUMPI SWAP1 JUMP JUMPDEST SLOAD PUSH2 0x1314 JUMP JUMPDEST PUSH1 0x1 DUP5 ADD SLOAD PUSH2 0x132C JUMP JUMPDEST SWAP1 SWAP4 SWAP3 SWAP1 SWAP2 PUSH1 0x1 PUSH1 0x1 PUSH1 0xA0 SHL SUB SWAP2 DUP3 AND SWAP2 AND LT ISZERO PUSH2 0x1848 JUMPI DUP2 PUSH2 0x1839 PUSH1 0x1 SWAP3 PUSH2 0x1844 SWAP5 SLOAD PUSH2 0x15FB JUMP JUMPDEST DUP2 SSTORE ADD SWAP2 DUP3 SLOAD PUSH2 0x1608 JUMP JUMPDEST SWAP1 SSTORE JUMP JUMPDEST SWAP2 DUP2 PUSH2 0x185A PUSH1 0x1 SWAP3 PUSH2 0x1844 SWAP5 SLOAD PUSH2 0x1608 JUMP JUMPDEST DUP2 SSTORE ADD SWAP2 DUP3 SLOAD PUSH2 0x15FB JUMP JUMPDEST SWAP2 SWAP1 SWAP3 SWAP4 PUSH1 0x40 MLOAD SWAP3 PUSH2 0x1876 DUP5 PUSH2 0x147E JUMP JUMPDEST PUSH1 0x1 DUP1 PUSH1 0xA0 SHL SUB AND DUP4 MSTORE PUSH1 0x20 DUP4 ADD SWAP4 PUSH1 0x1 DUP1 PUSH1 0xA0 SHL SUB AND DUP5 MSTORE PUSH1 0x40 DUP4 ADD SWAP2 DUP3 MSTORE PUSH1 0x60 DUP4 ADD SWAP5 DUP6 MSTORE PUSH1 0x80 DUP4 ADD TIMESTAMP DUP2 MSTORE PUSH1 0xA0 DUP5 ADD SWAP2 PUSH1 0x1 DUP1 PUSH1 0xA0 SHL SUB AND SWAP6 DUP7 DUP4 MSTORE PUSH1 0xC0 DUP6 ADD SWAP4 NUMBER DUP6 MSTORE PUSH1 0x1 SLOAD PUSH1 0x1 PUSH1 0x40 SHL DUP2 LT ISZERO PUSH2 0x149A JUMPI DUP1 PUSH1 0x1 PUSH2 0x18DC SWAP3 ADD PUSH1 0x1 SSTORE PUSH2 0x103B JUMP JUMPDEST SWAP8 SWAP1 SWAP8 PUSH2 0x19A0 JUMPI SWAP6 MLOAD DUP8 SLOAD PUSH1 0x1 PUSH1 0x1 PUSH1 0xA0 SHL SUB NOT SWAP1 DUP2 AND PUSH1 0x1 PUSH1 0x1 PUSH1 0xA0 SHL SUB SWAP3 DUP4 AND OR DUP10 SSTORE SWAP7 MLOAD PUSH1 0x1 DUP10 DUP2 ADD DUP1 SLOAD DUP11 AND SWAP3 DUP5 AND SWAP3 SWAP1 SWAP3 OR SWAP1 SWAP2 SSTORE SWAP2 MLOAD PUSH1 0x2 DUP1 DUP11 ADD SWAP2 SWAP1 SWAP2 SSTORE SWAP3 MLOAD PUSH1 0x3 DUP10 ADD SSTORE SWAP3 MLOAD PUSH1 0x4 DUP9 ADD SSTORE SWAP3 MLOAD PUSH1 0x5 DUP8 ADD DUP1 SLOAD SWAP1 SWAP7 AND SWAP3 AND SWAP2 SWAP1 SWAP2 OR SWAP1 SWAP4 SSTORE SWAP1 MLOAD PUSH1 0x6 SWAP4 SWAP1 SWAP4 ADD SWAP3 SWAP1 SWAP3 SSTORE PUSH1 0x0 SWAP3 DUP4 MSTORE PUSH1 0x20 MSTORE PUSH1 0x40 SWAP1 SWAP2 KECCAK256 SWAP1 SLOAD PUSH1 0x0 NOT DUP2 ADD SWAP2 SWAP1 DUP3 GT PUSH2 0x7F2 JUMPI DUP1 SLOAD PUSH1 0x1 PUSH1 0x40 SHL DUP2 LT ISZERO PUSH2 0x149A JUMPI PUSH2 0x1988 SWAP2 PUSH1 0x1 DUP3 ADD DUP2 SSTORE PUSH2 0x12FC JUMP JUMPDEST DUP2 SWAP3 SWAP2 SLOAD SWAP1 PUSH1 0x3 SHL SWAP2 DUP3 SHL SWAP2 PUSH1 0x0 NOT SWAP1 SHL NOT AND OR SWAP1 SSTORE JUMP JUMPDEST PUSH4 0x4E487B71 PUSH1 0xE0 SHL PUSH1 0x0 MSTORE PUSH1 0x0 PUSH1 0x4 MSTORE PUSH1 0x24 PUSH1 0x0 REVERT INVALID LOG2 PUSH5 0x6970667358 0x22 SLT KECCAK256 DUP4 DUP13 SWAP4 MCOPY SWAP6 ADD 0x24 0xBC 0xEF 0xDF INVALID 0xCA 0xD DUP1 0xF 0x22 SELFDESTRUCT ORIGIN BASEFEE PUSH31 0xB4A6BC00D1A9F5570C50672B64736F6C634300081C00330000000000000000 "},"methodIdentifiers":{"FEE_DENOMINATOR()":"d73792a9","SWAP_FEE()":"768aebde","addLiquidity(address,address,uint256,uint256)":"cf6c62ea","getAllUserSwapHistory(address)":"619db688","getAmountIn(address,address,uint256)":"53b609b5","getAmountOut(address,address,uint256)":"4aa06652","getBalance(address,address,address)":"d6bd603c","getLiquidity(address,address)":"ea526de7","getPoolInfo(address,address)":"486e51f4","getPrice(address,address)":"ac41865a","getReserves(address,address)":"d52bb6f4","getSwapDetails(uint256)":"b2109e2f","getTotalSwapCount()":"ed11da2a","getUserSwapCount(address)":"715e86b5","getUserSwapHistory(address,uint256,uint256)":"a7ff350c","pools(address,address)":"901754d7","removeLiquidity(address,address,uint256)":"d752fab2","swap(address,address,uint256)":"df791e50","swapExactTokensForTokens(address,address,uint256)":"bdedcbc0","swapHistory(uint256)":"0ddd03ba","swapTokensForExactTokens(address,address,uint256)":"4b916e67","userSwapIndices(address,uint256)":"ec0193c1"}}}}}