{"contracts/V4LiquidityManager.sol":{"V4LiquidityManager":{"abi":[{"inputs":[{"internalType":"address","name":"_poolManager","type":"address"}],"stateMutability":"nonpayable","type":"constructor"},{"anonymous":false,"inputs":[{"indexed":true,"internalType":"PoolId","name":"poolId","type":"bytes32"},{"indexed":true,"internalType":"address","name":"token0","type":"address"},{"indexed":true,"internalType":"address","name":"token1","type":"address"},{"indexed":false,"internalType":"uint256","name":"amount0","type":"uint256"},{"indexed":false,"internalType":"uint256","name":"amount1","type":"uint256"},{"indexed":false,"internalType":"int24","name":"tickLower","type":"int24"},{"indexed":false,"internalType":"int24","name":"tickUpper","type":"int24"}],"name":"LiquidityAdded","type":"event"},{"inputs":[{"components":[{"internalType":"Currency","name":"currency0","type":"address"},{"internalType":"Currency","name":"currency1","type":"address"},{"internalType":"uint24","name":"fee","type":"uint24"},{"internalType":"int24","name":"tickSpacing","type":"int24"},{"internalType":"contract IHooks","name":"hooks","type":"address"}],"internalType":"struct PoolKey","name":"poolKey","type":"tuple"},{"internalType":"int24","name":"tickLower","type":"int24"},{"internalType":"int24","name":"tickUpper","type":"int24"},{"internalType":"uint256","name":"amount0Desired","type":"uint256"},{"internalType":"uint256","name":"amount1Desired","type":"uint256"},{"internalType":"uint256","name":"amount0Min","type":"uint256"},{"internalType":"uint256","name":"amount1Min","type":"uint256"}],"name":"addLiquidity","outputs":[{"internalType":"uint256","name":"liquidity","type":"uint256"},{"internalType":"uint256","name":"amount0","type":"uint256"},{"internalType":"uint256","name":"amount1","type":"uint256"}],"stateMutability":"payable","type":"function"},{"inputs":[{"internalType":"address","name":"token","type":"address"}],"name":"getTokenBalance","outputs":[{"internalType":"uint256","name":"","type":"uint256"}],"stateMutability":"view","type":"function"},{"inputs":[],"name":"poolManager","outputs":[{"internalType":"contract IPoolManager","name":"","type":"address"}],"stateMutability":"view","type":"function"},{"inputs":[{"internalType":"bytes","name":"data","type":"bytes"}],"name":"unlockCallback","outputs":[{"internalType":"bytes","name":"","type":"bytes"}],"stateMutability":"nonpayable","type":"function"},{"inputs":[{"internalType":"address","name":"token","type":"address"},{"internalType":"uint256","name":"amount","type":"uint256"}],"name":"withdrawToken","outputs":[],"stateMutability":"nonpayable","type":"function"}],"evm":{"bytecode":{"linkReferences":{},"object":"60a0346100c457601f610eac38819003918201601f19168301916001600160401b038311848410176100c9578084926020946040528339810103126100c457516001600160a01b038116908190036100c457801561007f57608052604051610dcc90816100e08239608051818181606d0152818161026c015261078c0152f35b60405162461bcd60e51b815260206004820152601c60248201527f496e76616c696420706f6f6c206d616e616765722061646472657373000000006044820152606490fd5b600080fd5b634e487b7160e01b600052604160045260246000fdfe608080604052600436101561001357600080fd5b600090813560e01c9081633aecd0e314610bc45750806391dd73461461073b5780639b13a8f4146101315780639e281a981461009f5763dc4c90d31461005857600080fd5b3461009c578060031936011261009c576040517f00000000000000000000000000000000000000000000000000000000000000006001600160a01b03168152602090f35b80fd5b503461009c57604036600319011261009c576100b9610c4f565b60405163a9059cbb60e01b81523360048201526024803590820152906020908290604490829086906001600160a01b03165af18015610126576100fa575080f35b61011b9060203d60201161011f575b6101138183610d0d565b810190610d2f565b5080f35b503d610109565b6040513d84823e3d90fd5b50366003190161016081126107375760a01361009c5760a4358060020b8091036107375760c435918260020b80930361009c5760e43561010435848412156106fd578115801580916106f4575b156106bd57610606575b80610544575b604051946001600160a01b036101a2610c4f565b166020870152602435946001600160a01b03861680870361054057604088015260443562ffffff811680820361053c576060890152606435908160020b8083036105385760808a0152608435916001600160a01b03831680840361048057978a610267989960a0839c9d01528560c08201528660e082015289610100820152876101208201526101243561014082015261014435610160820152610160815261024d61018082610d0d565b604051809981926348c8949160e01b835260048301610ca1565b0381837f00000000000000000000000000000000000000000000000000000000000000006001600160a01b03165af196871561052d578997610484575b506060878051810103126104805760208701519589606060408a015199015199808a10610420575b5090808a10610394575b50506000916040519a6102e88c610cdb565b6004356001600160a01b0381168103610390578c5260208c015260408b01526060808b01919091526080808b019390935260a0909920917fc4d0a6d54598f56f88011ed208c0acabc64926c7ed7c2cd8d46d026c89e6250991506001600160a01b03610352610d47565b16936001600160a01b03610364610d5d565b1695604051918983528a602084015260408301528b820152a46040519350835260208301526040820152f35b8b80fd5b6020906103e0906103b68c6001600160a01b036103af610d5d565b1692610d73565b60405163a9059cbb60e01b8152336004820152602481019190915293849283919082906044820190565b03925af18015610415576103f6575b89906102d6565b61040e9060203d60201161011f576101138183610d0d565b50386103ef565b6040513d8c823e3d90fd5b60209061043b906103b68c6001600160a01b036103af610d47565b03925af1801561047557908b9291610456575b9190916102cc565b61046e9060203d60201161011f576101138183610d0d565b503861044e565b6040513d8d823e3d90fd5b8880fd5b9096503d808a833e6104968183610d0d565b8101906020818303126105295780519067ffffffffffffffff8211610511570181601f820112156105295780519067ffffffffffffffff821161051557604051926104eb601f8401601f191660200185610d0d565b82845260208383010111610511579061050a9160208085019101610c7e565b95386102a4565b8a80fd5b634e487b7160e01b8b52604160045260248bfd5b8980fd5b6040513d8b823e3d90fd5b8780fd5b8680fd5b8580fd5b6001600160a01b03610554610d5d565b6040516323b872dd60e01b81523360048201523060248201526044810184905291602091839160649183918991165af19081156105fb5784916105dc575b5061018e5760405162461bcd60e51b815260206004820152601a60248201527f5472616e73666572206661696c656420666f7220746f6b656e310000000000006044820152606490fd5b6105f5915060203d60201161011f576101138183610d0d565b38610592565b6040513d86823e3d90fd5b6001600160a01b03610616610d47565b6040516323b872dd60e01b81523360048201523060248201526044810185905291602091839160649183918991165af19081156105fb57849161069e575b506101885760405162461bcd60e51b815260206004820152601a60248201527f5472616e73666572206661696c656420666f7220746f6b656e300000000000006044820152606490fd5b6106b7915060203d60201161011f576101138183610d0d565b38610654565b60405162461bcd60e51b815260206004820152600f60248201526e496e76616c696420616d6f756e747360881b6044820152606490fd5b5081151561017e565b60405162461bcd60e51b8152602060048201526012602482015271496e76616c6964207469636b2072616e676560701b6044820152606490fd5b5080fd5b503461009c57602036600319011261009c5760043567ffffffffffffffff8111610737573660238201121561073757806004013567ffffffffffffffff8111610b77578101366024820111610b77577f00000000000000000000000000000000000000000000000000000000000000006001600160a01b03169033829003610b7f5761016083820312610b7b5760a09083900312610b77576040516107df81610cdb565b6107eb60248401610c6a565b81526107f960448401610c6a565b916020820192835260648401359362ffffff85168503610540576040830194855261082660848201610ccd565b906060840191825261083a60a48201610c6a565b906080850191825261084e60c48201610ccd565b8861085b60e48401610ccd565b926101248101359061010401358015159081610b08575b8215159182610a9f575b610a3e575b506109d6575b5050604051906080820182811067ffffffffffffffff821117610515576040908152600291820b835292810b602083019081526103e8838501908152606084018c81528551632d35e7ed60e11b815299516001600160a01b0390811660048c01529a518b1660248b01529a5162ffffff1660448a01529551820b60648901529351909716608487015251860b60a4860152905190940b60c48401525160e48301529251610104820152610140610124820152610144810184905291829061016490829086905af190811561012657829161099f575b61099b82604051906103e860208301528060801d600f0b6040830152600f0b60608201526060815261098f608082610d0d565b60405191829182610ca1565b0390f35b90506040813d6040116109ce575b816109ba60409383610d0d565b810103126107375761099b9150513861095c565b3d91506109ad565b885160405163095ea7b360e01b81526001600160a01b038981166004830152602482019390935292602092849260449284929091165af1801561041557610a1f575b8990610887565b610a379060203d60201161011f576101138183610d0d565b5038610a18565b895160405163095ea7b360e01b81526001600160a01b038b81166004830152602482019390935291602091839160449183918991165af180156105fb571561088157610a989060203d60201161011f576101138183610d0d565b5038610881565b8b516001600160a01b03168a3b1561054057604051632961046560e21b815260048101919091528581602481838f5af1908115610afd578691610ae4575b505061087c565b81610aee91610d0d565b610af9578438610add565b8480fd5b6040513d88823e3d90fd5b895192935090916001600160a01b0316883b15610b735760405190632961046560e21b825260048201528c81602481838d5af18015610b6857610b50575b50908b9291610872565b8c610b5f919d9294939d610d0d565b9a909138610b46565b6040513d8f823e3d90fd5b8c80fd5b8280fd5b8380fd5b60405162461bcd60e51b815260206004820152601f60248201527f4f6e6c7920706f6f6c206d616e616765722063616e2063616c6c2074686973006044820152606490fd5b905034610737576020366003190112610737576020816024816001600160a01b03610bed610c4f565b6370a0823160e01b8352306004840152165afa908115610126578291610c19575b602082604051908152f35b90506020813d602011610c47575b81610c3460209383610d0d565b8101031261073757602091505138610c0e565b3d9150610c27565b600435906001600160a01b0382168203610c6557565b600080fd5b35906001600160a01b0382168203610c6557565b60005b838110610c915750506000910152565b8181015183820152602001610c81565b60409160208252610cc18151809281602086015260208686019101610c7e565b601f01601f1916010190565b35908160020b8203610c6557565b60a0810190811067ffffffffffffffff821117610cf757604052565b634e487b7160e01b600052604160045260246000fd5b90601f8019910116810190811067ffffffffffffffff821117610cf757604052565b90816020910312610c6557518015158103610c655790565b6004356001600160a01b0381168103610c655790565b6024356001600160a01b0381168103610c655790565b91908203918211610d8057565b634e487b7160e01b600052601160045260246000fdfea2646970667358221220bb0afdba082e6e8be2dad14726e06eb962920a8ec4e523ef6d1d05b53bb0cd8a64736f6c634300081c0033","opcodes":"PUSH1 0xA0 CALLVALUE PUSH2 0xC4 JUMPI PUSH1 0x1F PUSH2 0xEAC CODESIZE DUP2 SWAP1 SUB SWAP2 DUP3 ADD PUSH1 0x1F NOT AND DUP4 ADD SWAP2 PUSH1 0x1 PUSH1 0x1 PUSH1 0x40 SHL SUB DUP4 GT DUP5 DUP5 LT OR PUSH2 0xC9 JUMPI DUP1 DUP5 SWAP3 PUSH1 0x20 SWAP5 PUSH1 0x40 MSTORE DUP4 CODECOPY DUP2 ADD SUB SLT PUSH2 0xC4 JUMPI MLOAD PUSH1 0x1 PUSH1 0x1 PUSH1 0xA0 SHL SUB DUP2 AND SWAP1 DUP2 SWAP1 SUB PUSH2 0xC4 JUMPI DUP1 ISZERO PUSH2 0x7F JUMPI PUSH1 0x80 MSTORE PUSH1 0x40 MLOAD PUSH2 0xDCC SWAP1 DUP2 PUSH2 0xE0 DUP3 CODECOPY PUSH1 0x80 MLOAD DUP2 DUP2 DUP2 PUSH1 0x6D ADD MSTORE DUP2 DUP2 PUSH2 0x26C ADD MSTORE PUSH2 0x78C ADD MSTORE RETURN JUMPDEST PUSH1 0x40 MLOAD PUSH3 0x461BCD PUSH1 0xE5 SHL DUP2 MSTORE PUSH1 0x20 PUSH1 0x4 DUP3 ADD MSTORE PUSH1 0x1C PUSH1 0x24 DUP3 ADD MSTORE PUSH32 0x496E76616C696420706F6F6C206D616E61676572206164647265737300000000 PUSH1 0x44 DUP3 ADD MSTORE PUSH1 0x64 SWAP1 REVERT JUMPDEST PUSH1 0x0 DUP1 REVERT JUMPDEST PUSH4 0x4E487B71 PUSH1 0xE0 SHL PUSH1 0x0 MSTORE PUSH1 0x41 PUSH1 0x4 MSTORE PUSH1 0x24 PUSH1 0x0 REVERT INVALID PUSH1 0x80 DUP1 PUSH1 0x40 MSTORE PUSH1 0x4 CALLDATASIZE LT ISZERO PUSH2 0x13 JUMPI PUSH1 0x0 DUP1 REVERT JUMPDEST PUSH1 0x0 SWAP1 DUP2 CALLDATALOAD PUSH1 0xE0 SHR SWAP1 DUP2 PUSH4 0x3AECD0E3 EQ PUSH2 0xBC4 JUMPI POP DUP1 PUSH4 0x91DD7346 EQ PUSH2 0x73B JUMPI DUP1 PUSH4 0x9B13A8F4 EQ PUSH2 0x131 JUMPI DUP1 PUSH4 0x9E281A98 EQ PUSH2 0x9F JUMPI PUSH4 0xDC4C90D3 EQ PUSH2 0x58 JUMPI PUSH1 0x0 DUP1 REVERT JUMPDEST CALLVALUE PUSH2 0x9C JUMPI DUP1 PUSH1 0x3 NOT CALLDATASIZE ADD SLT PUSH2 0x9C JUMPI PUSH1 0x40 MLOAD PUSH32 0x0 PUSH1 0x1 PUSH1 0x1 PUSH1 0xA0 SHL SUB AND DUP2 MSTORE PUSH1 0x20 SWAP1 RETURN JUMPDEST DUP1 REVERT JUMPDEST POP CALLVALUE PUSH2 0x9C JUMPI PUSH1 0x40 CALLDATASIZE PUSH1 0x3 NOT ADD SLT PUSH2 0x9C JUMPI PUSH2 0xB9 PUSH2 0xC4F JUMP JUMPDEST PUSH1 0x40 MLOAD PUSH4 0xA9059CBB PUSH1 0xE0 SHL DUP2 MSTORE CALLER PUSH1 0x4 DUP3 ADD MSTORE PUSH1 0x24 DUP1 CALLDATALOAD SWAP1 DUP3 ADD MSTORE SWAP1 PUSH1 0x20 SWAP1 DUP3 SWAP1 PUSH1 0x44 SWAP1 DUP3 SWAP1 DUP7 SWAP1 PUSH1 0x1 PUSH1 0x1 PUSH1 0xA0 SHL SUB AND GAS CALL DUP1 ISZERO PUSH2 0x126 JUMPI PUSH2 0xFA JUMPI POP DUP1 RETURN JUMPDEST PUSH2 0x11B SWAP1 PUSH1 0x20 RETURNDATASIZE PUSH1 0x20 GT PUSH2 0x11F JUMPI JUMPDEST PUSH2 0x113 DUP2 DUP4 PUSH2 0xD0D JUMP JUMPDEST DUP2 ADD SWAP1 PUSH2 0xD2F JUMP JUMPDEST POP DUP1 RETURN JUMPDEST POP RETURNDATASIZE PUSH2 0x109 JUMP JUMPDEST PUSH1 0x40 MLOAD RETURNDATASIZE DUP5 DUP3 RETURNDATACOPY RETURNDATASIZE SWAP1 REVERT JUMPDEST POP CALLDATASIZE PUSH1 0x3 NOT ADD PUSH2 0x160 DUP2 SLT PUSH2 0x737 JUMPI PUSH1 0xA0 SGT PUSH2 0x9C JUMPI PUSH1 0xA4 CALLDATALOAD DUP1 PUSH1 0x2 SIGNEXTEND DUP1 SWAP2 SUB PUSH2 0x737 JUMPI PUSH1 0xC4 CALLDATALOAD SWAP2 DUP3 PUSH1 0x2 SIGNEXTEND DUP1 SWAP4 SUB PUSH2 0x9C JUMPI PUSH1 0xE4 CALLDATALOAD PUSH2 0x104 CALLDATALOAD DUP5 DUP5 SLT ISZERO PUSH2 0x6FD JUMPI DUP2 ISZERO DUP1 ISZERO DUP1 SWAP2 PUSH2 0x6F4 JUMPI JUMPDEST ISZERO PUSH2 0x6BD JUMPI PUSH2 0x606 JUMPI JUMPDEST DUP1 PUSH2 0x544 JUMPI JUMPDEST PUSH1 0x40 MLOAD SWAP5 PUSH1 0x1 PUSH1 0x1 PUSH1 0xA0 SHL SUB PUSH2 0x1A2 PUSH2 0xC4F JUMP JUMPDEST AND PUSH1 0x20 DUP8 ADD MSTORE PUSH1 0x24 CALLDATALOAD SWAP5 PUSH1 0x1 PUSH1 0x1 PUSH1 0xA0 SHL SUB DUP7 AND DUP1 DUP8 SUB PUSH2 0x540 JUMPI PUSH1 0x40 DUP9 ADD MSTORE PUSH1 0x44 CALLDATALOAD PUSH3 0xFFFFFF DUP2 AND DUP1 DUP3 SUB PUSH2 0x53C JUMPI PUSH1 0x60 DUP10 ADD MSTORE PUSH1 0x64 CALLDATALOAD SWAP1 DUP2 PUSH1 0x2 SIGNEXTEND DUP1 DUP4 SUB PUSH2 0x538 JUMPI PUSH1 0x80 DUP11 ADD MSTORE PUSH1 0x84 CALLDATALOAD SWAP2 PUSH1 0x1 PUSH1 0x1 PUSH1 0xA0 SHL SUB DUP4 AND DUP1 DUP5 SUB PUSH2 0x480 JUMPI SWAP8 DUP11 PUSH2 0x267 SWAP9 SWAP10 PUSH1 0xA0 DUP4 SWAP13 SWAP14 ADD MSTORE DUP6 PUSH1 0xC0 DUP3 ADD MSTORE DUP7 PUSH1 0xE0 DUP3 ADD MSTORE DUP10 PUSH2 0x100 DUP3 ADD MSTORE DUP8 PUSH2 0x120 DUP3 ADD MSTORE PUSH2 0x124 CALLDATALOAD PUSH2 0x140 DUP3 ADD MSTORE PUSH2 0x144 CALLDATALOAD PUSH2 0x160 DUP3 ADD MSTORE PUSH2 0x160 DUP2 MSTORE PUSH2 0x24D PUSH2 0x180 DUP3 PUSH2 0xD0D JUMP JUMPDEST PUSH1 0x40 MLOAD DUP1 SWAP10 DUP2 SWAP3 PUSH4 0x48C89491 PUSH1 0xE0 SHL DUP4 MSTORE PUSH1 0x4 DUP4 ADD PUSH2 0xCA1 JUMP JUMPDEST SUB DUP2 DUP4 PUSH32 0x0 PUSH1 0x1 PUSH1 0x1 PUSH1 0xA0 SHL SUB AND GAS CALL SWAP7 DUP8 ISZERO PUSH2 0x52D JUMPI DUP10 SWAP8 PUSH2 0x484 JUMPI JUMPDEST POP PUSH1 0x60 DUP8 DUP1 MLOAD DUP2 ADD SUB SLT PUSH2 0x480 JUMPI PUSH1 0x20 DUP8 ADD MLOAD SWAP6 DUP10 PUSH1 0x60 PUSH1 0x40 DUP11 ADD MLOAD SWAP10 ADD MLOAD SWAP10 DUP1 DUP11 LT PUSH2 0x420 JUMPI JUMPDEST POP SWAP1 DUP1 DUP11 LT PUSH2 0x394 JUMPI JUMPDEST POP POP PUSH1 0x0 SWAP2 PUSH1 0x40 MLOAD SWAP11 PUSH2 0x2E8 DUP13 PUSH2 0xCDB JUMP JUMPDEST PUSH1 0x4 CALLDATALOAD PUSH1 0x1 PUSH1 0x1 PUSH1 0xA0 SHL SUB DUP2 AND DUP2 SUB PUSH2 0x390 JUMPI DUP13 MSTORE PUSH1 0x20 DUP13 ADD MSTORE PUSH1 0x40 DUP12 ADD MSTORE PUSH1 0x60 DUP1 DUP12 ADD SWAP2 SWAP1 SWAP2 MSTORE PUSH1 0x80 DUP1 DUP12 ADD SWAP4 SWAP1 SWAP4 MSTORE PUSH1 0xA0 SWAP1 SWAP10 KECCAK256 SWAP2 PUSH32 0xC4D0A6D54598F56F88011ED208C0ACABC64926C7ED7C2CD8D46D026C89E62509 SWAP2 POP PUSH1 0x1 PUSH1 0x1 PUSH1 0xA0 SHL SUB PUSH2 0x352 PUSH2 0xD47 JUMP JUMPDEST AND SWAP4 PUSH1 0x1 PUSH1 0x1 PUSH1 0xA0 SHL SUB PUSH2 0x364 PUSH2 0xD5D JUMP JUMPDEST AND SWAP6 PUSH1 0x40 MLOAD SWAP2 DUP10 DUP4 MSTORE DUP11 PUSH1 0x20 DUP5 ADD MSTORE PUSH1 0x40 DUP4 ADD MSTORE DUP12 DUP3 ADD MSTORE LOG4 PUSH1 0x40 MLOAD SWAP4 POP DUP4 MSTORE PUSH1 0x20 DUP4 ADD MSTORE PUSH1 0x40 DUP3 ADD MSTORE RETURN JUMPDEST DUP12 DUP1 REVERT JUMPDEST PUSH1 0x20 SWAP1 PUSH2 0x3E0 SWAP1 PUSH2 0x3B6 DUP13 PUSH1 0x1 PUSH1 0x1 PUSH1 0xA0 SHL SUB PUSH2 0x3AF PUSH2 0xD5D JUMP JUMPDEST AND SWAP3 PUSH2 0xD73 JUMP JUMPDEST PUSH1 0x40 MLOAD PUSH4 0xA9059CBB PUSH1 0xE0 SHL DUP2 MSTORE CALLER PUSH1 0x4 DUP3 ADD MSTORE PUSH1 0x24 DUP2 ADD SWAP2 SWAP1 SWAP2 MSTORE SWAP4 DUP5 SWAP3 DUP4 SWAP2 SWAP1 DUP3 SWAP1 PUSH1 0x44 DUP3 ADD SWAP1 JUMP JUMPDEST SUB SWAP3 GAS CALL DUP1 ISZERO PUSH2 0x415 JUMPI PUSH2 0x3F6 JUMPI JUMPDEST DUP10 SWAP1 PUSH2 0x2D6 JUMP JUMPDEST PUSH2 0x40E SWAP1 PUSH1 0x20 RETURNDATASIZE PUSH1 0x20 GT PUSH2 0x11F JUMPI PUSH2 0x113 DUP2 DUP4 PUSH2 0xD0D JUMP JUMPDEST POP CODESIZE PUSH2 0x3EF JUMP JUMPDEST PUSH1 0x40 MLOAD RETURNDATASIZE DUP13 DUP3 RETURNDATACOPY RETURNDATASIZE SWAP1 REVERT JUMPDEST PUSH1 0x20 SWAP1 PUSH2 0x43B SWAP1 PUSH2 0x3B6 DUP13 PUSH1 0x1 PUSH1 0x1 PUSH1 0xA0 SHL SUB PUSH2 0x3AF PUSH2 0xD47 JUMP JUMPDEST SUB SWAP3 GAS CALL DUP1 ISZERO PUSH2 0x475 JUMPI SWAP1 DUP12 SWAP3 SWAP2 PUSH2 0x456 JUMPI JUMPDEST SWAP2 SWAP1 SWAP2 PUSH2 0x2CC JUMP JUMPDEST PUSH2 0x46E SWAP1 PUSH1 0x20 RETURNDATASIZE PUSH1 0x20 GT PUSH2 0x11F JUMPI PUSH2 0x113 DUP2 DUP4 PUSH2 0xD0D JUMP JUMPDEST POP CODESIZE PUSH2 0x44E JUMP JUMPDEST PUSH1 0x40 MLOAD RETURNDATASIZE DUP14 DUP3 RETURNDATACOPY RETURNDATASIZE SWAP1 REVERT JUMPDEST DUP9 DUP1 REVERT JUMPDEST SWAP1 SWAP7 POP RETURNDATASIZE DUP1 DUP11 DUP4 RETURNDATACOPY PUSH2 0x496 DUP2 DUP4 PUSH2 0xD0D JUMP JUMPDEST DUP2 ADD SWAP1 PUSH1 0x20 DUP2 DUP4 SUB SLT PUSH2 0x529 JUMPI DUP1 MLOAD SWAP1 PUSH8 0xFFFFFFFFFFFFFFFF DUP3 GT PUSH2 0x511 JUMPI ADD DUP2 PUSH1 0x1F DUP3 ADD SLT ISZERO PUSH2 0x529 JUMPI DUP1 MLOAD SWAP1 PUSH8 0xFFFFFFFFFFFFFFFF DUP3 GT PUSH2 0x515 JUMPI PUSH1 0x40 MLOAD SWAP3 PUSH2 0x4EB PUSH1 0x1F DUP5 ADD PUSH1 0x1F NOT AND PUSH1 0x20 ADD DUP6 PUSH2 0xD0D JUMP JUMPDEST DUP3 DUP5 MSTORE PUSH1 0x20 DUP4 DUP4 ADD ADD GT PUSH2 0x511 JUMPI SWAP1 PUSH2 0x50A SWAP2 PUSH1 0x20 DUP1 DUP6 ADD SWAP2 ADD PUSH2 0xC7E JUMP JUMPDEST SWAP6 CODESIZE PUSH2 0x2A4 JUMP JUMPDEST DUP11 DUP1 REVERT JUMPDEST PUSH4 0x4E487B71 PUSH1 0xE0 SHL DUP12 MSTORE PUSH1 0x41 PUSH1 0x4 MSTORE PUSH1 0x24 DUP12 REVERT JUMPDEST DUP10 DUP1 REVERT JUMPDEST PUSH1 0x40 MLOAD RETURNDATASIZE DUP12 DUP3 RETURNDATACOPY RETURNDATASIZE SWAP1 REVERT JUMPDEST DUP8 DUP1 REVERT JUMPDEST DUP7 DUP1 REVERT JUMPDEST DUP6 DUP1 REVERT JUMPDEST PUSH1 0x1 PUSH1 0x1 PUSH1 0xA0 SHL SUB PUSH2 0x554 PUSH2 0xD5D JUMP JUMPDEST PUSH1 0x40 MLOAD PUSH4 0x23B872DD PUSH1 0xE0 SHL DUP2 MSTORE CALLER PUSH1 0x4 DUP3 ADD MSTORE ADDRESS PUSH1 0x24 DUP3 ADD MSTORE PUSH1 0x44 DUP2 ADD DUP5 SWAP1 MSTORE SWAP2 PUSH1 0x20 SWAP2 DUP4 SWAP2 PUSH1 0x64 SWAP2 DUP4 SWAP2 DUP10 SWAP2 AND GAS CALL SWAP1 DUP2 ISZERO PUSH2 0x5FB JUMPI DUP5 SWAP2 PUSH2 0x5DC JUMPI JUMPDEST POP PUSH2 0x18E JUMPI PUSH1 0x40 MLOAD PUSH3 0x461BCD PUSH1 0xE5 SHL DUP2 MSTORE PUSH1 0x20 PUSH1 0x4 DUP3 ADD MSTORE PUSH1 0x1A PUSH1 0x24 DUP3 ADD MSTORE PUSH32 0x5472616E73666572206661696C656420666F7220746F6B656E31000000000000 PUSH1 0x44 DUP3 ADD MSTORE PUSH1 0x64 SWAP1 REVERT JUMPDEST PUSH2 0x5F5 SWAP2 POP PUSH1 0x20 RETURNDATASIZE PUSH1 0x20 GT PUSH2 0x11F JUMPI PUSH2 0x113 DUP2 DUP4 PUSH2 0xD0D JUMP JUMPDEST CODESIZE PUSH2 0x592 JUMP JUMPDEST PUSH1 0x40 MLOAD RETURNDATASIZE DUP7 DUP3 RETURNDATACOPY RETURNDATASIZE SWAP1 REVERT JUMPDEST PUSH1 0x1 PUSH1 0x1 PUSH1 0xA0 SHL SUB PUSH2 0x616 PUSH2 0xD47 JUMP JUMPDEST PUSH1 0x40 MLOAD PUSH4 0x23B872DD PUSH1 0xE0 SHL DUP2 MSTORE CALLER PUSH1 0x4 DUP3 ADD MSTORE ADDRESS PUSH1 0x24 DUP3 ADD MSTORE PUSH1 0x44 DUP2 ADD DUP6 SWAP1 MSTORE SWAP2 PUSH1 0x20 SWAP2 DUP4 SWAP2 PUSH1 0x64 SWAP2 DUP4 SWAP2 DUP10 SWAP2 AND GAS CALL SWAP1 DUP2 ISZERO PUSH2 0x5FB JUMPI DUP5 SWAP2 PUSH2 0x69E JUMPI JUMPDEST POP PUSH2 0x188 JUMPI PUSH1 0x40 MLOAD PUSH3 0x461BCD PUSH1 0xE5 SHL DUP2 MSTORE PUSH1 0x20 PUSH1 0x4 DUP3 ADD MSTORE PUSH1 0x1A PUSH1 0x24 DUP3 ADD MSTORE PUSH32 0x5472616E73666572206661696C656420666F7220746F6B656E30000000000000 PUSH1 0x44 DUP3 ADD MSTORE PUSH1 0x64 SWAP1 REVERT JUMPDEST PUSH2 0x6B7 SWAP2 POP PUSH1 0x20 RETURNDATASIZE PUSH1 0x20 GT PUSH2 0x11F JUMPI PUSH2 0x113 DUP2 DUP4 PUSH2 0xD0D JUMP JUMPDEST CODESIZE PUSH2 0x654 JUMP JUMPDEST PUSH1 0x40 MLOAD PUSH3 0x461BCD PUSH1 0xE5 SHL DUP2 MSTORE PUSH1 0x20 PUSH1 0x4 DUP3 ADD MSTORE PUSH1 0xF PUSH1 0x24 DUP3 ADD MSTORE PUSH15 0x496E76616C696420616D6F756E7473 PUSH1 0x88 SHL PUSH1 0x44 DUP3 ADD MSTORE PUSH1 0x64 SWAP1 REVERT JUMPDEST POP DUP2 ISZERO ISZERO PUSH2 0x17E JUMP JUMPDEST PUSH1 0x40 MLOAD PUSH3 0x461BCD PUSH1 0xE5 SHL DUP2 MSTORE PUSH1 0x20 PUSH1 0x4 DUP3 ADD MSTORE PUSH1 0x12 PUSH1 0x24 DUP3 ADD MSTORE PUSH18 0x496E76616C6964207469636B2072616E6765 PUSH1 0x70 SHL PUSH1 0x44 DUP3 ADD MSTORE PUSH1 0x64 SWAP1 REVERT JUMPDEST POP DUP1 REVERT JUMPDEST POP CALLVALUE PUSH2 0x9C JUMPI PUSH1 0x20 CALLDATASIZE PUSH1 0x3 NOT ADD SLT PUSH2 0x9C JUMPI PUSH1 0x4 CALLDATALOAD PUSH8 0xFFFFFFFFFFFFFFFF DUP2 GT PUSH2 0x737 JUMPI CALLDATASIZE PUSH1 0x23 DUP3 ADD SLT ISZERO PUSH2 0x737 JUMPI DUP1 PUSH1 0x4 ADD CALLDATALOAD PUSH8 0xFFFFFFFFFFFFFFFF DUP2 GT PUSH2 0xB77 JUMPI DUP2 ADD CALLDATASIZE PUSH1 0x24 DUP3 ADD GT PUSH2 0xB77 JUMPI PUSH32 0x0 PUSH1 0x1 PUSH1 0x1 PUSH1 0xA0 SHL SUB AND SWAP1 CALLER DUP3 SWAP1 SUB PUSH2 0xB7F JUMPI PUSH2 0x160 DUP4 DUP3 SUB SLT PUSH2 0xB7B JUMPI PUSH1 0xA0 SWAP1 DUP4 SWAP1 SUB SLT PUSH2 0xB77 JUMPI PUSH1 0x40 MLOAD PUSH2 0x7DF DUP2 PUSH2 0xCDB JUMP JUMPDEST PUSH2 0x7EB PUSH1 0x24 DUP5 ADD PUSH2 0xC6A JUMP JUMPDEST DUP2 MSTORE PUSH2 0x7F9 PUSH1 0x44 DUP5 ADD PUSH2 0xC6A JUMP JUMPDEST SWAP2 PUSH1 0x20 DUP3 ADD SWAP3 DUP4 MSTORE PUSH1 0x64 DUP5 ADD CALLDATALOAD SWAP4 PUSH3 0xFFFFFF DUP6 AND DUP6 SUB PUSH2 0x540 JUMPI PUSH1 0x40 DUP4 ADD SWAP5 DUP6 MSTORE PUSH2 0x826 PUSH1 0x84 DUP3 ADD PUSH2 0xCCD JUMP JUMPDEST SWAP1 PUSH1 0x60 DUP5 ADD SWAP2 DUP3 MSTORE PUSH2 0x83A PUSH1 0xA4 DUP3 ADD PUSH2 0xC6A JUMP JUMPDEST SWAP1 PUSH1 0x80 DUP6 ADD SWAP2 DUP3 MSTORE PUSH2 0x84E PUSH1 0xC4 DUP3 ADD PUSH2 0xCCD JUMP JUMPDEST DUP9 PUSH2 0x85B PUSH1 0xE4 DUP5 ADD PUSH2 0xCCD JUMP JUMPDEST SWAP3 PUSH2 0x124 DUP2 ADD CALLDATALOAD SWAP1 PUSH2 0x104 ADD CALLDATALOAD DUP1 ISZERO ISZERO SWAP1 DUP2 PUSH2 0xB08 JUMPI JUMPDEST DUP3 ISZERO ISZERO SWAP2 DUP3 PUSH2 0xA9F JUMPI JUMPDEST PUSH2 0xA3E JUMPI JUMPDEST POP PUSH2 0x9D6 JUMPI JUMPDEST POP POP PUSH1 0x40 MLOAD SWAP1 PUSH1 0x80 DUP3 ADD DUP3 DUP2 LT PUSH8 0xFFFFFFFFFFFFFFFF DUP3 GT OR PUSH2 0x515 JUMPI PUSH1 0x40 SWAP1 DUP2 MSTORE PUSH1 0x2 SWAP2 DUP3 SIGNEXTEND DUP4 MSTORE SWAP3 DUP2 SIGNEXTEND PUSH1 0x20 DUP4 ADD SWAP1 DUP2 MSTORE PUSH2 0x3E8 DUP4 DUP6 ADD SWAP1 DUP2 MSTORE PUSH1 0x60 DUP5 ADD DUP13 DUP2 MSTORE DUP6 MLOAD PUSH4 0x2D35E7ED PUSH1 0xE1 SHL DUP2 MSTORE SWAP10 MLOAD PUSH1 0x1 PUSH1 0x1 PUSH1 0xA0 SHL SUB SWAP1 DUP2 AND PUSH1 0x4 DUP13 ADD MSTORE SWAP11 MLOAD DUP12 AND PUSH1 0x24 DUP12 ADD MSTORE SWAP11 MLOAD PUSH3 0xFFFFFF AND PUSH1 0x44 DUP11 ADD MSTORE SWAP6 MLOAD DUP3 SIGNEXTEND PUSH1 0x64 DUP10 ADD MSTORE SWAP4 MLOAD SWAP1 SWAP8 AND PUSH1 0x84 DUP8 ADD MSTORE MLOAD DUP7 SIGNEXTEND PUSH1 0xA4 DUP7 ADD MSTORE SWAP1 MLOAD SWAP1 SWAP5 SIGNEXTEND PUSH1 0xC4 DUP5 ADD MSTORE MLOAD PUSH1 0xE4 DUP4 ADD MSTORE SWAP3 MLOAD PUSH2 0x104 DUP3 ADD MSTORE PUSH2 0x140 PUSH2 0x124 DUP3 ADD MSTORE PUSH2 0x144 DUP2 ADD DUP5 SWAP1 MSTORE SWAP2 DUP3 SWAP1 PUSH2 0x164 SWAP1 DUP3 SWAP1 DUP7 SWAP1 GAS CALL SWAP1 DUP2 ISZERO PUSH2 0x126 JUMPI DUP3 SWAP2 PUSH2 0x99F JUMPI JUMPDEST PUSH2 0x99B DUP3 PUSH1 0x40 MLOAD SWAP1 PUSH2 0x3E8 PUSH1 0x20 DUP4 ADD MSTORE DUP1 PUSH1 0x80 SAR PUSH1 0xF SIGNEXTEND PUSH1 0x40 DUP4 ADD MSTORE PUSH1 0xF SIGNEXTEND PUSH1 0x60 DUP3 ADD MSTORE PUSH1 0x60 DUP2 MSTORE PUSH2 0x98F PUSH1 0x80 DUP3 PUSH2 0xD0D JUMP JUMPDEST PUSH1 0x40 MLOAD SWAP2 DUP3 SWAP2 DUP3 PUSH2 0xCA1 JUMP JUMPDEST SUB SWAP1 RETURN JUMPDEST SWAP1 POP PUSH1 0x40 DUP2 RETURNDATASIZE PUSH1 0x40 GT PUSH2 0x9CE JUMPI JUMPDEST DUP2 PUSH2 0x9BA PUSH1 0x40 SWAP4 DUP4 PUSH2 0xD0D JUMP JUMPDEST DUP2 ADD SUB SLT PUSH2 0x737 JUMPI PUSH2 0x99B SWAP2 POP MLOAD CODESIZE PUSH2 0x95C JUMP JUMPDEST RETURNDATASIZE SWAP2 POP PUSH2 0x9AD JUMP JUMPDEST DUP9 MLOAD PUSH1 0x40 MLOAD PUSH4 0x95EA7B3 PUSH1 0xE0 SHL DUP2 MSTORE PUSH1 0x1 PUSH1 0x1 PUSH1 0xA0 SHL SUB DUP10 DUP2 AND PUSH1 0x4 DUP4 ADD MSTORE PUSH1 0x24 DUP3 ADD SWAP4 SWAP1 SWAP4 MSTORE SWAP3 PUSH1 0x20 SWAP3 DUP5 SWAP3 PUSH1 0x44 SWAP3 DUP5 SWAP3 SWAP1 SWAP2 AND GAS CALL DUP1 ISZERO PUSH2 0x415 JUMPI PUSH2 0xA1F JUMPI JUMPDEST DUP10 SWAP1 PUSH2 0x887 JUMP JUMPDEST PUSH2 0xA37 SWAP1 PUSH1 0x20 RETURNDATASIZE PUSH1 0x20 GT PUSH2 0x11F JUMPI PUSH2 0x113 DUP2 DUP4 PUSH2 0xD0D JUMP JUMPDEST POP CODESIZE PUSH2 0xA18 JUMP JUMPDEST DUP10 MLOAD PUSH1 0x40 MLOAD PUSH4 0x95EA7B3 PUSH1 0xE0 SHL DUP2 MSTORE PUSH1 0x1 PUSH1 0x1 PUSH1 0xA0 SHL SUB DUP12 DUP2 AND PUSH1 0x4 DUP4 ADD MSTORE PUSH1 0x24 DUP3 ADD SWAP4 SWAP1 SWAP4 MSTORE SWAP2 PUSH1 0x20 SWAP2 DUP4 SWAP2 PUSH1 0x44 SWAP2 DUP4 SWAP2 DUP10 SWAP2 AND GAS CALL DUP1 ISZERO PUSH2 0x5FB JUMPI ISZERO PUSH2 0x881 JUMPI PUSH2 0xA98 SWAP1 PUSH1 0x20 RETURNDATASIZE PUSH1 0x20 GT PUSH2 0x11F JUMPI PUSH2 0x113 DUP2 DUP4 PUSH2 0xD0D JUMP JUMPDEST POP CODESIZE PUSH2 0x881 JUMP JUMPDEST DUP12 MLOAD PUSH1 0x1 PUSH1 0x1 PUSH1 0xA0 SHL SUB AND DUP11 EXTCODESIZE ISZERO PUSH2 0x540 JUMPI PUSH1 0x40 MLOAD PUSH4 0x29610465 PUSH1 0xE2 SHL DUP2 MSTORE PUSH1 0x4 DUP2 ADD SWAP2 SWAP1 SWAP2 MSTORE DUP6 DUP2 PUSH1 0x24 DUP2 DUP4 DUP16 GAS CALL SWAP1 DUP2 ISZERO PUSH2 0xAFD JUMPI DUP7 SWAP2 PUSH2 0xAE4 JUMPI JUMPDEST POP POP PUSH2 0x87C JUMP JUMPDEST DUP2 PUSH2 0xAEE SWAP2 PUSH2 0xD0D JUMP JUMPDEST PUSH2 0xAF9 JUMPI DUP5 CODESIZE PUSH2 0xADD JUMP JUMPDEST DUP5 DUP1 REVERT JUMPDEST PUSH1 0x40 MLOAD RETURNDATASIZE DUP9 DUP3 RETURNDATACOPY RETURNDATASIZE SWAP1 REVERT JUMPDEST DUP10 MLOAD SWAP3 SWAP4 POP SWAP1 SWAP2 PUSH1 0x1 PUSH1 0x1 PUSH1 0xA0 SHL SUB AND DUP9 EXTCODESIZE ISZERO PUSH2 0xB73 JUMPI PUSH1 0x40 MLOAD SWAP1 PUSH4 0x29610465 PUSH1 0xE2 SHL DUP3 MSTORE PUSH1 0x4 DUP3 ADD MSTORE DUP13 DUP2 PUSH1 0x24 DUP2 DUP4 DUP14 GAS CALL DUP1 ISZERO PUSH2 0xB68 JUMPI PUSH2 0xB50 JUMPI JUMPDEST POP SWAP1 DUP12 SWAP3 SWAP2 PUSH2 0x872 JUMP JUMPDEST DUP13 PUSH2 0xB5F SWAP2 SWAP14 SWAP3 SWAP5 SWAP4 SWAP14 PUSH2 0xD0D JUMP JUMPDEST SWAP11 SWAP1 SWAP2 CODESIZE PUSH2 0xB46 JUMP JUMPDEST PUSH1 0x40 MLOAD RETURNDATASIZE DUP16 DUP3 RETURNDATACOPY RETURNDATASIZE SWAP1 REVERT JUMPDEST DUP13 DUP1 REVERT JUMPDEST DUP3 DUP1 REVERT JUMPDEST DUP4 DUP1 REVERT JUMPDEST PUSH1 0x40 MLOAD PUSH3 0x461BCD PUSH1 0xE5 SHL DUP2 MSTORE PUSH1 0x20 PUSH1 0x4 DUP3 ADD MSTORE PUSH1 0x1F PUSH1 0x24 DUP3 ADD MSTORE PUSH32 0x4F6E6C7920706F6F6C206D616E616765722063616E2063616C6C207468697300 PUSH1 0x44 DUP3 ADD MSTORE PUSH1 0x64 SWAP1 REVERT JUMPDEST SWAP1 POP CALLVALUE PUSH2 0x737 JUMPI PUSH1 0x20 CALLDATASIZE PUSH1 0x3 NOT ADD SLT PUSH2 0x737 JUMPI PUSH1 0x20 DUP2 PUSH1 0x24 DUP2 PUSH1 0x1 PUSH1 0x1 PUSH1 0xA0 SHL SUB PUSH2 0xBED PUSH2 0xC4F JUMP JUMPDEST PUSH4 0x70A08231 PUSH1 0xE0 SHL DUP4 MSTORE ADDRESS PUSH1 0x4 DUP5 ADD MSTORE AND GAS STATICCALL SWAP1 DUP2 ISZERO PUSH2 0x126 JUMPI DUP3 SWAP2 PUSH2 0xC19 JUMPI JUMPDEST PUSH1 0x20 DUP3 PUSH1 0x40 MLOAD SWAP1 DUP2 MSTORE RETURN JUMPDEST SWAP1 POP PUSH1 0x20 DUP2 RETURNDATASIZE PUSH1 0x20 GT PUSH2 0xC47 JUMPI JUMPDEST DUP2 PUSH2 0xC34 PUSH1 0x20 SWAP4 DUP4 PUSH2 0xD0D JUMP JUMPDEST DUP2 ADD SUB SLT PUSH2 0x737 JUMPI PUSH1 0x20 SWAP2 POP MLOAD CODESIZE PUSH2 0xC0E JUMP JUMPDEST RETURNDATASIZE SWAP2 POP PUSH2 0xC27 JUMP JUMPDEST PUSH1 0x4 CALLDATALOAD SWAP1 PUSH1 0x1 PUSH1 0x1 PUSH1 0xA0 SHL SUB DUP3 AND DUP3 SUB PUSH2 0xC65 JUMPI JUMP JUMPDEST PUSH1 0x0 DUP1 REVERT JUMPDEST CALLDATALOAD SWAP1 PUSH1 0x1 PUSH1 0x1 PUSH1 0xA0 SHL SUB DUP3 AND DUP3 SUB PUSH2 0xC65 JUMPI JUMP JUMPDEST PUSH1 0x0 JUMPDEST DUP4 DUP2 LT PUSH2 0xC91 JUMPI POP POP PUSH1 0x0 SWAP2 ADD MSTORE JUMP JUMPDEST DUP2 DUP2 ADD MLOAD DUP4 DUP3 ADD MSTORE PUSH1 0x20 ADD PUSH2 0xC81 JUMP JUMPDEST PUSH1 0x40 SWAP2 PUSH1 0x20 DUP3 MSTORE PUSH2 0xCC1 DUP2 MLOAD DUP1 SWAP3 DUP2 PUSH1 0x20 DUP7 ADD MSTORE PUSH1 0x20 DUP7 DUP7 ADD SWAP2 ADD PUSH2 0xC7E JUMP JUMPDEST PUSH1 0x1F ADD PUSH1 0x1F NOT AND ADD ADD SWAP1 JUMP JUMPDEST CALLDATALOAD SWAP1 DUP2 PUSH1 0x2 SIGNEXTEND DUP3 SUB PUSH2 0xC65 JUMPI JUMP JUMPDEST PUSH1 0xA0 DUP2 ADD SWAP1 DUP2 LT PUSH8 0xFFFFFFFFFFFFFFFF DUP3 GT OR PUSH2 0xCF7 JUMPI PUSH1 0x40 MSTORE JUMP JUMPDEST PUSH4 0x4E487B71 PUSH1 0xE0 SHL PUSH1 0x0 MSTORE PUSH1 0x41 PUSH1 0x4 MSTORE PUSH1 0x24 PUSH1 0x0 REVERT JUMPDEST SWAP1 PUSH1 0x1F DUP1 NOT SWAP2 ADD AND DUP2 ADD SWAP1 DUP2 LT PUSH8 0xFFFFFFFFFFFFFFFF DUP3 GT OR PUSH2 0xCF7 JUMPI PUSH1 0x40 MSTORE JUMP JUMPDEST SWAP1 DUP2 PUSH1 0x20 SWAP2 SUB SLT PUSH2 0xC65 JUMPI MLOAD DUP1 ISZERO ISZERO DUP2 SUB PUSH2 0xC65 JUMPI SWAP1 JUMP JUMPDEST PUSH1 0x4 CALLDATALOAD PUSH1 0x1 PUSH1 0x1 PUSH1 0xA0 SHL SUB DUP2 AND DUP2 SUB PUSH2 0xC65 JUMPI SWAP1 JUMP JUMPDEST PUSH1 0x24 CALLDATALOAD PUSH1 0x1 PUSH1 0x1 PUSH1 0xA0 SHL SUB DUP2 AND DUP2 SUB PUSH2 0xC65 JUMPI SWAP1 JUMP JUMPDEST SWAP2 SWAP1 DUP3 SUB SWAP2 DUP3 GT PUSH2 0xD80 JUMPI JUMP JUMPDEST PUSH4 0x4E487B71 PUSH1 0xE0 SHL PUSH1 0x0 MSTORE PUSH1 0x11 PUSH1 0x4 MSTORE PUSH1 0x24 PUSH1 0x0 REVERT INVALID LOG2 PUSH5 0x6970667358 0x22 SLT KECCAK256 0xBB EXP REVERT 0xBA ADDMOD 0x2E PUSH15 0x8BE2DAD14726E06EB962920A8EC4E5 0x23 0xEF PUSH14 0x1D05B53BB0CD8A64736F6C634300 ADDMOD SHR STOP CALLER "},"methodIdentifiers":{"addLiquidity((address,address,uint24,int24,address),int24,int24,uint256,uint256,uint256,uint256)":"9b13a8f4","getTokenBalance(address)":"3aecd0e3","poolManager()":"dc4c90d3","unlockCallback(bytes)":"91dd7346","withdrawToken(address,uint256)":"9e281a98"}}}}}