{"types/Currency.sol":{"CurrencyLibrary":{"abi":[{"inputs":[],"name":"ERC20TransferFailed","type":"error"},{"inputs":[],"name":"NativeTransferFailed","type":"error"},{"inputs":[],"name":"ADDRESS_ZERO","outputs":[{"internalType":"Currency","name":"","type":"address"}],"stateMutability":"view","type":"function"}],"evm":{"bytecode":{"linkReferences":{},"object":"6080806040523460175760759081601d823930815050f35b600080fdfe6080806040526004361015601257600080fd5b60003560e01c6366e7950914602657600080fd5b6000366003190112603a5780600060209252f35b600080fdfea264697066735822122077411f2a18a589227525148df362cc3464e3e12ec5710cf350e2aae74bc7014464736f6c634300081c0033","opcodes":"PUSH1 0x80 DUP1 PUSH1 0x40 MSTORE CALLVALUE PUSH1 0x17 JUMPI PUSH1 0x75 SWAP1 DUP2 PUSH1 0x1D DUP3 CODECOPY ADDRESS DUP2 POP POP RETURN JUMPDEST PUSH1 0x0 DUP1 REVERT INVALID PUSH1 0x80 DUP1 PUSH1 0x40 MSTORE PUSH1 0x4 CALLDATASIZE LT ISZERO PUSH1 0x12 JUMPI PUSH1 0x0 DUP1 REVERT JUMPDEST PUSH1 0x0 CALLDATALOAD PUSH1 0xE0 SHR PUSH4 0x66E79509 EQ PUSH1 0x26 JUMPI PUSH1 0x0 DUP1 REVERT JUMPDEST PUSH1 0x0 CALLDATASIZE PUSH1 0x3 NOT ADD SLT PUSH1 0x3A JUMPI DUP1 PUSH1 0x0 PUSH1 0x20 SWAP3 MSTORE RETURN JUMPDEST PUSH1 0x0 DUP1 REVERT INVALID LOG2 PUSH5 0x6970667358 0x22 SLT KECCAK256 PUSH24 0x411F2A18A589227525148DF362CC3464E3E12EC5710CF350 0xE2 0xAA 0xE7 0x4B 0xC7 ADD PREVRANDAO PUSH5 0x736F6C6343 STOP ADDMOD SHR STOP CALLER "},"methodIdentifiers":{"ADDRESS_ZERO()":"66e79509"}}}}}