{"contracts/Faucet.sol":{"Faucet":{"abi":[{"inputs":[],"stateMutability":"nonpayable","type":"constructor"},{"inputs":[{"internalType":"address","name":"owner","type":"address"}],"name":"OwnableInvalidOwner","type":"error"},{"inputs":[{"internalType":"address","name":"account","type":"address"}],"name":"OwnableUnauthorizedAccount","type":"error"},{"anonymous":false,"inputs":[{"indexed":true,"internalType":"address","name":"token","type":"address"},{"indexed":false,"internalType":"uint256","name":"newAmount","type":"uint256"}],"name":"FaucetAmountUpdated","type":"event"},{"anonymous":false,"inputs":[{"indexed":true,"internalType":"address","name":"user","type":"address"},{"indexed":true,"internalType":"address","name":"token","type":"address"},{"indexed":false,"internalType":"uint256","name":"amount","type":"uint256"}],"name":"FaucetUsed","type":"event"},{"anonymous":false,"inputs":[{"indexed":true,"internalType":"address","name":"previousOwner","type":"address"},{"indexed":true,"internalType":"address","name":"newOwner","type":"address"}],"name":"OwnershipTransferred","type":"event"},{"anonymous":false,"inputs":[{"indexed":true,"internalType":"address","name":"token","type":"address"},{"indexed":false,"internalType":"uint256","name":"amount","type":"uint256"}],"name":"TokenAdded","type":"event"},{"anonymous":false,"inputs":[{"indexed":true,"internalType":"address","name":"token","type":"address"}],"name":"TokenRemoved","type":"event"},{"inputs":[],"name":"FAUCET_COOLDOWN","outputs":[{"internalType":"uint256","name":"","type":"uint256"}],"stateMutability":"view","type":"function"},{"inputs":[{"internalType":"address","name":"token","type":"address"}],"name":"addToken","outputs":[],"stateMutability":"nonpayable","type":"function"},{"inputs":[{"internalType":"address","name":"token","type":"address"},{"internalType":"uint256","name":"amount","type":"uint256"}],"name":"emergencyWithdraw","outputs":[],"stateMutability":"nonpayable","type":"function"},{"inputs":[{"internalType":"address","name":"","type":"address"}],"name":"faucetAmounts","outputs":[{"internalType":"uint256","name":"","type":"uint256"}],"stateMutability":"view","type":"function"},{"inputs":[],"name":"getSupportedTokens","outputs":[{"internalType":"address[]","name":"","type":"address[]"}],"stateMutability":"view","type":"function"},{"inputs":[{"internalType":"address","name":"user","type":"address"}],"name":"getTimeUntilNextFaucet","outputs":[{"internalType":"uint256","name":"","type":"uint256"}],"stateMutability":"view","type":"function"},{"inputs":[{"internalType":"address","name":"token","type":"address"}],"name":"getTokenInfo","outputs":[{"internalType":"uint256","name":"amount","type":"uint256"},{"internalType":"string","name":"symbol","type":"string"},{"internalType":"string","name":"name","type":"string"}],"stateMutability":"view","type":"function"},{"inputs":[{"internalType":"address","name":"","type":"address"}],"name":"lastFaucetTime","outputs":[{"internalType":"uint256","name":"","type":"uint256"}],"stateMutability":"view","type":"function"},{"inputs":[],"name":"owner","outputs":[{"internalType":"address","name":"","type":"address"}],"stateMutability":"view","type":"function"},{"inputs":[{"internalType":"address","name":"token","type":"address"}],"name":"removeToken","outputs":[],"stateMutability":"nonpayable","type":"function"},{"inputs":[],"name":"renounceOwnership","outputs":[],"stateMutability":"nonpayable","type":"function"},{"inputs":[],"name":"requestAllFaucets","outputs":[],"stateMutability":"nonpayable","type":"function"},{"inputs":[{"internalType":"address","name":"token","type":"address"}],"name":"requestFaucet","outputs":[],"stateMutability":"nonpayable","type":"function"},{"inputs":[{"internalType":"uint256","name":"","type":"uint256"}],"name":"supportedTokens","outputs":[{"internalType":"address","name":"","type":"address"}],"stateMutability":"view","type":"function"},{"inputs":[{"internalType":"address","name":"newOwner","type":"address"}],"name":"transferOwnership","outputs":[],"stateMutability":"nonpayable","type":"function"},{"inputs":[{"internalType":"address","name":"token","type":"address"},{"internalType":"uint256","name":"newAmount","type":"uint256"}],"name":"updateFaucetAmount","outputs":[],"stateMutability":"nonpayable","type":"function"}],"evm":{"bytecode":{"linkReferences":{},"object":"608080604052346075573315605f5760008054336001600160a01b0319821681178355916001600160a01b03909116907f8be0079c531659141344cd1fd0a4f28419497f9722a3daafe3b4186f6b6457e09080a3610f0e908161007b8239f35b631e4fbdf760e01b600052600060045260246000fd5b600080fdfe608080604052600436101561001357600080fd5b60003560e01c90816314c47fbd14610bfc575080631f69565f14610aa95780632a7075411461095d5780633e6a099c146108835780635fa7b58414610760578063715018a6146107075780637bc1f6cc146106cd5780637d1d5d19146106af5780638da5cb5b1461068657806395ccea67146105dd578063c62556261461059b578063d3c7c2c7146104cf578063d48bfca714610316578063e21430d3146102eb578063f2fde38b146102625763ffc80e55146100cf57600080fd5b3461025d57600036600319011261025d57600354156102225733600052600160205260406000205462015180810180911161020c5761011090421015610d99565b3360005260016020524260406000205560005b60035481101561020a5761013681610c90565b905460039190911b1c6001600160a01b031660008181526002602052604090205491908261016a575b506001915001610123565b60405163a9059cbb60e01b815233600482015260248101849052926020846044816000865af19384156101fe576001946101d2575b506040519081527f45c201a59ac545000ead84f30b2db67da23353aa1d58ac522c48505412143ffa60203392a33861015f565b6101f29060203d81116101f7575b6101ea8183610cc1565b810190610df8565b61019f565b503d6101e0565b6040513d6000823e3d90fd5b005b634e487b7160e01b600052601160045260246000fd5b60405162461bcd60e51b81526020600482015260136024820152724e6f20746f6b656e7320617661696c61626c6560681b6044820152606490fd5b600080fd5b3461025d57602036600319011261025d5761027b610c32565b610283610eaf565b6001600160a01b031680156102d557600080546001600160a01b03198116831782556001600160a01b0316907f8be0079c531659141344cd1fd0a4f28419497f9722a3daafe3b4186f6b6457e09080a3005b631e4fbdf760e01b600052600060045260246000fd5b3461025d57602036600319011261025d57602061030e610309610c32565b610e5c565b604051908152f35b3461025d57602036600319011261025d5761032f610c32565b610337610eaf565b6001600160a01b0381169061034d821515610d55565b600354906000805b83811061049c575b5015610437575b505060405163313ce56760e01b8152602081600481855afa9081156101fe576000916103f4575b5060ff60001991160160ff811161020c5760ff16604d811161020c57600a0a8060050290600582040361020c5760207ff4c563a3ea86ff1f4275e8c207df0375a51963f2b831b7bf4da8be938d92876c91836000526002825280604060002055604051908152a2005b6020813d60201161042f575b8161040d60209383610cc1565b8101031261042b57519060ff8216820361042857508261038b565b80fd5b5080fd5b3d9150610400565b680100000000000000008210156104865761045b82600161047f9401600355610c90565b81546001600160a01b0393841660039290921b91821b9390911b1916919091179055565b8180610364565b634e487b7160e01b600052604160045260246000fd5b846104a682610c90565b905460039190911b1c6001600160a01b0316146104c557600101610355565b505060018461035d565b3461025d57600036600319011261025d576040518060206003549283815201809260036000527fc2575a0e9e593c00f959f8c92f12db2869c3395a3b0502d05e2516446f71f85b9060005b81811061057c5750505081610530910382610cc1565b6040519182916020830190602084525180915260408301919060005b81811061055a575050500390f35b82516001600160a01b031684528594506020938401939092019160010161054c565b82546001600160a01b031684526020909301926001928301920161051a565b3461025d57602036600319011261025d5760043560035481101561025d576105c4602091610c90565b905460405160039290921b1c6001600160a01b03168152f35b3461025d57604036600319011261025d5761065e60206105fb610c32565b60243590610607610eaf565b6001600160a01b031661061b811515610d55565b610626821515610e10565b6000805460405163a9059cbb60e01b81526001600160a01b039091166004820152602481019390935291938492839182906044820190565b03925af180156101fe5761066e57005b61020a9060203d6020116101f7576101ea8183610cc1565b3461025d57600036600319011261025d576000546040516001600160a01b039091168152602090f35b3461025d57600036600319011261025d576020604051620151808152f35b3461025d57602036600319011261025d576001600160a01b036106ee610c32565b1660005260016020526020604060002054604051908152f35b3461025d57600036600319011261025d57610720610eaf565b600080546001600160a01b0319811682556001600160a01b03167f8be0079c531659141344cd1fd0a4f28419497f9722a3daafe3b4186f6b6457e08280a3005b3461025d57602036600319011261025d57610779610c32565b610781610eaf565b6001600160a01b0316610795811515610d55565b60005b600354908181101561087c57826107ae82610c90565b905460039190911b1c6001600160a01b0316146107cf576001915001610798565b600019820191821161020c5761045b6107ea61080293610c90565b905460039190911b1c6001600160a01b031691610c90565b6003548015610866576000190161081881610c90565b81546001600160a01b03600392831b1b1916909155555b806000526002602052600060408120557f4c910b69fe65a61f7531b9c5042b2329ca7179c77290aa7e2eb3afa3c8511fd3600080a2005b634e487b7160e01b600052603160045260246000fd5b505061082f565b3461025d57604036600319011261025d5761089c610c32565b602435906108a8610eaf565b6001600160a01b0316906108bd821515610d55565b81600052600260205260406000205415610918576020816109007f4aa1b13eb889e81dc57ed88a5ff965bca06398336b3b226039dfeb6348679f73931515610e10565b836000526002825280604060002055604051908152a2005b60405162461bcd60e51b815260206004820152601860248201527f546f6b656e206e6f7420696e20666175636574206c69737400000000000000006044820152606490fd5b3461025d57602036600319011261025d576001600160a01b0361097e610c32565b1661098a811515610d55565b80600052600260205260406000205415610a645733600052600160205260406000205462015180810180911161020c576109c690421015610d99565b3360008181526001602090815260408083204290558483526002825280832054905163a9059cbb60e01b8152600481019490945260248401819052929182906044908290875af180156101fe57610a47575b506040519081527f45c201a59ac545000ead84f30b2db67da23353aa1d58ac522c48505412143ffa60203392a3005b610a5f9060203d6020116101f7576101ea8183610cc1565b610a18565b60405162461bcd60e51b815260206004820152601d60248201527f546f6b656e206e6f7420617661696c61626c6520696e206661756365740000006044820152606490fd5b3461025d57602036600319011261025d57610ac2610c32565b6001600160a01b03166000818152600260205260408082205490516395d89b4160e01b815290918082600481875afa90918282610bdf575b5050610bd4575060046000604051610b13604082610cc1565b60078152662aa725a727aba760c91b6020820152935b6040516306fdde0360e01b815292839182905afa60009181610baf575b50610ba65750610ba2604051610b5d604082610cc1565b600d81526c2ab735b737bbb7102a37b5b2b760991b60208201525b610b946040519485948552606060208601526060850190610c6b565b908382036040850152610c6b565b0390f35b610ba290610b78565b610bcd9192503d806000833e610bc58183610cc1565b810190610ce3565b9084610b46565b600060049193610b29565b610bf49293503d8091833e610bc58183610cc1565b908480610afa565b3461025d57602036600319011261025d576020906001600160a01b03610c20610c32565b16600052600282526040600020548152f35b600435906001600160a01b038216820361025d57565b60005b838110610c5b5750506000910152565b8181015183820152602001610c4b565b90602091610c8481518092818552858086019101610c48565b601f01601f1916010190565b600354811015610cab57600360005260206000200190600090565b634e487b7160e01b600052603260045260246000fd5b90601f8019910116810190811067ffffffffffffffff82111761048657604052565b60208183031261025d5780519067ffffffffffffffff821161025d570181601f8201121561025d57805167ffffffffffffffff81116104865760405192610d34601f8301601f191660200185610cc1565b8184526020828401011161025d57610d529160208085019101610c48565b90565b15610d5c57565b60405162461bcd60e51b8152602060048201526015602482015274496e76616c696420746f6b656e206164647265737360581b6044820152606490fd5b15610da057565b60405162461bcd60e51b815260206004820152602a60248201527f4d757374207761697420323420686f757273206265747765656e2066617563656044820152697420726571756573747360b01b6064820152608490fd5b9081602091031261025d5751801515810361025d5790565b15610e1757565b60405162461bcd60e51b815260206004820152601d60248201527f416d6f756e74206d7573742062652067726561746572207468616e20300000006044820152606490fd5b6001600160a01b03166000908152600160205260409020548015610ea9576201518081019081811161020c5781421015610ea257429003620151800190811161020c5790565b5050600090565b50600090565b6000546001600160a01b03163303610ec357565b63118cdaa760e01b6000523360045260246000fdfea26469706673582212204ff9d7a160bbb9e82b761585c083c92d232db0e58da6e1541809b985f35bc43364736f6c634300081c0033","opcodes":"PUSH1 0x80 DUP1 PUSH1 0x40 MSTORE CALLVALUE PUSH1 0x75 JUMPI CALLER ISZERO PUSH1 0x5F JUMPI PUSH1 0x0 DUP1 SLOAD CALLER PUSH1 0x1 PUSH1 0x1 PUSH1 0xA0 SHL SUB NOT DUP3 AND DUP2 OR DUP4 SSTORE SWAP2 PUSH1 0x1 PUSH1 0x1 PUSH1 0xA0 SHL SUB SWAP1 SWAP2 AND SWAP1 PUSH32 0x8BE0079C531659141344CD1FD0A4F28419497F9722A3DAAFE3B4186F6B6457E0 SWAP1 DUP1 LOG3 PUSH2 0xF0E SWAP1 DUP2 PUSH2 0x7B DUP3 CODECOPY RETURN JUMPDEST PUSH4 0x1E4FBDF7 PUSH1 0xE0 SHL PUSH1 0x0 MSTORE PUSH1 0x0 PUSH1 0x4 MSTORE PUSH1 0x24 PUSH1 0x0 REVERT JUMPDEST PUSH1 0x0 DUP1 REVERT INVALID PUSH1 0x80 DUP1 PUSH1 0x40 MSTORE PUSH1 0x4 CALLDATASIZE LT ISZERO PUSH2 0x13 JUMPI PUSH1 0x0 DUP1 REVERT JUMPDEST PUSH1 0x0 CALLDATALOAD PUSH1 0xE0 SHR SWAP1 DUP2 PUSH4 0x14C47FBD EQ PUSH2 0xBFC JUMPI POP DUP1 PUSH4 0x1F69565F EQ PUSH2 0xAA9 JUMPI DUP1 PUSH4 0x2A707541 EQ PUSH2 0x95D JUMPI DUP1 PUSH4 0x3E6A099C EQ PUSH2 0x883 JUMPI DUP1 PUSH4 0x5FA7B584 EQ PUSH2 0x760 JUMPI DUP1 PUSH4 0x715018A6 EQ PUSH2 0x707 JUMPI DUP1 PUSH4 0x7BC1F6CC EQ PUSH2 0x6CD JUMPI DUP1 PUSH4 0x7D1D5D19 EQ PUSH2 0x6AF JUMPI DUP1 PUSH4 0x8DA5CB5B EQ PUSH2 0x686 JUMPI DUP1 PUSH4 0x95CCEA67 EQ PUSH2 0x5DD JUMPI DUP1 PUSH4 0xC6255626 EQ PUSH2 0x59B JUMPI DUP1 PUSH4 0xD3C7C2C7 EQ PUSH2 0x4CF JUMPI DUP1 PUSH4 0xD48BFCA7 EQ PUSH2 0x316 JUMPI DUP1 PUSH4 0xE21430D3 EQ PUSH2 0x2EB JUMPI DUP1 PUSH4 0xF2FDE38B EQ PUSH2 0x262 JUMPI PUSH4 0xFFC80E55 EQ PUSH2 0xCF JUMPI PUSH1 0x0 DUP1 REVERT JUMPDEST CALLVALUE PUSH2 0x25D JUMPI PUSH1 0x0 CALLDATASIZE PUSH1 0x3 NOT ADD SLT PUSH2 0x25D JUMPI PUSH1 0x3 SLOAD ISZERO PUSH2 0x222 JUMPI CALLER PUSH1 0x0 MSTORE PUSH1 0x1 PUSH1 0x20 MSTORE PUSH1 0x40 PUSH1 0x0 KECCAK256 SLOAD PUSH3 0x15180 DUP2 ADD DUP1 SWAP2 GT PUSH2 0x20C JUMPI PUSH2 0x110 SWAP1 TIMESTAMP LT ISZERO PUSH2 0xD99 JUMP JUMPDEST CALLER PUSH1 0x0 MSTORE PUSH1 0x1 PUSH1 0x20 MSTORE TIMESTAMP PUSH1 0x40 PUSH1 0x0 KECCAK256 SSTORE PUSH1 0x0 JUMPDEST PUSH1 0x3 SLOAD DUP2 LT ISZERO PUSH2 0x20A JUMPI PUSH2 0x136 DUP2 PUSH2 0xC90 JUMP JUMPDEST SWAP1 SLOAD PUSH1 0x3 SWAP2 SWAP1 SWAP2 SHL SHR PUSH1 0x1 PUSH1 0x1 PUSH1 0xA0 SHL SUB AND PUSH1 0x0 DUP2 DUP2 MSTORE PUSH1 0x2 PUSH1 0x20 MSTORE PUSH1 0x40 SWAP1 KECCAK256 SLOAD SWAP2 SWAP1 DUP3 PUSH2 0x16A JUMPI JUMPDEST POP PUSH1 0x1 SWAP2 POP ADD PUSH2 0x123 JUMP JUMPDEST PUSH1 0x40 MLOAD PUSH4 0xA9059CBB PUSH1 0xE0 SHL DUP2 MSTORE CALLER PUSH1 0x4 DUP3 ADD MSTORE PUSH1 0x24 DUP2 ADD DUP5 SWAP1 MSTORE SWAP3 PUSH1 0x20 DUP5 PUSH1 0x44 DUP2 PUSH1 0x0 DUP7 GAS CALL SWAP4 DUP5 ISZERO PUSH2 0x1FE JUMPI PUSH1 0x1 SWAP5 PUSH2 0x1D2 JUMPI JUMPDEST POP PUSH1 0x40 MLOAD SWAP1 DUP2 MSTORE PUSH32 0x45C201A59AC545000EAD84F30B2DB67DA23353AA1D58AC522C48505412143FFA PUSH1 0x20 CALLER SWAP3 LOG3 CODESIZE PUSH2 0x15F JUMP JUMPDEST PUSH2 0x1F2 SWAP1 PUSH1 0x20 RETURNDATASIZE DUP2 GT PUSH2 0x1F7 JUMPI JUMPDEST PUSH2 0x1EA DUP2 DUP4 PUSH2 0xCC1 JUMP JUMPDEST DUP2 ADD SWAP1 PUSH2 0xDF8 JUMP JUMPDEST PUSH2 0x19F JUMP JUMPDEST POP RETURNDATASIZE PUSH2 0x1E0 JUMP JUMPDEST PUSH1 0x40 MLOAD RETURNDATASIZE PUSH1 0x0 DUP3 RETURNDATACOPY RETURNDATASIZE SWAP1 REVERT JUMPDEST STOP JUMPDEST PUSH4 0x4E487B71 PUSH1 0xE0 SHL PUSH1 0x0 MSTORE PUSH1 0x11 PUSH1 0x4 MSTORE PUSH1 0x24 PUSH1 0x0 REVERT JUMPDEST PUSH1 0x40 MLOAD PUSH3 0x461BCD PUSH1 0xE5 SHL DUP2 MSTORE PUSH1 0x20 PUSH1 0x4 DUP3 ADD MSTORE PUSH1 0x13 PUSH1 0x24 DUP3 ADD MSTORE PUSH19 0x4E6F20746F6B656E7320617661696C61626C65 PUSH1 0x68 SHL PUSH1 0x44 DUP3 ADD MSTORE PUSH1 0x64 SWAP1 REVERT JUMPDEST PUSH1 0x0 DUP1 REVERT JUMPDEST CALLVALUE PUSH2 0x25D JUMPI PUSH1 0x20 CALLDATASIZE PUSH1 0x3 NOT ADD SLT PUSH2 0x25D JUMPI PUSH2 0x27B PUSH2 0xC32 JUMP JUMPDEST PUSH2 0x283 PUSH2 0xEAF JUMP JUMPDEST PUSH1 0x1 PUSH1 0x1 PUSH1 0xA0 SHL SUB AND DUP1 ISZERO PUSH2 0x2D5 JUMPI PUSH1 0x0 DUP1 SLOAD PUSH1 0x1 PUSH1 0x1 PUSH1 0xA0 SHL SUB NOT DUP2 AND DUP4 OR DUP3 SSTORE PUSH1 0x1 PUSH1 0x1 PUSH1 0xA0 SHL SUB AND SWAP1 PUSH32 0x8BE0079C531659141344CD1FD0A4F28419497F9722A3DAAFE3B4186F6B6457E0 SWAP1 DUP1 LOG3 STOP JUMPDEST PUSH4 0x1E4FBDF7 PUSH1 0xE0 SHL PUSH1 0x0 MSTORE PUSH1 0x0 PUSH1 0x4 MSTORE PUSH1 0x24 PUSH1 0x0 REVERT JUMPDEST CALLVALUE PUSH2 0x25D JUMPI PUSH1 0x20 CALLDATASIZE PUSH1 0x3 NOT ADD SLT PUSH2 0x25D JUMPI PUSH1 0x20 PUSH2 0x30E PUSH2 0x309 PUSH2 0xC32 JUMP JUMPDEST PUSH2 0xE5C JUMP JUMPDEST PUSH1 0x40 MLOAD SWAP1 DUP2 MSTORE RETURN JUMPDEST CALLVALUE PUSH2 0x25D JUMPI PUSH1 0x20 CALLDATASIZE PUSH1 0x3 NOT ADD SLT PUSH2 0x25D JUMPI PUSH2 0x32F PUSH2 0xC32 JUMP JUMPDEST PUSH2 0x337 PUSH2 0xEAF JUMP JUMPDEST PUSH1 0x1 PUSH1 0x1 PUSH1 0xA0 SHL SUB DUP2 AND SWAP1 PUSH2 0x34D DUP3 ISZERO ISZERO PUSH2 0xD55 JUMP JUMPDEST PUSH1 0x3 SLOAD SWAP1 PUSH1 0x0 DUP1 JUMPDEST DUP4 DUP2 LT PUSH2 0x49C JUMPI JUMPDEST POP ISZERO PUSH2 0x437 JUMPI JUMPDEST POP POP PUSH1 0x40 MLOAD PUSH4 0x313CE567 PUSH1 0xE0 SHL DUP2 MSTORE PUSH1 0x20 DUP2 PUSH1 0x4 DUP2 DUP6 GAS STATICCALL SWAP1 DUP2 ISZERO PUSH2 0x1FE JUMPI PUSH1 0x0 SWAP2 PUSH2 0x3F4 JUMPI JUMPDEST POP PUSH1 0xFF PUSH1 0x0 NOT SWAP2 AND ADD PUSH1 0xFF DUP2 GT PUSH2 0x20C JUMPI PUSH1 0xFF AND PUSH1 0x4D DUP2 GT PUSH2 0x20C JUMPI PUSH1 0xA EXP DUP1 PUSH1 0x5 MUL SWAP1 PUSH1 0x5 DUP3 DIV SUB PUSH2 0x20C JUMPI PUSH1 0x20 PUSH32 0xF4C563A3EA86FF1F4275E8C207DF0375A51963F2B831B7BF4DA8BE938D92876C SWAP2 DUP4 PUSH1 0x0 MSTORE PUSH1 0x2 DUP3 MSTORE DUP1 PUSH1 0x40 PUSH1 0x0 KECCAK256 SSTORE PUSH1 0x40 MLOAD SWAP1 DUP2 MSTORE LOG2 STOP JUMPDEST PUSH1 0x20 DUP2 RETURNDATASIZE PUSH1 0x20 GT PUSH2 0x42F JUMPI JUMPDEST DUP2 PUSH2 0x40D PUSH1 0x20 SWAP4 DUP4 PUSH2 0xCC1 JUMP JUMPDEST DUP2 ADD SUB SLT PUSH2 0x42B JUMPI MLOAD SWAP1 PUSH1 0xFF DUP3 AND DUP3 SUB PUSH2 0x428 JUMPI POP DUP3 PUSH2 0x38B JUMP JUMPDEST DUP1 REVERT JUMPDEST POP DUP1 REVERT JUMPDEST RETURNDATASIZE SWAP2 POP PUSH2 0x400 JUMP JUMPDEST PUSH9 0x10000000000000000 DUP3 LT ISZERO PUSH2 0x486 JUMPI PUSH2 0x45B DUP3 PUSH1 0x1 PUSH2 0x47F SWAP5 ADD PUSH1 0x3 SSTORE PUSH2 0xC90 JUMP JUMPDEST DUP2 SLOAD PUSH1 0x1 PUSH1 0x1 PUSH1 0xA0 SHL SUB SWAP4 DUP5 AND PUSH1 0x3 SWAP3 SWAP1 SWAP3 SHL SWAP2 DUP3 SHL SWAP4 SWAP1 SWAP2 SHL NOT AND SWAP2 SWAP1 SWAP2 OR SWAP1 SSTORE JUMP JUMPDEST DUP2 DUP1 PUSH2 0x364 JUMP JUMPDEST PUSH4 0x4E487B71 PUSH1 0xE0 SHL PUSH1 0x0 MSTORE PUSH1 0x41 PUSH1 0x4 MSTORE PUSH1 0x24 PUSH1 0x0 REVERT JUMPDEST DUP5 PUSH2 0x4A6 DUP3 PUSH2 0xC90 JUMP JUMPDEST SWAP1 SLOAD PUSH1 0x3 SWAP2 SWAP1 SWAP2 SHL SHR PUSH1 0x1 PUSH1 0x1 PUSH1 0xA0 SHL SUB AND EQ PUSH2 0x4C5 JUMPI PUSH1 0x1 ADD PUSH2 0x355 JUMP JUMPDEST POP POP PUSH1 0x1 DUP5 PUSH2 0x35D JUMP JUMPDEST CALLVALUE PUSH2 0x25D JUMPI PUSH1 0x0 CALLDATASIZE PUSH1 0x3 NOT ADD SLT PUSH2 0x25D JUMPI PUSH1 0x40 MLOAD DUP1 PUSH1 0x20 PUSH1 0x3 SLOAD SWAP3 DUP4 DUP2 MSTORE ADD DUP1 SWAP3 PUSH1 0x3 PUSH1 0x0 MSTORE PUSH32 0xC2575A0E9E593C00F959F8C92F12DB2869C3395A3B0502D05E2516446F71F85B SWAP1 PUSH1 0x0 JUMPDEST DUP2 DUP2 LT PUSH2 0x57C JUMPI POP POP POP DUP2 PUSH2 0x530 SWAP2 SUB DUP3 PUSH2 0xCC1 JUMP JUMPDEST PUSH1 0x40 MLOAD SWAP2 DUP3 SWAP2 PUSH1 0x20 DUP4 ADD SWAP1 PUSH1 0x20 DUP5 MSTORE MLOAD DUP1 SWAP2 MSTORE PUSH1 0x40 DUP4 ADD SWAP2 SWAP1 PUSH1 0x0 JUMPDEST DUP2 DUP2 LT PUSH2 0x55A JUMPI POP POP POP SUB SWAP1 RETURN JUMPDEST DUP3 MLOAD PUSH1 0x1 PUSH1 0x1 PUSH1 0xA0 SHL SUB AND DUP5 MSTORE DUP6 SWAP5 POP PUSH1 0x20 SWAP4 DUP5 ADD SWAP4 SWAP1 SWAP3 ADD SWAP2 PUSH1 0x1 ADD PUSH2 0x54C JUMP JUMPDEST DUP3 SLOAD PUSH1 0x1 PUSH1 0x1 PUSH1 0xA0 SHL SUB AND DUP5 MSTORE PUSH1 0x20 SWAP1 SWAP4 ADD SWAP3 PUSH1 0x1 SWAP3 DUP4 ADD SWAP3 ADD PUSH2 0x51A JUMP JUMPDEST CALLVALUE PUSH2 0x25D JUMPI PUSH1 0x20 CALLDATASIZE PUSH1 0x3 NOT ADD SLT PUSH2 0x25D JUMPI PUSH1 0x4 CALLDATALOAD PUSH1 0x3 SLOAD DUP2 LT ISZERO PUSH2 0x25D JUMPI PUSH2 0x5C4 PUSH1 0x20 SWAP2 PUSH2 0xC90 JUMP JUMPDEST SWAP1 SLOAD PUSH1 0x40 MLOAD PUSH1 0x3 SWAP3 SWAP1 SWAP3 SHL SHR PUSH1 0x1 PUSH1 0x1 PUSH1 0xA0 SHL SUB AND DUP2 MSTORE RETURN JUMPDEST CALLVALUE PUSH2 0x25D JUMPI PUSH1 0x40 CALLDATASIZE PUSH1 0x3 NOT ADD SLT PUSH2 0x25D JUMPI PUSH2 0x65E PUSH1 0x20 PUSH2 0x5FB PUSH2 0xC32 JUMP JUMPDEST PUSH1 0x24 CALLDATALOAD SWAP1 PUSH2 0x607 PUSH2 0xEAF JUMP JUMPDEST PUSH1 0x1 PUSH1 0x1 PUSH1 0xA0 SHL SUB AND PUSH2 0x61B DUP2 ISZERO ISZERO PUSH2 0xD55 JUMP JUMPDEST PUSH2 0x626 DUP3 ISZERO ISZERO PUSH2 0xE10 JUMP JUMPDEST PUSH1 0x0 DUP1 SLOAD PUSH1 0x40 MLOAD PUSH4 0xA9059CBB PUSH1 0xE0 SHL DUP2 MSTORE PUSH1 0x1 PUSH1 0x1 PUSH1 0xA0 SHL SUB SWAP1 SWAP2 AND PUSH1 0x4 DUP3 ADD MSTORE PUSH1 0x24 DUP2 ADD SWAP4 SWAP1 SWAP4 MSTORE SWAP2 SWAP4 DUP5 SWAP3 DUP4 SWAP2 DUP3 SWAP1 PUSH1 0x44 DUP3 ADD SWAP1 JUMP JUMPDEST SUB SWAP3 GAS CALL DUP1 ISZERO PUSH2 0x1FE JUMPI PUSH2 0x66E JUMPI STOP JUMPDEST PUSH2 0x20A SWAP1 PUSH1 0x20 RETURNDATASIZE PUSH1 0x20 GT PUSH2 0x1F7 JUMPI PUSH2 0x1EA DUP2 DUP4 PUSH2 0xCC1 JUMP JUMPDEST CALLVALUE PUSH2 0x25D JUMPI PUSH1 0x0 CALLDATASIZE PUSH1 0x3 NOT ADD SLT PUSH2 0x25D JUMPI PUSH1 0x0 SLOAD PUSH1 0x40 MLOAD PUSH1 0x1 PUSH1 0x1 PUSH1 0xA0 SHL SUB SWAP1 SWAP2 AND DUP2 MSTORE PUSH1 0x20 SWAP1 RETURN JUMPDEST CALLVALUE PUSH2 0x25D JUMPI PUSH1 0x0 CALLDATASIZE PUSH1 0x3 NOT ADD SLT PUSH2 0x25D JUMPI PUSH1 0x20 PUSH1 0x40 MLOAD PUSH3 0x15180 DUP2 MSTORE RETURN JUMPDEST CALLVALUE PUSH2 0x25D JUMPI PUSH1 0x20 CALLDATASIZE PUSH1 0x3 NOT ADD SLT PUSH2 0x25D JUMPI PUSH1 0x1 PUSH1 0x1 PUSH1 0xA0 SHL SUB PUSH2 0x6EE PUSH2 0xC32 JUMP JUMPDEST AND PUSH1 0x0 MSTORE PUSH1 0x1 PUSH1 0x20 MSTORE PUSH1 0x20 PUSH1 0x40 PUSH1 0x0 KECCAK256 SLOAD PUSH1 0x40 MLOAD SWAP1 DUP2 MSTORE RETURN JUMPDEST CALLVALUE PUSH2 0x25D JUMPI PUSH1 0x0 CALLDATASIZE PUSH1 0x3 NOT ADD SLT PUSH2 0x25D JUMPI PUSH2 0x720 PUSH2 0xEAF JUMP JUMPDEST PUSH1 0x0 DUP1 SLOAD PUSH1 0x1 PUSH1 0x1 PUSH1 0xA0 SHL SUB NOT DUP2 AND DUP3 SSTORE PUSH1 0x1 PUSH1 0x1 PUSH1 0xA0 SHL SUB AND PUSH32 0x8BE0079C531659141344CD1FD0A4F28419497F9722A3DAAFE3B4186F6B6457E0 DUP3 DUP1 LOG3 STOP JUMPDEST CALLVALUE PUSH2 0x25D JUMPI PUSH1 0x20 CALLDATASIZE PUSH1 0x3 NOT ADD SLT PUSH2 0x25D JUMPI PUSH2 0x779 PUSH2 0xC32 JUMP JUMPDEST PUSH2 0x781 PUSH2 0xEAF JUMP JUMPDEST PUSH1 0x1 PUSH1 0x1 PUSH1 0xA0 SHL SUB AND PUSH2 0x795 DUP2 ISZERO ISZERO PUSH2 0xD55 JUMP JUMPDEST PUSH1 0x0 JUMPDEST PUSH1 0x3 SLOAD SWAP1 DUP2 DUP2 LT ISZERO PUSH2 0x87C JUMPI DUP3 PUSH2 0x7AE DUP3 PUSH2 0xC90 JUMP JUMPDEST SWAP1 SLOAD PUSH1 0x3 SWAP2 SWAP1 SWAP2 SHL SHR PUSH1 0x1 PUSH1 0x1 PUSH1 0xA0 SHL SUB AND EQ PUSH2 0x7CF JUMPI PUSH1 0x1 SWAP2 POP ADD PUSH2 0x798 JUMP JUMPDEST PUSH1 0x0 NOT DUP3 ADD SWAP2 DUP3 GT PUSH2 0x20C JUMPI PUSH2 0x45B PUSH2 0x7EA PUSH2 0x802 SWAP4 PUSH2 0xC90 JUMP JUMPDEST SWAP1 SLOAD PUSH1 0x3 SWAP2 SWAP1 SWAP2 SHL SHR PUSH1 0x1 PUSH1 0x1 PUSH1 0xA0 SHL SUB AND SWAP2 PUSH2 0xC90 JUMP JUMPDEST PUSH1 0x3 SLOAD DUP1 ISZERO PUSH2 0x866 JUMPI PUSH1 0x0 NOT ADD PUSH2 0x818 DUP2 PUSH2 0xC90 JUMP JUMPDEST DUP2 SLOAD PUSH1 0x1 PUSH1 0x1 PUSH1 0xA0 SHL SUB PUSH1 0x3 SWAP3 DUP4 SHL SHL NOT AND SWAP1 SWAP2 SSTORE SSTORE JUMPDEST DUP1 PUSH1 0x0 MSTORE PUSH1 0x2 PUSH1 0x20 MSTORE PUSH1 0x0 PUSH1 0x40 DUP2 KECCAK256 SSTORE PUSH32 0x4C910B69FE65A61F7531B9C5042B2329CA7179C77290AA7E2EB3AFA3C8511FD3 PUSH1 0x0 DUP1 LOG2 STOP JUMPDEST PUSH4 0x4E487B71 PUSH1 0xE0 SHL PUSH1 0x0 MSTORE PUSH1 0x31 PUSH1 0x4 MSTORE PUSH1 0x24 PUSH1 0x0 REVERT JUMPDEST POP POP PUSH2 0x82F JUMP JUMPDEST CALLVALUE PUSH2 0x25D JUMPI PUSH1 0x40 CALLDATASIZE PUSH1 0x3 NOT ADD SLT PUSH2 0x25D JUMPI PUSH2 0x89C PUSH2 0xC32 JUMP JUMPDEST PUSH1 0x24 CALLDATALOAD SWAP1 PUSH2 0x8A8 PUSH2 0xEAF JUMP JUMPDEST PUSH1 0x1 PUSH1 0x1 PUSH1 0xA0 SHL SUB AND SWAP1 PUSH2 0x8BD DUP3 ISZERO ISZERO PUSH2 0xD55 JUMP JUMPDEST DUP2 PUSH1 0x0 MSTORE PUSH1 0x2 PUSH1 0x20 MSTORE PUSH1 0x40 PUSH1 0x0 KECCAK256 SLOAD ISZERO PUSH2 0x918 JUMPI PUSH1 0x20 DUP2 PUSH2 0x900 PUSH32 0x4AA1B13EB889E81DC57ED88A5FF965BCA06398336B3B226039DFEB6348679F73 SWAP4 ISZERO ISZERO PUSH2 0xE10 JUMP JUMPDEST DUP4 PUSH1 0x0 MSTORE PUSH1 0x2 DUP3 MSTORE DUP1 PUSH1 0x40 PUSH1 0x0 KECCAK256 SSTORE PUSH1 0x40 MLOAD SWAP1 DUP2 MSTORE LOG2 STOP JUMPDEST PUSH1 0x40 MLOAD PUSH3 0x461BCD PUSH1 0xE5 SHL DUP2 MSTORE PUSH1 0x20 PUSH1 0x4 DUP3 ADD MSTORE PUSH1 0x18 PUSH1 0x24 DUP3 ADD MSTORE PUSH32 0x546F6B656E206E6F7420696E20666175636574206C6973740000000000000000 PUSH1 0x44 DUP3 ADD MSTORE PUSH1 0x64 SWAP1 REVERT JUMPDEST CALLVALUE PUSH2 0x25D JUMPI PUSH1 0x20 CALLDATASIZE PUSH1 0x3 NOT ADD SLT PUSH2 0x25D JUMPI PUSH1 0x1 PUSH1 0x1 PUSH1 0xA0 SHL SUB PUSH2 0x97E PUSH2 0xC32 JUMP JUMPDEST AND PUSH2 0x98A DUP2 ISZERO ISZERO PUSH2 0xD55 JUMP JUMPDEST DUP1 PUSH1 0x0 MSTORE PUSH1 0x2 PUSH1 0x20 MSTORE PUSH1 0x40 PUSH1 0x0 KECCAK256 SLOAD ISZERO PUSH2 0xA64 JUMPI CALLER PUSH1 0x0 MSTORE PUSH1 0x1 PUSH1 0x20 MSTORE PUSH1 0x40 PUSH1 0x0 KECCAK256 SLOAD PUSH3 0x15180 DUP2 ADD DUP1 SWAP2 GT PUSH2 0x20C JUMPI PUSH2 0x9C6 SWAP1 TIMESTAMP LT ISZERO PUSH2 0xD99 JUMP JUMPDEST CALLER PUSH1 0x0 DUP2 DUP2 MSTORE PUSH1 0x1 PUSH1 0x20 SWAP1 DUP2 MSTORE PUSH1 0x40 DUP1 DUP4 KECCAK256 TIMESTAMP SWAP1 SSTORE DUP5 DUP4 MSTORE PUSH1 0x2 DUP3 MSTORE DUP1 DUP4 KECCAK256 SLOAD SWAP1 MLOAD PUSH4 0xA9059CBB PUSH1 0xE0 SHL DUP2 MSTORE PUSH1 0x4 DUP2 ADD SWAP5 SWAP1 SWAP5 MSTORE PUSH1 0x24 DUP5 ADD DUP2 SWAP1 MSTORE SWAP3 SWAP2 DUP3 SWAP1 PUSH1 0x44 SWAP1 DUP3 SWAP1 DUP8 GAS CALL DUP1 ISZERO PUSH2 0x1FE JUMPI PUSH2 0xA47 JUMPI JUMPDEST POP PUSH1 0x40 MLOAD SWAP1 DUP2 MSTORE PUSH32 0x45C201A59AC545000EAD84F30B2DB67DA23353AA1D58AC522C48505412143FFA PUSH1 0x20 CALLER SWAP3 LOG3 STOP JUMPDEST PUSH2 0xA5F SWAP1 PUSH1 0x20 RETURNDATASIZE PUSH1 0x20 GT PUSH2 0x1F7 JUMPI PUSH2 0x1EA DUP2 DUP4 PUSH2 0xCC1 JUMP JUMPDEST PUSH2 0xA18 JUMP JUMPDEST PUSH1 0x40 MLOAD PUSH3 0x461BCD PUSH1 0xE5 SHL DUP2 MSTORE PUSH1 0x20 PUSH1 0x4 DUP3 ADD MSTORE PUSH1 0x1D PUSH1 0x24 DUP3 ADD MSTORE PUSH32 0x546F6B656E206E6F7420617661696C61626C6520696E20666175636574000000 PUSH1 0x44 DUP3 ADD MSTORE PUSH1 0x64 SWAP1 REVERT JUMPDEST CALLVALUE PUSH2 0x25D JUMPI PUSH1 0x20 CALLDATASIZE PUSH1 0x3 NOT ADD SLT PUSH2 0x25D JUMPI PUSH2 0xAC2 PUSH2 0xC32 JUMP JUMPDEST PUSH1 0x1 PUSH1 0x1 PUSH1 0xA0 SHL SUB AND PUSH1 0x0 DUP2 DUP2 MSTORE PUSH1 0x2 PUSH1 0x20 MSTORE PUSH1 0x40 DUP1 DUP3 KECCAK256 SLOAD SWAP1 MLOAD PUSH4 0x95D89B41 PUSH1 0xE0 SHL DUP2 MSTORE SWAP1 SWAP2 DUP1 DUP3 PUSH1 0x4 DUP2 DUP8 GAS STATICCALL SWAP1 SWAP2 DUP3 DUP3 PUSH2 0xBDF JUMPI JUMPDEST POP POP PUSH2 0xBD4 JUMPI POP PUSH1 0x4 PUSH1 0x0 PUSH1 0x40 MLOAD PUSH2 0xB13 PUSH1 0x40 DUP3 PUSH2 0xCC1 JUMP JUMPDEST PUSH1 0x7 DUP2 MSTORE PUSH7 0x2AA725A727ABA7 PUSH1 0xC9 SHL PUSH1 0x20 DUP3 ADD MSTORE SWAP4 JUMPDEST PUSH1 0x40 MLOAD PUSH4 0x6FDDE03 PUSH1 0xE0 SHL DUP2 MSTORE SWAP3 DUP4 SWAP2 DUP3 SWAP1 GAS STATICCALL PUSH1 0x0 SWAP2 DUP2 PUSH2 0xBAF JUMPI JUMPDEST POP PUSH2 0xBA6 JUMPI POP PUSH2 0xBA2 PUSH1 0x40 MLOAD PUSH2 0xB5D PUSH1 0x40 DUP3 PUSH2 0xCC1 JUMP JUMPDEST PUSH1 0xD DUP2 MSTORE PUSH13 0x2AB735B737BBB7102A37B5B2B7 PUSH1 0x99 SHL PUSH1 0x20 DUP3 ADD MSTORE JUMPDEST PUSH2 0xB94 PUSH1 0x40 MLOAD SWAP5 DUP6 SWAP5 DUP6 MSTORE PUSH1 0x60 PUSH1 0x20 DUP7 ADD MSTORE PUSH1 0x60 DUP6 ADD SWAP1 PUSH2 0xC6B JUMP JUMPDEST SWAP1 DUP4 DUP3 SUB PUSH1 0x40 DUP6 ADD MSTORE PUSH2 0xC6B JUMP JUMPDEST SUB SWAP1 RETURN JUMPDEST PUSH2 0xBA2 SWAP1 PUSH2 0xB78 JUMP JUMPDEST PUSH2 0xBCD SWAP2 SWAP3 POP RETURNDATASIZE DUP1 PUSH1 0x0 DUP4 RETURNDATACOPY PUSH2 0xBC5 DUP2 DUP4 PUSH2 0xCC1 JUMP JUMPDEST DUP2 ADD SWAP1 PUSH2 0xCE3 JUMP JUMPDEST SWAP1 DUP5 PUSH2 0xB46 JUMP JUMPDEST PUSH1 0x0 PUSH1 0x4 SWAP2 SWAP4 PUSH2 0xB29 JUMP JUMPDEST PUSH2 0xBF4 SWAP3 SWAP4 POP RETURNDATASIZE DUP1 SWAP2 DUP4 RETURNDATACOPY PUSH2 0xBC5 DUP2 DUP4 PUSH2 0xCC1 JUMP JUMPDEST SWAP1 DUP5 DUP1 PUSH2 0xAFA JUMP JUMPDEST CALLVALUE PUSH2 0x25D JUMPI PUSH1 0x20 CALLDATASIZE PUSH1 0x3 NOT ADD SLT PUSH2 0x25D JUMPI PUSH1 0x20 SWAP1 PUSH1 0x1 PUSH1 0x1 PUSH1 0xA0 SHL SUB PUSH2 0xC20 PUSH2 0xC32 JUMP JUMPDEST AND PUSH1 0x0 MSTORE PUSH1 0x2 DUP3 MSTORE PUSH1 0x40 PUSH1 0x0 KECCAK256 SLOAD DUP2 MSTORE RETURN JUMPDEST PUSH1 0x4 CALLDATALOAD SWAP1 PUSH1 0x1 PUSH1 0x1 PUSH1 0xA0 SHL SUB DUP3 AND DUP3 SUB PUSH2 0x25D JUMPI JUMP JUMPDEST PUSH1 0x0 JUMPDEST DUP4 DUP2 LT PUSH2 0xC5B JUMPI POP POP PUSH1 0x0 SWAP2 ADD MSTORE JUMP JUMPDEST DUP2 DUP2 ADD MLOAD DUP4 DUP3 ADD MSTORE PUSH1 0x20 ADD PUSH2 0xC4B JUMP JUMPDEST SWAP1 PUSH1 0x20 SWAP2 PUSH2 0xC84 DUP2 MLOAD DUP1 SWAP3 DUP2 DUP6 MSTORE DUP6 DUP1 DUP7 ADD SWAP2 ADD PUSH2 0xC48 JUMP JUMPDEST PUSH1 0x1F ADD PUSH1 0x1F NOT AND ADD ADD SWAP1 JUMP JUMPDEST PUSH1 0x3 SLOAD DUP2 LT ISZERO PUSH2 0xCAB JUMPI PUSH1 0x3 PUSH1 0x0 MSTORE PUSH1 0x20 PUSH1 0x0 KECCAK256 ADD SWAP1 PUSH1 0x0 SWAP1 JUMP JUMPDEST PUSH4 0x4E487B71 PUSH1 0xE0 SHL PUSH1 0x0 MSTORE PUSH1 0x32 PUSH1 0x4 MSTORE PUSH1 0x24 PUSH1 0x0 REVERT JUMPDEST SWAP1 PUSH1 0x1F DUP1 NOT SWAP2 ADD AND DUP2 ADD SWAP1 DUP2 LT PUSH8 0xFFFFFFFFFFFFFFFF DUP3 GT OR PUSH2 0x486 JUMPI PUSH1 0x40 MSTORE JUMP JUMPDEST PUSH1 0x20 DUP2 DUP4 SUB SLT PUSH2 0x25D JUMPI DUP1 MLOAD SWAP1 PUSH8 0xFFFFFFFFFFFFFFFF DUP3 GT PUSH2 0x25D JUMPI ADD DUP2 PUSH1 0x1F DUP3 ADD SLT ISZERO PUSH2 0x25D JUMPI DUP1 MLOAD PUSH8 0xFFFFFFFFFFFFFFFF DUP2 GT PUSH2 0x486 JUMPI PUSH1 0x40 MLOAD SWAP3 PUSH2 0xD34 PUSH1 0x1F DUP4 ADD PUSH1 0x1F NOT AND PUSH1 0x20 ADD DUP6 PUSH2 0xCC1 JUMP JUMPDEST DUP2 DUP5 MSTORE PUSH1 0x20 DUP3 DUP5 ADD ADD GT PUSH2 0x25D JUMPI PUSH2 0xD52 SWAP2 PUSH1 0x20 DUP1 DUP6 ADD SWAP2 ADD PUSH2 0xC48 JUMP JUMPDEST SWAP1 JUMP JUMPDEST ISZERO PUSH2 0xD5C JUMPI JUMP JUMPDEST PUSH1 0x40 MLOAD PUSH3 0x461BCD PUSH1 0xE5 SHL DUP2 MSTORE PUSH1 0x20 PUSH1 0x4 DUP3 ADD MSTORE PUSH1 0x15 PUSH1 0x24 DUP3 ADD MSTORE PUSH21 0x496E76616C696420746F6B656E2061646472657373 PUSH1 0x58 SHL PUSH1 0x44 DUP3 ADD MSTORE PUSH1 0x64 SWAP1 REVERT JUMPDEST ISZERO PUSH2 0xDA0 JUMPI JUMP JUMPDEST PUSH1 0x40 MLOAD PUSH3 0x461BCD PUSH1 0xE5 SHL DUP2 MSTORE PUSH1 0x20 PUSH1 0x4 DUP3 ADD MSTORE PUSH1 0x2A PUSH1 0x24 DUP3 ADD MSTORE PUSH32 0x4D757374207761697420323420686F757273206265747765656E206661756365 PUSH1 0x44 DUP3 ADD MSTORE PUSH10 0x74207265717565737473 PUSH1 0xB0 SHL PUSH1 0x64 DUP3 ADD MSTORE PUSH1 0x84 SWAP1 REVERT JUMPDEST SWAP1 DUP2 PUSH1 0x20 SWAP2 SUB SLT PUSH2 0x25D JUMPI MLOAD DUP1 ISZERO ISZERO DUP2 SUB PUSH2 0x25D JUMPI SWAP1 JUMP JUMPDEST ISZERO PUSH2 0xE17 JUMPI JUMP JUMPDEST PUSH1 0x40 MLOAD PUSH3 0x461BCD PUSH1 0xE5 SHL DUP2 MSTORE PUSH1 0x20 PUSH1 0x4 DUP3 ADD MSTORE PUSH1 0x1D PUSH1 0x24 DUP3 ADD MSTORE PUSH32 0x416D6F756E74206D7573742062652067726561746572207468616E2030000000 PUSH1 0x44 DUP3 ADD MSTORE PUSH1 0x64 SWAP1 REVERT JUMPDEST PUSH1 0x1 PUSH1 0x1 PUSH1 0xA0 SHL SUB AND PUSH1 0x0 SWAP1 DUP2 MSTORE PUSH1 0x1 PUSH1 0x20 MSTORE PUSH1 0x40 SWAP1 KECCAK256 SLOAD DUP1 ISZERO PUSH2 0xEA9 JUMPI PUSH3 0x15180 DUP2 ADD SWAP1 DUP2 DUP2 GT PUSH2 0x20C JUMPI DUP2 TIMESTAMP LT ISZERO PUSH2 0xEA2 JUMPI TIMESTAMP SWAP1 SUB PUSH3 0x15180 ADD SWAP1 DUP2 GT PUSH2 0x20C JUMPI SWAP1 JUMP JUMPDEST POP POP PUSH1 0x0 SWAP1 JUMP JUMPDEST POP PUSH1 0x0 SWAP1 JUMP JUMPDEST PUSH1 0x0 SLOAD PUSH1 0x1 PUSH1 0x1 PUSH1 0xA0 SHL SUB AND CALLER SUB PUSH2 0xEC3 JUMPI JUMP JUMPDEST PUSH4 0x118CDAA7 PUSH1 0xE0 SHL PUSH1 0x0 MSTORE CALLER PUSH1 0x4 MSTORE PUSH1 0x24 PUSH1 0x0 REVERT INVALID LOG2 PUSH5 0x6970667358 0x22 SLT KECCAK256 0x4F 0xF9 0xD7 LOG1 PUSH1 0xBB 0xB9 0xE8 0x2B PUSH23 0x1585C083C92D232DB0E58DA6E1541809B985F35BC43364 PUSH20 0x6F6C634300081C00330000000000000000000000 "},"methodIdentifiers":{"FAUCET_COOLDOWN()":"7d1d5d19","addToken(address)":"d48bfca7","emergencyWithdraw(address,uint256)":"95ccea67","faucetAmounts(address)":"14c47fbd","getSupportedTokens()":"d3c7c2c7","getTimeUntilNextFaucet(address)":"e21430d3","getTokenInfo(address)":"1f69565f","lastFaucetTime(address)":"7bc1f6cc","owner()":"8da5cb5b","removeToken(address)":"5fa7b584","renounceOwnership()":"715018a6","requestAllFaucets()":"ffc80e55","requestFaucet(address)":"2a707541","supportedTokens(uint256)":"c6255626","transferOwnership(address)":"f2fde38b","updateFaucetAmount(address,uint256)":"3e6a099c"}}}}}