{"contracts/PriceOracle.sol":{"PriceOracle":{"abi":[{"inputs":[],"stateMutability":"nonpayable","type":"constructor"},{"anonymous":false,"inputs":[{"indexed":true,"internalType":"address","name":"token0","type":"address"},{"indexed":true,"internalType":"address","name":"token1","type":"address"},{"indexed":false,"internalType":"uint256","name":"price","type":"uint256"},{"indexed":false,"internalType":"uint256","name":"timestamp","type":"uint256"}],"name":"PriceUpdated","type":"event"},{"inputs":[{"internalType":"address","name":"updater","type":"address"}],"name":"addAuthorizedUpdater","outputs":[],"stateMutability":"nonpayable","type":"function"},{"inputs":[{"internalType":"address","name":"","type":"address"}],"name":"authorizedUpdaters","outputs":[{"internalType":"bool","name":"","type":"bool"}],"stateMutability":"view","type":"function"},{"inputs":[{"internalType":"uint256","name":"reserve0","type":"uint256"},{"internalType":"uint256","name":"reserve1","type":"uint256"},{"internalType":"uint256","name":"decimals0","type":"uint256"},{"internalType":"uint256","name":"decimals1","type":"uint256"}],"name":"calculatePriceFromReserves","outputs":[{"internalType":"uint256","name":"","type":"uint256"}],"stateMutability":"pure","type":"function"},{"inputs":[{"internalType":"address","name":"token0","type":"address"},{"internalType":"address","name":"token1","type":"address"}],"name":"getPrice","outputs":[{"internalType":"uint256","name":"","type":"uint256"}],"stateMutability":"view","type":"function"},{"inputs":[{"internalType":"address","name":"token0","type":"address"},{"internalType":"address","name":"token1","type":"address"}],"name":"getPriceData","outputs":[{"components":[{"internalType":"uint256","name":"price","type":"uint256"},{"internalType":"uint256","name":"timestamp","type":"uint256"},{"internalType":"uint256","name":"blockNumber","type":"uint256"}],"internalType":"struct PriceOracle.PriceData","name":"","type":"tuple"}],"stateMutability":"view","type":"function"},{"inputs":[{"internalType":"address","name":"","type":"address"},{"internalType":"address","name":"","type":"address"}],"name":"prices","outputs":[{"internalType":"uint256","name":"price","type":"uint256"},{"internalType":"uint256","name":"timestamp","type":"uint256"},{"internalType":"uint256","name":"blockNumber","type":"uint256"}],"stateMutability":"view","type":"function"},{"inputs":[{"internalType":"address","name":"updater","type":"address"}],"name":"removeAuthorizedUpdater","outputs":[],"stateMutability":"nonpayable","type":"function"},{"inputs":[{"internalType":"address","name":"token0","type":"address"},{"internalType":"address","name":"token1","type":"address"},{"internalType":"uint256","name":"price","type":"uint256"}],"name":"updatePrice","outputs":[],"stateMutability":"nonpayable","type":"function"}],"evm":{"bytecode":{"linkReferences":{},"object":"60808060405234602e573360005260016020526040600020600160ff198254161790556105e690816100348239f35b600080fdfe6080604052600436101561001257600080fd5b60003560e01c80631f31240414610436578063603cda09146103e25780638c23d57b1461032f5780638c9b9fdc146102d55780638fbb2a90146101ce5780638ff29cfe1461018f578063ac41865a146101275763fcf362a51461007457600080fd5b3461012257604036600319011261012257606060406100916104a1565b6100996104b7565b906000836100a561057a565b8281526020810183905201526001600160a01b03908116906100cb908316821415610541565b60005260006020528160002060009160018060a01b03168252602052206100f061057a565b815491828252604060026001830154926020850193845201549201918252604051928352516020830152516040820152f35b600080fd5b34610122576040366003190112610122576101406104a1565b6101486104b7565b906001600160a01b0390811690610163908316821415610541565b600052600060205260406000209060018060a01b03166000526020526020604060002054604051908152f35b34610122576020366003190112610122576001600160a01b036101b06104a1565b166000526001602052602060ff604060002054166040519015158152f35b34610122576060366003190112610122576101e76104a1565b6101ef6104b7565b6044359033600052600160205261020d60ff604060002054166104cd565b6001600160a01b0390811692169061022782841415610541565b80156102a05760407f1c9890ff47aa52a490371b4421aeeef1bb9bbca0a7ab9944550f4b6c4d0880cb9161025961057a565b8181526002602082014281528483019043825287600052600060205285806000206000908b82526020522093518455516001840155519101558151908152426020820152a3005b60405162461bcd60e51b815260206004820152600d60248201526c496e76616c696420707269636560981b6044820152606490fd5b34610122576020366003190112610122576102ee6104a1565b33600052600160205261030860ff604060002054166104cd565b6001600160a01b03166000908152600160208190526040909120805460ff19169091179055005b3461012257608036600319011261012257600435602435811515806103d9575b156103a15761036c6103789161036660443561050a565b9061052e565b9161036660643561050a565b90811561038b5760209160405191048152f35b634e487b7160e01b600052601260045260246000fd5b60405162461bcd60e51b815260206004820152601060248201526f496e76616c696420726573657276657360801b6044820152606490fd5b5080151561034f565b34610122576020366003190112610122576103fb6104a1565b33600052600160205261041560ff604060002054166104cd565b6001600160a01b03166000908152600160205260409020805460ff19169055005b3461012257604036600319011261012257606060406104536104a1565b61045b6104b7565b9060018060a01b031660005260006020528160002060009160018060a01b0316825260205220805490600260018201549101549060405192835260208301526040820152f35b600435906001600160a01b038216820361012257565b602435906001600160a01b038216820361012257565b156104d457565b60405162461bcd60e51b815260206004820152600e60248201526d139bdd08185d5d1a1bdc9a5e995960921b6044820152606490fd5b604d811161051857600a0a90565b634e487b7160e01b600052601160045260246000fd5b8181029291811591840414171561051857565b1561054857565b60405162461bcd60e51b815260206004820152600a60248201526929b0b6b2903a37b5b2b760b11b6044820152606490fd5b604051906060820182811067ffffffffffffffff82111761059a57604052565b634e487b7160e01b600052604160045260246000fdfea2646970667358221220954b13463f54fa47e7deee4f322d92fe10aa8e45c80f46f14b20d552224ee6ef64736f6c634300081c0033","opcodes":"PUSH1 0x80 DUP1 PUSH1 0x40 MSTORE CALLVALUE PUSH1 0x2E JUMPI CALLER PUSH1 0x0 MSTORE PUSH1 0x1 PUSH1 0x20 MSTORE PUSH1 0x40 PUSH1 0x0 KECCAK256 PUSH1 0x1 PUSH1 0xFF NOT DUP3 SLOAD AND OR SWAP1 SSTORE PUSH2 0x5E6 SWAP1 DUP2 PUSH2 0x34 DUP3 CODECOPY RETURN JUMPDEST PUSH1 0x0 DUP1 REVERT INVALID PUSH1 0x80 PUSH1 0x40 MSTORE PUSH1 0x4 CALLDATASIZE LT ISZERO PUSH2 0x12 JUMPI PUSH1 0x0 DUP1 REVERT JUMPDEST PUSH1 0x0 CALLDATALOAD PUSH1 0xE0 SHR DUP1 PUSH4 0x1F312404 EQ PUSH2 0x436 JUMPI DUP1 PUSH4 0x603CDA09 EQ PUSH2 0x3E2 JUMPI DUP1 PUSH4 0x8C23D57B EQ PUSH2 0x32F JUMPI DUP1 PUSH4 0x8C9B9FDC EQ PUSH2 0x2D5 JUMPI DUP1 PUSH4 0x8FBB2A90 EQ PUSH2 0x1CE JUMPI DUP1 PUSH4 0x8FF29CFE EQ PUSH2 0x18F JUMPI DUP1 PUSH4 0xAC41865A EQ PUSH2 0x127 JUMPI PUSH4 0xFCF362A5 EQ PUSH2 0x74 JUMPI PUSH1 0x0 DUP1 REVERT JUMPDEST CALLVALUE PUSH2 0x122 JUMPI PUSH1 0x40 CALLDATASIZE PUSH1 0x3 NOT ADD SLT PUSH2 0x122 JUMPI PUSH1 0x60 PUSH1 0x40 PUSH2 0x91 PUSH2 0x4A1 JUMP JUMPDEST PUSH2 0x99 PUSH2 0x4B7 JUMP JUMPDEST SWAP1 PUSH1 0x0 DUP4 PUSH2 0xA5 PUSH2 0x57A JUMP JUMPDEST DUP3 DUP2 MSTORE PUSH1 0x20 DUP2 ADD DUP4 SWAP1 MSTORE ADD MSTORE PUSH1 0x1 PUSH1 0x1 PUSH1 0xA0 SHL SUB SWAP1 DUP2 AND SWAP1 PUSH2 0xCB SWAP1 DUP4 AND DUP3 EQ ISZERO PUSH2 0x541 JUMP JUMPDEST PUSH1 0x0 MSTORE PUSH1 0x0 PUSH1 0x20 MSTORE DUP2 PUSH1 0x0 KECCAK256 PUSH1 0x0 SWAP2 PUSH1 0x1 DUP1 PUSH1 0xA0 SHL SUB AND DUP3 MSTORE PUSH1 0x20 MSTORE KECCAK256 PUSH2 0xF0 PUSH2 0x57A JUMP JUMPDEST DUP2 SLOAD SWAP2 DUP3 DUP3 MSTORE PUSH1 0x40 PUSH1 0x2 PUSH1 0x1 DUP4 ADD SLOAD SWAP3 PUSH1 0x20 DUP6 ADD SWAP4 DUP5 MSTORE ADD SLOAD SWAP3 ADD SWAP2 DUP3 MSTORE PUSH1 0x40 MLOAD SWAP3 DUP4 MSTORE MLOAD PUSH1 0x20 DUP4 ADD MSTORE MLOAD PUSH1 0x40 DUP3 ADD MSTORE RETURN JUMPDEST PUSH1 0x0 DUP1 REVERT JUMPDEST CALLVALUE PUSH2 0x122 JUMPI PUSH1 0x40 CALLDATASIZE PUSH1 0x3 NOT ADD SLT PUSH2 0x122 JUMPI PUSH2 0x140 PUSH2 0x4A1 JUMP JUMPDEST PUSH2 0x148 PUSH2 0x4B7 JUMP JUMPDEST SWAP1 PUSH1 0x1 PUSH1 0x1 PUSH1 0xA0 SHL SUB SWAP1 DUP2 AND SWAP1 PUSH2 0x163 SWAP1 DUP4 AND DUP3 EQ ISZERO PUSH2 0x541 JUMP JUMPDEST PUSH1 0x0 MSTORE PUSH1 0x0 PUSH1 0x20 MSTORE PUSH1 0x40 PUSH1 0x0 KECCAK256 SWAP1 PUSH1 0x1 DUP1 PUSH1 0xA0 SHL SUB AND PUSH1 0x0 MSTORE PUSH1 0x20 MSTORE PUSH1 0x20 PUSH1 0x40 PUSH1 0x0 KECCAK256 SLOAD PUSH1 0x40 MLOAD SWAP1 DUP2 MSTORE RETURN JUMPDEST CALLVALUE PUSH2 0x122 JUMPI PUSH1 0x20 CALLDATASIZE PUSH1 0x3 NOT ADD SLT PUSH2 0x122 JUMPI PUSH1 0x1 PUSH1 0x1 PUSH1 0xA0 SHL SUB PUSH2 0x1B0 PUSH2 0x4A1 JUMP JUMPDEST AND PUSH1 0x0 MSTORE PUSH1 0x1 PUSH1 0x20 MSTORE PUSH1 0x20 PUSH1 0xFF PUSH1 0x40 PUSH1 0x0 KECCAK256 SLOAD AND PUSH1 0x40 MLOAD SWAP1 ISZERO ISZERO DUP2 MSTORE RETURN JUMPDEST CALLVALUE PUSH2 0x122 JUMPI PUSH1 0x60 CALLDATASIZE PUSH1 0x3 NOT ADD SLT PUSH2 0x122 JUMPI PUSH2 0x1E7 PUSH2 0x4A1 JUMP JUMPDEST PUSH2 0x1EF PUSH2 0x4B7 JUMP JUMPDEST PUSH1 0x44 CALLDATALOAD SWAP1 CALLER PUSH1 0x0 MSTORE PUSH1 0x1 PUSH1 0x20 MSTORE PUSH2 0x20D PUSH1 0xFF PUSH1 0x40 PUSH1 0x0 KECCAK256 SLOAD AND PUSH2 0x4CD JUMP JUMPDEST PUSH1 0x1 PUSH1 0x1 PUSH1 0xA0 SHL SUB SWAP1 DUP2 AND SWAP3 AND SWAP1 PUSH2 0x227 DUP3 DUP5 EQ ISZERO PUSH2 0x541 JUMP JUMPDEST DUP1 ISZERO PUSH2 0x2A0 JUMPI PUSH1 0x40 PUSH32 0x1C9890FF47AA52A490371B4421AEEEF1BB9BBCA0A7AB9944550F4B6C4D0880CB SWAP2 PUSH2 0x259 PUSH2 0x57A JUMP JUMPDEST DUP2 DUP2 MSTORE PUSH1 0x2 PUSH1 0x20 DUP3 ADD TIMESTAMP DUP2 MSTORE DUP5 DUP4 ADD SWAP1 NUMBER DUP3 MSTORE DUP8 PUSH1 0x0 MSTORE PUSH1 0x0 PUSH1 0x20 MSTORE DUP6 DUP1 PUSH1 0x0 KECCAK256 PUSH1 0x0 SWAP1 DUP12 DUP3 MSTORE PUSH1 0x20 MSTORE KECCAK256 SWAP4 MLOAD DUP5 SSTORE MLOAD PUSH1 0x1 DUP5 ADD SSTORE MLOAD SWAP2 ADD SSTORE DUP2 MLOAD SWAP1 DUP2 MSTORE TIMESTAMP PUSH1 0x20 DUP3 ADD MSTORE LOG3 STOP JUMPDEST PUSH1 0x40 MLOAD PUSH3 0x461BCD PUSH1 0xE5 SHL DUP2 MSTORE PUSH1 0x20 PUSH1 0x4 DUP3 ADD MSTORE PUSH1 0xD PUSH1 0x24 DUP3 ADD MSTORE PUSH13 0x496E76616C6964207072696365 PUSH1 0x98 SHL PUSH1 0x44 DUP3 ADD MSTORE PUSH1 0x64 SWAP1 REVERT JUMPDEST CALLVALUE PUSH2 0x122 JUMPI PUSH1 0x20 CALLDATASIZE PUSH1 0x3 NOT ADD SLT PUSH2 0x122 JUMPI PUSH2 0x2EE PUSH2 0x4A1 JUMP JUMPDEST CALLER PUSH1 0x0 MSTORE PUSH1 0x1 PUSH1 0x20 MSTORE PUSH2 0x308 PUSH1 0xFF PUSH1 0x40 PUSH1 0x0 KECCAK256 SLOAD AND PUSH2 0x4CD JUMP JUMPDEST PUSH1 0x1 PUSH1 0x1 PUSH1 0xA0 SHL SUB AND PUSH1 0x0 SWAP1 DUP2 MSTORE PUSH1 0x1 PUSH1 0x20 DUP2 SWAP1 MSTORE PUSH1 0x40 SWAP1 SWAP2 KECCAK256 DUP1 SLOAD PUSH1 0xFF NOT AND SWAP1 SWAP2 OR SWAP1 SSTORE STOP JUMPDEST CALLVALUE PUSH2 0x122 JUMPI PUSH1 0x80 CALLDATASIZE PUSH1 0x3 NOT ADD SLT PUSH2 0x122 JUMPI PUSH1 0x4 CALLDATALOAD PUSH1 0x24 CALLDATALOAD DUP2 ISZERO ISZERO DUP1 PUSH2 0x3D9 JUMPI JUMPDEST ISZERO PUSH2 0x3A1 JUMPI PUSH2 0x36C PUSH2 0x378 SWAP2 PUSH2 0x366 PUSH1 0x44 CALLDATALOAD PUSH2 0x50A JUMP JUMPDEST SWAP1 PUSH2 0x52E JUMP JUMPDEST SWAP2 PUSH2 0x366 PUSH1 0x64 CALLDATALOAD PUSH2 0x50A JUMP JUMPDEST SWAP1 DUP2 ISZERO PUSH2 0x38B JUMPI PUSH1 0x20 SWAP2 PUSH1 0x40 MLOAD SWAP2 DIV DUP2 MSTORE RETURN JUMPDEST PUSH4 0x4E487B71 PUSH1 0xE0 SHL PUSH1 0x0 MSTORE PUSH1 0x12 PUSH1 0x4 MSTORE PUSH1 0x24 PUSH1 0x0 REVERT JUMPDEST PUSH1 0x40 MLOAD PUSH3 0x461BCD PUSH1 0xE5 SHL DUP2 MSTORE PUSH1 0x20 PUSH1 0x4 DUP3 ADD MSTORE PUSH1 0x10 PUSH1 0x24 DUP3 ADD MSTORE PUSH16 0x496E76616C6964207265736572766573 PUSH1 0x80 SHL PUSH1 0x44 DUP3 ADD MSTORE PUSH1 0x64 SWAP1 REVERT JUMPDEST POP DUP1 ISZERO ISZERO PUSH2 0x34F JUMP JUMPDEST CALLVALUE PUSH2 0x122 JUMPI PUSH1 0x20 CALLDATASIZE PUSH1 0x3 NOT ADD SLT PUSH2 0x122 JUMPI PUSH2 0x3FB PUSH2 0x4A1 JUMP JUMPDEST CALLER PUSH1 0x0 MSTORE PUSH1 0x1 PUSH1 0x20 MSTORE PUSH2 0x415 PUSH1 0xFF PUSH1 0x40 PUSH1 0x0 KECCAK256 SLOAD AND PUSH2 0x4CD JUMP JUMPDEST PUSH1 0x1 PUSH1 0x1 PUSH1 0xA0 SHL SUB AND PUSH1 0x0 SWAP1 DUP2 MSTORE PUSH1 0x1 PUSH1 0x20 MSTORE PUSH1 0x40 SWAP1 KECCAK256 DUP1 SLOAD PUSH1 0xFF NOT AND SWAP1 SSTORE STOP JUMPDEST CALLVALUE PUSH2 0x122 JUMPI PUSH1 0x40 CALLDATASIZE PUSH1 0x3 NOT ADD SLT PUSH2 0x122 JUMPI PUSH1 0x60 PUSH1 0x40 PUSH2 0x453 PUSH2 0x4A1 JUMP JUMPDEST PUSH2 0x45B PUSH2 0x4B7 JUMP JUMPDEST SWAP1 PUSH1 0x1 DUP1 PUSH1 0xA0 SHL SUB AND PUSH1 0x0 MSTORE PUSH1 0x0 PUSH1 0x20 MSTORE DUP2 PUSH1 0x0 KECCAK256 PUSH1 0x0 SWAP2 PUSH1 0x1 DUP1 PUSH1 0xA0 SHL SUB AND DUP3 MSTORE PUSH1 0x20 MSTORE KECCAK256 DUP1 SLOAD SWAP1 PUSH1 0x2 PUSH1 0x1 DUP3 ADD SLOAD SWAP2 ADD SLOAD SWAP1 PUSH1 0x40 MLOAD SWAP3 DUP4 MSTORE PUSH1 0x20 DUP4 ADD MSTORE PUSH1 0x40 DUP3 ADD MSTORE RETURN JUMPDEST PUSH1 0x4 CALLDATALOAD SWAP1 PUSH1 0x1 PUSH1 0x1 PUSH1 0xA0 SHL SUB DUP3 AND DUP3 SUB PUSH2 0x122 JUMPI JUMP JUMPDEST PUSH1 0x24 CALLDATALOAD SWAP1 PUSH1 0x1 PUSH1 0x1 PUSH1 0xA0 SHL SUB DUP3 AND DUP3 SUB PUSH2 0x122 JUMPI JUMP JUMPDEST ISZERO PUSH2 0x4D4 JUMPI JUMP JUMPDEST PUSH1 0x40 MLOAD PUSH3 0x461BCD PUSH1 0xE5 SHL DUP2 MSTORE PUSH1 0x20 PUSH1 0x4 DUP3 ADD MSTORE PUSH1 0xE PUSH1 0x24 DUP3 ADD MSTORE PUSH14 0x139BDD08185D5D1A1BDC9A5E9959 PUSH1 0x92 SHL PUSH1 0x44 DUP3 ADD MSTORE PUSH1 0x64 SWAP1 REVERT JUMPDEST PUSH1 0x4D DUP2 GT PUSH2 0x518 JUMPI PUSH1 0xA EXP SWAP1 JUMP JUMPDEST PUSH4 0x4E487B71 PUSH1 0xE0 SHL PUSH1 0x0 MSTORE PUSH1 0x11 PUSH1 0x4 MSTORE PUSH1 0x24 PUSH1 0x0 REVERT JUMPDEST DUP2 DUP2 MUL SWAP3 SWAP2 DUP2 ISZERO SWAP2 DUP5 DIV EQ OR ISZERO PUSH2 0x518 JUMPI JUMP JUMPDEST ISZERO PUSH2 0x548 JUMPI JUMP JUMPDEST PUSH1 0x40 MLOAD PUSH3 0x461BCD PUSH1 0xE5 SHL DUP2 MSTORE PUSH1 0x20 PUSH1 0x4 DUP3 ADD MSTORE PUSH1 0xA PUSH1 0x24 DUP3 ADD MSTORE PUSH10 0x29B0B6B2903A37B5B2B7 PUSH1 0xB1 SHL PUSH1 0x44 DUP3 ADD MSTORE PUSH1 0x64 SWAP1 REVERT JUMPDEST PUSH1 0x40 MLOAD SWAP1 PUSH1 0x60 DUP3 ADD DUP3 DUP2 LT PUSH8 0xFFFFFFFFFFFFFFFF DUP3 GT OR PUSH2 0x59A JUMPI PUSH1 0x40 MSTORE JUMP JUMPDEST PUSH4 0x4E487B71 PUSH1 0xE0 SHL PUSH1 0x0 MSTORE PUSH1 0x41 PUSH1 0x4 MSTORE PUSH1 0x24 PUSH1 0x0 REVERT INVALID LOG2 PUSH5 0x6970667358 0x22 SLT KECCAK256 SWAP6 0x4B SGT CHAINID EXTCODEHASH SLOAD STATICCALL SELFBALANCE 0xE7 0xDE 0xEE 0x4F ORIGIN 0x2D SWAP3 INVALID LT 0xAA DUP15 GASLIMIT 0xC8 0xF CHAINID CALL 0x4B KECCAK256 0xD5 MSTORE 0x22 0x4E 0xE6 0xEF PUSH5 0x736F6C6343 STOP ADDMOD SHR STOP CALLER "},"methodIdentifiers":{"addAuthorizedUpdater(address)":"8c9b9fdc","authorizedUpdaters(address)":"8ff29cfe","calculatePriceFromReserves(uint256,uint256,uint256,uint256)":"8c23d57b","getPrice(address,address)":"ac41865a","getPriceData(address,address)":"fcf362a5","prices(address,address)":"1f312404","removeAuthorizedUpdater(address)":"603cda09","updatePrice(address,address,uint256)":"8fbb2a90"}}}}}