{"contracts/Faucet.sol":{"Faucet":{"abi":[{"inputs":[],"stateMutability":"nonpayable","type":"constructor"},{"inputs":[{"internalType":"address","name":"owner","type":"address"}],"name":"OwnableInvalidOwner","type":"error"},{"inputs":[{"internalType":"address","name":"account","type":"address"}],"name":"OwnableUnauthorizedAccount","type":"error"},{"anonymous":false,"inputs":[{"indexed":true,"internalType":"address","name":"token","type":"address"},{"indexed":false,"internalType":"uint256","name":"newAmount","type":"uint256"}],"name":"FaucetAmountUpdated","type":"event"},{"anonymous":false,"inputs":[{"indexed":true,"internalType":"address","name":"user","type":"address"},{"indexed":true,"internalType":"address","name":"token","type":"address"},{"indexed":false,"internalType":"uint256","name":"amount","type":"uint256"}],"name":"FaucetUsed","type":"event"},{"anonymous":false,"inputs":[{"indexed":true,"internalType":"address","name":"previousOwner","type":"address"},{"indexed":true,"internalType":"address","name":"newOwner","type":"address"}],"name":"OwnershipTransferred","type":"event"},{"anonymous":false,"inputs":[{"indexed":true,"internalType":"address","name":"token","type":"address"},{"indexed":false,"internalType":"uint256","name":"amount","type":"uint256"}],"name":"TokenAdded","type":"event"},{"anonymous":false,"inputs":[{"indexed":true,"internalType":"address","name":"token","type":"address"}],"name":"TokenRemoved","type":"event"},{"inputs":[],"name":"FAUCET_COOLDOWN","outputs":[{"internalType":"uint256","name":"","type":"uint256"}],"stateMutability":"view","type":"function"},{"inputs":[{"internalType":"address","name":"token","type":"address"}],"name":"addToken","outputs":[],"stateMutability":"nonpayable","type":"function"},{"inputs":[{"internalType":"address","name":"token","type":"address"},{"internalType":"uint256","name":"amount","type":"uint256"}],"name":"emergencyWithdraw","outputs":[],"stateMutability":"nonpayable","type":"function"},{"inputs":[{"internalType":"address","name":"","type":"address"}],"name":"faucetAmounts","outputs":[{"internalType":"uint256","name":"","type":"uint256"}],"stateMutability":"view","type":"function"},{"inputs":[],"name":"getSupportedTokens","outputs":[{"internalType":"address[]","name":"","type":"address[]"}],"stateMutability":"view","type":"function"},{"inputs":[{"internalType":"address","name":"user","type":"address"}],"name":"getTimeUntilNextFaucet","outputs":[{"internalType":"uint256","name":"","type":"uint256"}],"stateMutability":"view","type":"function"},{"inputs":[{"internalType":"address","name":"token","type":"address"}],"name":"getTokenInfo","outputs":[{"internalType":"uint256","name":"amount","type":"uint256"},{"internalType":"string","name":"symbol","type":"string"},{"internalType":"string","name":"name","type":"string"}],"stateMutability":"view","type":"function"},{"inputs":[{"internalType":"address","name":"","type":"address"}],"name":"lastFaucetTime","outputs":[{"internalType":"uint256","name":"","type":"uint256"}],"stateMutability":"view","type":"function"},{"inputs":[],"name":"owner","outputs":[{"internalType":"address","name":"","type":"address"}],"stateMutability":"view","type":"function"},{"inputs":[{"internalType":"address","name":"token","type":"address"}],"name":"removeToken","outputs":[],"stateMutability":"nonpayable","type":"function"},{"inputs":[],"name":"renounceOwnership","outputs":[],"stateMutability":"nonpayable","type":"function"},{"inputs":[],"name":"requestAllFaucets","outputs":[],"stateMutability":"nonpayable","type":"function"},{"inputs":[{"internalType":"address","name":"token","type":"address"}],"name":"requestFaucet","outputs":[],"stateMutability":"nonpayable","type":"function"},{"inputs":[{"internalType":"uint256","name":"","type":"uint256"}],"name":"supportedTokens","outputs":[{"internalType":"address","name":"","type":"address"}],"stateMutability":"view","type":"function"},{"inputs":[{"internalType":"address","name":"newOwner","type":"address"}],"name":"transferOwnership","outputs":[],"stateMutability":"nonpayable","type":"function"},{"inputs":[{"internalType":"address","name":"token","type":"address"},{"internalType":"uint256","name":"newAmount","type":"uint256"}],"name":"updateFaucetAmount","outputs":[],"stateMutability":"nonpayable","type":"function"}],"evm":{"bytecode":{"linkReferences":{},"object":"608080604052346075573315605f5760008054336001600160a01b0319821681178355916001600160a01b03909116907f8be0079c531659141344cd1fd0a4f28419497f9722a3daafe3b4186f6b6457e09080a3610e88908161007b8239f35b631e4fbdf760e01b600052600060045260246000fd5b600080fdfe608080604052600436101561001357600080fd5b60003560e01c90816314c47fbd14610b76575080631f69565f14610a235780632a707541146108d75780633e6a099c146107fd5780635fa7b584146106da578063715018a6146106815780637bc1f6cc146106475780637d1d5d19146106295780638da5cb5b1461060057806395ccea6714610557578063c625562614610515578063d3c7c2c714610449578063d48bfca714610316578063e21430d3146102eb578063f2fde38b146102625763ffc80e55146100cf57600080fd5b3461025d57600036600319011261025d57600354156102225733600052600160205260406000205462015180810180911161020c5761011090421015610d13565b3360005260016020524260406000205560005b60035481101561020a5761013681610c0a565b905460039190911b1c6001600160a01b031660008181526002602052604090205491908261016a575b506001915001610123565b60405163a9059cbb60e01b815233600482015260248101849052926020846044816000865af19384156101fe576001946101d2575b506040519081527f45c201a59ac545000ead84f30b2db67da23353aa1d58ac522c48505412143ffa60203392a33861015f565b6101f29060203d81116101f7575b6101ea8183610c3b565b810190610d72565b61019f565b503d6101e0565b6040513d6000823e3d90fd5b005b634e487b7160e01b600052601160045260246000fd5b60405162461bcd60e51b81526020600482015260136024820152724e6f20746f6b656e7320617661696c61626c6560681b6044820152606490fd5b600080fd5b3461025d57602036600319011261025d5761027b610bac565b610283610e29565b6001600160a01b031680156102d557600080546001600160a01b03198116831782556001600160a01b0316907f8be0079c531659141344cd1fd0a4f28419497f9722a3daafe3b4186f6b6457e09080a3005b631e4fbdf760e01b600052600060045260246000fd5b3461025d57602036600319011261025d57602061030e610309610bac565b610dd6565b604051908152f35b3461025d57602036600319011261025d5761032f610bac565b610337610e29565b6001600160a01b0381169061034d821515610ccf565b600354906000805b838110610416575b50156103b1575b828060005260026020526706f05b59d3b200006040600020557ff4c563a3ea86ff1f4275e8c207df0375a51963f2b831b7bf4da8be938d92876c60206040516706f05b59d3b200008152a2005b68010000000000000000821015610400576103d58260016103f99401600355610c0a565b81546001600160a01b0393841660039290921b91821b9390911b1916919091179055565b8180610364565b634e487b7160e01b600052604160045260246000fd5b8461042082610c0a565b905460039190911b1c6001600160a01b03161461043f57600101610355565b505060018461035d565b3461025d57600036600319011261025d576040518060206003549283815201809260036000527fc2575a0e9e593c00f959f8c92f12db2869c3395a3b0502d05e2516446f71f85b9060005b8181106104f657505050816104aa910382610c3b565b6040519182916020830190602084525180915260408301919060005b8181106104d4575050500390f35b82516001600160a01b03168452859450602093840193909201916001016104c6565b82546001600160a01b0316845260209093019260019283019201610494565b3461025d57602036600319011261025d5760043560035481101561025d5761053e602091610c0a565b905460405160039290921b1c6001600160a01b03168152f35b3461025d57604036600319011261025d576105d86020610575610bac565b60243590610581610e29565b6001600160a01b0316610595811515610ccf565b6105a0821515610d8a565b6000805460405163a9059cbb60e01b81526001600160a01b039091166004820152602481019390935291938492839182906044820190565b03925af180156101fe576105e857005b61020a9060203d6020116101f7576101ea8183610c3b565b3461025d57600036600319011261025d576000546040516001600160a01b039091168152602090f35b3461025d57600036600319011261025d576020604051620151808152f35b3461025d57602036600319011261025d576001600160a01b03610668610bac565b1660005260016020526020604060002054604051908152f35b3461025d57600036600319011261025d5761069a610e29565b600080546001600160a01b0319811682556001600160a01b03167f8be0079c531659141344cd1fd0a4f28419497f9722a3daafe3b4186f6b6457e08280a3005b3461025d57602036600319011261025d576106f3610bac565b6106fb610e29565b6001600160a01b031661070f811515610ccf565b60005b60035490818110156107f6578261072882610c0a565b905460039190911b1c6001600160a01b031614610749576001915001610712565b600019820191821161020c576103d561076461077c93610c0a565b905460039190911b1c6001600160a01b031691610c0a565b60035480156107e0576000190161079281610c0a565b81546001600160a01b03600392831b1b1916909155555b806000526002602052600060408120557f4c910b69fe65a61f7531b9c5042b2329ca7179c77290aa7e2eb3afa3c8511fd3600080a2005b634e487b7160e01b600052603160045260246000fd5b50506107a9565b3461025d57604036600319011261025d57610816610bac565b60243590610822610e29565b6001600160a01b031690610837821515610ccf565b816000526002602052604060002054156108925760208161087a7f4aa1b13eb889e81dc57ed88a5ff965bca06398336b3b226039dfeb6348679f73931515610d8a565b836000526002825280604060002055604051908152a2005b60405162461bcd60e51b815260206004820152601860248201527f546f6b656e206e6f7420696e20666175636574206c69737400000000000000006044820152606490fd5b3461025d57602036600319011261025d576001600160a01b036108f8610bac565b16610904811515610ccf565b806000526002602052604060002054156109de5733600052600160205260406000205462015180810180911161020c5761094090421015610d13565b3360008181526001602090815260408083204290558483526002825280832054905163a9059cbb60e01b8152600481019490945260248401819052929182906044908290875af180156101fe576109c1575b506040519081527f45c201a59ac545000ead84f30b2db67da23353aa1d58ac522c48505412143ffa60203392a3005b6109d99060203d6020116101f7576101ea8183610c3b565b610992565b60405162461bcd60e51b815260206004820152601d60248201527f546f6b656e206e6f7420617661696c61626c6520696e206661756365740000006044820152606490fd5b3461025d57602036600319011261025d57610a3c610bac565b6001600160a01b03166000818152600260205260408082205490516395d89b4160e01b815290918082600481875afa90918282610b59575b5050610b4e575060046000604051610a8d604082610c3b565b60078152662aa725a727aba760c91b6020820152935b6040516306fdde0360e01b815292839182905afa60009181610b29575b50610b205750610b1c604051610ad7604082610c3b565b600d81526c2ab735b737bbb7102a37b5b2b760991b60208201525b610b0e6040519485948552606060208601526060850190610be5565b908382036040850152610be5565b0390f35b610b1c90610af2565b610b479192503d806000833e610b3f8183610c3b565b810190610c5d565b9084610ac0565b600060049193610aa3565b610b6e9293503d8091833e610b3f8183610c3b565b908480610a74565b3461025d57602036600319011261025d576020906001600160a01b03610b9a610bac565b16600052600282526040600020548152f35b600435906001600160a01b038216820361025d57565b60005b838110610bd55750506000910152565b8181015183820152602001610bc5565b90602091610bfe81518092818552858086019101610bc2565b601f01601f1916010190565b600354811015610c2557600360005260206000200190600090565b634e487b7160e01b600052603260045260246000fd5b90601f8019910116810190811067ffffffffffffffff82111761040057604052565b60208183031261025d5780519067ffffffffffffffff821161025d570181601f8201121561025d57805167ffffffffffffffff81116104005760405192610cae601f8301601f191660200185610c3b565b8184526020828401011161025d57610ccc9160208085019101610bc2565b90565b15610cd657565b60405162461bcd60e51b8152602060048201526015602482015274496e76616c696420746f6b656e206164647265737360581b6044820152606490fd5b15610d1a57565b60405162461bcd60e51b815260206004820152602a60248201527f4d757374207761697420323420686f757273206265747765656e2066617563656044820152697420726571756573747360b01b6064820152608490fd5b9081602091031261025d5751801515810361025d5790565b15610d9157565b60405162461bcd60e51b815260206004820152601d60248201527f416d6f756e74206d7573742062652067726561746572207468616e20300000006044820152606490fd5b6001600160a01b03166000908152600160205260409020548015610e23576201518081019081811161020c5781421015610e1c57429003620151800190811161020c5790565b5050600090565b50600090565b6000546001600160a01b03163303610e3d57565b63118cdaa760e01b6000523360045260246000fdfea26469706673582212208f06cb2070d368335aad9aa721606cce0a2b3ca5200bf4f8fd3aea6bd914b28f64736f6c634300081c0033","opcodes":"PUSH1 0x80 DUP1 PUSH1 0x40 MSTORE CALLVALUE PUSH1 0x75 JUMPI CALLER ISZERO PUSH1 0x5F JUMPI PUSH1 0x0 DUP1 SLOAD CALLER PUSH1 0x1 PUSH1 0x1 PUSH1 0xA0 SHL SUB NOT DUP3 AND DUP2 OR DUP4 SSTORE SWAP2 PUSH1 0x1 PUSH1 0x1 PUSH1 0xA0 SHL SUB SWAP1 SWAP2 AND SWAP1 PUSH32 0x8BE0079C531659141344CD1FD0A4F28419497F9722A3DAAFE3B4186F6B6457E0 SWAP1 DUP1 LOG3 PUSH2 0xE88 SWAP1 DUP2 PUSH2 0x7B DUP3 CODECOPY RETURN JUMPDEST PUSH4 0x1E4FBDF7 PUSH1 0xE0 SHL PUSH1 0x0 MSTORE PUSH1 0x0 PUSH1 0x4 MSTORE PUSH1 0x24 PUSH1 0x0 REVERT JUMPDEST PUSH1 0x0 DUP1 REVERT INVALID PUSH1 0x80 DUP1 PUSH1 0x40 MSTORE PUSH1 0x4 CALLDATASIZE LT ISZERO PUSH2 0x13 JUMPI PUSH1 0x0 DUP1 REVERT JUMPDEST PUSH1 0x0 CALLDATALOAD PUSH1 0xE0 SHR SWAP1 DUP2 PUSH4 0x14C47FBD EQ PUSH2 0xB76 JUMPI POP DUP1 PUSH4 0x1F69565F EQ PUSH2 0xA23 JUMPI DUP1 PUSH4 0x2A707541 EQ PUSH2 0x8D7 JUMPI DUP1 PUSH4 0x3E6A099C EQ PUSH2 0x7FD JUMPI DUP1 PUSH4 0x5FA7B584 EQ PUSH2 0x6DA JUMPI DUP1 PUSH4 0x715018A6 EQ PUSH2 0x681 JUMPI DUP1 PUSH4 0x7BC1F6CC EQ PUSH2 0x647 JUMPI DUP1 PUSH4 0x7D1D5D19 EQ PUSH2 0x629 JUMPI DUP1 PUSH4 0x8DA5CB5B EQ PUSH2 0x600 JUMPI DUP1 PUSH4 0x95CCEA67 EQ PUSH2 0x557 JUMPI DUP1 PUSH4 0xC6255626 EQ PUSH2 0x515 JUMPI DUP1 PUSH4 0xD3C7C2C7 EQ PUSH2 0x449 JUMPI DUP1 PUSH4 0xD48BFCA7 EQ PUSH2 0x316 JUMPI DUP1 PUSH4 0xE21430D3 EQ PUSH2 0x2EB JUMPI DUP1 PUSH4 0xF2FDE38B EQ PUSH2 0x262 JUMPI PUSH4 0xFFC80E55 EQ PUSH2 0xCF JUMPI PUSH1 0x0 DUP1 REVERT JUMPDEST CALLVALUE PUSH2 0x25D JUMPI PUSH1 0x0 CALLDATASIZE PUSH1 0x3 NOT ADD SLT PUSH2 0x25D JUMPI PUSH1 0x3 SLOAD ISZERO PUSH2 0x222 JUMPI CALLER PUSH1 0x0 MSTORE PUSH1 0x1 PUSH1 0x20 MSTORE PUSH1 0x40 PUSH1 0x0 KECCAK256 SLOAD PUSH3 0x15180 DUP2 ADD DUP1 SWAP2 GT PUSH2 0x20C JUMPI PUSH2 0x110 SWAP1 TIMESTAMP LT ISZERO PUSH2 0xD13 JUMP JUMPDEST CALLER PUSH1 0x0 MSTORE PUSH1 0x1 PUSH1 0x20 MSTORE TIMESTAMP PUSH1 0x40 PUSH1 0x0 KECCAK256 SSTORE PUSH1 0x0 JUMPDEST PUSH1 0x3 SLOAD DUP2 LT ISZERO PUSH2 0x20A JUMPI PUSH2 0x136 DUP2 PUSH2 0xC0A JUMP JUMPDEST SWAP1 SLOAD PUSH1 0x3 SWAP2 SWAP1 SWAP2 SHL SHR PUSH1 0x1 PUSH1 0x1 PUSH1 0xA0 SHL SUB AND PUSH1 0x0 DUP2 DUP2 MSTORE PUSH1 0x2 PUSH1 0x20 MSTORE PUSH1 0x40 SWAP1 KECCAK256 SLOAD SWAP2 SWAP1 DUP3 PUSH2 0x16A JUMPI JUMPDEST POP PUSH1 0x1 SWAP2 POP ADD PUSH2 0x123 JUMP JUMPDEST PUSH1 0x40 MLOAD PUSH4 0xA9059CBB PUSH1 0xE0 SHL DUP2 MSTORE CALLER PUSH1 0x4 DUP3 ADD MSTORE PUSH1 0x24 DUP2 ADD DUP5 SWAP1 MSTORE SWAP3 PUSH1 0x20 DUP5 PUSH1 0x44 DUP2 PUSH1 0x0 DUP7 GAS CALL SWAP4 DUP5 ISZERO PUSH2 0x1FE JUMPI PUSH1 0x1 SWAP5 PUSH2 0x1D2 JUMPI JUMPDEST POP PUSH1 0x40 MLOAD SWAP1 DUP2 MSTORE PUSH32 0x45C201A59AC545000EAD84F30B2DB67DA23353AA1D58AC522C48505412143FFA PUSH1 0x20 CALLER SWAP3 LOG3 CODESIZE PUSH2 0x15F JUMP JUMPDEST PUSH2 0x1F2 SWAP1 PUSH1 0x20 RETURNDATASIZE DUP2 GT PUSH2 0x1F7 JUMPI JUMPDEST PUSH2 0x1EA DUP2 DUP4 PUSH2 0xC3B JUMP JUMPDEST DUP2 ADD SWAP1 PUSH2 0xD72 JUMP JUMPDEST PUSH2 0x19F JUMP JUMPDEST POP RETURNDATASIZE PUSH2 0x1E0 JUMP JUMPDEST PUSH1 0x40 MLOAD RETURNDATASIZE PUSH1 0x0 DUP3 RETURNDATACOPY RETURNDATASIZE SWAP1 REVERT JUMPDEST STOP JUMPDEST PUSH4 0x4E487B71 PUSH1 0xE0 SHL PUSH1 0x0 MSTORE PUSH1 0x11 PUSH1 0x4 MSTORE PUSH1 0x24 PUSH1 0x0 REVERT JUMPDEST PUSH1 0x40 MLOAD PUSH3 0x461BCD PUSH1 0xE5 SHL DUP2 MSTORE PUSH1 0x20 PUSH1 0x4 DUP3 ADD MSTORE PUSH1 0x13 PUSH1 0x24 DUP3 ADD MSTORE PUSH19 0x4E6F20746F6B656E7320617661696C61626C65 PUSH1 0x68 SHL PUSH1 0x44 DUP3 ADD MSTORE PUSH1 0x64 SWAP1 REVERT JUMPDEST PUSH1 0x0 DUP1 REVERT JUMPDEST CALLVALUE PUSH2 0x25D JUMPI PUSH1 0x20 CALLDATASIZE PUSH1 0x3 NOT ADD SLT PUSH2 0x25D JUMPI PUSH2 0x27B PUSH2 0xBAC JUMP JUMPDEST PUSH2 0x283 PUSH2 0xE29 JUMP JUMPDEST PUSH1 0x1 PUSH1 0x1 PUSH1 0xA0 SHL SUB AND DUP1 ISZERO PUSH2 0x2D5 JUMPI PUSH1 0x0 DUP1 SLOAD PUSH1 0x1 PUSH1 0x1 PUSH1 0xA0 SHL SUB NOT DUP2 AND DUP4 OR DUP3 SSTORE PUSH1 0x1 PUSH1 0x1 PUSH1 0xA0 SHL SUB AND SWAP1 PUSH32 0x8BE0079C531659141344CD1FD0A4F28419497F9722A3DAAFE3B4186F6B6457E0 SWAP1 DUP1 LOG3 STOP JUMPDEST PUSH4 0x1E4FBDF7 PUSH1 0xE0 SHL PUSH1 0x0 MSTORE PUSH1 0x0 PUSH1 0x4 MSTORE PUSH1 0x24 PUSH1 0x0 REVERT JUMPDEST CALLVALUE PUSH2 0x25D JUMPI PUSH1 0x20 CALLDATASIZE PUSH1 0x3 NOT ADD SLT PUSH2 0x25D JUMPI PUSH1 0x20 PUSH2 0x30E PUSH2 0x309 PUSH2 0xBAC JUMP JUMPDEST PUSH2 0xDD6 JUMP JUMPDEST PUSH1 0x40 MLOAD SWAP1 DUP2 MSTORE RETURN JUMPDEST CALLVALUE PUSH2 0x25D JUMPI PUSH1 0x20 CALLDATASIZE PUSH1 0x3 NOT ADD SLT PUSH2 0x25D JUMPI PUSH2 0x32F PUSH2 0xBAC JUMP JUMPDEST PUSH2 0x337 PUSH2 0xE29 JUMP JUMPDEST PUSH1 0x1 PUSH1 0x1 PUSH1 0xA0 SHL SUB DUP2 AND SWAP1 PUSH2 0x34D DUP3 ISZERO ISZERO PUSH2 0xCCF JUMP JUMPDEST PUSH1 0x3 SLOAD SWAP1 PUSH1 0x0 DUP1 JUMPDEST DUP4 DUP2 LT PUSH2 0x416 JUMPI JUMPDEST POP ISZERO PUSH2 0x3B1 JUMPI JUMPDEST DUP3 DUP1 PUSH1 0x0 MSTORE PUSH1 0x2 PUSH1 0x20 MSTORE PUSH8 0x6F05B59D3B20000 PUSH1 0x40 PUSH1 0x0 KECCAK256 SSTORE PUSH32 0xF4C563A3EA86FF1F4275E8C207DF0375A51963F2B831B7BF4DA8BE938D92876C PUSH1 0x20 PUSH1 0x40 MLOAD PUSH8 0x6F05B59D3B20000 DUP2 MSTORE LOG2 STOP JUMPDEST PUSH9 0x10000000000000000 DUP3 LT ISZERO PUSH2 0x400 JUMPI PUSH2 0x3D5 DUP3 PUSH1 0x1 PUSH2 0x3F9 SWAP5 ADD PUSH1 0x3 SSTORE PUSH2 0xC0A JUMP JUMPDEST DUP2 SLOAD PUSH1 0x1 PUSH1 0x1 PUSH1 0xA0 SHL SUB SWAP4 DUP5 AND PUSH1 0x3 SWAP3 SWAP1 SWAP3 SHL SWAP2 DUP3 SHL SWAP4 SWAP1 SWAP2 SHL NOT AND SWAP2 SWAP1 SWAP2 OR SWAP1 SSTORE JUMP JUMPDEST DUP2 DUP1 PUSH2 0x364 JUMP JUMPDEST PUSH4 0x4E487B71 PUSH1 0xE0 SHL PUSH1 0x0 MSTORE PUSH1 0x41 PUSH1 0x4 MSTORE PUSH1 0x24 PUSH1 0x0 REVERT JUMPDEST DUP5 PUSH2 0x420 DUP3 PUSH2 0xC0A JUMP JUMPDEST SWAP1 SLOAD PUSH1 0x3 SWAP2 SWAP1 SWAP2 SHL SHR PUSH1 0x1 PUSH1 0x1 PUSH1 0xA0 SHL SUB AND EQ PUSH2 0x43F JUMPI PUSH1 0x1 ADD PUSH2 0x355 JUMP JUMPDEST POP POP PUSH1 0x1 DUP5 PUSH2 0x35D JUMP JUMPDEST CALLVALUE PUSH2 0x25D JUMPI PUSH1 0x0 CALLDATASIZE PUSH1 0x3 NOT ADD SLT PUSH2 0x25D JUMPI PUSH1 0x40 MLOAD DUP1 PUSH1 0x20 PUSH1 0x3 SLOAD SWAP3 DUP4 DUP2 MSTORE ADD DUP1 SWAP3 PUSH1 0x3 PUSH1 0x0 MSTORE PUSH32 0xC2575A0E9E593C00F959F8C92F12DB2869C3395A3B0502D05E2516446F71F85B SWAP1 PUSH1 0x0 JUMPDEST DUP2 DUP2 LT PUSH2 0x4F6 JUMPI POP POP POP DUP2 PUSH2 0x4AA SWAP2 SUB DUP3 PUSH2 0xC3B JUMP JUMPDEST PUSH1 0x40 MLOAD SWAP2 DUP3 SWAP2 PUSH1 0x20 DUP4 ADD SWAP1 PUSH1 0x20 DUP5 MSTORE MLOAD DUP1 SWAP2 MSTORE PUSH1 0x40 DUP4 ADD SWAP2 SWAP1 PUSH1 0x0 JUMPDEST DUP2 DUP2 LT PUSH2 0x4D4 JUMPI POP POP POP SUB SWAP1 RETURN JUMPDEST DUP3 MLOAD PUSH1 0x1 PUSH1 0x1 PUSH1 0xA0 SHL SUB AND DUP5 MSTORE DUP6 SWAP5 POP PUSH1 0x20 SWAP4 DUP5 ADD SWAP4 SWAP1 SWAP3 ADD SWAP2 PUSH1 0x1 ADD PUSH2 0x4C6 JUMP JUMPDEST DUP3 SLOAD PUSH1 0x1 PUSH1 0x1 PUSH1 0xA0 SHL SUB AND DUP5 MSTORE PUSH1 0x20 SWAP1 SWAP4 ADD SWAP3 PUSH1 0x1 SWAP3 DUP4 ADD SWAP3 ADD PUSH2 0x494 JUMP JUMPDEST CALLVALUE PUSH2 0x25D JUMPI PUSH1 0x20 CALLDATASIZE PUSH1 0x3 NOT ADD SLT PUSH2 0x25D JUMPI PUSH1 0x4 CALLDATALOAD PUSH1 0x3 SLOAD DUP2 LT ISZERO PUSH2 0x25D JUMPI PUSH2 0x53E PUSH1 0x20 SWAP2 PUSH2 0xC0A JUMP JUMPDEST SWAP1 SLOAD PUSH1 0x40 MLOAD PUSH1 0x3 SWAP3 SWAP1 SWAP3 SHL SHR PUSH1 0x1 PUSH1 0x1 PUSH1 0xA0 SHL SUB AND DUP2 MSTORE RETURN JUMPDEST CALLVALUE PUSH2 0x25D JUMPI PUSH1 0x40 CALLDATASIZE PUSH1 0x3 NOT ADD SLT PUSH2 0x25D JUMPI PUSH2 0x5D8 PUSH1 0x20 PUSH2 0x575 PUSH2 0xBAC JUMP JUMPDEST PUSH1 0x24 CALLDATALOAD SWAP1 PUSH2 0x581 PUSH2 0xE29 JUMP JUMPDEST PUSH1 0x1 PUSH1 0x1 PUSH1 0xA0 SHL SUB AND PUSH2 0x595 DUP2 ISZERO ISZERO PUSH2 0xCCF JUMP JUMPDEST PUSH2 0x5A0 DUP3 ISZERO ISZERO PUSH2 0xD8A JUMP JUMPDEST PUSH1 0x0 DUP1 SLOAD PUSH1 0x40 MLOAD PUSH4 0xA9059CBB PUSH1 0xE0 SHL DUP2 MSTORE PUSH1 0x1 PUSH1 0x1 PUSH1 0xA0 SHL SUB SWAP1 SWAP2 AND PUSH1 0x4 DUP3 ADD MSTORE PUSH1 0x24 DUP2 ADD SWAP4 SWAP1 SWAP4 MSTORE SWAP2 SWAP4 DUP5 SWAP3 DUP4 SWAP2 DUP3 SWAP1 PUSH1 0x44 DUP3 ADD SWAP1 JUMP JUMPDEST SUB SWAP3 GAS CALL DUP1 ISZERO PUSH2 0x1FE JUMPI PUSH2 0x5E8 JUMPI STOP JUMPDEST PUSH2 0x20A SWAP1 PUSH1 0x20 RETURNDATASIZE PUSH1 0x20 GT PUSH2 0x1F7 JUMPI PUSH2 0x1EA DUP2 DUP4 PUSH2 0xC3B JUMP JUMPDEST CALLVALUE PUSH2 0x25D JUMPI PUSH1 0x0 CALLDATASIZE PUSH1 0x3 NOT ADD SLT PUSH2 0x25D JUMPI PUSH1 0x0 SLOAD PUSH1 0x40 MLOAD PUSH1 0x1 PUSH1 0x1 PUSH1 0xA0 SHL SUB SWAP1 SWAP2 AND DUP2 MSTORE PUSH1 0x20 SWAP1 RETURN JUMPDEST CALLVALUE PUSH2 0x25D JUMPI PUSH1 0x0 CALLDATASIZE PUSH1 0x3 NOT ADD SLT PUSH2 0x25D JUMPI PUSH1 0x20 PUSH1 0x40 MLOAD PUSH3 0x15180 DUP2 MSTORE RETURN JUMPDEST CALLVALUE PUSH2 0x25D JUMPI PUSH1 0x20 CALLDATASIZE PUSH1 0x3 NOT ADD SLT PUSH2 0x25D JUMPI PUSH1 0x1 PUSH1 0x1 PUSH1 0xA0 SHL SUB PUSH2 0x668 PUSH2 0xBAC JUMP JUMPDEST AND PUSH1 0x0 MSTORE PUSH1 0x1 PUSH1 0x20 MSTORE PUSH1 0x20 PUSH1 0x40 PUSH1 0x0 KECCAK256 SLOAD PUSH1 0x40 MLOAD SWAP1 DUP2 MSTORE RETURN JUMPDEST CALLVALUE PUSH2 0x25D JUMPI PUSH1 0x0 CALLDATASIZE PUSH1 0x3 NOT ADD SLT PUSH2 0x25D JUMPI PUSH2 0x69A PUSH2 0xE29 JUMP JUMPDEST PUSH1 0x0 DUP1 SLOAD PUSH1 0x1 PUSH1 0x1 PUSH1 0xA0 SHL SUB NOT DUP2 AND DUP3 SSTORE PUSH1 0x1 PUSH1 0x1 PUSH1 0xA0 SHL SUB AND PUSH32 0x8BE0079C531659141344CD1FD0A4F28419497F9722A3DAAFE3B4186F6B6457E0 DUP3 DUP1 LOG3 STOP JUMPDEST CALLVALUE PUSH2 0x25D JUMPI PUSH1 0x20 CALLDATASIZE PUSH1 0x3 NOT ADD SLT PUSH2 0x25D JUMPI PUSH2 0x6F3 PUSH2 0xBAC JUMP JUMPDEST PUSH2 0x6FB PUSH2 0xE29 JUMP JUMPDEST PUSH1 0x1 PUSH1 0x1 PUSH1 0xA0 SHL SUB AND PUSH2 0x70F DUP2 ISZERO ISZERO PUSH2 0xCCF JUMP JUMPDEST PUSH1 0x0 JUMPDEST PUSH1 0x3 SLOAD SWAP1 DUP2 DUP2 LT ISZERO PUSH2 0x7F6 JUMPI DUP3 PUSH2 0x728 DUP3 PUSH2 0xC0A JUMP JUMPDEST SWAP1 SLOAD PUSH1 0x3 SWAP2 SWAP1 SWAP2 SHL SHR PUSH1 0x1 PUSH1 0x1 PUSH1 0xA0 SHL SUB AND EQ PUSH2 0x749 JUMPI PUSH1 0x1 SWAP2 POP ADD PUSH2 0x712 JUMP JUMPDEST PUSH1 0x0 NOT DUP3 ADD SWAP2 DUP3 GT PUSH2 0x20C JUMPI PUSH2 0x3D5 PUSH2 0x764 PUSH2 0x77C SWAP4 PUSH2 0xC0A JUMP JUMPDEST SWAP1 SLOAD PUSH1 0x3 SWAP2 SWAP1 SWAP2 SHL SHR PUSH1 0x1 PUSH1 0x1 PUSH1 0xA0 SHL SUB AND SWAP2 PUSH2 0xC0A JUMP JUMPDEST PUSH1 0x3 SLOAD DUP1 ISZERO PUSH2 0x7E0 JUMPI PUSH1 0x0 NOT ADD PUSH2 0x792 DUP2 PUSH2 0xC0A JUMP JUMPDEST DUP2 SLOAD PUSH1 0x1 PUSH1 0x1 PUSH1 0xA0 SHL SUB PUSH1 0x3 SWAP3 DUP4 SHL SHL NOT AND SWAP1 SWAP2 SSTORE SSTORE JUMPDEST DUP1 PUSH1 0x0 MSTORE PUSH1 0x2 PUSH1 0x20 MSTORE PUSH1 0x0 PUSH1 0x40 DUP2 KECCAK256 SSTORE PUSH32 0x4C910B69FE65A61F7531B9C5042B2329CA7179C77290AA7E2EB3AFA3C8511FD3 PUSH1 0x0 DUP1 LOG2 STOP JUMPDEST PUSH4 0x4E487B71 PUSH1 0xE0 SHL PUSH1 0x0 MSTORE PUSH1 0x31 PUSH1 0x4 MSTORE PUSH1 0x24 PUSH1 0x0 REVERT JUMPDEST POP POP PUSH2 0x7A9 JUMP JUMPDEST CALLVALUE PUSH2 0x25D JUMPI PUSH1 0x40 CALLDATASIZE PUSH1 0x3 NOT ADD SLT PUSH2 0x25D JUMPI PUSH2 0x816 PUSH2 0xBAC JUMP JUMPDEST PUSH1 0x24 CALLDATALOAD SWAP1 PUSH2 0x822 PUSH2 0xE29 JUMP JUMPDEST PUSH1 0x1 PUSH1 0x1 PUSH1 0xA0 SHL SUB AND SWAP1 PUSH2 0x837 DUP3 ISZERO ISZERO PUSH2 0xCCF JUMP JUMPDEST DUP2 PUSH1 0x0 MSTORE PUSH1 0x2 PUSH1 0x20 MSTORE PUSH1 0x40 PUSH1 0x0 KECCAK256 SLOAD ISZERO PUSH2 0x892 JUMPI PUSH1 0x20 DUP2 PUSH2 0x87A PUSH32 0x4AA1B13EB889E81DC57ED88A5FF965BCA06398336B3B226039DFEB6348679F73 SWAP4 ISZERO ISZERO PUSH2 0xD8A JUMP JUMPDEST DUP4 PUSH1 0x0 MSTORE PUSH1 0x2 DUP3 MSTORE DUP1 PUSH1 0x40 PUSH1 0x0 KECCAK256 SSTORE PUSH1 0x40 MLOAD SWAP1 DUP2 MSTORE LOG2 STOP JUMPDEST PUSH1 0x40 MLOAD PUSH3 0x461BCD PUSH1 0xE5 SHL DUP2 MSTORE PUSH1 0x20 PUSH1 0x4 DUP3 ADD MSTORE PUSH1 0x18 PUSH1 0x24 DUP3 ADD MSTORE PUSH32 0x546F6B656E206E6F7420696E20666175636574206C6973740000000000000000 PUSH1 0x44 DUP3 ADD MSTORE PUSH1 0x64 SWAP1 REVERT JUMPDEST CALLVALUE PUSH2 0x25D JUMPI PUSH1 0x20 CALLDATASIZE PUSH1 0x3 NOT ADD SLT PUSH2 0x25D JUMPI PUSH1 0x1 PUSH1 0x1 PUSH1 0xA0 SHL SUB PUSH2 0x8F8 PUSH2 0xBAC JUMP JUMPDEST AND PUSH2 0x904 DUP2 ISZERO ISZERO PUSH2 0xCCF JUMP JUMPDEST DUP1 PUSH1 0x0 MSTORE PUSH1 0x2 PUSH1 0x20 MSTORE PUSH1 0x40 PUSH1 0x0 KECCAK256 SLOAD ISZERO PUSH2 0x9DE JUMPI CALLER PUSH1 0x0 MSTORE PUSH1 0x1 PUSH1 0x20 MSTORE PUSH1 0x40 PUSH1 0x0 KECCAK256 SLOAD PUSH3 0x15180 DUP2 ADD DUP1 SWAP2 GT PUSH2 0x20C JUMPI PUSH2 0x940 SWAP1 TIMESTAMP LT ISZERO PUSH2 0xD13 JUMP JUMPDEST CALLER PUSH1 0x0 DUP2 DUP2 MSTORE PUSH1 0x1 PUSH1 0x20 SWAP1 DUP2 MSTORE PUSH1 0x40 DUP1 DUP4 KECCAK256 TIMESTAMP SWAP1 SSTORE DUP5 DUP4 MSTORE PUSH1 0x2 DUP3 MSTORE DUP1 DUP4 KECCAK256 SLOAD SWAP1 MLOAD PUSH4 0xA9059CBB PUSH1 0xE0 SHL DUP2 MSTORE PUSH1 0x4 DUP2 ADD SWAP5 SWAP1 SWAP5 MSTORE PUSH1 0x24 DUP5 ADD DUP2 SWAP1 MSTORE SWAP3 SWAP2 DUP3 SWAP1 PUSH1 0x44 SWAP1 DUP3 SWAP1 DUP8 GAS CALL DUP1 ISZERO PUSH2 0x1FE JUMPI PUSH2 0x9C1 JUMPI JUMPDEST POP PUSH1 0x40 MLOAD SWAP1 DUP2 MSTORE PUSH32 0x45C201A59AC545000EAD84F30B2DB67DA23353AA1D58AC522C48505412143FFA PUSH1 0x20 CALLER SWAP3 LOG3 STOP JUMPDEST PUSH2 0x9D9 SWAP1 PUSH1 0x20 RETURNDATASIZE PUSH1 0x20 GT PUSH2 0x1F7 JUMPI PUSH2 0x1EA DUP2 DUP4 PUSH2 0xC3B JUMP JUMPDEST PUSH2 0x992 JUMP JUMPDEST PUSH1 0x40 MLOAD PUSH3 0x461BCD PUSH1 0xE5 SHL DUP2 MSTORE PUSH1 0x20 PUSH1 0x4 DUP3 ADD MSTORE PUSH1 0x1D PUSH1 0x24 DUP3 ADD MSTORE PUSH32 0x546F6B656E206E6F7420617661696C61626C6520696E20666175636574000000 PUSH1 0x44 DUP3 ADD MSTORE PUSH1 0x64 SWAP1 REVERT JUMPDEST CALLVALUE PUSH2 0x25D JUMPI PUSH1 0x20 CALLDATASIZE PUSH1 0x3 NOT ADD SLT PUSH2 0x25D JUMPI PUSH2 0xA3C PUSH2 0xBAC JUMP JUMPDEST PUSH1 0x1 PUSH1 0x1 PUSH1 0xA0 SHL SUB AND PUSH1 0x0 DUP2 DUP2 MSTORE PUSH1 0x2 PUSH1 0x20 MSTORE PUSH1 0x40 DUP1 DUP3 KECCAK256 SLOAD SWAP1 MLOAD PUSH4 0x95D89B41 PUSH1 0xE0 SHL DUP2 MSTORE SWAP1 SWAP2 DUP1 DUP3 PUSH1 0x4 DUP2 DUP8 GAS STATICCALL SWAP1 SWAP2 DUP3 DUP3 PUSH2 0xB59 JUMPI JUMPDEST POP POP PUSH2 0xB4E JUMPI POP PUSH1 0x4 PUSH1 0x0 PUSH1 0x40 MLOAD PUSH2 0xA8D PUSH1 0x40 DUP3 PUSH2 0xC3B JUMP JUMPDEST PUSH1 0x7 DUP2 MSTORE PUSH7 0x2AA725A727ABA7 PUSH1 0xC9 SHL PUSH1 0x20 DUP3 ADD MSTORE SWAP4 JUMPDEST PUSH1 0x40 MLOAD PUSH4 0x6FDDE03 PUSH1 0xE0 SHL DUP2 MSTORE SWAP3 DUP4 SWAP2 DUP3 SWAP1 GAS STATICCALL PUSH1 0x0 SWAP2 DUP2 PUSH2 0xB29 JUMPI JUMPDEST POP PUSH2 0xB20 JUMPI POP PUSH2 0xB1C PUSH1 0x40 MLOAD PUSH2 0xAD7 PUSH1 0x40 DUP3 PUSH2 0xC3B JUMP JUMPDEST PUSH1 0xD DUP2 MSTORE PUSH13 0x2AB735B737BBB7102A37B5B2B7 PUSH1 0x99 SHL PUSH1 0x20 DUP3 ADD MSTORE JUMPDEST PUSH2 0xB0E PUSH1 0x40 MLOAD SWAP5 DUP6 SWAP5 DUP6 MSTORE PUSH1 0x60 PUSH1 0x20 DUP7 ADD MSTORE PUSH1 0x60 DUP6 ADD SWAP1 PUSH2 0xBE5 JUMP JUMPDEST SWAP1 DUP4 DUP3 SUB PUSH1 0x40 DUP6 ADD MSTORE PUSH2 0xBE5 JUMP JUMPDEST SUB SWAP1 RETURN JUMPDEST PUSH2 0xB1C SWAP1 PUSH2 0xAF2 JUMP JUMPDEST PUSH2 0xB47 SWAP2 SWAP3 POP RETURNDATASIZE DUP1 PUSH1 0x0 DUP4 RETURNDATACOPY PUSH2 0xB3F DUP2 DUP4 PUSH2 0xC3B JUMP JUMPDEST DUP2 ADD SWAP1 PUSH2 0xC5D JUMP JUMPDEST SWAP1 DUP5 PUSH2 0xAC0 JUMP JUMPDEST PUSH1 0x0 PUSH1 0x4 SWAP2 SWAP4 PUSH2 0xAA3 JUMP JUMPDEST PUSH2 0xB6E SWAP3 SWAP4 POP RETURNDATASIZE DUP1 SWAP2 DUP4 RETURNDATACOPY PUSH2 0xB3F DUP2 DUP4 PUSH2 0xC3B JUMP JUMPDEST SWAP1 DUP5 DUP1 PUSH2 0xA74 JUMP JUMPDEST CALLVALUE PUSH2 0x25D JUMPI PUSH1 0x20 CALLDATASIZE PUSH1 0x3 NOT ADD SLT PUSH2 0x25D JUMPI PUSH1 0x20 SWAP1 PUSH1 0x1 PUSH1 0x1 PUSH1 0xA0 SHL SUB PUSH2 0xB9A PUSH2 0xBAC JUMP JUMPDEST AND PUSH1 0x0 MSTORE PUSH1 0x2 DUP3 MSTORE PUSH1 0x40 PUSH1 0x0 KECCAK256 SLOAD DUP2 MSTORE RETURN JUMPDEST PUSH1 0x4 CALLDATALOAD SWAP1 PUSH1 0x1 PUSH1 0x1 PUSH1 0xA0 SHL SUB DUP3 AND DUP3 SUB PUSH2 0x25D JUMPI JUMP JUMPDEST PUSH1 0x0 JUMPDEST DUP4 DUP2 LT PUSH2 0xBD5 JUMPI POP POP PUSH1 0x0 SWAP2 ADD MSTORE JUMP JUMPDEST DUP2 DUP2 ADD MLOAD DUP4 DUP3 ADD MSTORE PUSH1 0x20 ADD PUSH2 0xBC5 JUMP JUMPDEST SWAP1 PUSH1 0x20 SWAP2 PUSH2 0xBFE DUP2 MLOAD DUP1 SWAP3 DUP2 DUP6 MSTORE DUP6 DUP1 DUP7 ADD SWAP2 ADD PUSH2 0xBC2 JUMP JUMPDEST PUSH1 0x1F ADD PUSH1 0x1F NOT AND ADD ADD SWAP1 JUMP JUMPDEST PUSH1 0x3 SLOAD DUP2 LT ISZERO PUSH2 0xC25 JUMPI PUSH1 0x3 PUSH1 0x0 MSTORE PUSH1 0x20 PUSH1 0x0 KECCAK256 ADD SWAP1 PUSH1 0x0 SWAP1 JUMP JUMPDEST PUSH4 0x4E487B71 PUSH1 0xE0 SHL PUSH1 0x0 MSTORE PUSH1 0x32 PUSH1 0x4 MSTORE PUSH1 0x24 PUSH1 0x0 REVERT JUMPDEST SWAP1 PUSH1 0x1F DUP1 NOT SWAP2 ADD AND DUP2 ADD SWAP1 DUP2 LT PUSH8 0xFFFFFFFFFFFFFFFF DUP3 GT OR PUSH2 0x400 JUMPI PUSH1 0x40 MSTORE JUMP JUMPDEST PUSH1 0x20 DUP2 DUP4 SUB SLT PUSH2 0x25D JUMPI DUP1 MLOAD SWAP1 PUSH8 0xFFFFFFFFFFFFFFFF DUP3 GT PUSH2 0x25D JUMPI ADD DUP2 PUSH1 0x1F DUP3 ADD SLT ISZERO PUSH2 0x25D JUMPI DUP1 MLOAD PUSH8 0xFFFFFFFFFFFFFFFF DUP2 GT PUSH2 0x400 JUMPI PUSH1 0x40 MLOAD SWAP3 PUSH2 0xCAE PUSH1 0x1F DUP4 ADD PUSH1 0x1F NOT AND PUSH1 0x20 ADD DUP6 PUSH2 0xC3B JUMP JUMPDEST DUP2 DUP5 MSTORE PUSH1 0x20 DUP3 DUP5 ADD ADD GT PUSH2 0x25D JUMPI PUSH2 0xCCC SWAP2 PUSH1 0x20 DUP1 DUP6 ADD SWAP2 ADD PUSH2 0xBC2 JUMP JUMPDEST SWAP1 JUMP JUMPDEST ISZERO PUSH2 0xCD6 JUMPI JUMP JUMPDEST PUSH1 0x40 MLOAD PUSH3 0x461BCD PUSH1 0xE5 SHL DUP2 MSTORE PUSH1 0x20 PUSH1 0x4 DUP3 ADD MSTORE PUSH1 0x15 PUSH1 0x24 DUP3 ADD MSTORE PUSH21 0x496E76616C696420746F6B656E2061646472657373 PUSH1 0x58 SHL PUSH1 0x44 DUP3 ADD MSTORE PUSH1 0x64 SWAP1 REVERT JUMPDEST ISZERO PUSH2 0xD1A JUMPI JUMP JUMPDEST PUSH1 0x40 MLOAD PUSH3 0x461BCD PUSH1 0xE5 SHL DUP2 MSTORE PUSH1 0x20 PUSH1 0x4 DUP3 ADD MSTORE PUSH1 0x2A PUSH1 0x24 DUP3 ADD MSTORE PUSH32 0x4D757374207761697420323420686F757273206265747765656E206661756365 PUSH1 0x44 DUP3 ADD MSTORE PUSH10 0x74207265717565737473 PUSH1 0xB0 SHL PUSH1 0x64 DUP3 ADD MSTORE PUSH1 0x84 SWAP1 REVERT JUMPDEST SWAP1 DUP2 PUSH1 0x20 SWAP2 SUB SLT PUSH2 0x25D JUMPI MLOAD DUP1 ISZERO ISZERO DUP2 SUB PUSH2 0x25D JUMPI SWAP1 JUMP JUMPDEST ISZERO PUSH2 0xD91 JUMPI JUMP JUMPDEST PUSH1 0x40 MLOAD PUSH3 0x461BCD PUSH1 0xE5 SHL DUP2 MSTORE PUSH1 0x20 PUSH1 0x4 DUP3 ADD MSTORE PUSH1 0x1D PUSH1 0x24 DUP3 ADD MSTORE PUSH32 0x416D6F756E74206D7573742062652067726561746572207468616E2030000000 PUSH1 0x44 DUP3 ADD MSTORE PUSH1 0x64 SWAP1 REVERT JUMPDEST PUSH1 0x1 PUSH1 0x1 PUSH1 0xA0 SHL SUB AND PUSH1 0x0 SWAP1 DUP2 MSTORE PUSH1 0x1 PUSH1 0x20 MSTORE PUSH1 0x40 SWAP1 KECCAK256 SLOAD DUP1 ISZERO PUSH2 0xE23 JUMPI PUSH3 0x15180 DUP2 ADD SWAP1 DUP2 DUP2 GT PUSH2 0x20C JUMPI DUP2 TIMESTAMP LT ISZERO PUSH2 0xE1C JUMPI TIMESTAMP SWAP1 SUB PUSH3 0x15180 ADD SWAP1 DUP2 GT PUSH2 0x20C JUMPI SWAP1 JUMP JUMPDEST POP POP PUSH1 0x0 SWAP1 JUMP JUMPDEST POP PUSH1 0x0 SWAP1 JUMP JUMPDEST PUSH1 0x0 SLOAD PUSH1 0x1 PUSH1 0x1 PUSH1 0xA0 SHL SUB AND CALLER SUB PUSH2 0xE3D JUMPI JUMP JUMPDEST PUSH4 0x118CDAA7 PUSH1 0xE0 SHL PUSH1 0x0 MSTORE CALLER PUSH1 0x4 MSTORE PUSH1 0x24 PUSH1 0x0 REVERT INVALID LOG2 PUSH5 0x6970667358 0x22 SLT KECCAK256 DUP16 MOD 0xCB KECCAK256 PUSH17 0xD368335AAD9AA721606CCE0A2B3CA5200B DELEGATECALL 0xF8 REVERT GASPRICE 0xEA PUSH12 0xD914B28F64736F6C63430008 SHR STOP CALLER "},"methodIdentifiers":{"FAUCET_COOLDOWN()":"7d1d5d19","addToken(address)":"d48bfca7","emergencyWithdraw(address,uint256)":"95ccea67","faucetAmounts(address)":"14c47fbd","getSupportedTokens()":"d3c7c2c7","getTimeUntilNextFaucet(address)":"e21430d3","getTokenInfo(address)":"1f69565f","lastFaucetTime(address)":"7bc1f6cc","owner()":"8da5cb5b","removeToken(address)":"5fa7b584","renounceOwnership()":"715018a6","requestAllFaucets()":"ffc80e55","requestFaucet(address)":"2a707541","supportedTokens(uint256)":"c6255626","transferOwnership(address)":"f2fde38b","updateFaucetAmount(address,uint256)":"3e6a099c"}}}}}