{"contracts/SimpleDEX.sol":{"SimpleDEX":{"abi":[{"anonymous":false,"inputs":[{"indexed":true,"internalType":"address","name":"token0","type":"address"},{"indexed":true,"internalType":"address","name":"token1","type":"address"},{"indexed":false,"internalType":"uint256","name":"amount0","type":"uint256"},{"indexed":false,"internalType":"uint256","name":"amount1","type":"uint256"},{"indexed":false,"internalType":"uint256","name":"liquidity","type":"uint256"},{"indexed":true,"internalType":"address","name":"provider","type":"address"}],"name":"LiquidityAdded","type":"event"},{"anonymous":false,"inputs":[{"indexed":true,"internalType":"address","name":"token0","type":"address"},{"indexed":true,"internalType":"address","name":"token1","type":"address"},{"indexed":false,"internalType":"uint256","name":"amount0","type":"uint256"},{"indexed":false,"internalType":"uint256","name":"amount1","type":"uint256"},{"indexed":false,"internalType":"uint256","name":"liquidity","type":"uint256"},{"indexed":true,"internalType":"address","name":"provider","type":"address"}],"name":"LiquidityRemoved","type":"event"},{"anonymous":false,"inputs":[{"indexed":true,"internalType":"address","name":"tokenIn","type":"address"},{"indexed":true,"internalType":"address","name":"tokenOut","type":"address"},{"indexed":false,"internalType":"uint256","name":"amountIn","type":"uint256"},{"indexed":false,"internalType":"uint256","name":"amountOut","type":"uint256"},{"indexed":true,"internalType":"address","name":"trader","type":"address"}],"name":"Swap","type":"event"},{"inputs":[],"name":"FEE_DENOMINATOR","outputs":[{"internalType":"uint256","name":"","type":"uint256"}],"stateMutability":"view","type":"function"},{"inputs":[],"name":"SWAP_FEE","outputs":[{"internalType":"uint256","name":"","type":"uint256"}],"stateMutability":"view","type":"function"},{"inputs":[{"internalType":"address","name":"token0","type":"address"},{"internalType":"address","name":"token1","type":"address"},{"internalType":"uint256","name":"amount0Desired","type":"uint256"},{"internalType":"uint256","name":"amount1Desired","type":"uint256"}],"name":"addLiquidity","outputs":[{"internalType":"uint256","name":"liquidity","type":"uint256"}],"stateMutability":"nonpayable","type":"function"},{"inputs":[{"internalType":"address","name":"tokenIn","type":"address"},{"internalType":"address","name":"tokenOut","type":"address"},{"internalType":"uint256","name":"amountOut","type":"uint256"}],"name":"getAmountIn","outputs":[{"internalType":"uint256","name":"amountIn","type":"uint256"}],"stateMutability":"view","type":"function"},{"inputs":[{"internalType":"address","name":"tokenIn","type":"address"},{"internalType":"address","name":"tokenOut","type":"address"},{"internalType":"uint256","name":"amountIn","type":"uint256"}],"name":"getAmountOut","outputs":[{"internalType":"uint256","name":"amountOut","type":"uint256"}],"stateMutability":"view","type":"function"},{"inputs":[{"internalType":"address","name":"token0","type":"address"},{"internalType":"address","name":"token1","type":"address"},{"internalType":"address","name":"user","type":"address"}],"name":"getBalance","outputs":[{"internalType":"uint256","name":"","type":"uint256"}],"stateMutability":"view","type":"function"},{"inputs":[{"internalType":"address","name":"token0","type":"address"},{"internalType":"address","name":"token1","type":"address"}],"name":"getLiquidity","outputs":[{"internalType":"uint256","name":"","type":"uint256"}],"stateMutability":"view","type":"function"},{"inputs":[{"internalType":"address","name":"token0","type":"address"},{"internalType":"address","name":"token1","type":"address"}],"name":"getPoolInfo","outputs":[{"internalType":"uint256","name":"reserve0","type":"uint256"},{"internalType":"uint256","name":"reserve1","type":"uint256"},{"internalType":"uint256","name":"totalSupply","type":"uint256"},{"internalType":"uint256","name":"price0to1","type":"uint256"},{"internalType":"uint256","name":"price1to0","type":"uint256"}],"stateMutability":"view","type":"function"},{"inputs":[{"internalType":"address","name":"token0","type":"address"},{"internalType":"address","name":"token1","type":"address"}],"name":"getPrice","outputs":[{"internalType":"uint256","name":"","type":"uint256"}],"stateMutability":"view","type":"function"},{"inputs":[{"internalType":"address","name":"token0","type":"address"},{"internalType":"address","name":"token1","type":"address"}],"name":"getReserves","outputs":[{"internalType":"uint256","name":"reserve0","type":"uint256"},{"internalType":"uint256","name":"reserve1","type":"uint256"}],"stateMutability":"view","type":"function"},{"inputs":[{"internalType":"address","name":"","type":"address"},{"internalType":"address","name":"","type":"address"}],"name":"pools","outputs":[{"internalType":"uint256","name":"reserve0","type":"uint256"},{"internalType":"uint256","name":"reserve1","type":"uint256"},{"internalType":"uint256","name":"totalSupply","type":"uint256"}],"stateMutability":"view","type":"function"},{"inputs":[{"internalType":"address","name":"token0","type":"address"},{"internalType":"address","name":"token1","type":"address"},{"internalType":"uint256","name":"liquidity","type":"uint256"}],"name":"removeLiquidity","outputs":[{"internalType":"uint256","name":"amount0","type":"uint256"},{"internalType":"uint256","name":"amount1","type":"uint256"}],"stateMutability":"nonpayable","type":"function"},{"inputs":[{"internalType":"address","name":"tokenIn","type":"address"},{"internalType":"address","name":"tokenOut","type":"address"},{"internalType":"uint256","name":"amountIn","type":"uint256"}],"name":"swap","outputs":[{"internalType":"uint256","name":"amountOut","type":"uint256"}],"stateMutability":"nonpayable","type":"function"},{"inputs":[{"internalType":"address","name":"tokenIn","type":"address"},{"internalType":"address","name":"tokenOut","type":"address"},{"internalType":"uint256","name":"amountIn","type":"uint256"}],"name":"swapExactTokensForTokens","outputs":[{"internalType":"uint256","name":"amountOut","type":"uint256"}],"stateMutability":"nonpayable","type":"function"},{"inputs":[{"internalType":"address","name":"tokenIn","type":"address"},{"internalType":"address","name":"tokenOut","type":"address"},{"internalType":"uint256","name":"amountOut","type":"uint256"}],"name":"swapTokensForExactTokens","outputs":[{"internalType":"uint256","name":"amountIn","type":"uint256"}],"stateMutability":"nonpayable","type":"function"}],"evm":{"bytecode":{"linkReferences":{},"object":"608080604052346015576112de908161001b8239f35b600080fdfe6080604052600436101561001257600080fd5b60003560e01c8063486e51f414610b715780634aa0665214610ad15780634b916e671461094157806353b609b5146108a1578063768aebde14610885578063901754d714610819578063ac41865a146107e5578063bdedcbc014610134578063cf6c62ea146104ea578063d52bb6f414610470578063d6bd603c146103d4578063d73792a9146103b7578063d752fab214610139578063df791e50146101345763ea526de7146100c157600080fd5b3461012f57604036600319011261012f576100da610c7c565b6100e2610c92565b906001600160a01b038083169082161015610129575b6001600160a01b03908116600090815260208181526040808320949093168252928352819020600201549051908152f35b906100f8565b600080fd5b610ce2565b3461012f5761014736610ca8565b90916001600160a01b0380841690821661016381831415610ecf565b61016e84151561111a565b10156103b1575b6001600160a01b039081166000818152602081815260408083209487168352938152838220338352600381019182905293909120549194929390929091821161036c576101c3845483610e9c565b60028501946101d486548093610eaf565b956101ed60018301936101e8855488610e9c565b610eaf565b9587151580610363575b6102009061111a565b60018060a01b033316600052602052604060002061021f868254611166565b905561022c858254611166565b9055610239868254611166565b9055610246848254611166565b905560405163a9059cbb60e01b81523360048201526024810185905260208160448160008a5af1801561033a57610346575b5060405163a9059cbb60e01b815233600482015260248101849052946001600160a01b0391909116906020866044816000865af195861561033a5760409661030d575b507faa29d8bbadb22be3bb6dbe493ae8a0f5b6bba22ed4da0ab6c4808bab559de8358651806102fe3396888a846040919493926060820195825260208201520152565b0390a482519182526020820152f35b61032e9060203d602011610333575b6103268183610fee565b810190611026565b6102bb565b503d61031c565b6040513d6000823e3d90fd5b61035e9060203d602011610333576103268183610fee565b610278565b508615156101f7565b60405162461bcd60e51b815260206004820152601e60248201527f494e53554646494349454e545f4c49515549444954595f42414c414e434500006044820152606490fd5b91610175565b3461012f57600036600319011261012f5760206040516103e88152f35b3461012f57606036600319011261012f576103ed610c7c565b6103f5610c92565b604435906001600160a01b038216820361012f576003926001600160a01b03828116908216101561046a575b60018060a01b0316600052600060205260406000209060018060a01b031660005260205260406000209060018060a01b0316600052016020526020604060002054604051908152f35b90610421565b3461012f57604036600319011261012f57610489610c7c565b610491610c92565b906001600160a01b0380831690821610156104e4575b60018060a01b0316600052600060205260406000209060018060a01b03166000526020526040806000206001815491015482519182526020820152f35b906104a7565b3461012f57608036600319011261012f57610503610c7c565b61050b610c92565b6064356044356001600160a01b0383811690851661052b81831415610ecf565b821515806107dc575b61053d90610f11565b109384156107d65792935b156107d05790915b6001600160a01b03908116600081815260208181526040808320948816835293815283822093516323b872dd60e01b815233600482015230602482015260448101869052939692939182906064908290875af1801561033a576107b3575b506040516323b872dd60e01b8152336004820152306024820152604481018590526001600160a01b039190911691906020816064816000875af1801561033a57610796575b506002850180549590866107525761060b8686610e9c565b600060038211156107445750808060011c6001810180911161072e57905b82821061070f5750505b955b86156106ca57600383889361068b8560209c6106738c7fa7c0bc175494aac705fdccdb501213f94fb9a6f1dd9be0b3488298cb2dc160889a5461110d565b85556001850161068488825461110d565b905561110d565b9055336000908152910189526040902080546106a890849061110d565b90556040805196875260208701919091528501523393606090a4604051908152f35b60405162461bcd60e51b815260206004820152601d60248201527f494e53554646494349454e545f4c49515549444954595f4d494e5445440000006044820152606490fd5b909150610725826107208184610eaf565b61110d565b60011c90610629565b634e487b7160e01b600052601160045260246000fd5b901561063357506001610633565b61076761075f8887610e9c565b835490610eaf565b61077f6107748989610e9c565b600185015490610eaf565b8082101561078f57505b95610635565b9050610789565b6107ae9060203d602011610333576103268183610fee565b6105f3565b6107cb9060203d602011610333576103268183610fee565b6105ae565b91610550565b93610548565b50831515610534565b3461012f57604036600319011261012f576020610811610803610c7c565b61080b610c92565b9061103e565b604051908152f35b3461012f57604036600319011261012f576040610834610c7c565b61083c610c92565b6001600160a01b03918216600090815260208181528482209290931681529082529190912080546001820154600290920154604080519283529382019290925291820152606090f35b3461012f57600036600319011261012f57602060405160038152f35b3461012f5760206109206108b436610ca8565b916001600160a01b038281169082166108cf81831415610ecf565b6108da851515610fa2565b101561093857604082825b6001600160a01b03908116600090815280895283812092909116815290875220805490939015158061092b575b61091b90610f5d565b6111e7565b610811811515610f11565b5060018401541515610912565b604081836108e5565b3461012f5761094f36610ca8565b6001600160a01b03838116939083169061096b85831415610ecf565b610976831515610fa2565b81851015610ac857604084825b6001600160a01b0390811660009081526020818152848220939092168152919052208054151580610abb575b6109b890610f5d565b6109c4818684876111e7565b946109d0861515610f11565b6040516323b872dd60e01b8152336004820152306024820152604481018790529260208460648160008c5af193841561033a57610a1494610a9e575b508587611253565b60405163a9059cbb60e01b815233600482015260248101839052936020856044816000865af194851561033a57602095610a83575b5060405192848452858401527fb39c9bc43f811e1a7ce159c5f147458fdb80266bf23c17322013316e27e086d060403394a4604051908152f35b610a9990863d8811610333576103268183610fee565b610a49565b610ab69060203d602011610333576103268183610fee565b610a0c565b50600181015415156109af565b60408185610983565b3461012f576020610b50610ae436610ca8565b916001600160a01b03828116908216610aff81831415610ecf565b610b0a851515610f11565b1015610b6857604082825b6001600160a01b039081166000908152808952838120929091168152908752208054909390151580610b5b575b610b4b90610f5d565b611173565b610811811515610fa2565b5060018401541515610b42565b60408183610b15565b3461012f57604036600319011261012f57610b8a610c7c565b610b92610c92565b6000916001600160a01b038281169082161015610c76575b60018060a01b0316825281602052604082209060018060a01b031682526020526040812080549060026001820154910154821593841580610c6d575b15610c605750670de0b6b3a76400008202828104670de0b6b3a7640000148315171561072e5783610c1691610eaf565b90670de0b6b3a7640000840294848604670de0b6b3a764000014171561072e57610c428360a096610eaf565b925b6040519485526020850152604084015260608301526080820152f35b60a0945090600092610c44565b50821515610be6565b90610baa565b600435906001600160a01b038216820361012f57565b602435906001600160a01b038216820361012f57565b606090600319011261012f576004356001600160a01b038116810361012f57906024356001600160a01b038116810361012f579060443590565b3461012f57610cf036610ca8565b6000926001600160a01b038082169391929190811690610d1285831415610ecf565b610d1d831515610f11565b81851015610e7d5780845b60018060a01b0316875286602052604087209060018060a01b0316875260205260408620908154151580610e70575b610d6090610f5d565b6040516323b872dd60e01b8152336004820152306024820152604481018590526020816064818b8b5af18015610e6557610dbe949596979850610e48575b50610dab82828888611173565b95610db7871515610fa2565b8686611253565b60405163a9059cbb60e01b815233600482015260248101849052936020856044816000865af194851561033a57602095610e2d575b5060405192835283858401527fb39c9bc43f811e1a7ce159c5f147458fdb80266bf23c17322013316e27e086d060403394a4604051908152f35b610e4390863d8811610333576103268183610fee565b610df3565b610e609060203d602011610333576103268183610fee565b610d9e565b6040513d8a823e3d90fd5b5060018201541515610d57565b8381610d28565b906103e58202918083046103e5149015171561072e57565b8181029291811591840414171561072e57565b8115610eb9570490565b634e487b7160e01b600052601260045260246000fd5b15610ed657565b60405162461bcd60e51b81526020600482015260136024820152724944454e544943414c5f41444452455353455360681b6044820152606490fd5b15610f1857565b60405162461bcd60e51b815260206004820152601960248201527f494e53554646494349454e545f494e5055545f414d4f554e54000000000000006044820152606490fd5b15610f6457565b60405162461bcd60e51b8152602060048201526016602482015275494e53554646494349454e545f4c495155494449545960501b6044820152606490fd5b15610fa957565b60405162461bcd60e51b815260206004820152601a60248201527f494e53554646494349454e545f4f55545055545f414d4f554e540000000000006044820152606490fd5b90601f8019910116810190811067ffffffffffffffff82111761101057604052565b634e487b7160e01b600052604160045260246000fd5b9081602091031261012f5751801515810361012f5790565b6001600160a01b0380831690821610916040918315611107575b6001600160a01b039081166000908152602081815284822093909216815291905220805490918115908180156110fb575b6110f257156110c65750906001015490670de0b6b3a7640000820291808304670de0b6b3a7640000149015171561072e576110c391610eaf565b90565b670de0b6b3a76400008202918204670de0b6b3a764000014171561072e5760016110c392015490610eaf565b50505050600090565b50600184015415611089565b90611058565b9190820180921161072e57565b1561112157565b60405162461bcd60e51b815260206004820152601d60248201527f494e53554646494349454e545f4c49515549444954595f4255524e45440000006044820152606490fd5b9190820391821161072e57565b61117f90939293610e84565b926001600160a01b039081169116109081156111dd576111a460018201545b84610e9c565b91156111d457545b6103e88102908082046103e8149015171561072e576110c3926111ce9161110d565b90610eaf565b600101546111ac565b6111a4815461119e565b6001600160a01b03928316919092161090611209908215611249578354610e9c565b906103e88202918083046103e8149015171561072e57611235926111ce91156112435760010154610e84565b6001810180911161072e5790565b54610e84565b6001840154610e9c565b90939290916001600160a01b039182169116101561128b578161127c600192611287945461110d565b815501918254611166565b9055565b918161129d6001926112879454611166565b81550191825461110d56fea2646970667358221220ceef2d48df523cd3edec61d4cc02940d7d99c97c790c4f9bdf6f71fa365efe2964736f6c634300081c0033","opcodes":"PUSH1 0x80 DUP1 PUSH1 0x40 MSTORE CALLVALUE PUSH1 0x15 JUMPI PUSH2 0x12DE SWAP1 DUP2 PUSH2 0x1B DUP3 CODECOPY RETURN JUMPDEST PUSH1 0x0 DUP1 REVERT INVALID PUSH1 0x80 PUSH1 0x40 MSTORE PUSH1 0x4 CALLDATASIZE LT ISZERO PUSH2 0x12 JUMPI PUSH1 0x0 DUP1 REVERT JUMPDEST PUSH1 0x0 CALLDATALOAD PUSH1 0xE0 SHR DUP1 PUSH4 0x486E51F4 EQ PUSH2 0xB71 JUMPI DUP1 PUSH4 0x4AA06652 EQ PUSH2 0xAD1 JUMPI DUP1 PUSH4 0x4B916E67 EQ PUSH2 0x941 JUMPI DUP1 PUSH4 0x53B609B5 EQ PUSH2 0x8A1 JUMPI DUP1 PUSH4 0x768AEBDE EQ PUSH2 0x885 JUMPI DUP1 PUSH4 0x901754D7 EQ PUSH2 0x819 JUMPI DUP1 PUSH4 0xAC41865A EQ PUSH2 0x7E5 JUMPI DUP1 PUSH4 0xBDEDCBC0 EQ PUSH2 0x134 JUMPI DUP1 PUSH4 0xCF6C62EA EQ PUSH2 0x4EA JUMPI DUP1 PUSH4 0xD52BB6F4 EQ PUSH2 0x470 JUMPI DUP1 PUSH4 0xD6BD603C EQ PUSH2 0x3D4 JUMPI DUP1 PUSH4 0xD73792A9 EQ PUSH2 0x3B7 JUMPI DUP1 PUSH4 0xD752FAB2 EQ PUSH2 0x139 JUMPI DUP1 PUSH4 0xDF791E50 EQ PUSH2 0x134 JUMPI PUSH4 0xEA526DE7 EQ PUSH2 0xC1 JUMPI PUSH1 0x0 DUP1 REVERT JUMPDEST CALLVALUE PUSH2 0x12F JUMPI PUSH1 0x40 CALLDATASIZE PUSH1 0x3 NOT ADD SLT PUSH2 0x12F JUMPI PUSH2 0xDA PUSH2 0xC7C JUMP JUMPDEST PUSH2 0xE2 PUSH2 0xC92 JUMP JUMPDEST SWAP1 PUSH1 0x1 PUSH1 0x1 PUSH1 0xA0 SHL SUB DUP1 DUP4 AND SWAP1 DUP3 AND LT ISZERO PUSH2 0x129 JUMPI JUMPDEST PUSH1 0x1 PUSH1 0x1 PUSH1 0xA0 SHL SUB SWAP1 DUP2 AND PUSH1 0x0 SWAP1 DUP2 MSTORE PUSH1 0x20 DUP2 DUP2 MSTORE PUSH1 0x40 DUP1 DUP4 KECCAK256 SWAP5 SWAP1 SWAP4 AND DUP3 MSTORE SWAP3 DUP4 MSTORE DUP2 SWAP1 KECCAK256 PUSH1 0x2 ADD SLOAD SWAP1 MLOAD SWAP1 DUP2 MSTORE RETURN JUMPDEST SWAP1 PUSH2 0xF8 JUMP JUMPDEST PUSH1 0x0 DUP1 REVERT JUMPDEST PUSH2 0xCE2 JUMP JUMPDEST CALLVALUE PUSH2 0x12F JUMPI PUSH2 0x147 CALLDATASIZE PUSH2 0xCA8 JUMP JUMPDEST SWAP1 SWAP2 PUSH1 0x1 PUSH1 0x1 PUSH1 0xA0 SHL SUB DUP1 DUP5 AND SWAP1 DUP3 AND PUSH2 0x163 DUP2 DUP4 EQ ISZERO PUSH2 0xECF JUMP JUMPDEST PUSH2 0x16E DUP5 ISZERO ISZERO PUSH2 0x111A JUMP JUMPDEST LT ISZERO PUSH2 0x3B1 JUMPI JUMPDEST PUSH1 0x1 PUSH1 0x1 PUSH1 0xA0 SHL SUB SWAP1 DUP2 AND PUSH1 0x0 DUP2 DUP2 MSTORE PUSH1 0x20 DUP2 DUP2 MSTORE PUSH1 0x40 DUP1 DUP4 KECCAK256 SWAP5 DUP8 AND DUP4 MSTORE SWAP4 DUP2 MSTORE DUP4 DUP3 KECCAK256 CALLER DUP4 MSTORE PUSH1 0x3 DUP2 ADD SWAP2 DUP3 SWAP1 MSTORE SWAP4 SWAP1 SWAP2 KECCAK256 SLOAD SWAP2 SWAP5 SWAP3 SWAP4 SWAP1 SWAP3 SWAP1 SWAP2 DUP3 GT PUSH2 0x36C JUMPI PUSH2 0x1C3 DUP5 SLOAD DUP4 PUSH2 0xE9C JUMP JUMPDEST PUSH1 0x2 DUP6 ADD SWAP5 PUSH2 0x1D4 DUP7 SLOAD DUP1 SWAP4 PUSH2 0xEAF JUMP JUMPDEST SWAP6 PUSH2 0x1ED PUSH1 0x1 DUP4 ADD SWAP4 PUSH2 0x1E8 DUP6 SLOAD DUP9 PUSH2 0xE9C JUMP JUMPDEST PUSH2 0xEAF JUMP JUMPDEST SWAP6 DUP8 ISZERO ISZERO DUP1 PUSH2 0x363 JUMPI JUMPDEST PUSH2 0x200 SWAP1 PUSH2 0x111A JUMP JUMPDEST PUSH1 0x1 DUP1 PUSH1 0xA0 SHL SUB CALLER AND PUSH1 0x0 MSTORE PUSH1 0x20 MSTORE PUSH1 0x40 PUSH1 0x0 KECCAK256 PUSH2 0x21F DUP7 DUP3 SLOAD PUSH2 0x1166 JUMP JUMPDEST SWAP1 SSTORE PUSH2 0x22C DUP6 DUP3 SLOAD PUSH2 0x1166 JUMP JUMPDEST SWAP1 SSTORE PUSH2 0x239 DUP7 DUP3 SLOAD PUSH2 0x1166 JUMP JUMPDEST SWAP1 SSTORE PUSH2 0x246 DUP5 DUP3 SLOAD PUSH2 0x1166 JUMP JUMPDEST SWAP1 SSTORE PUSH1 0x40 MLOAD PUSH4 0xA9059CBB PUSH1 0xE0 SHL DUP2 MSTORE CALLER PUSH1 0x4 DUP3 ADD MSTORE PUSH1 0x24 DUP2 ADD DUP6 SWAP1 MSTORE PUSH1 0x20 DUP2 PUSH1 0x44 DUP2 PUSH1 0x0 DUP11 GAS CALL DUP1 ISZERO PUSH2 0x33A JUMPI PUSH2 0x346 JUMPI JUMPDEST POP PUSH1 0x40 MLOAD PUSH4 0xA9059CBB PUSH1 0xE0 SHL DUP2 MSTORE CALLER PUSH1 0x4 DUP3 ADD MSTORE PUSH1 0x24 DUP2 ADD DUP5 SWAP1 MSTORE SWAP5 PUSH1 0x1 PUSH1 0x1 PUSH1 0xA0 SHL SUB SWAP2 SWAP1 SWAP2 AND SWAP1 PUSH1 0x20 DUP7 PUSH1 0x44 DUP2 PUSH1 0x0 DUP7 GAS CALL SWAP6 DUP7 ISZERO PUSH2 0x33A JUMPI PUSH1 0x40 SWAP7 PUSH2 0x30D JUMPI JUMPDEST POP PUSH32 0xAA29D8BBADB22BE3BB6DBE493AE8A0F5B6BBA22ED4DA0AB6C4808BAB559DE835 DUP7 MLOAD DUP1 PUSH2 0x2FE CALLER SWAP7 DUP9 DUP11 DUP5 PUSH1 0x40 SWAP2 SWAP5 SWAP4 SWAP3 PUSH1 0x60 DUP3 ADD SWAP6 DUP3 MSTORE PUSH1 0x20 DUP3 ADD MSTORE ADD MSTORE JUMP JUMPDEST SUB SWAP1 LOG4 DUP3 MLOAD SWAP2 DUP3 MSTORE PUSH1 0x20 DUP3 ADD MSTORE RETURN JUMPDEST PUSH2 0x32E SWAP1 PUSH1 0x20 RETURNDATASIZE PUSH1 0x20 GT PUSH2 0x333 JUMPI JUMPDEST PUSH2 0x326 DUP2 DUP4 PUSH2 0xFEE JUMP JUMPDEST DUP2 ADD SWAP1 PUSH2 0x1026 JUMP JUMPDEST PUSH2 0x2BB JUMP JUMPDEST POP RETURNDATASIZE PUSH2 0x31C JUMP JUMPDEST PUSH1 0x40 MLOAD RETURNDATASIZE PUSH1 0x0 DUP3 RETURNDATACOPY RETURNDATASIZE SWAP1 REVERT JUMPDEST PUSH2 0x35E SWAP1 PUSH1 0x20 RETURNDATASIZE PUSH1 0x20 GT PUSH2 0x333 JUMPI PUSH2 0x326 DUP2 DUP4 PUSH2 0xFEE JUMP JUMPDEST PUSH2 0x278 JUMP JUMPDEST POP DUP7 ISZERO ISZERO PUSH2 0x1F7 JUMP JUMPDEST PUSH1 0x40 MLOAD PUSH3 0x461BCD PUSH1 0xE5 SHL DUP2 MSTORE PUSH1 0x20 PUSH1 0x4 DUP3 ADD MSTORE PUSH1 0x1E PUSH1 0x24 DUP3 ADD MSTORE PUSH32 0x494E53554646494349454E545F4C49515549444954595F42414C414E43450000 PUSH1 0x44 DUP3 ADD MSTORE PUSH1 0x64 SWAP1 REVERT JUMPDEST SWAP2 PUSH2 0x175 JUMP JUMPDEST CALLVALUE PUSH2 0x12F JUMPI PUSH1 0x0 CALLDATASIZE PUSH1 0x3 NOT ADD SLT PUSH2 0x12F JUMPI PUSH1 0x20 PUSH1 0x40 MLOAD PUSH2 0x3E8 DUP2 MSTORE RETURN JUMPDEST CALLVALUE PUSH2 0x12F JUMPI PUSH1 0x60 CALLDATASIZE PUSH1 0x3 NOT ADD SLT PUSH2 0x12F JUMPI PUSH2 0x3ED PUSH2 0xC7C JUMP JUMPDEST PUSH2 0x3F5 PUSH2 0xC92 JUMP JUMPDEST PUSH1 0x44 CALLDATALOAD SWAP1 PUSH1 0x1 PUSH1 0x1 PUSH1 0xA0 SHL SUB DUP3 AND DUP3 SUB PUSH2 0x12F JUMPI PUSH1 0x3 SWAP3 PUSH1 0x1 PUSH1 0x1 PUSH1 0xA0 SHL SUB DUP3 DUP2 AND SWAP1 DUP3 AND LT ISZERO PUSH2 0x46A JUMPI JUMPDEST PUSH1 0x1 DUP1 PUSH1 0xA0 SHL SUB AND PUSH1 0x0 MSTORE PUSH1 0x0 PUSH1 0x20 MSTORE PUSH1 0x40 PUSH1 0x0 KECCAK256 SWAP1 PUSH1 0x1 DUP1 PUSH1 0xA0 SHL SUB AND PUSH1 0x0 MSTORE PUSH1 0x20 MSTORE PUSH1 0x40 PUSH1 0x0 KECCAK256 SWAP1 PUSH1 0x1 DUP1 PUSH1 0xA0 SHL SUB AND PUSH1 0x0 MSTORE ADD PUSH1 0x20 MSTORE PUSH1 0x20 PUSH1 0x40 PUSH1 0x0 KECCAK256 SLOAD PUSH1 0x40 MLOAD SWAP1 DUP2 MSTORE RETURN JUMPDEST SWAP1 PUSH2 0x421 JUMP JUMPDEST CALLVALUE PUSH2 0x12F JUMPI PUSH1 0x40 CALLDATASIZE PUSH1 0x3 NOT ADD SLT PUSH2 0x12F JUMPI PUSH2 0x489 PUSH2 0xC7C JUMP JUMPDEST PUSH2 0x491 PUSH2 0xC92 JUMP JUMPDEST SWAP1 PUSH1 0x1 PUSH1 0x1 PUSH1 0xA0 SHL SUB DUP1 DUP4 AND SWAP1 DUP3 AND LT ISZERO PUSH2 0x4E4 JUMPI JUMPDEST PUSH1 0x1 DUP1 PUSH1 0xA0 SHL SUB AND PUSH1 0x0 MSTORE PUSH1 0x0 PUSH1 0x20 MSTORE PUSH1 0x40 PUSH1 0x0 KECCAK256 SWAP1 PUSH1 0x1 DUP1 PUSH1 0xA0 SHL SUB AND PUSH1 0x0 MSTORE PUSH1 0x20 MSTORE PUSH1 0x40 DUP1 PUSH1 0x0 KECCAK256 PUSH1 0x1 DUP2 SLOAD SWAP2 ADD SLOAD DUP3 MLOAD SWAP2 DUP3 MSTORE PUSH1 0x20 DUP3 ADD MSTORE RETURN JUMPDEST SWAP1 PUSH2 0x4A7 JUMP JUMPDEST CALLVALUE PUSH2 0x12F JUMPI PUSH1 0x80 CALLDATASIZE PUSH1 0x3 NOT ADD SLT PUSH2 0x12F JUMPI PUSH2 0x503 PUSH2 0xC7C JUMP JUMPDEST PUSH2 0x50B PUSH2 0xC92 JUMP JUMPDEST PUSH1 0x64 CALLDATALOAD PUSH1 0x44 CALLDATALOAD PUSH1 0x1 PUSH1 0x1 PUSH1 0xA0 SHL SUB DUP4 DUP2 AND SWAP1 DUP6 AND PUSH2 0x52B DUP2 DUP4 EQ ISZERO PUSH2 0xECF JUMP JUMPDEST DUP3 ISZERO ISZERO DUP1 PUSH2 0x7DC JUMPI JUMPDEST PUSH2 0x53D SWAP1 PUSH2 0xF11 JUMP JUMPDEST LT SWAP4 DUP5 ISZERO PUSH2 0x7D6 JUMPI SWAP3 SWAP4 JUMPDEST ISZERO PUSH2 0x7D0 JUMPI SWAP1 SWAP2 JUMPDEST PUSH1 0x1 PUSH1 0x1 PUSH1 0xA0 SHL SUB SWAP1 DUP2 AND PUSH1 0x0 DUP2 DUP2 MSTORE PUSH1 0x20 DUP2 DUP2 MSTORE PUSH1 0x40 DUP1 DUP4 KECCAK256 SWAP5 DUP9 AND DUP4 MSTORE SWAP4 DUP2 MSTORE DUP4 DUP3 KECCAK256 SWAP4 MLOAD PUSH4 0x23B872DD PUSH1 0xE0 SHL DUP2 MSTORE CALLER PUSH1 0x4 DUP3 ADD MSTORE ADDRESS PUSH1 0x24 DUP3 ADD MSTORE PUSH1 0x44 DUP2 ADD DUP7 SWAP1 MSTORE SWAP4 SWAP7 SWAP3 SWAP4 SWAP2 DUP3 SWAP1 PUSH1 0x64 SWAP1 DUP3 SWAP1 DUP8 GAS CALL DUP1 ISZERO PUSH2 0x33A JUMPI PUSH2 0x7B3 JUMPI JUMPDEST POP PUSH1 0x40 MLOAD PUSH4 0x23B872DD PUSH1 0xE0 SHL DUP2 MSTORE CALLER PUSH1 0x4 DUP3 ADD MSTORE ADDRESS PUSH1 0x24 DUP3 ADD MSTORE PUSH1 0x44 DUP2 ADD DUP6 SWAP1 MSTORE PUSH1 0x1 PUSH1 0x1 PUSH1 0xA0 SHL SUB SWAP2 SWAP1 SWAP2 AND SWAP2 SWAP1 PUSH1 0x20 DUP2 PUSH1 0x64 DUP2 PUSH1 0x0 DUP8 GAS CALL DUP1 ISZERO PUSH2 0x33A JUMPI PUSH2 0x796 JUMPI JUMPDEST POP PUSH1 0x2 DUP6 ADD DUP1 SLOAD SWAP6 SWAP1 DUP7 PUSH2 0x752 JUMPI PUSH2 0x60B DUP7 DUP7 PUSH2 0xE9C JUMP JUMPDEST PUSH1 0x0 PUSH1 0x3 DUP3 GT ISZERO PUSH2 0x744 JUMPI POP DUP1 DUP1 PUSH1 0x1 SHR PUSH1 0x1 DUP2 ADD DUP1 SWAP2 GT PUSH2 0x72E JUMPI SWAP1 JUMPDEST DUP3 DUP3 LT PUSH2 0x70F JUMPI POP POP JUMPDEST SWAP6 JUMPDEST DUP7 ISZERO PUSH2 0x6CA JUMPI PUSH1 0x3 DUP4 DUP9 SWAP4 PUSH2 0x68B DUP6 PUSH1 0x20 SWAP13 PUSH2 0x673 DUP13 PUSH32 0xA7C0BC175494AAC705FDCCDB501213F94FB9A6F1DD9BE0B3488298CB2DC16088 SWAP11 SLOAD PUSH2 0x110D JUMP JUMPDEST DUP6 SSTORE PUSH1 0x1 DUP6 ADD PUSH2 0x684 DUP9 DUP3 SLOAD PUSH2 0x110D JUMP JUMPDEST SWAP1 SSTORE PUSH2 0x110D JUMP JUMPDEST SWAP1 SSTORE CALLER PUSH1 0x0 SWAP1 DUP2 MSTORE SWAP2 ADD DUP10 MSTORE PUSH1 0x40 SWAP1 KECCAK256 DUP1 SLOAD PUSH2 0x6A8 SWAP1 DUP5 SWAP1 PUSH2 0x110D JUMP JUMPDEST SWAP1 SSTORE PUSH1 0x40 DUP1 MLOAD SWAP7 DUP8 MSTORE PUSH1 0x20 DUP8 ADD SWAP2 SWAP1 SWAP2 MSTORE DUP6 ADD MSTORE CALLER SWAP4 PUSH1 0x60 SWAP1 LOG4 PUSH1 0x40 MLOAD SWAP1 DUP2 MSTORE RETURN JUMPDEST PUSH1 0x40 MLOAD PUSH3 0x461BCD PUSH1 0xE5 SHL DUP2 MSTORE PUSH1 0x20 PUSH1 0x4 DUP3 ADD MSTORE PUSH1 0x1D PUSH1 0x24 DUP3 ADD MSTORE PUSH32 0x494E53554646494349454E545F4C49515549444954595F4D494E544544000000 PUSH1 0x44 DUP3 ADD MSTORE PUSH1 0x64 SWAP1 REVERT JUMPDEST SWAP1 SWAP2 POP PUSH2 0x725 DUP3 PUSH2 0x720 DUP2 DUP5 PUSH2 0xEAF JUMP JUMPDEST PUSH2 0x110D JUMP JUMPDEST PUSH1 0x1 SHR SWAP1 PUSH2 0x629 JUMP JUMPDEST PUSH4 0x4E487B71 PUSH1 0xE0 SHL PUSH1 0x0 MSTORE PUSH1 0x11 PUSH1 0x4 MSTORE PUSH1 0x24 PUSH1 0x0 REVERT JUMPDEST SWAP1 ISZERO PUSH2 0x633 JUMPI POP PUSH1 0x1 PUSH2 0x633 JUMP JUMPDEST PUSH2 0x767 PUSH2 0x75F DUP9 DUP8 PUSH2 0xE9C JUMP JUMPDEST DUP4 SLOAD SWAP1 PUSH2 0xEAF JUMP JUMPDEST PUSH2 0x77F PUSH2 0x774 DUP10 DUP10 PUSH2 0xE9C JUMP JUMPDEST PUSH1 0x1 DUP6 ADD SLOAD SWAP1 PUSH2 0xEAF JUMP JUMPDEST DUP1 DUP3 LT ISZERO PUSH2 0x78F JUMPI POP JUMPDEST SWAP6 PUSH2 0x635 JUMP JUMPDEST SWAP1 POP PUSH2 0x789 JUMP JUMPDEST PUSH2 0x7AE SWAP1 PUSH1 0x20 RETURNDATASIZE PUSH1 0x20 GT PUSH2 0x333 JUMPI PUSH2 0x326 DUP2 DUP4 PUSH2 0xFEE JUMP JUMPDEST PUSH2 0x5F3 JUMP JUMPDEST PUSH2 0x7CB SWAP1 PUSH1 0x20 RETURNDATASIZE PUSH1 0x20 GT PUSH2 0x333 JUMPI PUSH2 0x326 DUP2 DUP4 PUSH2 0xFEE JUMP JUMPDEST PUSH2 0x5AE JUMP JUMPDEST SWAP2 PUSH2 0x550 JUMP JUMPDEST SWAP4 PUSH2 0x548 JUMP JUMPDEST POP DUP4 ISZERO ISZERO PUSH2 0x534 JUMP JUMPDEST CALLVALUE PUSH2 0x12F JUMPI PUSH1 0x40 CALLDATASIZE PUSH1 0x3 NOT ADD SLT PUSH2 0x12F JUMPI PUSH1 0x20 PUSH2 0x811 PUSH2 0x803 PUSH2 0xC7C JUMP JUMPDEST PUSH2 0x80B PUSH2 0xC92 JUMP JUMPDEST SWAP1 PUSH2 0x103E JUMP JUMPDEST PUSH1 0x40 MLOAD SWAP1 DUP2 MSTORE RETURN JUMPDEST CALLVALUE PUSH2 0x12F JUMPI PUSH1 0x40 CALLDATASIZE PUSH1 0x3 NOT ADD SLT PUSH2 0x12F JUMPI PUSH1 0x40 PUSH2 0x834 PUSH2 0xC7C JUMP JUMPDEST PUSH2 0x83C PUSH2 0xC92 JUMP JUMPDEST PUSH1 0x1 PUSH1 0x1 PUSH1 0xA0 SHL SUB SWAP2 DUP3 AND PUSH1 0x0 SWAP1 DUP2 MSTORE PUSH1 0x20 DUP2 DUP2 MSTORE DUP5 DUP3 KECCAK256 SWAP3 SWAP1 SWAP4 AND DUP2 MSTORE SWAP1 DUP3 MSTORE SWAP2 SWAP1 SWAP2 KECCAK256 DUP1 SLOAD PUSH1 0x1 DUP3 ADD SLOAD PUSH1 0x2 SWAP1 SWAP3 ADD SLOAD PUSH1 0x40 DUP1 MLOAD SWAP3 DUP4 MSTORE SWAP4 DUP3 ADD SWAP3 SWAP1 SWAP3 MSTORE SWAP2 DUP3 ADD MSTORE PUSH1 0x60 SWAP1 RETURN JUMPDEST CALLVALUE PUSH2 0x12F JUMPI PUSH1 0x0 CALLDATASIZE PUSH1 0x3 NOT ADD SLT PUSH2 0x12F JUMPI PUSH1 0x20 PUSH1 0x40 MLOAD PUSH1 0x3 DUP2 MSTORE RETURN JUMPDEST CALLVALUE PUSH2 0x12F JUMPI PUSH1 0x20 PUSH2 0x920 PUSH2 0x8B4 CALLDATASIZE PUSH2 0xCA8 JUMP JUMPDEST SWAP2 PUSH1 0x1 PUSH1 0x1 PUSH1 0xA0 SHL SUB DUP3 DUP2 AND SWAP1 DUP3 AND PUSH2 0x8CF DUP2 DUP4 EQ ISZERO PUSH2 0xECF JUMP JUMPDEST PUSH2 0x8DA DUP6 ISZERO ISZERO PUSH2 0xFA2 JUMP JUMPDEST LT ISZERO PUSH2 0x938 JUMPI PUSH1 0x40 DUP3 DUP3 JUMPDEST PUSH1 0x1 PUSH1 0x1 PUSH1 0xA0 SHL SUB SWAP1 DUP2 AND PUSH1 0x0 SWAP1 DUP2 MSTORE DUP1 DUP10 MSTORE DUP4 DUP2 KECCAK256 SWAP3 SWAP1 SWAP2 AND DUP2 MSTORE SWAP1 DUP8 MSTORE KECCAK256 DUP1 SLOAD SWAP1 SWAP4 SWAP1 ISZERO ISZERO DUP1 PUSH2 0x92B JUMPI JUMPDEST PUSH2 0x91B SWAP1 PUSH2 0xF5D JUMP JUMPDEST PUSH2 0x11E7 JUMP JUMPDEST PUSH2 0x811 DUP2 ISZERO ISZERO PUSH2 0xF11 JUMP JUMPDEST POP PUSH1 0x1 DUP5 ADD SLOAD ISZERO ISZERO PUSH2 0x912 JUMP JUMPDEST PUSH1 0x40 DUP2 DUP4 PUSH2 0x8E5 JUMP JUMPDEST CALLVALUE PUSH2 0x12F JUMPI PUSH2 0x94F CALLDATASIZE PUSH2 0xCA8 JUMP JUMPDEST PUSH1 0x1 PUSH1 0x1 PUSH1 0xA0 SHL SUB DUP4 DUP2 AND SWAP4 SWAP1 DUP4 AND SWAP1 PUSH2 0x96B DUP6 DUP4 EQ ISZERO PUSH2 0xECF JUMP JUMPDEST PUSH2 0x976 DUP4 ISZERO ISZERO PUSH2 0xFA2 JUMP JUMPDEST DUP2 DUP6 LT ISZERO PUSH2 0xAC8 JUMPI PUSH1 0x40 DUP5 DUP3 JUMPDEST PUSH1 0x1 PUSH1 0x1 PUSH1 0xA0 SHL SUB SWAP1 DUP2 AND PUSH1 0x0 SWAP1 DUP2 MSTORE PUSH1 0x20 DUP2 DUP2 MSTORE DUP5 DUP3 KECCAK256 SWAP4 SWAP1 SWAP3 AND DUP2 MSTORE SWAP2 SWAP1 MSTORE KECCAK256 DUP1 SLOAD ISZERO ISZERO DUP1 PUSH2 0xABB JUMPI JUMPDEST PUSH2 0x9B8 SWAP1 PUSH2 0xF5D JUMP JUMPDEST PUSH2 0x9C4 DUP2 DUP7 DUP5 DUP8 PUSH2 0x11E7 JUMP JUMPDEST SWAP5 PUSH2 0x9D0 DUP7 ISZERO ISZERO PUSH2 0xF11 JUMP JUMPDEST PUSH1 0x40 MLOAD PUSH4 0x23B872DD PUSH1 0xE0 SHL DUP2 MSTORE CALLER PUSH1 0x4 DUP3 ADD MSTORE ADDRESS PUSH1 0x24 DUP3 ADD MSTORE PUSH1 0x44 DUP2 ADD DUP8 SWAP1 MSTORE SWAP3 PUSH1 0x20 DUP5 PUSH1 0x64 DUP2 PUSH1 0x0 DUP13 GAS CALL SWAP4 DUP5 ISZERO PUSH2 0x33A JUMPI PUSH2 0xA14 SWAP5 PUSH2 0xA9E JUMPI JUMPDEST POP DUP6 DUP8 PUSH2 0x1253 JUMP JUMPDEST PUSH1 0x40 MLOAD PUSH4 0xA9059CBB PUSH1 0xE0 SHL DUP2 MSTORE CALLER PUSH1 0x4 DUP3 ADD MSTORE PUSH1 0x24 DUP2 ADD DUP4 SWAP1 MSTORE SWAP4 PUSH1 0x20 DUP6 PUSH1 0x44 DUP2 PUSH1 0x0 DUP7 GAS CALL SWAP5 DUP6 ISZERO PUSH2 0x33A JUMPI PUSH1 0x20 SWAP6 PUSH2 0xA83 JUMPI JUMPDEST POP PUSH1 0x40 MLOAD SWAP3 DUP5 DUP5 MSTORE DUP6 DUP5 ADD MSTORE PUSH32 0xB39C9BC43F811E1A7CE159C5F147458FDB80266BF23C17322013316E27E086D0 PUSH1 0x40 CALLER SWAP5 LOG4 PUSH1 0x40 MLOAD SWAP1 DUP2 MSTORE RETURN JUMPDEST PUSH2 0xA99 SWAP1 DUP7 RETURNDATASIZE DUP9 GT PUSH2 0x333 JUMPI PUSH2 0x326 DUP2 DUP4 PUSH2 0xFEE JUMP JUMPDEST PUSH2 0xA49 JUMP JUMPDEST PUSH2 0xAB6 SWAP1 PUSH1 0x20 RETURNDATASIZE PUSH1 0x20 GT PUSH2 0x333 JUMPI PUSH2 0x326 DUP2 DUP4 PUSH2 0xFEE JUMP JUMPDEST PUSH2 0xA0C JUMP JUMPDEST POP PUSH1 0x1 DUP2 ADD SLOAD ISZERO ISZERO PUSH2 0x9AF JUMP JUMPDEST PUSH1 0x40 DUP2 DUP6 PUSH2 0x983 JUMP JUMPDEST CALLVALUE PUSH2 0x12F JUMPI PUSH1 0x20 PUSH2 0xB50 PUSH2 0xAE4 CALLDATASIZE PUSH2 0xCA8 JUMP JUMPDEST SWAP2 PUSH1 0x1 PUSH1 0x1 PUSH1 0xA0 SHL SUB DUP3 DUP2 AND SWAP1 DUP3 AND PUSH2 0xAFF DUP2 DUP4 EQ ISZERO PUSH2 0xECF JUMP JUMPDEST PUSH2 0xB0A DUP6 ISZERO ISZERO PUSH2 0xF11 JUMP JUMPDEST LT ISZERO PUSH2 0xB68 JUMPI PUSH1 0x40 DUP3 DUP3 JUMPDEST PUSH1 0x1 PUSH1 0x1 PUSH1 0xA0 SHL SUB SWAP1 DUP2 AND PUSH1 0x0 SWAP1 DUP2 MSTORE DUP1 DUP10 MSTORE DUP4 DUP2 KECCAK256 SWAP3 SWAP1 SWAP2 AND DUP2 MSTORE SWAP1 DUP8 MSTORE KECCAK256 DUP1 SLOAD SWAP1 SWAP4 SWAP1 ISZERO ISZERO DUP1 PUSH2 0xB5B JUMPI JUMPDEST PUSH2 0xB4B SWAP1 PUSH2 0xF5D JUMP JUMPDEST PUSH2 0x1173 JUMP JUMPDEST PUSH2 0x811 DUP2 ISZERO ISZERO PUSH2 0xFA2 JUMP JUMPDEST POP PUSH1 0x1 DUP5 ADD SLOAD ISZERO ISZERO PUSH2 0xB42 JUMP JUMPDEST PUSH1 0x40 DUP2 DUP4 PUSH2 0xB15 JUMP JUMPDEST CALLVALUE PUSH2 0x12F JUMPI PUSH1 0x40 CALLDATASIZE PUSH1 0x3 NOT ADD SLT PUSH2 0x12F JUMPI PUSH2 0xB8A PUSH2 0xC7C JUMP JUMPDEST PUSH2 0xB92 PUSH2 0xC92 JUMP JUMPDEST PUSH1 0x0 SWAP2 PUSH1 0x1 PUSH1 0x1 PUSH1 0xA0 SHL SUB DUP3 DUP2 AND SWAP1 DUP3 AND LT ISZERO PUSH2 0xC76 JUMPI JUMPDEST PUSH1 0x1 DUP1 PUSH1 0xA0 SHL SUB AND DUP3 MSTORE DUP2 PUSH1 0x20 MSTORE PUSH1 0x40 DUP3 KECCAK256 SWAP1 PUSH1 0x1 DUP1 PUSH1 0xA0 SHL SUB AND DUP3 MSTORE PUSH1 0x20 MSTORE PUSH1 0x40 DUP2 KECCAK256 DUP1 SLOAD SWAP1 PUSH1 0x2 PUSH1 0x1 DUP3 ADD SLOAD SWAP2 ADD SLOAD DUP3 ISZERO SWAP4 DUP5 ISZERO DUP1 PUSH2 0xC6D JUMPI JUMPDEST ISZERO PUSH2 0xC60 JUMPI POP PUSH8 0xDE0B6B3A7640000 DUP3 MUL DUP3 DUP2 DIV PUSH8 0xDE0B6B3A7640000 EQ DUP4 ISZERO OR ISZERO PUSH2 0x72E JUMPI DUP4 PUSH2 0xC16 SWAP2 PUSH2 0xEAF JUMP JUMPDEST SWAP1 PUSH8 0xDE0B6B3A7640000 DUP5 MUL SWAP5 DUP5 DUP7 DIV PUSH8 0xDE0B6B3A7640000 EQ OR ISZERO PUSH2 0x72E JUMPI PUSH2 0xC42 DUP4 PUSH1 0xA0 SWAP7 PUSH2 0xEAF JUMP JUMPDEST SWAP3 JUMPDEST PUSH1 0x40 MLOAD SWAP5 DUP6 MSTORE PUSH1 0x20 DUP6 ADD MSTORE PUSH1 0x40 DUP5 ADD MSTORE PUSH1 0x60 DUP4 ADD MSTORE PUSH1 0x80 DUP3 ADD MSTORE RETURN JUMPDEST PUSH1 0xA0 SWAP5 POP SWAP1 PUSH1 0x0 SWAP3 PUSH2 0xC44 JUMP JUMPDEST POP DUP3 ISZERO ISZERO PUSH2 0xBE6 JUMP JUMPDEST SWAP1 PUSH2 0xBAA JUMP JUMPDEST PUSH1 0x4 CALLDATALOAD SWAP1 PUSH1 0x1 PUSH1 0x1 PUSH1 0xA0 SHL SUB DUP3 AND DUP3 SUB PUSH2 0x12F JUMPI JUMP JUMPDEST PUSH1 0x24 CALLDATALOAD SWAP1 PUSH1 0x1 PUSH1 0x1 PUSH1 0xA0 SHL SUB DUP3 AND DUP3 SUB PUSH2 0x12F JUMPI JUMP JUMPDEST PUSH1 0x60 SWAP1 PUSH1 0x3 NOT ADD SLT PUSH2 0x12F JUMPI PUSH1 0x4 CALLDATALOAD PUSH1 0x1 PUSH1 0x1 PUSH1 0xA0 SHL SUB DUP2 AND DUP2 SUB PUSH2 0x12F JUMPI SWAP1 PUSH1 0x24 CALLDATALOAD PUSH1 0x1 PUSH1 0x1 PUSH1 0xA0 SHL SUB DUP2 AND DUP2 SUB PUSH2 0x12F JUMPI SWAP1 PUSH1 0x44 CALLDATALOAD SWAP1 JUMP JUMPDEST CALLVALUE PUSH2 0x12F JUMPI PUSH2 0xCF0 CALLDATASIZE PUSH2 0xCA8 JUMP JUMPDEST PUSH1 0x0 SWAP3 PUSH1 0x1 PUSH1 0x1 PUSH1 0xA0 SHL SUB DUP1 DUP3 AND SWAP4 SWAP2 SWAP3 SWAP2 SWAP1 DUP2 AND SWAP1 PUSH2 0xD12 DUP6 DUP4 EQ ISZERO PUSH2 0xECF JUMP JUMPDEST PUSH2 0xD1D DUP4 ISZERO ISZERO PUSH2 0xF11 JUMP JUMPDEST DUP2 DUP6 LT ISZERO PUSH2 0xE7D JUMPI DUP1 DUP5 JUMPDEST PUSH1 0x1 DUP1 PUSH1 0xA0 SHL SUB AND DUP8 MSTORE DUP7 PUSH1 0x20 MSTORE PUSH1 0x40 DUP8 KECCAK256 SWAP1 PUSH1 0x1 DUP1 PUSH1 0xA0 SHL SUB AND DUP8 MSTORE PUSH1 0x20 MSTORE PUSH1 0x40 DUP7 KECCAK256 SWAP1 DUP2 SLOAD ISZERO ISZERO DUP1 PUSH2 0xE70 JUMPI JUMPDEST PUSH2 0xD60 SWAP1 PUSH2 0xF5D JUMP JUMPDEST PUSH1 0x40 MLOAD PUSH4 0x23B872DD PUSH1 0xE0 SHL DUP2 MSTORE CALLER PUSH1 0x4 DUP3 ADD MSTORE ADDRESS PUSH1 0x24 DUP3 ADD MSTORE PUSH1 0x44 DUP2 ADD DUP6 SWAP1 MSTORE PUSH1 0x20 DUP2 PUSH1 0x64 DUP2 DUP12 DUP12 GAS CALL DUP1 ISZERO PUSH2 0xE65 JUMPI PUSH2 0xDBE SWAP5 SWAP6 SWAP7 SWAP8 SWAP9 POP PUSH2 0xE48 JUMPI JUMPDEST POP PUSH2 0xDAB DUP3 DUP3 DUP9 DUP9 PUSH2 0x1173 JUMP JUMPDEST SWAP6 PUSH2 0xDB7 DUP8 ISZERO ISZERO PUSH2 0xFA2 JUMP JUMPDEST DUP7 DUP7 PUSH2 0x1253 JUMP JUMPDEST PUSH1 0x40 MLOAD PUSH4 0xA9059CBB PUSH1 0xE0 SHL DUP2 MSTORE CALLER PUSH1 0x4 DUP3 ADD MSTORE PUSH1 0x24 DUP2 ADD DUP5 SWAP1 MSTORE SWAP4 PUSH1 0x20 DUP6 PUSH1 0x44 DUP2 PUSH1 0x0 DUP7 GAS CALL SWAP5 DUP6 ISZERO PUSH2 0x33A JUMPI PUSH1 0x20 SWAP6 PUSH2 0xE2D JUMPI JUMPDEST POP PUSH1 0x40 MLOAD SWAP3 DUP4 MSTORE DUP4 DUP6 DUP5 ADD MSTORE PUSH32 0xB39C9BC43F811E1A7CE159C5F147458FDB80266BF23C17322013316E27E086D0 PUSH1 0x40 CALLER SWAP5 LOG4 PUSH1 0x40 MLOAD SWAP1 DUP2 MSTORE RETURN JUMPDEST PUSH2 0xE43 SWAP1 DUP7 RETURNDATASIZE DUP9 GT PUSH2 0x333 JUMPI PUSH2 0x326 DUP2 DUP4 PUSH2 0xFEE JUMP JUMPDEST PUSH2 0xDF3 JUMP JUMPDEST PUSH2 0xE60 SWAP1 PUSH1 0x20 RETURNDATASIZE PUSH1 0x20 GT PUSH2 0x333 JUMPI PUSH2 0x326 DUP2 DUP4 PUSH2 0xFEE JUMP JUMPDEST PUSH2 0xD9E JUMP JUMPDEST PUSH1 0x40 MLOAD RETURNDATASIZE DUP11 DUP3 RETURNDATACOPY RETURNDATASIZE SWAP1 REVERT JUMPDEST POP PUSH1 0x1 DUP3 ADD SLOAD ISZERO ISZERO PUSH2 0xD57 JUMP JUMPDEST DUP4 DUP2 PUSH2 0xD28 JUMP JUMPDEST SWAP1 PUSH2 0x3E5 DUP3 MUL SWAP2 DUP1 DUP4 DIV PUSH2 0x3E5 EQ SWAP1 ISZERO OR ISZERO PUSH2 0x72E JUMPI JUMP JUMPDEST DUP2 DUP2 MUL SWAP3 SWAP2 DUP2 ISZERO SWAP2 DUP5 DIV EQ OR ISZERO PUSH2 0x72E JUMPI JUMP JUMPDEST DUP2 ISZERO PUSH2 0xEB9 JUMPI DIV SWAP1 JUMP JUMPDEST PUSH4 0x4E487B71 PUSH1 0xE0 SHL PUSH1 0x0 MSTORE PUSH1 0x12 PUSH1 0x4 MSTORE PUSH1 0x24 PUSH1 0x0 REVERT JUMPDEST ISZERO PUSH2 0xED6 JUMPI JUMP JUMPDEST PUSH1 0x40 MLOAD PUSH3 0x461BCD PUSH1 0xE5 SHL DUP2 MSTORE PUSH1 0x20 PUSH1 0x4 DUP3 ADD MSTORE PUSH1 0x13 PUSH1 0x24 DUP3 ADD MSTORE PUSH19 0x4944454E544943414C5F414444524553534553 PUSH1 0x68 SHL PUSH1 0x44 DUP3 ADD MSTORE PUSH1 0x64 SWAP1 REVERT JUMPDEST ISZERO PUSH2 0xF18 JUMPI JUMP JUMPDEST PUSH1 0x40 MLOAD PUSH3 0x461BCD PUSH1 0xE5 SHL DUP2 MSTORE PUSH1 0x20 PUSH1 0x4 DUP3 ADD MSTORE PUSH1 0x19 PUSH1 0x24 DUP3 ADD MSTORE PUSH32 0x494E53554646494349454E545F494E5055545F414D4F554E5400000000000000 PUSH1 0x44 DUP3 ADD MSTORE PUSH1 0x64 SWAP1 REVERT JUMPDEST ISZERO PUSH2 0xF64 JUMPI JUMP JUMPDEST PUSH1 0x40 MLOAD PUSH3 0x461BCD PUSH1 0xE5 SHL DUP2 MSTORE PUSH1 0x20 PUSH1 0x4 DUP3 ADD MSTORE PUSH1 0x16 PUSH1 0x24 DUP3 ADD MSTORE PUSH22 0x494E53554646494349454E545F4C4951554944495459 PUSH1 0x50 SHL PUSH1 0x44 DUP3 ADD MSTORE PUSH1 0x64 SWAP1 REVERT JUMPDEST ISZERO PUSH2 0xFA9 JUMPI JUMP JUMPDEST PUSH1 0x40 MLOAD PUSH3 0x461BCD PUSH1 0xE5 SHL DUP2 MSTORE PUSH1 0x20 PUSH1 0x4 DUP3 ADD MSTORE PUSH1 0x1A PUSH1 0x24 DUP3 ADD MSTORE PUSH32 0x494E53554646494349454E545F4F55545055545F414D4F554E54000000000000 PUSH1 0x44 DUP3 ADD MSTORE PUSH1 0x64 SWAP1 REVERT JUMPDEST SWAP1 PUSH1 0x1F DUP1 NOT SWAP2 ADD AND DUP2 ADD SWAP1 DUP2 LT PUSH8 0xFFFFFFFFFFFFFFFF DUP3 GT OR PUSH2 0x1010 JUMPI PUSH1 0x40 MSTORE JUMP JUMPDEST PUSH4 0x4E487B71 PUSH1 0xE0 SHL PUSH1 0x0 MSTORE PUSH1 0x41 PUSH1 0x4 MSTORE PUSH1 0x24 PUSH1 0x0 REVERT JUMPDEST SWAP1 DUP2 PUSH1 0x20 SWAP2 SUB SLT PUSH2 0x12F JUMPI MLOAD DUP1 ISZERO ISZERO DUP2 SUB PUSH2 0x12F JUMPI SWAP1 JUMP JUMPDEST PUSH1 0x1 PUSH1 0x1 PUSH1 0xA0 SHL SUB DUP1 DUP4 AND SWAP1 DUP3 AND LT SWAP2 PUSH1 0x40 SWAP2 DUP4 ISZERO PUSH2 0x1107 JUMPI JUMPDEST PUSH1 0x1 PUSH1 0x1 PUSH1 0xA0 SHL SUB SWAP1 DUP2 AND PUSH1 0x0 SWAP1 DUP2 MSTORE PUSH1 0x20 DUP2 DUP2 MSTORE DUP5 DUP3 KECCAK256 SWAP4 SWAP1 SWAP3 AND DUP2 MSTORE SWAP2 SWAP1 MSTORE KECCAK256 DUP1 SLOAD SWAP1 SWAP2 DUP2 ISZERO SWAP1 DUP2 DUP1 ISZERO PUSH2 0x10FB JUMPI JUMPDEST PUSH2 0x10F2 JUMPI ISZERO PUSH2 0x10C6 JUMPI POP SWAP1 PUSH1 0x1 ADD SLOAD SWAP1 PUSH8 0xDE0B6B3A7640000 DUP3 MUL SWAP2 DUP1 DUP4 DIV PUSH8 0xDE0B6B3A7640000 EQ SWAP1 ISZERO OR ISZERO PUSH2 0x72E JUMPI PUSH2 0x10C3 SWAP2 PUSH2 0xEAF JUMP JUMPDEST SWAP1 JUMP JUMPDEST PUSH8 0xDE0B6B3A7640000 DUP3 MUL SWAP2 DUP3 DIV PUSH8 0xDE0B6B3A7640000 EQ OR ISZERO PUSH2 0x72E JUMPI PUSH1 0x1 PUSH2 0x10C3 SWAP3 ADD SLOAD SWAP1 PUSH2 0xEAF JUMP JUMPDEST POP POP POP POP PUSH1 0x0 SWAP1 JUMP JUMPDEST POP PUSH1 0x1 DUP5 ADD SLOAD ISZERO PUSH2 0x1089 JUMP JUMPDEST SWAP1 PUSH2 0x1058 JUMP JUMPDEST SWAP2 SWAP1 DUP3 ADD DUP1 SWAP3 GT PUSH2 0x72E JUMPI JUMP JUMPDEST ISZERO PUSH2 0x1121 JUMPI JUMP JUMPDEST PUSH1 0x40 MLOAD PUSH3 0x461BCD PUSH1 0xE5 SHL DUP2 MSTORE PUSH1 0x20 PUSH1 0x4 DUP3 ADD MSTORE PUSH1 0x1D PUSH1 0x24 DUP3 ADD MSTORE PUSH32 0x494E53554646494349454E545F4C49515549444954595F4255524E4544000000 PUSH1 0x44 DUP3 ADD MSTORE PUSH1 0x64 SWAP1 REVERT JUMPDEST SWAP2 SWAP1 DUP3 SUB SWAP2 DUP3 GT PUSH2 0x72E JUMPI JUMP JUMPDEST PUSH2 0x117F SWAP1 SWAP4 SWAP3 SWAP4 PUSH2 0xE84 JUMP JUMPDEST SWAP3 PUSH1 0x1 PUSH1 0x1 PUSH1 0xA0 SHL SUB SWAP1 DUP2 AND SWAP2 AND LT SWAP1 DUP2 ISZERO PUSH2 0x11DD JUMPI PUSH2 0x11A4 PUSH1 0x1 DUP3 ADD SLOAD JUMPDEST DUP5 PUSH2 0xE9C JUMP JUMPDEST SWAP2 ISZERO PUSH2 0x11D4 JUMPI SLOAD JUMPDEST PUSH2 0x3E8 DUP2 MUL SWAP1 DUP1 DUP3 DIV PUSH2 0x3E8 EQ SWAP1 ISZERO OR ISZERO PUSH2 0x72E JUMPI PUSH2 0x10C3 SWAP3 PUSH2 0x11CE SWAP2 PUSH2 0x110D JUMP JUMPDEST SWAP1 PUSH2 0xEAF JUMP JUMPDEST PUSH1 0x1 ADD SLOAD PUSH2 0x11AC JUMP JUMPDEST PUSH2 0x11A4 DUP2 SLOAD PUSH2 0x119E JUMP JUMPDEST PUSH1 0x1 PUSH1 0x1 PUSH1 0xA0 SHL SUB SWAP3 DUP4 AND SWAP2 SWAP1 SWAP3 AND LT SWAP1 PUSH2 0x1209 SWAP1 DUP3 ISZERO PUSH2 0x1249 JUMPI DUP4 SLOAD PUSH2 0xE9C JUMP JUMPDEST SWAP1 PUSH2 0x3E8 DUP3 MUL SWAP2 DUP1 DUP4 DIV PUSH2 0x3E8 EQ SWAP1 ISZERO OR ISZERO PUSH2 0x72E JUMPI PUSH2 0x1235 SWAP3 PUSH2 0x11CE SWAP2 ISZERO PUSH2 0x1243 JUMPI PUSH1 0x1 ADD SLOAD PUSH2 0xE84 JUMP JUMPDEST PUSH1 0x1 DUP2 ADD DUP1 SWAP2 GT PUSH2 0x72E JUMPI SWAP1 JUMP JUMPDEST SLOAD PUSH2 0xE84 JUMP JUMPDEST PUSH1 0x1 DUP5 ADD SLOAD PUSH2 0xE9C JUMP JUMPDEST SWAP1 SWAP4 SWAP3 SWAP1 SWAP2 PUSH1 0x1 PUSH1 0x1 PUSH1 0xA0 SHL SUB SWAP2 DUP3 AND SWAP2 AND LT ISZERO PUSH2 0x128B JUMPI DUP2 PUSH2 0x127C PUSH1 0x1 SWAP3 PUSH2 0x1287 SWAP5 SLOAD PUSH2 0x110D JUMP JUMPDEST DUP2 SSTORE ADD SWAP2 DUP3 SLOAD PUSH2 0x1166 JUMP JUMPDEST SWAP1 SSTORE JUMP JUMPDEST SWAP2 DUP2 PUSH2 0x129D PUSH1 0x1 SWAP3 PUSH2 0x1287 SWAP5 SLOAD PUSH2 0x1166 JUMP JUMPDEST DUP2 SSTORE ADD SWAP2 DUP3 SLOAD PUSH2 0x110D JUMP INVALID LOG2 PUSH5 0x6970667358 0x22 SLT KECCAK256 0xCE 0xEF 0x2D BASEFEE 0xDF MSTORE EXTCODECOPY 0xD3 0xED 0xEC PUSH2 0xD4CC MUL SWAP5 0xD PUSH30 0x99C97C790C4F9BDF6F71FA365EFE2964736F6C634300081C003300000000 "},"methodIdentifiers":{"FEE_DENOMINATOR()":"d73792a9","SWAP_FEE()":"768aebde","addLiquidity(address,address,uint256,uint256)":"cf6c62ea","getAmountIn(address,address,uint256)":"53b609b5","getAmountOut(address,address,uint256)":"4aa06652","getBalance(address,address,address)":"d6bd603c","getLiquidity(address,address)":"ea526de7","getPoolInfo(address,address)":"486e51f4","getPrice(address,address)":"ac41865a","getReserves(address,address)":"d52bb6f4","pools(address,address)":"901754d7","removeLiquidity(address,address,uint256)":"d752fab2","swap(address,address,uint256)":"df791e50","swapExactTokensForTokens(address,address,uint256)":"bdedcbc0","swapTokensForExactTokens(address,address,uint256)":"4b916e67"}}}}}