{"contracts/Faucet.sol":{"Faucet":{"abi":[{"inputs":[],"stateMutability":"nonpayable","type":"constructor"},{"inputs":[{"internalType":"address","name":"owner","type":"address"}],"name":"OwnableInvalidOwner","type":"error"},{"inputs":[{"internalType":"address","name":"account","type":"address"}],"name":"OwnableUnauthorizedAccount","type":"error"},{"anonymous":false,"inputs":[{"indexed":true,"internalType":"address","name":"token","type":"address"},{"indexed":false,"internalType":"uint256","name":"newAmount","type":"uint256"}],"name":"FaucetAmountUpdated","type":"event"},{"anonymous":false,"inputs":[{"indexed":true,"internalType":"address","name":"user","type":"address"},{"indexed":true,"internalType":"address","name":"token","type":"address"},{"indexed":false,"internalType":"uint256","name":"amount","type":"uint256"}],"name":"FaucetUsed","type":"event"},{"anonymous":false,"inputs":[{"indexed":true,"internalType":"address","name":"previousOwner","type":"address"},{"indexed":true,"internalType":"address","name":"newOwner","type":"address"}],"name":"OwnershipTransferred","type":"event"},{"anonymous":false,"inputs":[{"indexed":true,"internalType":"address","name":"token","type":"address"},{"indexed":false,"internalType":"uint256","name":"amount","type":"uint256"}],"name":"TokenAdded","type":"event"},{"anonymous":false,"inputs":[{"indexed":true,"internalType":"address","name":"token","type":"address"}],"name":"TokenRemoved","type":"event"},{"inputs":[],"name":"FAUCET_COOLDOWN","outputs":[{"internalType":"uint256","name":"","type":"uint256"}],"stateMutability":"view","type":"function"},{"inputs":[{"internalType":"address","name":"token","type":"address"}],"name":"addToken","outputs":[],"stateMutability":"nonpayable","type":"function"},{"inputs":[{"internalType":"address","name":"token","type":"address"},{"internalType":"uint256","name":"amount","type":"uint256"}],"name":"emergencyWithdraw","outputs":[],"stateMutability":"nonpayable","type":"function"},{"inputs":[{"internalType":"address","name":"","type":"address"}],"name":"faucetAmounts","outputs":[{"internalType":"uint256","name":"","type":"uint256"}],"stateMutability":"view","type":"function"},{"inputs":[{"internalType":"uint256","name":"","type":"uint256"}],"name":"faucetHistory","outputs":[{"internalType":"address","name":"user","type":"address"},{"internalType":"address","name":"token","type":"address"},{"internalType":"uint256","name":"amount","type":"uint256"},{"internalType":"uint256","name":"timestamp","type":"uint256"},{"internalType":"uint256","name":"blockNumber","type":"uint256"}],"stateMutability":"view","type":"function"},{"inputs":[{"internalType":"address","name":"user","type":"address"}],"name":"getAllUserFaucetHistory","outputs":[{"components":[{"internalType":"address","name":"user","type":"address"},{"internalType":"address","name":"token","type":"address"},{"internalType":"uint256","name":"amount","type":"uint256"},{"internalType":"uint256","name":"timestamp","type":"uint256"},{"internalType":"uint256","name":"blockNumber","type":"uint256"}],"internalType":"struct Faucet.FaucetHistory[]","name":"","type":"tuple[]"}],"stateMutability":"view","type":"function"},{"inputs":[{"internalType":"uint256","name":"faucetIndex","type":"uint256"}],"name":"getFaucetDetails","outputs":[{"components":[{"internalType":"address","name":"user","type":"address"},{"internalType":"address","name":"token","type":"address"},{"internalType":"uint256","name":"amount","type":"uint256"},{"internalType":"uint256","name":"timestamp","type":"uint256"},{"internalType":"uint256","name":"blockNumber","type":"uint256"}],"internalType":"struct Faucet.FaucetHistory","name":"","type":"tuple"}],"stateMutability":"view","type":"function"},{"inputs":[],"name":"getSupportedTokens","outputs":[{"internalType":"address[]","name":"","type":"address[]"}],"stateMutability":"view","type":"function"},{"inputs":[{"internalType":"address","name":"user","type":"address"}],"name":"getTimeUntilNextFaucet","outputs":[{"internalType":"uint256","name":"","type":"uint256"}],"stateMutability":"view","type":"function"},{"inputs":[{"internalType":"address","name":"token","type":"address"}],"name":"getTokenInfo","outputs":[{"internalType":"uint256","name":"amount","type":"uint256"},{"internalType":"string","name":"symbol","type":"string"},{"internalType":"string","name":"name","type":"string"}],"stateMutability":"view","type":"function"},{"inputs":[],"name":"getTotalFaucetCount","outputs":[{"internalType":"uint256","name":"","type":"uint256"}],"stateMutability":"view","type":"function"},{"inputs":[{"internalType":"address","name":"user","type":"address"}],"name":"getUserFaucetCount","outputs":[{"internalType":"uint256","name":"","type":"uint256"}],"stateMutability":"view","type":"function"},{"inputs":[{"internalType":"address","name":"user","type":"address"},{"internalType":"uint256","name":"start","type":"uint256"},{"internalType":"uint256","name":"count","type":"uint256"}],"name":"getUserFaucetHistory","outputs":[{"components":[{"internalType":"address","name":"user","type":"address"},{"internalType":"address","name":"token","type":"address"},{"internalType":"uint256","name":"amount","type":"uint256"},{"internalType":"uint256","name":"timestamp","type":"uint256"},{"internalType":"uint256","name":"blockNumber","type":"uint256"}],"internalType":"struct Faucet.FaucetHistory[]","name":"","type":"tuple[]"}],"stateMutability":"view","type":"function"},{"inputs":[{"internalType":"address","name":"","type":"address"}],"name":"lastFaucetTime","outputs":[{"internalType":"uint256","name":"","type":"uint256"}],"stateMutability":"view","type":"function"},{"inputs":[],"name":"owner","outputs":[{"internalType":"address","name":"","type":"address"}],"stateMutability":"view","type":"function"},{"inputs":[{"internalType":"address","name":"token","type":"address"}],"name":"removeToken","outputs":[],"stateMutability":"nonpayable","type":"function"},{"inputs":[],"name":"renounceOwnership","outputs":[],"stateMutability":"nonpayable","type":"function"},{"inputs":[],"name":"requestAllFaucets","outputs":[],"stateMutability":"nonpayable","type":"function"},{"inputs":[{"internalType":"address","name":"token","type":"address"}],"name":"requestFaucet","outputs":[],"stateMutability":"nonpayable","type":"function"},{"inputs":[{"internalType":"uint256","name":"","type":"uint256"}],"name":"supportedTokens","outputs":[{"internalType":"address","name":"","type":"address"}],"stateMutability":"view","type":"function"},{"inputs":[{"internalType":"address","name":"newOwner","type":"address"}],"name":"transferOwnership","outputs":[],"stateMutability":"nonpayable","type":"function"},{"inputs":[{"internalType":"address","name":"token","type":"address"},{"internalType":"uint256","name":"newAmount","type":"uint256"}],"name":"updateFaucetAmount","outputs":[],"stateMutability":"nonpayable","type":"function"},{"inputs":[{"internalType":"address","name":"","type":"address"},{"internalType":"uint256","name":"","type":"uint256"}],"name":"userFaucetIndices","outputs":[{"internalType":"uint256","name":"","type":"uint256"}],"stateMutability":"view","type":"function"}],"evm":{"bytecode":{"linkReferences":{},"object":"608080604052346075573315605f5760008054336001600160a01b0319821681178355916001600160a01b03909116907f8be0079c531659141344cd1fd0a4f28419497f9722a3daafe3b4186f6b6457e09080a3611591908161007b8239f35b631e4fbdf760e01b600052600060045260246000fd5b600080fdfe608080604052600436101561001357600080fd5b60003560e01c90816314c47fbd14610fa5575080631f69565f14610e565780632a70754114610d015780633e6a099c14610c2757806349251a8314610bce5780634b7a3cfd14610b4c5780635fa7b58414610a29578063625f7f6214610a0b578063715018a6146109b2578063744e9b711461089b5780637bc1f6cc146108615780637d1d5d19146108435780638da5cb5b1461081a57806395ccea6714610771578063a95a50c114610737578063c6255626146106f5578063d3c7c2c714610629578063d48bfca714610475578063d4cd2f6b146103ae578063e21430d314610383578063f2fde38b146102fa578063ff12e27a1461028d5763ffc80e551461011c57600080fd5b34610288576000366003190112610288576003541561024d573360005260016020526040600020546201518081018091116102375761015d9042101561121e565b3360005260016020524260406000205560005b6003548110156102355761018381611039565b905460039190911b1c6001600160a01b03166000818152600260205260409020549190826101b7575b506001915001610170565b60405163a9059cbb60e01b815233600482015260248101849052926020846044816000865af1918215610229576001946101f7936101fd575b5033611421565b386101ac565b61021d9060203d8111610222575b6102158183611139565b81019061127d565b6101f0565b503d61020b565b6040513d6000823e3d90fd5b005b634e487b7160e01b600052601160045260246000fd5b60405162461bcd60e51b81526020600482015260136024820152724e6f20746f6b656e7320617661696c61626c6560681b6044820152606490fd5b600080fd5b3461028857602036600319011261028857600435600454811015610288576102b660a0916110fe565b50600180831b0381541690600180841b0360018201541690600281015460046003830154920154926040519485526020850152604084015260608301526080820152f35b3461028857602036600319011261028857610313610fdb565b61031b611532565b6001600160a01b0316801561036d57600080546001600160a01b03198116831782556001600160a01b0316907f8be0079c531659141344cd1fd0a4f28419497f9722a3daafe3b4186f6b6457e09080a3005b631e4fbdf760e01b600052600060045260246000fd5b346102885760203660031901126102885760206103a66103a1610fdb565b6113dd565b604051908152f35b34610288576020366003190112610288576004356103ca6112f9565b50600454811015610430576103e96103e360a0926110fe565b50611388565b61042e60405180926080809160018060a01b03815116845260018060a01b03602082015116602085015260408101516040850152606081015160608501520151910152565bf35b60405162461bcd60e51b815260206004820152601a60248201527f46617563657420696e646578206f7574206f6620626f756e64730000000000006044820152606490fd5b346102885760203660031901126102885761048e610fdb565b610496611532565b6001600160a01b038116906104ac8215156111cd565b600354906000805b8381106105f6575b5015610596575b505060405163313ce56760e01b8152602081600481855afa90811561022957600091610553575b5060ff60001991160160ff81116102375760ff16604d811161023757600a0a806005029060058204036102375760207ff4c563a3ea86ff1f4275e8c207df0375a51963f2b831b7bf4da8be938d92876c91836000526002825280604060002055604051908152a2005b6020813d60201161058e575b8161056c60209383611139565b8101031261058a57519060ff821682036105875750826104ea565b80fd5b5080fd5b3d915061055f565b600160401b8210156105e0576105b58260016105d99401600355611039565b81546001600160a01b0393841660039290921b91821b9390911b1916919091179055565b81806104c3565b634e487b7160e01b600052604160045260246000fd5b8461060082611039565b905460039190911b1c6001600160a01b03161461061f576001016104b4565b50506001846104bc565b34610288576000366003190112610288576040518060206003549283815201809260036000527fc2575a0e9e593c00f959f8c92f12db2869c3395a3b0502d05e2516446f71f85b9060005b8181106106d6575050508161068a910382611139565b6040519182916020830190602084525180915260408301919060005b8181106106b4575050500390f35b82516001600160a01b03168452859450602093840193909201916001016106a6565b82546001600160a01b0316845260209093019260019283019201610674565b34610288576020366003190112610288576004356003548110156102885761071e602091611039565b905460405160039290921b1c6001600160a01b03168152f35b34610288576020366003190112610288576001600160a01b03610758610fdb565b1660005260056020526020604060002054604051908152f35b34610288576040366003190112610288576107f2602061078f610fdb565b6024359061079b611532565b6001600160a01b03166107af8115156111cd565b6107ba821515611295565b6000805460405163a9059cbb60e01b81526001600160a01b039091166004820152602481019390935291938492839182906044820190565b03925af180156102295761080257005b6102359060203d602011610222576102158183611139565b34610288576000366003190112610288576000546040516001600160a01b039091168152602090f35b34610288576000366003190112610288576020604051620151808152f35b34610288576020366003190112610288576001600160a01b03610882610fdb565b1660005260016020526020604060002054604051908152f35b34610288576060366003190112610288576108b4610fdb565b6001600160a01b03166000908152600560205260409020805460243591908083101561096d57826108fa916108eb60443583611211565b90808211610965575b506113d0565b9061090482611324565b9260005b838110610921576040518061091d8782611082565b0390f35b806109496103e361093d61093760019587611211565b8761106a565b90549060031b1c6110fe565b6109538288611374565b5261095e8187611374565b5001610908565b9050856108f4565b60405162461bcd60e51b815260206004820152601960248201527f537461727420696e646578206f7574206f6620626f756e6473000000000000006044820152606490fd5b34610288576000366003190112610288576109cb611532565b600080546001600160a01b0319811682556001600160a01b03167f8be0079c531659141344cd1fd0a4f28419497f9722a3daafe3b4186f6b6457e08280a3005b34610288576000366003190112610288576020600454604051908152f35b3461028857602036600319011261028857610a42610fdb565b610a4a611532565b6001600160a01b0316610a5e8115156111cd565b60005b6003549081811015610b455782610a7782611039565b905460039190911b1c6001600160a01b031614610a98576001915001610a61565b6000198201918211610237576105b5610ab3610acb93611039565b905460039190911b1c6001600160a01b031691611039565b6003548015610b2f5760001901610ae181611039565b81546001600160a01b03600392831b1b1916909155555b806000526002602052600060408120557f4c910b69fe65a61f7531b9c5042b2329ca7179c77290aa7e2eb3afa3c8511fd3600080a2005b634e487b7160e01b600052603160045260246000fd5b5050610af8565b34610288576020366003190112610288576001600160a01b03610b6d610fdb565b16600052600560205260406000208054610b8681611324565b9160005b828110610b9f576040518061091d8682611082565b80610bb26103e361093d6001948661106a565b610bbc8287611374565b52610bc78186611374565b5001610b8a565b3461028857604036600319011261028857610be7610fdb565b6001600160a01b031660009081526005602052604090208054602435919082101561028857602091610c189161106a565b90549060031b1c604051908152f35b3461028857604036600319011261028857610c40610fdb565b60243590610c4c611532565b6001600160a01b031690610c618215156111cd565b81600052600260205260406000205415610cbc57602081610ca47f4aa1b13eb889e81dc57ed88a5ff965bca06398336b3b226039dfeb6348679f73931515611295565b836000526002825280604060002055604051908152a2005b60405162461bcd60e51b815260206004820152601860248201527f546f6b656e206e6f7420696e20666175636574206c69737400000000000000006044820152606490fd5b3461028857602036600319011261028857610d1a610fdb565b6001600160a01b03811690610d308215156111cd565b81600052600260205260406000205415610e115733600052600160205260406000205462015180810180911161023757610d6c9042101561121e565b3360008181526001602090815260408083204290558583526002825280832054905163a9059cbb60e01b8152600481019490945260248401819052939183906044908290885af190811561022957610dcb928492610df9575033611421565b6040519081527f45c201a59ac545000ead84f30b2db67da23353aa1d58ac522c48505412143ffa60203392a3005b61021d9060203d602011610222576102158183611139565b60405162461bcd60e51b815260206004820152601d60248201527f546f6b656e206e6f7420617661696c61626c6520696e206661756365740000006044820152606490fd5b3461028857602036600319011261028857610e6f610fdb565b6001600160a01b03166000818152600260205260408082205490516395d89b4160e01b815290918082600481875afa90918282610f88575b5050610f7d575060046000604051610ec0604082611139565b60078152662aa725a727aba760c91b6020820152935b6040516306fdde0360e01b815292839182905afa60009181610f58575b50610f4f575061091d604051610f0a604082611139565b600d81526c2ab735b737bbb7102a37b5b2b760991b60208201525b610f416040519485948552606060208601526060850190611014565b908382036040850152611014565b61091d90610f25565b610f769192503d806000833e610f6e8183611139565b81019061115b565b9084610ef3565b600060049193610ed6565b610f9d9293503d8091833e610f6e8183611139565b908480610ea7565b34610288576020366003190112610288576020906001600160a01b03610fc9610fdb565b16600052600282526040600020548152f35b600435906001600160a01b038216820361028857565b60005b8381106110045750506000910152565b8181015183820152602001610ff4565b9060209161102d81518092818552858086019101610ff1565b601f01601f1916010190565b60035481101561105457600360005260206000200190600090565b634e487b7160e01b600052603260045260246000fd5b80548210156110545760005260206000200190600090565b602060408183019282815284518094520192019060005b8181106110a65750505090565b909192602060a0826110f360019488516080809160018060a01b03815116845260018060a01b03602082015116602085015260408101516040850152606081015160608501520151910152565b019401929101611099565b6004548110156110545760046000526005602060002091020190600090565b60a0810190811067ffffffffffffffff8211176105e057604052565b90601f8019910116810190811067ffffffffffffffff8211176105e057604052565b6020818303126102885780519067ffffffffffffffff8211610288570181601f8201121561028857805167ffffffffffffffff81116105e057604051926111ac601f8301601f191660200185611139565b81845260208284010111610288576111ca9160208085019101610ff1565b90565b156111d457565b60405162461bcd60e51b8152602060048201526015602482015274496e76616c696420746f6b656e206164647265737360581b6044820152606490fd5b9190820180921161023757565b1561122557565b60405162461bcd60e51b815260206004820152602a60248201527f4d757374207761697420323420686f757273206265747765656e2066617563656044820152697420726571756573747360b01b6064820152608490fd5b90816020910312610288575180151581036102885790565b1561129c57565b60405162461bcd60e51b815260206004820152601d60248201527f416d6f756e74206d7573742062652067726561746572207468616e20300000006044820152606490fd5b67ffffffffffffffff81116105e05760051b60200190565b604051906113068261111d565b60006080838281528260208201528260408201528260608201520152565b9061132e826112e1565b61133b6040519182611139565b828152809261134c601f19916112e1565b019060005b82811061135d57505050565b6020906113686112f9565b82828501015201611351565b80518210156110545760209160051b010190565b906040516113958161111d565b82546001600160a01b039081168252600184015416602082015260028301546040820152600383015460608201526004909201546080830152565b9190820391821161023757565b6001600160a01b0316600090815260016020526040902054801561141b57620151808101809111610237578042101561141b576111ca9042906113d0565b50600090565b6040519061142e8261111d565b60018060a01b031692838252602082019260018060a01b0316835260408201908152606082014281526080830191438352600454600160401b8110156105e05780600161147e92016004556110fe565b95909561151c57935185546001600160a01b03199081166001600160a01b0392831617875594516001870180549096169116179093559151600284015590516003830155516004918201556000918252600560205260409091209054600019810191908211610237578054600160401b8110156105e0576115049160018201815561106a565b819291549060031b91821b91600019901b1916179055565b634e487b7160e01b600052600060045260246000fd5b6000546001600160a01b0316330361154657565b63118cdaa760e01b6000523360045260246000fdfea2646970667358221220a77a0149cb55bb19f990ef1c1bf481f3b59a1ebedb52ae96e622e0d66080988164736f6c634300081c0033","opcodes":"PUSH1 0x80 DUP1 PUSH1 0x40 MSTORE CALLVALUE PUSH1 0x75 JUMPI CALLER ISZERO PUSH1 0x5F JUMPI PUSH1 0x0 DUP1 SLOAD CALLER PUSH1 0x1 PUSH1 0x1 PUSH1 0xA0 SHL SUB NOT DUP3 AND DUP2 OR DUP4 SSTORE SWAP2 PUSH1 0x1 PUSH1 0x1 PUSH1 0xA0 SHL SUB SWAP1 SWAP2 AND SWAP1 PUSH32 0x8BE0079C531659141344CD1FD0A4F28419497F9722A3DAAFE3B4186F6B6457E0 SWAP1 DUP1 LOG3 PUSH2 0x1591 SWAP1 DUP2 PUSH2 0x7B DUP3 CODECOPY RETURN JUMPDEST PUSH4 0x1E4FBDF7 PUSH1 0xE0 SHL PUSH1 0x0 MSTORE PUSH1 0x0 PUSH1 0x4 MSTORE PUSH1 0x24 PUSH1 0x0 REVERT JUMPDEST PUSH1 0x0 DUP1 REVERT INVALID PUSH1 0x80 DUP1 PUSH1 0x40 MSTORE PUSH1 0x4 CALLDATASIZE LT ISZERO PUSH2 0x13 JUMPI PUSH1 0x0 DUP1 REVERT JUMPDEST PUSH1 0x0 CALLDATALOAD PUSH1 0xE0 SHR SWAP1 DUP2 PUSH4 0x14C47FBD EQ PUSH2 0xFA5 JUMPI POP DUP1 PUSH4 0x1F69565F EQ PUSH2 0xE56 JUMPI DUP1 PUSH4 0x2A707541 EQ PUSH2 0xD01 JUMPI DUP1 PUSH4 0x3E6A099C EQ PUSH2 0xC27 JUMPI DUP1 PUSH4 0x49251A83 EQ PUSH2 0xBCE JUMPI DUP1 PUSH4 0x4B7A3CFD EQ PUSH2 0xB4C JUMPI DUP1 PUSH4 0x5FA7B584 EQ PUSH2 0xA29 JUMPI DUP1 PUSH4 0x625F7F62 EQ PUSH2 0xA0B JUMPI DUP1 PUSH4 0x715018A6 EQ PUSH2 0x9B2 JUMPI DUP1 PUSH4 0x744E9B71 EQ PUSH2 0x89B JUMPI DUP1 PUSH4 0x7BC1F6CC EQ PUSH2 0x861 JUMPI DUP1 PUSH4 0x7D1D5D19 EQ PUSH2 0x843 JUMPI DUP1 PUSH4 0x8DA5CB5B EQ PUSH2 0x81A JUMPI DUP1 PUSH4 0x95CCEA67 EQ PUSH2 0x771 JUMPI DUP1 PUSH4 0xA95A50C1 EQ PUSH2 0x737 JUMPI DUP1 PUSH4 0xC6255626 EQ PUSH2 0x6F5 JUMPI DUP1 PUSH4 0xD3C7C2C7 EQ PUSH2 0x629 JUMPI DUP1 PUSH4 0xD48BFCA7 EQ PUSH2 0x475 JUMPI DUP1 PUSH4 0xD4CD2F6B EQ PUSH2 0x3AE JUMPI DUP1 PUSH4 0xE21430D3 EQ PUSH2 0x383 JUMPI DUP1 PUSH4 0xF2FDE38B EQ PUSH2 0x2FA JUMPI DUP1 PUSH4 0xFF12E27A EQ PUSH2 0x28D JUMPI PUSH4 0xFFC80E55 EQ PUSH2 0x11C JUMPI PUSH1 0x0 DUP1 REVERT JUMPDEST CALLVALUE PUSH2 0x288 JUMPI PUSH1 0x0 CALLDATASIZE PUSH1 0x3 NOT ADD SLT PUSH2 0x288 JUMPI PUSH1 0x3 SLOAD ISZERO PUSH2 0x24D JUMPI CALLER PUSH1 0x0 MSTORE PUSH1 0x1 PUSH1 0x20 MSTORE PUSH1 0x40 PUSH1 0x0 KECCAK256 SLOAD PUSH3 0x15180 DUP2 ADD DUP1 SWAP2 GT PUSH2 0x237 JUMPI PUSH2 0x15D SWAP1 TIMESTAMP LT ISZERO PUSH2 0x121E JUMP JUMPDEST CALLER PUSH1 0x0 MSTORE PUSH1 0x1 PUSH1 0x20 MSTORE TIMESTAMP PUSH1 0x40 PUSH1 0x0 KECCAK256 SSTORE PUSH1 0x0 JUMPDEST PUSH1 0x3 SLOAD DUP2 LT ISZERO PUSH2 0x235 JUMPI PUSH2 0x183 DUP2 PUSH2 0x1039 JUMP JUMPDEST SWAP1 SLOAD PUSH1 0x3 SWAP2 SWAP1 SWAP2 SHL SHR PUSH1 0x1 PUSH1 0x1 PUSH1 0xA0 SHL SUB AND PUSH1 0x0 DUP2 DUP2 MSTORE PUSH1 0x2 PUSH1 0x20 MSTORE PUSH1 0x40 SWAP1 KECCAK256 SLOAD SWAP2 SWAP1 DUP3 PUSH2 0x1B7 JUMPI JUMPDEST POP PUSH1 0x1 SWAP2 POP ADD PUSH2 0x170 JUMP JUMPDEST PUSH1 0x40 MLOAD PUSH4 0xA9059CBB PUSH1 0xE0 SHL DUP2 MSTORE CALLER PUSH1 0x4 DUP3 ADD MSTORE PUSH1 0x24 DUP2 ADD DUP5 SWAP1 MSTORE SWAP3 PUSH1 0x20 DUP5 PUSH1 0x44 DUP2 PUSH1 0x0 DUP7 GAS CALL SWAP2 DUP3 ISZERO PUSH2 0x229 JUMPI PUSH1 0x1 SWAP5 PUSH2 0x1F7 SWAP4 PUSH2 0x1FD JUMPI JUMPDEST POP CALLER PUSH2 0x1421 JUMP JUMPDEST CODESIZE PUSH2 0x1AC JUMP JUMPDEST PUSH2 0x21D SWAP1 PUSH1 0x20 RETURNDATASIZE DUP2 GT PUSH2 0x222 JUMPI JUMPDEST PUSH2 0x215 DUP2 DUP4 PUSH2 0x1139 JUMP JUMPDEST DUP2 ADD SWAP1 PUSH2 0x127D JUMP JUMPDEST PUSH2 0x1F0 JUMP JUMPDEST POP RETURNDATASIZE PUSH2 0x20B JUMP JUMPDEST PUSH1 0x40 MLOAD RETURNDATASIZE PUSH1 0x0 DUP3 RETURNDATACOPY RETURNDATASIZE SWAP1 REVERT JUMPDEST STOP JUMPDEST PUSH4 0x4E487B71 PUSH1 0xE0 SHL PUSH1 0x0 MSTORE PUSH1 0x11 PUSH1 0x4 MSTORE PUSH1 0x24 PUSH1 0x0 REVERT JUMPDEST PUSH1 0x40 MLOAD PUSH3 0x461BCD PUSH1 0xE5 SHL DUP2 MSTORE PUSH1 0x20 PUSH1 0x4 DUP3 ADD MSTORE PUSH1 0x13 PUSH1 0x24 DUP3 ADD MSTORE PUSH19 0x4E6F20746F6B656E7320617661696C61626C65 PUSH1 0x68 SHL PUSH1 0x44 DUP3 ADD MSTORE PUSH1 0x64 SWAP1 REVERT JUMPDEST PUSH1 0x0 DUP1 REVERT JUMPDEST CALLVALUE PUSH2 0x288 JUMPI PUSH1 0x20 CALLDATASIZE PUSH1 0x3 NOT ADD SLT PUSH2 0x288 JUMPI PUSH1 0x4 CALLDATALOAD PUSH1 0x4 SLOAD DUP2 LT ISZERO PUSH2 0x288 JUMPI PUSH2 0x2B6 PUSH1 0xA0 SWAP2 PUSH2 0x10FE JUMP JUMPDEST POP PUSH1 0x1 DUP1 DUP4 SHL SUB DUP2 SLOAD AND SWAP1 PUSH1 0x1 DUP1 DUP5 SHL SUB PUSH1 0x1 DUP3 ADD SLOAD AND SWAP1 PUSH1 0x2 DUP2 ADD SLOAD PUSH1 0x4 PUSH1 0x3 DUP4 ADD SLOAD SWAP3 ADD SLOAD SWAP3 PUSH1 0x40 MLOAD SWAP5 DUP6 MSTORE PUSH1 0x20 DUP6 ADD MSTORE PUSH1 0x40 DUP5 ADD MSTORE PUSH1 0x60 DUP4 ADD MSTORE PUSH1 0x80 DUP3 ADD MSTORE RETURN JUMPDEST CALLVALUE PUSH2 0x288 JUMPI PUSH1 0x20 CALLDATASIZE PUSH1 0x3 NOT ADD SLT PUSH2 0x288 JUMPI PUSH2 0x313 PUSH2 0xFDB JUMP JUMPDEST PUSH2 0x31B PUSH2 0x1532 JUMP JUMPDEST PUSH1 0x1 PUSH1 0x1 PUSH1 0xA0 SHL SUB AND DUP1 ISZERO PUSH2 0x36D JUMPI PUSH1 0x0 DUP1 SLOAD PUSH1 0x1 PUSH1 0x1 PUSH1 0xA0 SHL SUB NOT DUP2 AND DUP4 OR DUP3 SSTORE PUSH1 0x1 PUSH1 0x1 PUSH1 0xA0 SHL SUB AND SWAP1 PUSH32 0x8BE0079C531659141344CD1FD0A4F28419497F9722A3DAAFE3B4186F6B6457E0 SWAP1 DUP1 LOG3 STOP JUMPDEST PUSH4 0x1E4FBDF7 PUSH1 0xE0 SHL PUSH1 0x0 MSTORE PUSH1 0x0 PUSH1 0x4 MSTORE PUSH1 0x24 PUSH1 0x0 REVERT JUMPDEST CALLVALUE PUSH2 0x288 JUMPI PUSH1 0x20 CALLDATASIZE PUSH1 0x3 NOT ADD SLT PUSH2 0x288 JUMPI PUSH1 0x20 PUSH2 0x3A6 PUSH2 0x3A1 PUSH2 0xFDB JUMP JUMPDEST PUSH2 0x13DD JUMP JUMPDEST PUSH1 0x40 MLOAD SWAP1 DUP2 MSTORE RETURN JUMPDEST CALLVALUE PUSH2 0x288 JUMPI PUSH1 0x20 CALLDATASIZE PUSH1 0x3 NOT ADD SLT PUSH2 0x288 JUMPI PUSH1 0x4 CALLDATALOAD PUSH2 0x3CA PUSH2 0x12F9 JUMP JUMPDEST POP PUSH1 0x4 SLOAD DUP2 LT ISZERO PUSH2 0x430 JUMPI PUSH2 0x3E9 PUSH2 0x3E3 PUSH1 0xA0 SWAP3 PUSH2 0x10FE JUMP JUMPDEST POP PUSH2 0x1388 JUMP JUMPDEST PUSH2 0x42E PUSH1 0x40 MLOAD DUP1 SWAP3 PUSH1 0x80 DUP1 SWAP2 PUSH1 0x1 DUP1 PUSH1 0xA0 SHL SUB DUP2 MLOAD AND DUP5 MSTORE PUSH1 0x1 DUP1 PUSH1 0xA0 SHL SUB PUSH1 0x20 DUP3 ADD MLOAD AND PUSH1 0x20 DUP6 ADD MSTORE PUSH1 0x40 DUP2 ADD MLOAD PUSH1 0x40 DUP6 ADD MSTORE PUSH1 0x60 DUP2 ADD MLOAD PUSH1 0x60 DUP6 ADD MSTORE ADD MLOAD SWAP2 ADD MSTORE JUMP JUMPDEST RETURN JUMPDEST PUSH1 0x40 MLOAD PUSH3 0x461BCD PUSH1 0xE5 SHL DUP2 MSTORE PUSH1 0x20 PUSH1 0x4 DUP3 ADD MSTORE PUSH1 0x1A PUSH1 0x24 DUP3 ADD MSTORE PUSH32 0x46617563657420696E646578206F7574206F6620626F756E6473000000000000 PUSH1 0x44 DUP3 ADD MSTORE PUSH1 0x64 SWAP1 REVERT JUMPDEST CALLVALUE PUSH2 0x288 JUMPI PUSH1 0x20 CALLDATASIZE PUSH1 0x3 NOT ADD SLT PUSH2 0x288 JUMPI PUSH2 0x48E PUSH2 0xFDB JUMP JUMPDEST PUSH2 0x496 PUSH2 0x1532 JUMP JUMPDEST PUSH1 0x1 PUSH1 0x1 PUSH1 0xA0 SHL SUB DUP2 AND SWAP1 PUSH2 0x4AC DUP3 ISZERO ISZERO PUSH2 0x11CD JUMP JUMPDEST PUSH1 0x3 SLOAD SWAP1 PUSH1 0x0 DUP1 JUMPDEST DUP4 DUP2 LT PUSH2 0x5F6 JUMPI JUMPDEST POP ISZERO PUSH2 0x596 JUMPI JUMPDEST POP POP PUSH1 0x40 MLOAD PUSH4 0x313CE567 PUSH1 0xE0 SHL DUP2 MSTORE PUSH1 0x20 DUP2 PUSH1 0x4 DUP2 DUP6 GAS STATICCALL SWAP1 DUP2 ISZERO PUSH2 0x229 JUMPI PUSH1 0x0 SWAP2 PUSH2 0x553 JUMPI JUMPDEST POP PUSH1 0xFF PUSH1 0x0 NOT SWAP2 AND ADD PUSH1 0xFF DUP2 GT PUSH2 0x237 JUMPI PUSH1 0xFF AND PUSH1 0x4D DUP2 GT PUSH2 0x237 JUMPI PUSH1 0xA EXP DUP1 PUSH1 0x5 MUL SWAP1 PUSH1 0x5 DUP3 DIV SUB PUSH2 0x237 JUMPI PUSH1 0x20 PUSH32 0xF4C563A3EA86FF1F4275E8C207DF0375A51963F2B831B7BF4DA8BE938D92876C SWAP2 DUP4 PUSH1 0x0 MSTORE PUSH1 0x2 DUP3 MSTORE DUP1 PUSH1 0x40 PUSH1 0x0 KECCAK256 SSTORE PUSH1 0x40 MLOAD SWAP1 DUP2 MSTORE LOG2 STOP JUMPDEST PUSH1 0x20 DUP2 RETURNDATASIZE PUSH1 0x20 GT PUSH2 0x58E JUMPI JUMPDEST DUP2 PUSH2 0x56C PUSH1 0x20 SWAP4 DUP4 PUSH2 0x1139 JUMP JUMPDEST DUP2 ADD SUB SLT PUSH2 0x58A JUMPI MLOAD SWAP1 PUSH1 0xFF DUP3 AND DUP3 SUB PUSH2 0x587 JUMPI POP DUP3 PUSH2 0x4EA JUMP JUMPDEST DUP1 REVERT JUMPDEST POP DUP1 REVERT JUMPDEST RETURNDATASIZE SWAP2 POP PUSH2 0x55F JUMP JUMPDEST PUSH1 0x1 PUSH1 0x40 SHL DUP3 LT ISZERO PUSH2 0x5E0 JUMPI PUSH2 0x5B5 DUP3 PUSH1 0x1 PUSH2 0x5D9 SWAP5 ADD PUSH1 0x3 SSTORE PUSH2 0x1039 JUMP JUMPDEST DUP2 SLOAD PUSH1 0x1 PUSH1 0x1 PUSH1 0xA0 SHL SUB SWAP4 DUP5 AND PUSH1 0x3 SWAP3 SWAP1 SWAP3 SHL SWAP2 DUP3 SHL SWAP4 SWAP1 SWAP2 SHL NOT AND SWAP2 SWAP1 SWAP2 OR SWAP1 SSTORE JUMP JUMPDEST DUP2 DUP1 PUSH2 0x4C3 JUMP JUMPDEST PUSH4 0x4E487B71 PUSH1 0xE0 SHL PUSH1 0x0 MSTORE PUSH1 0x41 PUSH1 0x4 MSTORE PUSH1 0x24 PUSH1 0x0 REVERT JUMPDEST DUP5 PUSH2 0x600 DUP3 PUSH2 0x1039 JUMP JUMPDEST SWAP1 SLOAD PUSH1 0x3 SWAP2 SWAP1 SWAP2 SHL SHR PUSH1 0x1 PUSH1 0x1 PUSH1 0xA0 SHL SUB AND EQ PUSH2 0x61F JUMPI PUSH1 0x1 ADD PUSH2 0x4B4 JUMP JUMPDEST POP POP PUSH1 0x1 DUP5 PUSH2 0x4BC JUMP JUMPDEST CALLVALUE PUSH2 0x288 JUMPI PUSH1 0x0 CALLDATASIZE PUSH1 0x3 NOT ADD SLT PUSH2 0x288 JUMPI PUSH1 0x40 MLOAD DUP1 PUSH1 0x20 PUSH1 0x3 SLOAD SWAP3 DUP4 DUP2 MSTORE ADD DUP1 SWAP3 PUSH1 0x3 PUSH1 0x0 MSTORE PUSH32 0xC2575A0E9E593C00F959F8C92F12DB2869C3395A3B0502D05E2516446F71F85B SWAP1 PUSH1 0x0 JUMPDEST DUP2 DUP2 LT PUSH2 0x6D6 JUMPI POP POP POP DUP2 PUSH2 0x68A SWAP2 SUB DUP3 PUSH2 0x1139 JUMP JUMPDEST PUSH1 0x40 MLOAD SWAP2 DUP3 SWAP2 PUSH1 0x20 DUP4 ADD SWAP1 PUSH1 0x20 DUP5 MSTORE MLOAD DUP1 SWAP2 MSTORE PUSH1 0x40 DUP4 ADD SWAP2 SWAP1 PUSH1 0x0 JUMPDEST DUP2 DUP2 LT PUSH2 0x6B4 JUMPI POP POP POP SUB SWAP1 RETURN JUMPDEST DUP3 MLOAD PUSH1 0x1 PUSH1 0x1 PUSH1 0xA0 SHL SUB AND DUP5 MSTORE DUP6 SWAP5 POP PUSH1 0x20 SWAP4 DUP5 ADD SWAP4 SWAP1 SWAP3 ADD SWAP2 PUSH1 0x1 ADD PUSH2 0x6A6 JUMP JUMPDEST DUP3 SLOAD PUSH1 0x1 PUSH1 0x1 PUSH1 0xA0 SHL SUB AND DUP5 MSTORE PUSH1 0x20 SWAP1 SWAP4 ADD SWAP3 PUSH1 0x1 SWAP3 DUP4 ADD SWAP3 ADD PUSH2 0x674 JUMP JUMPDEST CALLVALUE PUSH2 0x288 JUMPI PUSH1 0x20 CALLDATASIZE PUSH1 0x3 NOT ADD SLT PUSH2 0x288 JUMPI PUSH1 0x4 CALLDATALOAD PUSH1 0x3 SLOAD DUP2 LT ISZERO PUSH2 0x288 JUMPI PUSH2 0x71E PUSH1 0x20 SWAP2 PUSH2 0x1039 JUMP JUMPDEST SWAP1 SLOAD PUSH1 0x40 MLOAD PUSH1 0x3 SWAP3 SWAP1 SWAP3 SHL SHR PUSH1 0x1 PUSH1 0x1 PUSH1 0xA0 SHL SUB AND DUP2 MSTORE RETURN JUMPDEST CALLVALUE PUSH2 0x288 JUMPI PUSH1 0x20 CALLDATASIZE PUSH1 0x3 NOT ADD SLT PUSH2 0x288 JUMPI PUSH1 0x1 PUSH1 0x1 PUSH1 0xA0 SHL SUB PUSH2 0x758 PUSH2 0xFDB JUMP JUMPDEST AND PUSH1 0x0 MSTORE PUSH1 0x5 PUSH1 0x20 MSTORE PUSH1 0x20 PUSH1 0x40 PUSH1 0x0 KECCAK256 SLOAD PUSH1 0x40 MLOAD SWAP1 DUP2 MSTORE RETURN JUMPDEST CALLVALUE PUSH2 0x288 JUMPI PUSH1 0x40 CALLDATASIZE PUSH1 0x3 NOT ADD SLT PUSH2 0x288 JUMPI PUSH2 0x7F2 PUSH1 0x20 PUSH2 0x78F PUSH2 0xFDB JUMP JUMPDEST PUSH1 0x24 CALLDATALOAD SWAP1 PUSH2 0x79B PUSH2 0x1532 JUMP JUMPDEST PUSH1 0x1 PUSH1 0x1 PUSH1 0xA0 SHL SUB AND PUSH2 0x7AF DUP2 ISZERO ISZERO PUSH2 0x11CD JUMP JUMPDEST PUSH2 0x7BA DUP3 ISZERO ISZERO PUSH2 0x1295 JUMP JUMPDEST PUSH1 0x0 DUP1 SLOAD PUSH1 0x40 MLOAD PUSH4 0xA9059CBB PUSH1 0xE0 SHL DUP2 MSTORE PUSH1 0x1 PUSH1 0x1 PUSH1 0xA0 SHL SUB SWAP1 SWAP2 AND PUSH1 0x4 DUP3 ADD MSTORE PUSH1 0x24 DUP2 ADD SWAP4 SWAP1 SWAP4 MSTORE SWAP2 SWAP4 DUP5 SWAP3 DUP4 SWAP2 DUP3 SWAP1 PUSH1 0x44 DUP3 ADD SWAP1 JUMP JUMPDEST SUB SWAP3 GAS CALL DUP1 ISZERO PUSH2 0x229 JUMPI PUSH2 0x802 JUMPI STOP JUMPDEST PUSH2 0x235 SWAP1 PUSH1 0x20 RETURNDATASIZE PUSH1 0x20 GT PUSH2 0x222 JUMPI PUSH2 0x215 DUP2 DUP4 PUSH2 0x1139 JUMP JUMPDEST CALLVALUE PUSH2 0x288 JUMPI PUSH1 0x0 CALLDATASIZE PUSH1 0x3 NOT ADD SLT PUSH2 0x288 JUMPI PUSH1 0x0 SLOAD PUSH1 0x40 MLOAD PUSH1 0x1 PUSH1 0x1 PUSH1 0xA0 SHL SUB SWAP1 SWAP2 AND DUP2 MSTORE PUSH1 0x20 SWAP1 RETURN JUMPDEST CALLVALUE PUSH2 0x288 JUMPI PUSH1 0x0 CALLDATASIZE PUSH1 0x3 NOT ADD SLT PUSH2 0x288 JUMPI PUSH1 0x20 PUSH1 0x40 MLOAD PUSH3 0x15180 DUP2 MSTORE RETURN JUMPDEST CALLVALUE PUSH2 0x288 JUMPI PUSH1 0x20 CALLDATASIZE PUSH1 0x3 NOT ADD SLT PUSH2 0x288 JUMPI PUSH1 0x1 PUSH1 0x1 PUSH1 0xA0 SHL SUB PUSH2 0x882 PUSH2 0xFDB JUMP JUMPDEST AND PUSH1 0x0 MSTORE PUSH1 0x1 PUSH1 0x20 MSTORE PUSH1 0x20 PUSH1 0x40 PUSH1 0x0 KECCAK256 SLOAD PUSH1 0x40 MLOAD SWAP1 DUP2 MSTORE RETURN JUMPDEST CALLVALUE PUSH2 0x288 JUMPI PUSH1 0x60 CALLDATASIZE PUSH1 0x3 NOT ADD SLT PUSH2 0x288 JUMPI PUSH2 0x8B4 PUSH2 0xFDB JUMP JUMPDEST PUSH1 0x1 PUSH1 0x1 PUSH1 0xA0 SHL SUB AND PUSH1 0x0 SWAP1 DUP2 MSTORE PUSH1 0x5 PUSH1 0x20 MSTORE PUSH1 0x40 SWAP1 KECCAK256 DUP1 SLOAD PUSH1 0x24 CALLDATALOAD SWAP2 SWAP1 DUP1 DUP4 LT ISZERO PUSH2 0x96D JUMPI DUP3 PUSH2 0x8FA SWAP2 PUSH2 0x8EB PUSH1 0x44 CALLDATALOAD DUP4 PUSH2 0x1211 JUMP JUMPDEST SWAP1 DUP1 DUP3 GT PUSH2 0x965 JUMPI JUMPDEST POP PUSH2 0x13D0 JUMP JUMPDEST SWAP1 PUSH2 0x904 DUP3 PUSH2 0x1324 JUMP JUMPDEST SWAP3 PUSH1 0x0 JUMPDEST DUP4 DUP2 LT PUSH2 0x921 JUMPI PUSH1 0x40 MLOAD DUP1 PUSH2 0x91D DUP8 DUP3 PUSH2 0x1082 JUMP JUMPDEST SUB SWAP1 RETURN JUMPDEST DUP1 PUSH2 0x949 PUSH2 0x3E3 PUSH2 0x93D PUSH2 0x937 PUSH1 0x1 SWAP6 DUP8 PUSH2 0x1211 JUMP JUMPDEST DUP8 PUSH2 0x106A JUMP JUMPDEST SWAP1 SLOAD SWAP1 PUSH1 0x3 SHL SHR PUSH2 0x10FE JUMP JUMPDEST PUSH2 0x953 DUP3 DUP9 PUSH2 0x1374 JUMP JUMPDEST MSTORE PUSH2 0x95E DUP2 DUP8 PUSH2 0x1374 JUMP JUMPDEST POP ADD PUSH2 0x908 JUMP JUMPDEST SWAP1 POP DUP6 PUSH2 0x8F4 JUMP JUMPDEST PUSH1 0x40 MLOAD PUSH3 0x461BCD PUSH1 0xE5 SHL DUP2 MSTORE PUSH1 0x20 PUSH1 0x4 DUP3 ADD MSTORE PUSH1 0x19 PUSH1 0x24 DUP3 ADD MSTORE PUSH32 0x537461727420696E646578206F7574206F6620626F756E647300000000000000 PUSH1 0x44 DUP3 ADD MSTORE PUSH1 0x64 SWAP1 REVERT JUMPDEST CALLVALUE PUSH2 0x288 JUMPI PUSH1 0x0 CALLDATASIZE PUSH1 0x3 NOT ADD SLT PUSH2 0x288 JUMPI PUSH2 0x9CB PUSH2 0x1532 JUMP JUMPDEST PUSH1 0x0 DUP1 SLOAD PUSH1 0x1 PUSH1 0x1 PUSH1 0xA0 SHL SUB NOT DUP2 AND DUP3 SSTORE PUSH1 0x1 PUSH1 0x1 PUSH1 0xA0 SHL SUB AND PUSH32 0x8BE0079C531659141344CD1FD0A4F28419497F9722A3DAAFE3B4186F6B6457E0 DUP3 DUP1 LOG3 STOP JUMPDEST CALLVALUE PUSH2 0x288 JUMPI PUSH1 0x0 CALLDATASIZE PUSH1 0x3 NOT ADD SLT PUSH2 0x288 JUMPI PUSH1 0x20 PUSH1 0x4 SLOAD PUSH1 0x40 MLOAD SWAP1 DUP2 MSTORE RETURN JUMPDEST CALLVALUE PUSH2 0x288 JUMPI PUSH1 0x20 CALLDATASIZE PUSH1 0x3 NOT ADD SLT PUSH2 0x288 JUMPI PUSH2 0xA42 PUSH2 0xFDB JUMP JUMPDEST PUSH2 0xA4A PUSH2 0x1532 JUMP JUMPDEST PUSH1 0x1 PUSH1 0x1 PUSH1 0xA0 SHL SUB AND PUSH2 0xA5E DUP2 ISZERO ISZERO PUSH2 0x11CD JUMP JUMPDEST PUSH1 0x0 JUMPDEST PUSH1 0x3 SLOAD SWAP1 DUP2 DUP2 LT ISZERO PUSH2 0xB45 JUMPI DUP3 PUSH2 0xA77 DUP3 PUSH2 0x1039 JUMP JUMPDEST SWAP1 SLOAD PUSH1 0x3 SWAP2 SWAP1 SWAP2 SHL SHR PUSH1 0x1 PUSH1 0x1 PUSH1 0xA0 SHL SUB AND EQ PUSH2 0xA98 JUMPI PUSH1 0x1 SWAP2 POP ADD PUSH2 0xA61 JUMP JUMPDEST PUSH1 0x0 NOT DUP3 ADD SWAP2 DUP3 GT PUSH2 0x237 JUMPI PUSH2 0x5B5 PUSH2 0xAB3 PUSH2 0xACB SWAP4 PUSH2 0x1039 JUMP JUMPDEST SWAP1 SLOAD PUSH1 0x3 SWAP2 SWAP1 SWAP2 SHL SHR PUSH1 0x1 PUSH1 0x1 PUSH1 0xA0 SHL SUB AND SWAP2 PUSH2 0x1039 JUMP JUMPDEST PUSH1 0x3 SLOAD DUP1 ISZERO PUSH2 0xB2F JUMPI PUSH1 0x0 NOT ADD PUSH2 0xAE1 DUP2 PUSH2 0x1039 JUMP JUMPDEST DUP2 SLOAD PUSH1 0x1 PUSH1 0x1 PUSH1 0xA0 SHL SUB PUSH1 0x3 SWAP3 DUP4 SHL SHL NOT AND SWAP1 SWAP2 SSTORE SSTORE JUMPDEST DUP1 PUSH1 0x0 MSTORE PUSH1 0x2 PUSH1 0x20 MSTORE PUSH1 0x0 PUSH1 0x40 DUP2 KECCAK256 SSTORE PUSH32 0x4C910B69FE65A61F7531B9C5042B2329CA7179C77290AA7E2EB3AFA3C8511FD3 PUSH1 0x0 DUP1 LOG2 STOP JUMPDEST PUSH4 0x4E487B71 PUSH1 0xE0 SHL PUSH1 0x0 MSTORE PUSH1 0x31 PUSH1 0x4 MSTORE PUSH1 0x24 PUSH1 0x0 REVERT JUMPDEST POP POP PUSH2 0xAF8 JUMP JUMPDEST CALLVALUE PUSH2 0x288 JUMPI PUSH1 0x20 CALLDATASIZE PUSH1 0x3 NOT ADD SLT PUSH2 0x288 JUMPI PUSH1 0x1 PUSH1 0x1 PUSH1 0xA0 SHL SUB PUSH2 0xB6D PUSH2 0xFDB JUMP JUMPDEST AND PUSH1 0x0 MSTORE PUSH1 0x5 PUSH1 0x20 MSTORE PUSH1 0x40 PUSH1 0x0 KECCAK256 DUP1 SLOAD PUSH2 0xB86 DUP2 PUSH2 0x1324 JUMP JUMPDEST SWAP2 PUSH1 0x0 JUMPDEST DUP3 DUP2 LT PUSH2 0xB9F JUMPI PUSH1 0x40 MLOAD DUP1 PUSH2 0x91D DUP7 DUP3 PUSH2 0x1082 JUMP JUMPDEST DUP1 PUSH2 0xBB2 PUSH2 0x3E3 PUSH2 0x93D PUSH1 0x1 SWAP5 DUP7 PUSH2 0x106A JUMP JUMPDEST PUSH2 0xBBC DUP3 DUP8 PUSH2 0x1374 JUMP JUMPDEST MSTORE PUSH2 0xBC7 DUP2 DUP7 PUSH2 0x1374 JUMP JUMPDEST POP ADD PUSH2 0xB8A JUMP JUMPDEST CALLVALUE PUSH2 0x288 JUMPI PUSH1 0x40 CALLDATASIZE PUSH1 0x3 NOT ADD SLT PUSH2 0x288 JUMPI PUSH2 0xBE7 PUSH2 0xFDB JUMP JUMPDEST PUSH1 0x1 PUSH1 0x1 PUSH1 0xA0 SHL SUB AND PUSH1 0x0 SWAP1 DUP2 MSTORE PUSH1 0x5 PUSH1 0x20 MSTORE PUSH1 0x40 SWAP1 KECCAK256 DUP1 SLOAD PUSH1 0x24 CALLDATALOAD SWAP2 SWAP1 DUP3 LT ISZERO PUSH2 0x288 JUMPI PUSH1 0x20 SWAP2 PUSH2 0xC18 SWAP2 PUSH2 0x106A JUMP JUMPDEST SWAP1 SLOAD SWAP1 PUSH1 0x3 SHL SHR PUSH1 0x40 MLOAD SWAP1 DUP2 MSTORE RETURN JUMPDEST CALLVALUE PUSH2 0x288 JUMPI PUSH1 0x40 CALLDATASIZE PUSH1 0x3 NOT ADD SLT PUSH2 0x288 JUMPI PUSH2 0xC40 PUSH2 0xFDB JUMP JUMPDEST PUSH1 0x24 CALLDATALOAD SWAP1 PUSH2 0xC4C PUSH2 0x1532 JUMP JUMPDEST PUSH1 0x1 PUSH1 0x1 PUSH1 0xA0 SHL SUB AND SWAP1 PUSH2 0xC61 DUP3 ISZERO ISZERO PUSH2 0x11CD JUMP JUMPDEST DUP2 PUSH1 0x0 MSTORE PUSH1 0x2 PUSH1 0x20 MSTORE PUSH1 0x40 PUSH1 0x0 KECCAK256 SLOAD ISZERO PUSH2 0xCBC JUMPI PUSH1 0x20 DUP2 PUSH2 0xCA4 PUSH32 0x4AA1B13EB889E81DC57ED88A5FF965BCA06398336B3B226039DFEB6348679F73 SWAP4 ISZERO ISZERO PUSH2 0x1295 JUMP JUMPDEST DUP4 PUSH1 0x0 MSTORE PUSH1 0x2 DUP3 MSTORE DUP1 PUSH1 0x40 PUSH1 0x0 KECCAK256 SSTORE PUSH1 0x40 MLOAD SWAP1 DUP2 MSTORE LOG2 STOP JUMPDEST PUSH1 0x40 MLOAD PUSH3 0x461BCD PUSH1 0xE5 SHL DUP2 MSTORE PUSH1 0x20 PUSH1 0x4 DUP3 ADD MSTORE PUSH1 0x18 PUSH1 0x24 DUP3 ADD MSTORE PUSH32 0x546F6B656E206E6F7420696E20666175636574206C6973740000000000000000 PUSH1 0x44 DUP3 ADD MSTORE PUSH1 0x64 SWAP1 REVERT JUMPDEST CALLVALUE PUSH2 0x288 JUMPI PUSH1 0x20 CALLDATASIZE PUSH1 0x3 NOT ADD SLT PUSH2 0x288 JUMPI PUSH2 0xD1A PUSH2 0xFDB JUMP JUMPDEST PUSH1 0x1 PUSH1 0x1 PUSH1 0xA0 SHL SUB DUP2 AND SWAP1 PUSH2 0xD30 DUP3 ISZERO ISZERO PUSH2 0x11CD JUMP JUMPDEST DUP2 PUSH1 0x0 MSTORE PUSH1 0x2 PUSH1 0x20 MSTORE PUSH1 0x40 PUSH1 0x0 KECCAK256 SLOAD ISZERO PUSH2 0xE11 JUMPI CALLER PUSH1 0x0 MSTORE PUSH1 0x1 PUSH1 0x20 MSTORE PUSH1 0x40 PUSH1 0x0 KECCAK256 SLOAD PUSH3 0x15180 DUP2 ADD DUP1 SWAP2 GT PUSH2 0x237 JUMPI PUSH2 0xD6C SWAP1 TIMESTAMP LT ISZERO PUSH2 0x121E JUMP JUMPDEST CALLER PUSH1 0x0 DUP2 DUP2 MSTORE PUSH1 0x1 PUSH1 0x20 SWAP1 DUP2 MSTORE PUSH1 0x40 DUP1 DUP4 KECCAK256 TIMESTAMP SWAP1 SSTORE DUP6 DUP4 MSTORE PUSH1 0x2 DUP3 MSTORE DUP1 DUP4 KECCAK256 SLOAD SWAP1 MLOAD PUSH4 0xA9059CBB PUSH1 0xE0 SHL DUP2 MSTORE PUSH1 0x4 DUP2 ADD SWAP5 SWAP1 SWAP5 MSTORE PUSH1 0x24 DUP5 ADD DUP2 SWAP1 MSTORE SWAP4 SWAP2 DUP4 SWAP1 PUSH1 0x44 SWAP1 DUP3 SWAP1 DUP9 GAS CALL SWAP1 DUP2 ISZERO PUSH2 0x229 JUMPI PUSH2 0xDCB SWAP3 DUP5 SWAP3 PUSH2 0xDF9 JUMPI POP CALLER PUSH2 0x1421 JUMP JUMPDEST PUSH1 0x40 MLOAD SWAP1 DUP2 MSTORE PUSH32 0x45C201A59AC545000EAD84F30B2DB67DA23353AA1D58AC522C48505412143FFA PUSH1 0x20 CALLER SWAP3 LOG3 STOP JUMPDEST PUSH2 0x21D SWAP1 PUSH1 0x20 RETURNDATASIZE PUSH1 0x20 GT PUSH2 0x222 JUMPI PUSH2 0x215 DUP2 DUP4 PUSH2 0x1139 JUMP JUMPDEST PUSH1 0x40 MLOAD PUSH3 0x461BCD PUSH1 0xE5 SHL DUP2 MSTORE PUSH1 0x20 PUSH1 0x4 DUP3 ADD MSTORE PUSH1 0x1D PUSH1 0x24 DUP3 ADD MSTORE PUSH32 0x546F6B656E206E6F7420617661696C61626C6520696E20666175636574000000 PUSH1 0x44 DUP3 ADD MSTORE PUSH1 0x64 SWAP1 REVERT JUMPDEST CALLVALUE PUSH2 0x288 JUMPI PUSH1 0x20 CALLDATASIZE PUSH1 0x3 NOT ADD SLT PUSH2 0x288 JUMPI PUSH2 0xE6F PUSH2 0xFDB JUMP JUMPDEST PUSH1 0x1 PUSH1 0x1 PUSH1 0xA0 SHL SUB AND PUSH1 0x0 DUP2 DUP2 MSTORE PUSH1 0x2 PUSH1 0x20 MSTORE PUSH1 0x40 DUP1 DUP3 KECCAK256 SLOAD SWAP1 MLOAD PUSH4 0x95D89B41 PUSH1 0xE0 SHL DUP2 MSTORE SWAP1 SWAP2 DUP1 DUP3 PUSH1 0x4 DUP2 DUP8 GAS STATICCALL SWAP1 SWAP2 DUP3 DUP3 PUSH2 0xF88 JUMPI JUMPDEST POP POP PUSH2 0xF7D JUMPI POP PUSH1 0x4 PUSH1 0x0 PUSH1 0x40 MLOAD PUSH2 0xEC0 PUSH1 0x40 DUP3 PUSH2 0x1139 JUMP JUMPDEST PUSH1 0x7 DUP2 MSTORE PUSH7 0x2AA725A727ABA7 PUSH1 0xC9 SHL PUSH1 0x20 DUP3 ADD MSTORE SWAP4 JUMPDEST PUSH1 0x40 MLOAD PUSH4 0x6FDDE03 PUSH1 0xE0 SHL DUP2 MSTORE SWAP3 DUP4 SWAP2 DUP3 SWAP1 GAS STATICCALL PUSH1 0x0 SWAP2 DUP2 PUSH2 0xF58 JUMPI JUMPDEST POP PUSH2 0xF4F JUMPI POP PUSH2 0x91D PUSH1 0x40 MLOAD PUSH2 0xF0A PUSH1 0x40 DUP3 PUSH2 0x1139 JUMP JUMPDEST PUSH1 0xD DUP2 MSTORE PUSH13 0x2AB735B737BBB7102A37B5B2B7 PUSH1 0x99 SHL PUSH1 0x20 DUP3 ADD MSTORE JUMPDEST PUSH2 0xF41 PUSH1 0x40 MLOAD SWAP5 DUP6 SWAP5 DUP6 MSTORE PUSH1 0x60 PUSH1 0x20 DUP7 ADD MSTORE PUSH1 0x60 DUP6 ADD SWAP1 PUSH2 0x1014 JUMP JUMPDEST SWAP1 DUP4 DUP3 SUB PUSH1 0x40 DUP6 ADD MSTORE PUSH2 0x1014 JUMP JUMPDEST PUSH2 0x91D SWAP1 PUSH2 0xF25 JUMP JUMPDEST PUSH2 0xF76 SWAP2 SWAP3 POP RETURNDATASIZE DUP1 PUSH1 0x0 DUP4 RETURNDATACOPY PUSH2 0xF6E DUP2 DUP4 PUSH2 0x1139 JUMP JUMPDEST DUP2 ADD SWAP1 PUSH2 0x115B JUMP JUMPDEST SWAP1 DUP5 PUSH2 0xEF3 JUMP JUMPDEST PUSH1 0x0 PUSH1 0x4 SWAP2 SWAP4 PUSH2 0xED6 JUMP JUMPDEST PUSH2 0xF9D SWAP3 SWAP4 POP RETURNDATASIZE DUP1 SWAP2 DUP4 RETURNDATACOPY PUSH2 0xF6E DUP2 DUP4 PUSH2 0x1139 JUMP JUMPDEST SWAP1 DUP5 DUP1 PUSH2 0xEA7 JUMP JUMPDEST CALLVALUE PUSH2 0x288 JUMPI PUSH1 0x20 CALLDATASIZE PUSH1 0x3 NOT ADD SLT PUSH2 0x288 JUMPI PUSH1 0x20 SWAP1 PUSH1 0x1 PUSH1 0x1 PUSH1 0xA0 SHL SUB PUSH2 0xFC9 PUSH2 0xFDB JUMP JUMPDEST AND PUSH1 0x0 MSTORE PUSH1 0x2 DUP3 MSTORE PUSH1 0x40 PUSH1 0x0 KECCAK256 SLOAD DUP2 MSTORE RETURN JUMPDEST PUSH1 0x4 CALLDATALOAD SWAP1 PUSH1 0x1 PUSH1 0x1 PUSH1 0xA0 SHL SUB DUP3 AND DUP3 SUB PUSH2 0x288 JUMPI JUMP JUMPDEST PUSH1 0x0 JUMPDEST DUP4 DUP2 LT PUSH2 0x1004 JUMPI POP POP PUSH1 0x0 SWAP2 ADD MSTORE JUMP JUMPDEST DUP2 DUP2 ADD MLOAD DUP4 DUP3 ADD MSTORE PUSH1 0x20 ADD PUSH2 0xFF4 JUMP JUMPDEST SWAP1 PUSH1 0x20 SWAP2 PUSH2 0x102D DUP2 MLOAD DUP1 SWAP3 DUP2 DUP6 MSTORE DUP6 DUP1 DUP7 ADD SWAP2 ADD PUSH2 0xFF1 JUMP JUMPDEST PUSH1 0x1F ADD PUSH1 0x1F NOT AND ADD ADD SWAP1 JUMP JUMPDEST PUSH1 0x3 SLOAD DUP2 LT ISZERO PUSH2 0x1054 JUMPI PUSH1 0x3 PUSH1 0x0 MSTORE PUSH1 0x20 PUSH1 0x0 KECCAK256 ADD SWAP1 PUSH1 0x0 SWAP1 JUMP JUMPDEST PUSH4 0x4E487B71 PUSH1 0xE0 SHL PUSH1 0x0 MSTORE PUSH1 0x32 PUSH1 0x4 MSTORE PUSH1 0x24 PUSH1 0x0 REVERT JUMPDEST DUP1 SLOAD DUP3 LT ISZERO PUSH2 0x1054 JUMPI PUSH1 0x0 MSTORE PUSH1 0x20 PUSH1 0x0 KECCAK256 ADD SWAP1 PUSH1 0x0 SWAP1 JUMP JUMPDEST PUSH1 0x20 PUSH1 0x40 DUP2 DUP4 ADD SWAP3 DUP3 DUP2 MSTORE DUP5 MLOAD DUP1 SWAP5 MSTORE ADD SWAP3 ADD SWAP1 PUSH1 0x0 JUMPDEST DUP2 DUP2 LT PUSH2 0x10A6 JUMPI POP POP POP SWAP1 JUMP JUMPDEST SWAP1 SWAP2 SWAP3 PUSH1 0x20 PUSH1 0xA0 DUP3 PUSH2 0x10F3 PUSH1 0x1 SWAP5 DUP9 MLOAD PUSH1 0x80 DUP1 SWAP2 PUSH1 0x1 DUP1 PUSH1 0xA0 SHL SUB DUP2 MLOAD AND DUP5 MSTORE PUSH1 0x1 DUP1 PUSH1 0xA0 SHL SUB PUSH1 0x20 DUP3 ADD MLOAD AND PUSH1 0x20 DUP6 ADD MSTORE PUSH1 0x40 DUP2 ADD MLOAD PUSH1 0x40 DUP6 ADD MSTORE PUSH1 0x60 DUP2 ADD MLOAD PUSH1 0x60 DUP6 ADD MSTORE ADD MLOAD SWAP2 ADD MSTORE JUMP JUMPDEST ADD SWAP5 ADD SWAP3 SWAP2 ADD PUSH2 0x1099 JUMP JUMPDEST PUSH1 0x4 SLOAD DUP2 LT ISZERO PUSH2 0x1054 JUMPI PUSH1 0x4 PUSH1 0x0 MSTORE PUSH1 0x5 PUSH1 0x20 PUSH1 0x0 KECCAK256 SWAP2 MUL ADD SWAP1 PUSH1 0x0 SWAP1 JUMP JUMPDEST PUSH1 0xA0 DUP2 ADD SWAP1 DUP2 LT PUSH8 0xFFFFFFFFFFFFFFFF DUP3 GT OR PUSH2 0x5E0 JUMPI PUSH1 0x40 MSTORE JUMP JUMPDEST SWAP1 PUSH1 0x1F DUP1 NOT SWAP2 ADD AND DUP2 ADD SWAP1 DUP2 LT PUSH8 0xFFFFFFFFFFFFFFFF DUP3 GT OR PUSH2 0x5E0 JUMPI PUSH1 0x40 MSTORE JUMP JUMPDEST PUSH1 0x20 DUP2 DUP4 SUB SLT PUSH2 0x288 JUMPI DUP1 MLOAD SWAP1 PUSH8 0xFFFFFFFFFFFFFFFF DUP3 GT PUSH2 0x288 JUMPI ADD DUP2 PUSH1 0x1F DUP3 ADD SLT ISZERO PUSH2 0x288 JUMPI DUP1 MLOAD PUSH8 0xFFFFFFFFFFFFFFFF DUP2 GT PUSH2 0x5E0 JUMPI PUSH1 0x40 MLOAD SWAP3 PUSH2 0x11AC PUSH1 0x1F DUP4 ADD PUSH1 0x1F NOT AND PUSH1 0x20 ADD DUP6 PUSH2 0x1139 JUMP JUMPDEST DUP2 DUP5 MSTORE PUSH1 0x20 DUP3 DUP5 ADD ADD GT PUSH2 0x288 JUMPI PUSH2 0x11CA SWAP2 PUSH1 0x20 DUP1 DUP6 ADD SWAP2 ADD PUSH2 0xFF1 JUMP JUMPDEST SWAP1 JUMP JUMPDEST ISZERO PUSH2 0x11D4 JUMPI JUMP JUMPDEST PUSH1 0x40 MLOAD PUSH3 0x461BCD PUSH1 0xE5 SHL DUP2 MSTORE PUSH1 0x20 PUSH1 0x4 DUP3 ADD MSTORE PUSH1 0x15 PUSH1 0x24 DUP3 ADD MSTORE PUSH21 0x496E76616C696420746F6B656E2061646472657373 PUSH1 0x58 SHL PUSH1 0x44 DUP3 ADD MSTORE PUSH1 0x64 SWAP1 REVERT JUMPDEST SWAP2 SWAP1 DUP3 ADD DUP1 SWAP3 GT PUSH2 0x237 JUMPI JUMP JUMPDEST ISZERO PUSH2 0x1225 JUMPI JUMP JUMPDEST PUSH1 0x40 MLOAD PUSH3 0x461BCD PUSH1 0xE5 SHL DUP2 MSTORE PUSH1 0x20 PUSH1 0x4 DUP3 ADD MSTORE PUSH1 0x2A PUSH1 0x24 DUP3 ADD MSTORE PUSH32 0x4D757374207761697420323420686F757273206265747765656E206661756365 PUSH1 0x44 DUP3 ADD MSTORE PUSH10 0x74207265717565737473 PUSH1 0xB0 SHL PUSH1 0x64 DUP3 ADD MSTORE PUSH1 0x84 SWAP1 REVERT JUMPDEST SWAP1 DUP2 PUSH1 0x20 SWAP2 SUB SLT PUSH2 0x288 JUMPI MLOAD DUP1 ISZERO ISZERO DUP2 SUB PUSH2 0x288 JUMPI SWAP1 JUMP JUMPDEST ISZERO PUSH2 0x129C JUMPI JUMP JUMPDEST PUSH1 0x40 MLOAD PUSH3 0x461BCD PUSH1 0xE5 SHL DUP2 MSTORE PUSH1 0x20 PUSH1 0x4 DUP3 ADD MSTORE PUSH1 0x1D PUSH1 0x24 DUP3 ADD MSTORE PUSH32 0x416D6F756E74206D7573742062652067726561746572207468616E2030000000 PUSH1 0x44 DUP3 ADD MSTORE PUSH1 0x64 SWAP1 REVERT JUMPDEST PUSH8 0xFFFFFFFFFFFFFFFF DUP2 GT PUSH2 0x5E0 JUMPI PUSH1 0x5 SHL PUSH1 0x20 ADD SWAP1 JUMP JUMPDEST PUSH1 0x40 MLOAD SWAP1 PUSH2 0x1306 DUP3 PUSH2 0x111D JUMP JUMPDEST PUSH1 0x0 PUSH1 0x80 DUP4 DUP3 DUP2 MSTORE DUP3 PUSH1 0x20 DUP3 ADD MSTORE DUP3 PUSH1 0x40 DUP3 ADD MSTORE DUP3 PUSH1 0x60 DUP3 ADD MSTORE ADD MSTORE JUMP JUMPDEST SWAP1 PUSH2 0x132E DUP3 PUSH2 0x12E1 JUMP JUMPDEST PUSH2 0x133B PUSH1 0x40 MLOAD SWAP2 DUP3 PUSH2 0x1139 JUMP JUMPDEST DUP3 DUP2 MSTORE DUP1 SWAP3 PUSH2 0x134C PUSH1 0x1F NOT SWAP2 PUSH2 0x12E1 JUMP JUMPDEST ADD SWAP1 PUSH1 0x0 JUMPDEST DUP3 DUP2 LT PUSH2 0x135D JUMPI POP POP POP JUMP JUMPDEST PUSH1 0x20 SWAP1 PUSH2 0x1368 PUSH2 0x12F9 JUMP JUMPDEST DUP3 DUP3 DUP6 ADD ADD MSTORE ADD PUSH2 0x1351 JUMP JUMPDEST DUP1 MLOAD DUP3 LT ISZERO PUSH2 0x1054 JUMPI PUSH1 0x20 SWAP2 PUSH1 0x5 SHL ADD ADD SWAP1 JUMP JUMPDEST SWAP1 PUSH1 0x40 MLOAD PUSH2 0x1395 DUP2 PUSH2 0x111D JUMP JUMPDEST DUP3 SLOAD PUSH1 0x1 PUSH1 0x1 PUSH1 0xA0 SHL SUB SWAP1 DUP2 AND DUP3 MSTORE PUSH1 0x1 DUP5 ADD SLOAD AND PUSH1 0x20 DUP3 ADD MSTORE PUSH1 0x2 DUP4 ADD SLOAD PUSH1 0x40 DUP3 ADD MSTORE PUSH1 0x3 DUP4 ADD SLOAD PUSH1 0x60 DUP3 ADD MSTORE PUSH1 0x4 SWAP1 SWAP3 ADD SLOAD PUSH1 0x80 DUP4 ADD MSTORE JUMP JUMPDEST SWAP2 SWAP1 DUP3 SUB SWAP2 DUP3 GT PUSH2 0x237 JUMPI JUMP JUMPDEST PUSH1 0x1 PUSH1 0x1 PUSH1 0xA0 SHL SUB AND PUSH1 0x0 SWAP1 DUP2 MSTORE PUSH1 0x1 PUSH1 0x20 MSTORE PUSH1 0x40 SWAP1 KECCAK256 SLOAD DUP1 ISZERO PUSH2 0x141B JUMPI PUSH3 0x15180 DUP2 ADD DUP1 SWAP2 GT PUSH2 0x237 JUMPI DUP1 TIMESTAMP LT ISZERO PUSH2 0x141B JUMPI PUSH2 0x11CA SWAP1 TIMESTAMP SWAP1 PUSH2 0x13D0 JUMP JUMPDEST POP PUSH1 0x0 SWAP1 JUMP JUMPDEST PUSH1 0x40 MLOAD SWAP1 PUSH2 0x142E DUP3 PUSH2 0x111D JUMP JUMPDEST PUSH1 0x1 DUP1 PUSH1 0xA0 SHL SUB AND SWAP3 DUP4 DUP3 MSTORE PUSH1 0x20 DUP3 ADD SWAP3 PUSH1 0x1 DUP1 PUSH1 0xA0 SHL SUB AND DUP4 MSTORE PUSH1 0x40 DUP3 ADD SWAP1 DUP2 MSTORE PUSH1 0x60 DUP3 ADD TIMESTAMP DUP2 MSTORE PUSH1 0x80 DUP4 ADD SWAP2 NUMBER DUP4 MSTORE PUSH1 0x4 SLOAD PUSH1 0x1 PUSH1 0x40 SHL DUP2 LT ISZERO PUSH2 0x5E0 JUMPI DUP1 PUSH1 0x1 PUSH2 0x147E SWAP3 ADD PUSH1 0x4 SSTORE PUSH2 0x10FE JUMP JUMPDEST SWAP6 SWAP1 SWAP6 PUSH2 0x151C JUMPI SWAP4 MLOAD DUP6 SLOAD PUSH1 0x1 PUSH1 0x1 PUSH1 0xA0 SHL SUB NOT SWAP1 DUP2 AND PUSH1 0x1 PUSH1 0x1 PUSH1 0xA0 SHL SUB SWAP3 DUP4 AND OR DUP8 SSTORE SWAP5 MLOAD PUSH1 0x1 DUP8 ADD DUP1 SLOAD SWAP1 SWAP7 AND SWAP2 AND OR SWAP1 SWAP4 SSTORE SWAP2 MLOAD PUSH1 0x2 DUP5 ADD SSTORE SWAP1 MLOAD PUSH1 0x3 DUP4 ADD SSTORE MLOAD PUSH1 0x4 SWAP2 DUP3 ADD SSTORE PUSH1 0x0 SWAP2 DUP3 MSTORE PUSH1 0x5 PUSH1 0x20 MSTORE PUSH1 0x40 SWAP1 SWAP2 KECCAK256 SWAP1 SLOAD PUSH1 0x0 NOT DUP2 ADD SWAP2 SWAP1 DUP3 GT PUSH2 0x237 JUMPI DUP1 SLOAD PUSH1 0x1 PUSH1 0x40 SHL DUP2 LT ISZERO PUSH2 0x5E0 JUMPI PUSH2 0x1504 SWAP2 PUSH1 0x1 DUP3 ADD DUP2 SSTORE PUSH2 0x106A JUMP JUMPDEST DUP2 SWAP3 SWAP2 SLOAD SWAP1 PUSH1 0x3 SHL SWAP2 DUP3 SHL SWAP2 PUSH1 0x0 NOT SWAP1 SHL NOT AND OR SWAP1 SSTORE JUMP JUMPDEST PUSH4 0x4E487B71 PUSH1 0xE0 SHL PUSH1 0x0 MSTORE PUSH1 0x0 PUSH1 0x4 MSTORE PUSH1 0x24 PUSH1 0x0 REVERT JUMPDEST PUSH1 0x0 SLOAD PUSH1 0x1 PUSH1 0x1 PUSH1 0xA0 SHL SUB AND CALLER SUB PUSH2 0x1546 JUMPI JUMP JUMPDEST PUSH4 0x118CDAA7 PUSH1 0xE0 SHL PUSH1 0x0 MSTORE CALLER PUSH1 0x4 MSTORE PUSH1 0x24 PUSH1 0x0 REVERT INVALID LOG2 PUSH5 0x6970667358 0x22 SLT KECCAK256 0xA7 PUSH27 0x149CB55BB19F990EF1C1BF481F3B59A1EBEDB52AE96E622E0D660 DUP1 SWAP9 DUP2 PUSH5 0x736F6C6343 STOP ADDMOD SHR STOP CALLER "},"methodIdentifiers":{"FAUCET_COOLDOWN()":"7d1d5d19","addToken(address)":"d48bfca7","emergencyWithdraw(address,uint256)":"95ccea67","faucetAmounts(address)":"14c47fbd","faucetHistory(uint256)":"ff12e27a","getAllUserFaucetHistory(address)":"4b7a3cfd","getFaucetDetails(uint256)":"d4cd2f6b","getSupportedTokens()":"d3c7c2c7","getTimeUntilNextFaucet(address)":"e21430d3","getTokenInfo(address)":"1f69565f","getTotalFaucetCount()":"625f7f62","getUserFaucetCount(address)":"a95a50c1","getUserFaucetHistory(address,uint256,uint256)":"744e9b71","lastFaucetTime(address)":"7bc1f6cc","owner()":"8da5cb5b","removeToken(address)":"5fa7b584","renounceOwnership()":"715018a6","requestAllFaucets()":"ffc80e55","requestFaucet(address)":"2a707541","supportedTokens(uint256)":"c6255626","transferOwnership(address)":"f2fde38b","updateFaucetAmount(address,uint256)":"3e6a099c","userFaucetIndices(address,uint256)":"49251a83"}}}}}