{"contracts/Faucet.sol":{"Faucet":{"abi":[{"inputs":[],"stateMutability":"nonpayable","type":"constructor"},{"inputs":[{"internalType":"address","name":"owner","type":"address"}],"name":"OwnableInvalidOwner","type":"error"},{"inputs":[{"internalType":"address","name":"account","type":"address"}],"name":"OwnableUnauthorizedAccount","type":"error"},{"anonymous":false,"inputs":[{"indexed":true,"internalType":"address","name":"token","type":"address"},{"indexed":false,"internalType":"uint256","name":"newAmount","type":"uint256"}],"name":"FaucetAmountUpdated","type":"event"},{"anonymous":false,"inputs":[{"indexed":true,"internalType":"address","name":"user","type":"address"},{"indexed":true,"internalType":"address","name":"token","type":"address"},{"indexed":false,"internalType":"uint256","name":"amount","type":"uint256"}],"name":"FaucetUsed","type":"event"},{"anonymous":false,"inputs":[{"indexed":true,"internalType":"address","name":"previousOwner","type":"address"},{"indexed":true,"internalType":"address","name":"newOwner","type":"address"}],"name":"OwnershipTransferred","type":"event"},{"anonymous":false,"inputs":[{"indexed":true,"internalType":"address","name":"token","type":"address"},{"indexed":false,"internalType":"uint256","name":"amount","type":"uint256"}],"name":"TokenAdded","type":"event"},{"anonymous":false,"inputs":[{"indexed":true,"internalType":"address","name":"token","type":"address"}],"name":"TokenRemoved","type":"event"},{"inputs":[],"name":"FAUCET_COOLDOWN","outputs":[{"internalType":"uint256","name":"","type":"uint256"}],"stateMutability":"view","type":"function"},{"inputs":[{"internalType":"address","name":"token","type":"address"},{"internalType":"uint256","name":"amount","type":"uint256"}],"name":"addToken","outputs":[],"stateMutability":"nonpayable","type":"function"},{"inputs":[{"internalType":"address","name":"token","type":"address"},{"internalType":"uint256","name":"amount","type":"uint256"}],"name":"emergencyWithdraw","outputs":[],"stateMutability":"nonpayable","type":"function"},{"inputs":[{"internalType":"address","name":"","type":"address"}],"name":"faucetAmounts","outputs":[{"internalType":"uint256","name":"","type":"uint256"}],"stateMutability":"view","type":"function"},{"inputs":[],"name":"getSupportedTokens","outputs":[{"internalType":"address[]","name":"","type":"address[]"}],"stateMutability":"view","type":"function"},{"inputs":[{"internalType":"address","name":"user","type":"address"}],"name":"getTimeUntilNextFaucet","outputs":[{"internalType":"uint256","name":"","type":"uint256"}],"stateMutability":"view","type":"function"},{"inputs":[{"internalType":"address","name":"token","type":"address"}],"name":"getTokenInfo","outputs":[{"internalType":"uint256","name":"amount","type":"uint256"},{"internalType":"string","name":"symbol","type":"string"},{"internalType":"string","name":"name","type":"string"}],"stateMutability":"view","type":"function"},{"inputs":[{"internalType":"address","name":"","type":"address"}],"name":"lastFaucetTime","outputs":[{"internalType":"uint256","name":"","type":"uint256"}],"stateMutability":"view","type":"function"},{"inputs":[],"name":"owner","outputs":[{"internalType":"address","name":"","type":"address"}],"stateMutability":"view","type":"function"},{"inputs":[{"internalType":"address","name":"token","type":"address"}],"name":"removeToken","outputs":[],"stateMutability":"nonpayable","type":"function"},{"inputs":[],"name":"renounceOwnership","outputs":[],"stateMutability":"nonpayable","type":"function"},{"inputs":[],"name":"requestAllFaucets","outputs":[],"stateMutability":"nonpayable","type":"function"},{"inputs":[{"internalType":"address","name":"token","type":"address"}],"name":"requestFaucet","outputs":[],"stateMutability":"nonpayable","type":"function"},{"inputs":[{"internalType":"uint256","name":"","type":"uint256"}],"name":"supportedTokens","outputs":[{"internalType":"address","name":"","type":"address"}],"stateMutability":"view","type":"function"},{"inputs":[{"internalType":"address","name":"newOwner","type":"address"}],"name":"transferOwnership","outputs":[],"stateMutability":"nonpayable","type":"function"},{"inputs":[{"internalType":"address","name":"token","type":"address"},{"internalType":"uint256","name":"newAmount","type":"uint256"}],"name":"updateFaucetAmount","outputs":[],"stateMutability":"nonpayable","type":"function"}],"evm":{"bytecode":{"linkReferences":{},"object":"608080604052346075573315605f5760008054336001600160a01b0319821681178355916001600160a01b03909116907f8be0079c531659141344cd1fd0a4f28419497f9722a3daafe3b4186f6b6457e09080a3610eab908161007b8239f35b631e4fbdf760e01b600052600060045260246000fd5b600080fdfe608080604052600436101561001357600080fd5b60003560e01c90816314c47fbd14610b99575080631f69565f14610a465780632a707541146108fa5780633e6a099c146108205780635fa7b584146106fd578063715018a6146106a45780637bc1f6cc1461066a5780637d1d5d191461064c5780638da5cb5b1461062357806395ccea671461057a578063af81c5b914610424578063c6255626146103e2578063d3c7c2c714610316578063e21430d3146102eb578063f2fde38b146102625763ffc80e55146100cf57600080fd5b3461025d57600036600319011261025d57600354156102225733600052600160205260406000205462015180810180911161020c5761011090421015610d36565b3360005260016020524260406000205560005b60035481101561020a5761013681610c2d565b905460039190911b1c6001600160a01b031660008181526002602052604090205491908261016a575b506001915001610123565b60405163a9059cbb60e01b815233600482015260248101849052926020846044816000865af19384156101fe576001946101d2575b506040519081527f45c201a59ac545000ead84f30b2db67da23353aa1d58ac522c48505412143ffa60203392a33861015f565b6101f29060203d81116101f7575b6101ea8183610c5e565b810190610d95565b61019f565b503d6101e0565b6040513d6000823e3d90fd5b005b634e487b7160e01b600052601160045260246000fd5b60405162461bcd60e51b81526020600482015260136024820152724e6f20746f6b656e7320617661696c61626c6560681b6044820152606490fd5b600080fd5b3461025d57602036600319011261025d5761027b610bcf565b610283610e4c565b6001600160a01b031680156102d557600080546001600160a01b03198116831782556001600160a01b0316907f8be0079c531659141344cd1fd0a4f28419497f9722a3daafe3b4186f6b6457e09080a3005b631e4fbdf760e01b600052600060045260246000fd5b3461025d57602036600319011261025d57602061030e610309610bcf565b610df9565b604051908152f35b3461025d57600036600319011261025d576040518060206003549283815201809260036000527fc2575a0e9e593c00f959f8c92f12db2869c3395a3b0502d05e2516446f71f85b9060005b8181106103c35750505081610377910382610c5e565b6040519182916020830190602084525180915260408301919060005b8181106103a1575050500390f35b82516001600160a01b0316845285945060209384019390920191600101610393565b82546001600160a01b0316845260209093019260019283019201610361565b3461025d57602036600319011261025d5760043560035481101561025d5761040b602091610c2d565b905460405160039290921b1c6001600160a01b03168152f35b3461025d57604036600319011261025d5761043d610bcf565b602435610448610e4c565b6001600160a01b0382169161045e831515610cf2565b610469821515610dad565b600354906000805b838110610547575b50156104bd575b837ff4c563a3ea86ff1f4275e8c207df0375a51963f2b831b7bf4da8be938d92876c602085836000526002825280604060002055604051908152a2005b9091680100000000000000008310156105315761052b6020926105078560017ff4c563a3ea86ff1f4275e8c207df0375a51963f2b831b7bf4da8be938d92876c9701600355610c2d565b81546001600160a01b0393841660039290921b91821b9390911b1916919091179055565b91610480565b634e487b7160e01b600052604160045260246000fd5b8561055182610c2d565b905460039190911b1c6001600160a01b03161461057057600101610471565b5050600185610479565b3461025d57604036600319011261025d576105fb6020610598610bcf565b602435906105a4610e4c565b6001600160a01b03166105b8811515610cf2565b6105c3821515610dad565b6000805460405163a9059cbb60e01b81526001600160a01b039091166004820152602481019390935291938492839182906044820190565b03925af180156101fe5761060b57005b61020a9060203d6020116101f7576101ea8183610c5e565b3461025d57600036600319011261025d576000546040516001600160a01b039091168152602090f35b3461025d57600036600319011261025d576020604051620151808152f35b3461025d57602036600319011261025d576001600160a01b0361068b610bcf565b1660005260016020526020604060002054604051908152f35b3461025d57600036600319011261025d576106bd610e4c565b600080546001600160a01b0319811682556001600160a01b03167f8be0079c531659141344cd1fd0a4f28419497f9722a3daafe3b4186f6b6457e08280a3005b3461025d57602036600319011261025d57610716610bcf565b61071e610e4c565b6001600160a01b0316610732811515610cf2565b60005b6003549081811015610819578261074b82610c2d565b905460039190911b1c6001600160a01b03161461076c576001915001610735565b600019820191821161020c5761050761078761079f93610c2d565b905460039190911b1c6001600160a01b031691610c2d565b600354801561080357600019016107b581610c2d565b81546001600160a01b03600392831b1b1916909155555b806000526002602052600060408120557f4c910b69fe65a61f7531b9c5042b2329ca7179c77290aa7e2eb3afa3c8511fd3600080a2005b634e487b7160e01b600052603160045260246000fd5b50506107cc565b3461025d57604036600319011261025d57610839610bcf565b60243590610845610e4c565b6001600160a01b03169061085a821515610cf2565b610865811515610dad565b816000526002602052604060002054156108b55760207f4aa1b13eb889e81dc57ed88a5ff965bca06398336b3b226039dfeb6348679f7391836000526002825280604060002055604051908152a2005b60405162461bcd60e51b815260206004820152601860248201527f546f6b656e206e6f7420696e20666175636574206c69737400000000000000006044820152606490fd5b3461025d57602036600319011261025d576001600160a01b0361091b610bcf565b16610927811515610cf2565b80600052600260205260406000205415610a015733600052600160205260406000205462015180810180911161020c5761096390421015610d36565b3360008181526001602090815260408083204290558483526002825280832054905163a9059cbb60e01b8152600481019490945260248401819052929182906044908290875af180156101fe576109e4575b506040519081527f45c201a59ac545000ead84f30b2db67da23353aa1d58ac522c48505412143ffa60203392a3005b6109fc9060203d6020116101f7576101ea8183610c5e565b6109b5565b60405162461bcd60e51b815260206004820152601d60248201527f546f6b656e206e6f7420617661696c61626c6520696e206661756365740000006044820152606490fd5b3461025d57602036600319011261025d57610a5f610bcf565b6001600160a01b03166000818152600260205260408082205490516395d89b4160e01b815290918082600481875afa90918282610b7c575b5050610b71575060046000604051610ab0604082610c5e565b60078152662aa725a727aba760c91b6020820152935b6040516306fdde0360e01b815292839182905afa60009181610b4c575b50610b435750610b3f604051610afa604082610c5e565b600d81526c2ab735b737bbb7102a37b5b2b760991b60208201525b610b316040519485948552606060208601526060850190610c08565b908382036040850152610c08565b0390f35b610b3f90610b15565b610b6a9192503d806000833e610b628183610c5e565b810190610c80565b9084610ae3565b600060049193610ac6565b610b919293503d8091833e610b628183610c5e565b908480610a97565b3461025d57602036600319011261025d576020906001600160a01b03610bbd610bcf565b16600052600282526040600020548152f35b600435906001600160a01b038216820361025d57565b60005b838110610bf85750506000910152565b8181015183820152602001610be8565b90602091610c2181518092818552858086019101610be5565b601f01601f1916010190565b600354811015610c4857600360005260206000200190600090565b634e487b7160e01b600052603260045260246000fd5b90601f8019910116810190811067ffffffffffffffff82111761053157604052565b60208183031261025d5780519067ffffffffffffffff821161025d570181601f8201121561025d57805167ffffffffffffffff81116105315760405192610cd1601f8301601f191660200185610c5e565b8184526020828401011161025d57610cef9160208085019101610be5565b90565b15610cf957565b60405162461bcd60e51b8152602060048201526015602482015274496e76616c696420746f6b656e206164647265737360581b6044820152606490fd5b15610d3d57565b60405162461bcd60e51b815260206004820152602a60248201527f4d757374207761697420323420686f757273206265747765656e2066617563656044820152697420726571756573747360b01b6064820152608490fd5b9081602091031261025d5751801515810361025d5790565b15610db457565b60405162461bcd60e51b815260206004820152601d60248201527f416d6f756e74206d7573742062652067726561746572207468616e20300000006044820152606490fd5b6001600160a01b03166000908152600160205260409020548015610e46576201518081019081811161020c5781421015610e3f57429003620151800190811161020c5790565b5050600090565b50600090565b6000546001600160a01b03163303610e6057565b63118cdaa760e01b6000523360045260246000fdfea2646970667358221220a66924a724faca33119e4b478c7bc36b4150e9f136d70238daf58f0ec45fe42564736f6c634300081c0033","opcodes":"PUSH1 0x80 DUP1 PUSH1 0x40 MSTORE CALLVALUE PUSH1 0x75 JUMPI CALLER ISZERO PUSH1 0x5F JUMPI PUSH1 0x0 DUP1 SLOAD CALLER PUSH1 0x1 PUSH1 0x1 PUSH1 0xA0 SHL SUB NOT DUP3 AND DUP2 OR DUP4 SSTORE SWAP2 PUSH1 0x1 PUSH1 0x1 PUSH1 0xA0 SHL SUB SWAP1 SWAP2 AND SWAP1 PUSH32 0x8BE0079C531659141344CD1FD0A4F28419497F9722A3DAAFE3B4186F6B6457E0 SWAP1 DUP1 LOG3 PUSH2 0xEAB SWAP1 DUP2 PUSH2 0x7B DUP3 CODECOPY RETURN JUMPDEST PUSH4 0x1E4FBDF7 PUSH1 0xE0 SHL PUSH1 0x0 MSTORE PUSH1 0x0 PUSH1 0x4 MSTORE PUSH1 0x24 PUSH1 0x0 REVERT JUMPDEST PUSH1 0x0 DUP1 REVERT INVALID PUSH1 0x80 DUP1 PUSH1 0x40 MSTORE PUSH1 0x4 CALLDATASIZE LT ISZERO PUSH2 0x13 JUMPI PUSH1 0x0 DUP1 REVERT JUMPDEST PUSH1 0x0 CALLDATALOAD PUSH1 0xE0 SHR SWAP1 DUP2 PUSH4 0x14C47FBD EQ PUSH2 0xB99 JUMPI POP DUP1 PUSH4 0x1F69565F EQ PUSH2 0xA46 JUMPI DUP1 PUSH4 0x2A707541 EQ PUSH2 0x8FA JUMPI DUP1 PUSH4 0x3E6A099C EQ PUSH2 0x820 JUMPI DUP1 PUSH4 0x5FA7B584 EQ PUSH2 0x6FD JUMPI DUP1 PUSH4 0x715018A6 EQ PUSH2 0x6A4 JUMPI DUP1 PUSH4 0x7BC1F6CC EQ PUSH2 0x66A JUMPI DUP1 PUSH4 0x7D1D5D19 EQ PUSH2 0x64C JUMPI DUP1 PUSH4 0x8DA5CB5B EQ PUSH2 0x623 JUMPI DUP1 PUSH4 0x95CCEA67 EQ PUSH2 0x57A JUMPI DUP1 PUSH4 0xAF81C5B9 EQ PUSH2 0x424 JUMPI DUP1 PUSH4 0xC6255626 EQ PUSH2 0x3E2 JUMPI DUP1 PUSH4 0xD3C7C2C7 EQ PUSH2 0x316 JUMPI DUP1 PUSH4 0xE21430D3 EQ PUSH2 0x2EB JUMPI DUP1 PUSH4 0xF2FDE38B EQ PUSH2 0x262 JUMPI PUSH4 0xFFC80E55 EQ PUSH2 0xCF JUMPI PUSH1 0x0 DUP1 REVERT JUMPDEST CALLVALUE PUSH2 0x25D JUMPI PUSH1 0x0 CALLDATASIZE PUSH1 0x3 NOT ADD SLT PUSH2 0x25D JUMPI PUSH1 0x3 SLOAD ISZERO PUSH2 0x222 JUMPI CALLER PUSH1 0x0 MSTORE PUSH1 0x1 PUSH1 0x20 MSTORE PUSH1 0x40 PUSH1 0x0 KECCAK256 SLOAD PUSH3 0x15180 DUP2 ADD DUP1 SWAP2 GT PUSH2 0x20C JUMPI PUSH2 0x110 SWAP1 TIMESTAMP LT ISZERO PUSH2 0xD36 JUMP JUMPDEST CALLER PUSH1 0x0 MSTORE PUSH1 0x1 PUSH1 0x20 MSTORE TIMESTAMP PUSH1 0x40 PUSH1 0x0 KECCAK256 SSTORE PUSH1 0x0 JUMPDEST PUSH1 0x3 SLOAD DUP2 LT ISZERO PUSH2 0x20A JUMPI PUSH2 0x136 DUP2 PUSH2 0xC2D JUMP JUMPDEST SWAP1 SLOAD PUSH1 0x3 SWAP2 SWAP1 SWAP2 SHL SHR PUSH1 0x1 PUSH1 0x1 PUSH1 0xA0 SHL SUB AND PUSH1 0x0 DUP2 DUP2 MSTORE PUSH1 0x2 PUSH1 0x20 MSTORE PUSH1 0x40 SWAP1 KECCAK256 SLOAD SWAP2 SWAP1 DUP3 PUSH2 0x16A JUMPI JUMPDEST POP PUSH1 0x1 SWAP2 POP ADD PUSH2 0x123 JUMP JUMPDEST PUSH1 0x40 MLOAD PUSH4 0xA9059CBB PUSH1 0xE0 SHL DUP2 MSTORE CALLER PUSH1 0x4 DUP3 ADD MSTORE PUSH1 0x24 DUP2 ADD DUP5 SWAP1 MSTORE SWAP3 PUSH1 0x20 DUP5 PUSH1 0x44 DUP2 PUSH1 0x0 DUP7 GAS CALL SWAP4 DUP5 ISZERO PUSH2 0x1FE JUMPI PUSH1 0x1 SWAP5 PUSH2 0x1D2 JUMPI JUMPDEST POP PUSH1 0x40 MLOAD SWAP1 DUP2 MSTORE PUSH32 0x45C201A59AC545000EAD84F30B2DB67DA23353AA1D58AC522C48505412143FFA PUSH1 0x20 CALLER SWAP3 LOG3 CODESIZE PUSH2 0x15F JUMP JUMPDEST PUSH2 0x1F2 SWAP1 PUSH1 0x20 RETURNDATASIZE DUP2 GT PUSH2 0x1F7 JUMPI JUMPDEST PUSH2 0x1EA DUP2 DUP4 PUSH2 0xC5E JUMP JUMPDEST DUP2 ADD SWAP1 PUSH2 0xD95 JUMP JUMPDEST PUSH2 0x19F JUMP JUMPDEST POP RETURNDATASIZE PUSH2 0x1E0 JUMP JUMPDEST PUSH1 0x40 MLOAD RETURNDATASIZE PUSH1 0x0 DUP3 RETURNDATACOPY RETURNDATASIZE SWAP1 REVERT JUMPDEST STOP JUMPDEST PUSH4 0x4E487B71 PUSH1 0xE0 SHL PUSH1 0x0 MSTORE PUSH1 0x11 PUSH1 0x4 MSTORE PUSH1 0x24 PUSH1 0x0 REVERT JUMPDEST PUSH1 0x40 MLOAD PUSH3 0x461BCD PUSH1 0xE5 SHL DUP2 MSTORE PUSH1 0x20 PUSH1 0x4 DUP3 ADD MSTORE PUSH1 0x13 PUSH1 0x24 DUP3 ADD MSTORE PUSH19 0x4E6F20746F6B656E7320617661696C61626C65 PUSH1 0x68 SHL PUSH1 0x44 DUP3 ADD MSTORE PUSH1 0x64 SWAP1 REVERT JUMPDEST PUSH1 0x0 DUP1 REVERT JUMPDEST CALLVALUE PUSH2 0x25D JUMPI PUSH1 0x20 CALLDATASIZE PUSH1 0x3 NOT ADD SLT PUSH2 0x25D JUMPI PUSH2 0x27B PUSH2 0xBCF JUMP JUMPDEST PUSH2 0x283 PUSH2 0xE4C JUMP JUMPDEST PUSH1 0x1 PUSH1 0x1 PUSH1 0xA0 SHL SUB AND DUP1 ISZERO PUSH2 0x2D5 JUMPI PUSH1 0x0 DUP1 SLOAD PUSH1 0x1 PUSH1 0x1 PUSH1 0xA0 SHL SUB NOT DUP2 AND DUP4 OR DUP3 SSTORE PUSH1 0x1 PUSH1 0x1 PUSH1 0xA0 SHL SUB AND SWAP1 PUSH32 0x8BE0079C531659141344CD1FD0A4F28419497F9722A3DAAFE3B4186F6B6457E0 SWAP1 DUP1 LOG3 STOP JUMPDEST PUSH4 0x1E4FBDF7 PUSH1 0xE0 SHL PUSH1 0x0 MSTORE PUSH1 0x0 PUSH1 0x4 MSTORE PUSH1 0x24 PUSH1 0x0 REVERT JUMPDEST CALLVALUE PUSH2 0x25D JUMPI PUSH1 0x20 CALLDATASIZE PUSH1 0x3 NOT ADD SLT PUSH2 0x25D JUMPI PUSH1 0x20 PUSH2 0x30E PUSH2 0x309 PUSH2 0xBCF JUMP JUMPDEST PUSH2 0xDF9 JUMP JUMPDEST PUSH1 0x40 MLOAD SWAP1 DUP2 MSTORE RETURN JUMPDEST CALLVALUE PUSH2 0x25D JUMPI PUSH1 0x0 CALLDATASIZE PUSH1 0x3 NOT ADD SLT PUSH2 0x25D JUMPI PUSH1 0x40 MLOAD DUP1 PUSH1 0x20 PUSH1 0x3 SLOAD SWAP3 DUP4 DUP2 MSTORE ADD DUP1 SWAP3 PUSH1 0x3 PUSH1 0x0 MSTORE PUSH32 0xC2575A0E9E593C00F959F8C92F12DB2869C3395A3B0502D05E2516446F71F85B SWAP1 PUSH1 0x0 JUMPDEST DUP2 DUP2 LT PUSH2 0x3C3 JUMPI POP POP POP DUP2 PUSH2 0x377 SWAP2 SUB DUP3 PUSH2 0xC5E JUMP JUMPDEST PUSH1 0x40 MLOAD SWAP2 DUP3 SWAP2 PUSH1 0x20 DUP4 ADD SWAP1 PUSH1 0x20 DUP5 MSTORE MLOAD DUP1 SWAP2 MSTORE PUSH1 0x40 DUP4 ADD SWAP2 SWAP1 PUSH1 0x0 JUMPDEST DUP2 DUP2 LT PUSH2 0x3A1 JUMPI POP POP POP SUB SWAP1 RETURN JUMPDEST DUP3 MLOAD PUSH1 0x1 PUSH1 0x1 PUSH1 0xA0 SHL SUB AND DUP5 MSTORE DUP6 SWAP5 POP PUSH1 0x20 SWAP4 DUP5 ADD SWAP4 SWAP1 SWAP3 ADD SWAP2 PUSH1 0x1 ADD PUSH2 0x393 JUMP JUMPDEST DUP3 SLOAD PUSH1 0x1 PUSH1 0x1 PUSH1 0xA0 SHL SUB AND DUP5 MSTORE PUSH1 0x20 SWAP1 SWAP4 ADD SWAP3 PUSH1 0x1 SWAP3 DUP4 ADD SWAP3 ADD PUSH2 0x361 JUMP JUMPDEST CALLVALUE PUSH2 0x25D JUMPI PUSH1 0x20 CALLDATASIZE PUSH1 0x3 NOT ADD SLT PUSH2 0x25D JUMPI PUSH1 0x4 CALLDATALOAD PUSH1 0x3 SLOAD DUP2 LT ISZERO PUSH2 0x25D JUMPI PUSH2 0x40B PUSH1 0x20 SWAP2 PUSH2 0xC2D JUMP JUMPDEST SWAP1 SLOAD PUSH1 0x40 MLOAD PUSH1 0x3 SWAP3 SWAP1 SWAP3 SHL SHR PUSH1 0x1 PUSH1 0x1 PUSH1 0xA0 SHL SUB AND DUP2 MSTORE RETURN JUMPDEST CALLVALUE PUSH2 0x25D JUMPI PUSH1 0x40 CALLDATASIZE PUSH1 0x3 NOT ADD SLT PUSH2 0x25D JUMPI PUSH2 0x43D PUSH2 0xBCF JUMP JUMPDEST PUSH1 0x24 CALLDATALOAD PUSH2 0x448 PUSH2 0xE4C JUMP JUMPDEST PUSH1 0x1 PUSH1 0x1 PUSH1 0xA0 SHL SUB DUP3 AND SWAP2 PUSH2 0x45E DUP4 ISZERO ISZERO PUSH2 0xCF2 JUMP JUMPDEST PUSH2 0x469 DUP3 ISZERO ISZERO PUSH2 0xDAD JUMP JUMPDEST PUSH1 0x3 SLOAD SWAP1 PUSH1 0x0 DUP1 JUMPDEST DUP4 DUP2 LT PUSH2 0x547 JUMPI JUMPDEST POP ISZERO PUSH2 0x4BD JUMPI JUMPDEST DUP4 PUSH32 0xF4C563A3EA86FF1F4275E8C207DF0375A51963F2B831B7BF4DA8BE938D92876C PUSH1 0x20 DUP6 DUP4 PUSH1 0x0 MSTORE PUSH1 0x2 DUP3 MSTORE DUP1 PUSH1 0x40 PUSH1 0x0 KECCAK256 SSTORE PUSH1 0x40 MLOAD SWAP1 DUP2 MSTORE LOG2 STOP JUMPDEST SWAP1 SWAP2 PUSH9 0x10000000000000000 DUP4 LT ISZERO PUSH2 0x531 JUMPI PUSH2 0x52B PUSH1 0x20 SWAP3 PUSH2 0x507 DUP6 PUSH1 0x1 PUSH32 0xF4C563A3EA86FF1F4275E8C207DF0375A51963F2B831B7BF4DA8BE938D92876C SWAP8 ADD PUSH1 0x3 SSTORE PUSH2 0xC2D JUMP JUMPDEST DUP2 SLOAD PUSH1 0x1 PUSH1 0x1 PUSH1 0xA0 SHL SUB SWAP4 DUP5 AND PUSH1 0x3 SWAP3 SWAP1 SWAP3 SHL SWAP2 DUP3 SHL SWAP4 SWAP1 SWAP2 SHL NOT AND SWAP2 SWAP1 SWAP2 OR SWAP1 SSTORE JUMP JUMPDEST SWAP2 PUSH2 0x480 JUMP JUMPDEST PUSH4 0x4E487B71 PUSH1 0xE0 SHL PUSH1 0x0 MSTORE PUSH1 0x41 PUSH1 0x4 MSTORE PUSH1 0x24 PUSH1 0x0 REVERT JUMPDEST DUP6 PUSH2 0x551 DUP3 PUSH2 0xC2D JUMP JUMPDEST SWAP1 SLOAD PUSH1 0x3 SWAP2 SWAP1 SWAP2 SHL SHR PUSH1 0x1 PUSH1 0x1 PUSH1 0xA0 SHL SUB AND EQ PUSH2 0x570 JUMPI PUSH1 0x1 ADD PUSH2 0x471 JUMP JUMPDEST POP POP PUSH1 0x1 DUP6 PUSH2 0x479 JUMP JUMPDEST CALLVALUE PUSH2 0x25D JUMPI PUSH1 0x40 CALLDATASIZE PUSH1 0x3 NOT ADD SLT PUSH2 0x25D JUMPI PUSH2 0x5FB PUSH1 0x20 PUSH2 0x598 PUSH2 0xBCF JUMP JUMPDEST PUSH1 0x24 CALLDATALOAD SWAP1 PUSH2 0x5A4 PUSH2 0xE4C JUMP JUMPDEST PUSH1 0x1 PUSH1 0x1 PUSH1 0xA0 SHL SUB AND PUSH2 0x5B8 DUP2 ISZERO ISZERO PUSH2 0xCF2 JUMP JUMPDEST PUSH2 0x5C3 DUP3 ISZERO ISZERO PUSH2 0xDAD JUMP JUMPDEST PUSH1 0x0 DUP1 SLOAD PUSH1 0x40 MLOAD PUSH4 0xA9059CBB PUSH1 0xE0 SHL DUP2 MSTORE PUSH1 0x1 PUSH1 0x1 PUSH1 0xA0 SHL SUB SWAP1 SWAP2 AND PUSH1 0x4 DUP3 ADD MSTORE PUSH1 0x24 DUP2 ADD SWAP4 SWAP1 SWAP4 MSTORE SWAP2 SWAP4 DUP5 SWAP3 DUP4 SWAP2 DUP3 SWAP1 PUSH1 0x44 DUP3 ADD SWAP1 JUMP JUMPDEST SUB SWAP3 GAS CALL DUP1 ISZERO PUSH2 0x1FE JUMPI PUSH2 0x60B JUMPI STOP JUMPDEST PUSH2 0x20A SWAP1 PUSH1 0x20 RETURNDATASIZE PUSH1 0x20 GT PUSH2 0x1F7 JUMPI PUSH2 0x1EA DUP2 DUP4 PUSH2 0xC5E JUMP JUMPDEST CALLVALUE PUSH2 0x25D JUMPI PUSH1 0x0 CALLDATASIZE PUSH1 0x3 NOT ADD SLT PUSH2 0x25D JUMPI PUSH1 0x0 SLOAD PUSH1 0x40 MLOAD PUSH1 0x1 PUSH1 0x1 PUSH1 0xA0 SHL SUB SWAP1 SWAP2 AND DUP2 MSTORE PUSH1 0x20 SWAP1 RETURN JUMPDEST CALLVALUE PUSH2 0x25D JUMPI PUSH1 0x0 CALLDATASIZE PUSH1 0x3 NOT ADD SLT PUSH2 0x25D JUMPI PUSH1 0x20 PUSH1 0x40 MLOAD PUSH3 0x15180 DUP2 MSTORE RETURN JUMPDEST CALLVALUE PUSH2 0x25D JUMPI PUSH1 0x20 CALLDATASIZE PUSH1 0x3 NOT ADD SLT PUSH2 0x25D JUMPI PUSH1 0x1 PUSH1 0x1 PUSH1 0xA0 SHL SUB PUSH2 0x68B PUSH2 0xBCF JUMP JUMPDEST AND PUSH1 0x0 MSTORE PUSH1 0x1 PUSH1 0x20 MSTORE PUSH1 0x20 PUSH1 0x40 PUSH1 0x0 KECCAK256 SLOAD PUSH1 0x40 MLOAD SWAP1 DUP2 MSTORE RETURN JUMPDEST CALLVALUE PUSH2 0x25D JUMPI PUSH1 0x0 CALLDATASIZE PUSH1 0x3 NOT ADD SLT PUSH2 0x25D JUMPI PUSH2 0x6BD PUSH2 0xE4C JUMP JUMPDEST PUSH1 0x0 DUP1 SLOAD PUSH1 0x1 PUSH1 0x1 PUSH1 0xA0 SHL SUB NOT DUP2 AND DUP3 SSTORE PUSH1 0x1 PUSH1 0x1 PUSH1 0xA0 SHL SUB AND PUSH32 0x8BE0079C531659141344CD1FD0A4F28419497F9722A3DAAFE3B4186F6B6457E0 DUP3 DUP1 LOG3 STOP JUMPDEST CALLVALUE PUSH2 0x25D JUMPI PUSH1 0x20 CALLDATASIZE PUSH1 0x3 NOT ADD SLT PUSH2 0x25D JUMPI PUSH2 0x716 PUSH2 0xBCF JUMP JUMPDEST PUSH2 0x71E PUSH2 0xE4C JUMP JUMPDEST PUSH1 0x1 PUSH1 0x1 PUSH1 0xA0 SHL SUB AND PUSH2 0x732 DUP2 ISZERO ISZERO PUSH2 0xCF2 JUMP JUMPDEST PUSH1 0x0 JUMPDEST PUSH1 0x3 SLOAD SWAP1 DUP2 DUP2 LT ISZERO PUSH2 0x819 JUMPI DUP3 PUSH2 0x74B DUP3 PUSH2 0xC2D JUMP JUMPDEST SWAP1 SLOAD PUSH1 0x3 SWAP2 SWAP1 SWAP2 SHL SHR PUSH1 0x1 PUSH1 0x1 PUSH1 0xA0 SHL SUB AND EQ PUSH2 0x76C JUMPI PUSH1 0x1 SWAP2 POP ADD PUSH2 0x735 JUMP JUMPDEST PUSH1 0x0 NOT DUP3 ADD SWAP2 DUP3 GT PUSH2 0x20C JUMPI PUSH2 0x507 PUSH2 0x787 PUSH2 0x79F SWAP4 PUSH2 0xC2D JUMP JUMPDEST SWAP1 SLOAD PUSH1 0x3 SWAP2 SWAP1 SWAP2 SHL SHR PUSH1 0x1 PUSH1 0x1 PUSH1 0xA0 SHL SUB AND SWAP2 PUSH2 0xC2D JUMP JUMPDEST PUSH1 0x3 SLOAD DUP1 ISZERO PUSH2 0x803 JUMPI PUSH1 0x0 NOT ADD PUSH2 0x7B5 DUP2 PUSH2 0xC2D JUMP JUMPDEST DUP2 SLOAD PUSH1 0x1 PUSH1 0x1 PUSH1 0xA0 SHL SUB PUSH1 0x3 SWAP3 DUP4 SHL SHL NOT AND SWAP1 SWAP2 SSTORE SSTORE JUMPDEST DUP1 PUSH1 0x0 MSTORE PUSH1 0x2 PUSH1 0x20 MSTORE PUSH1 0x0 PUSH1 0x40 DUP2 KECCAK256 SSTORE PUSH32 0x4C910B69FE65A61F7531B9C5042B2329CA7179C77290AA7E2EB3AFA3C8511FD3 PUSH1 0x0 DUP1 LOG2 STOP JUMPDEST PUSH4 0x4E487B71 PUSH1 0xE0 SHL PUSH1 0x0 MSTORE PUSH1 0x31 PUSH1 0x4 MSTORE PUSH1 0x24 PUSH1 0x0 REVERT JUMPDEST POP POP PUSH2 0x7CC JUMP JUMPDEST CALLVALUE PUSH2 0x25D JUMPI PUSH1 0x40 CALLDATASIZE PUSH1 0x3 NOT ADD SLT PUSH2 0x25D JUMPI PUSH2 0x839 PUSH2 0xBCF JUMP JUMPDEST PUSH1 0x24 CALLDATALOAD SWAP1 PUSH2 0x845 PUSH2 0xE4C JUMP JUMPDEST PUSH1 0x1 PUSH1 0x1 PUSH1 0xA0 SHL SUB AND SWAP1 PUSH2 0x85A DUP3 ISZERO ISZERO PUSH2 0xCF2 JUMP JUMPDEST PUSH2 0x865 DUP2 ISZERO ISZERO PUSH2 0xDAD JUMP JUMPDEST DUP2 PUSH1 0x0 MSTORE PUSH1 0x2 PUSH1 0x20 MSTORE PUSH1 0x40 PUSH1 0x0 KECCAK256 SLOAD ISZERO PUSH2 0x8B5 JUMPI PUSH1 0x20 PUSH32 0x4AA1B13EB889E81DC57ED88A5FF965BCA06398336B3B226039DFEB6348679F73 SWAP2 DUP4 PUSH1 0x0 MSTORE PUSH1 0x2 DUP3 MSTORE DUP1 PUSH1 0x40 PUSH1 0x0 KECCAK256 SSTORE PUSH1 0x40 MLOAD SWAP1 DUP2 MSTORE LOG2 STOP JUMPDEST PUSH1 0x40 MLOAD PUSH3 0x461BCD PUSH1 0xE5 SHL DUP2 MSTORE PUSH1 0x20 PUSH1 0x4 DUP3 ADD MSTORE PUSH1 0x18 PUSH1 0x24 DUP3 ADD MSTORE PUSH32 0x546F6B656E206E6F7420696E20666175636574206C6973740000000000000000 PUSH1 0x44 DUP3 ADD MSTORE PUSH1 0x64 SWAP1 REVERT JUMPDEST CALLVALUE PUSH2 0x25D JUMPI PUSH1 0x20 CALLDATASIZE PUSH1 0x3 NOT ADD SLT PUSH2 0x25D JUMPI PUSH1 0x1 PUSH1 0x1 PUSH1 0xA0 SHL SUB PUSH2 0x91B PUSH2 0xBCF JUMP JUMPDEST AND PUSH2 0x927 DUP2 ISZERO ISZERO PUSH2 0xCF2 JUMP JUMPDEST DUP1 PUSH1 0x0 MSTORE PUSH1 0x2 PUSH1 0x20 MSTORE PUSH1 0x40 PUSH1 0x0 KECCAK256 SLOAD ISZERO PUSH2 0xA01 JUMPI CALLER PUSH1 0x0 MSTORE PUSH1 0x1 PUSH1 0x20 MSTORE PUSH1 0x40 PUSH1 0x0 KECCAK256 SLOAD PUSH3 0x15180 DUP2 ADD DUP1 SWAP2 GT PUSH2 0x20C JUMPI PUSH2 0x963 SWAP1 TIMESTAMP LT ISZERO PUSH2 0xD36 JUMP JUMPDEST CALLER PUSH1 0x0 DUP2 DUP2 MSTORE PUSH1 0x1 PUSH1 0x20 SWAP1 DUP2 MSTORE PUSH1 0x40 DUP1 DUP4 KECCAK256 TIMESTAMP SWAP1 SSTORE DUP5 DUP4 MSTORE PUSH1 0x2 DUP3 MSTORE DUP1 DUP4 KECCAK256 SLOAD SWAP1 MLOAD PUSH4 0xA9059CBB PUSH1 0xE0 SHL DUP2 MSTORE PUSH1 0x4 DUP2 ADD SWAP5 SWAP1 SWAP5 MSTORE PUSH1 0x24 DUP5 ADD DUP2 SWAP1 MSTORE SWAP3 SWAP2 DUP3 SWAP1 PUSH1 0x44 SWAP1 DUP3 SWAP1 DUP8 GAS CALL DUP1 ISZERO PUSH2 0x1FE JUMPI PUSH2 0x9E4 JUMPI JUMPDEST POP PUSH1 0x40 MLOAD SWAP1 DUP2 MSTORE PUSH32 0x45C201A59AC545000EAD84F30B2DB67DA23353AA1D58AC522C48505412143FFA PUSH1 0x20 CALLER SWAP3 LOG3 STOP JUMPDEST PUSH2 0x9FC SWAP1 PUSH1 0x20 RETURNDATASIZE PUSH1 0x20 GT PUSH2 0x1F7 JUMPI PUSH2 0x1EA DUP2 DUP4 PUSH2 0xC5E JUMP JUMPDEST PUSH2 0x9B5 JUMP JUMPDEST PUSH1 0x40 MLOAD PUSH3 0x461BCD PUSH1 0xE5 SHL DUP2 MSTORE PUSH1 0x20 PUSH1 0x4 DUP3 ADD MSTORE PUSH1 0x1D PUSH1 0x24 DUP3 ADD MSTORE PUSH32 0x546F6B656E206E6F7420617661696C61626C6520696E20666175636574000000 PUSH1 0x44 DUP3 ADD MSTORE PUSH1 0x64 SWAP1 REVERT JUMPDEST CALLVALUE PUSH2 0x25D JUMPI PUSH1 0x20 CALLDATASIZE PUSH1 0x3 NOT ADD SLT PUSH2 0x25D JUMPI PUSH2 0xA5F PUSH2 0xBCF JUMP JUMPDEST PUSH1 0x1 PUSH1 0x1 PUSH1 0xA0 SHL SUB AND PUSH1 0x0 DUP2 DUP2 MSTORE PUSH1 0x2 PUSH1 0x20 MSTORE PUSH1 0x40 DUP1 DUP3 KECCAK256 SLOAD SWAP1 MLOAD PUSH4 0x95D89B41 PUSH1 0xE0 SHL DUP2 MSTORE SWAP1 SWAP2 DUP1 DUP3 PUSH1 0x4 DUP2 DUP8 GAS STATICCALL SWAP1 SWAP2 DUP3 DUP3 PUSH2 0xB7C JUMPI JUMPDEST POP POP PUSH2 0xB71 JUMPI POP PUSH1 0x4 PUSH1 0x0 PUSH1 0x40 MLOAD PUSH2 0xAB0 PUSH1 0x40 DUP3 PUSH2 0xC5E JUMP JUMPDEST PUSH1 0x7 DUP2 MSTORE PUSH7 0x2AA725A727ABA7 PUSH1 0xC9 SHL PUSH1 0x20 DUP3 ADD MSTORE SWAP4 JUMPDEST PUSH1 0x40 MLOAD PUSH4 0x6FDDE03 PUSH1 0xE0 SHL DUP2 MSTORE SWAP3 DUP4 SWAP2 DUP3 SWAP1 GAS STATICCALL PUSH1 0x0 SWAP2 DUP2 PUSH2 0xB4C JUMPI JUMPDEST POP PUSH2 0xB43 JUMPI POP PUSH2 0xB3F PUSH1 0x40 MLOAD PUSH2 0xAFA PUSH1 0x40 DUP3 PUSH2 0xC5E JUMP JUMPDEST PUSH1 0xD DUP2 MSTORE PUSH13 0x2AB735B737BBB7102A37B5B2B7 PUSH1 0x99 SHL PUSH1 0x20 DUP3 ADD MSTORE JUMPDEST PUSH2 0xB31 PUSH1 0x40 MLOAD SWAP5 DUP6 SWAP5 DUP6 MSTORE PUSH1 0x60 PUSH1 0x20 DUP7 ADD MSTORE PUSH1 0x60 DUP6 ADD SWAP1 PUSH2 0xC08 JUMP JUMPDEST SWAP1 DUP4 DUP3 SUB PUSH1 0x40 DUP6 ADD MSTORE PUSH2 0xC08 JUMP JUMPDEST SUB SWAP1 RETURN JUMPDEST PUSH2 0xB3F SWAP1 PUSH2 0xB15 JUMP JUMPDEST PUSH2 0xB6A SWAP2 SWAP3 POP RETURNDATASIZE DUP1 PUSH1 0x0 DUP4 RETURNDATACOPY PUSH2 0xB62 DUP2 DUP4 PUSH2 0xC5E JUMP JUMPDEST DUP2 ADD SWAP1 PUSH2 0xC80 JUMP JUMPDEST SWAP1 DUP5 PUSH2 0xAE3 JUMP JUMPDEST PUSH1 0x0 PUSH1 0x4 SWAP2 SWAP4 PUSH2 0xAC6 JUMP JUMPDEST PUSH2 0xB91 SWAP3 SWAP4 POP RETURNDATASIZE DUP1 SWAP2 DUP4 RETURNDATACOPY PUSH2 0xB62 DUP2 DUP4 PUSH2 0xC5E JUMP JUMPDEST SWAP1 DUP5 DUP1 PUSH2 0xA97 JUMP JUMPDEST CALLVALUE PUSH2 0x25D JUMPI PUSH1 0x20 CALLDATASIZE PUSH1 0x3 NOT ADD SLT PUSH2 0x25D JUMPI PUSH1 0x20 SWAP1 PUSH1 0x1 PUSH1 0x1 PUSH1 0xA0 SHL SUB PUSH2 0xBBD PUSH2 0xBCF JUMP JUMPDEST AND PUSH1 0x0 MSTORE PUSH1 0x2 DUP3 MSTORE PUSH1 0x40 PUSH1 0x0 KECCAK256 SLOAD DUP2 MSTORE RETURN JUMPDEST PUSH1 0x4 CALLDATALOAD SWAP1 PUSH1 0x1 PUSH1 0x1 PUSH1 0xA0 SHL SUB DUP3 AND DUP3 SUB PUSH2 0x25D JUMPI JUMP JUMPDEST PUSH1 0x0 JUMPDEST DUP4 DUP2 LT PUSH2 0xBF8 JUMPI POP POP PUSH1 0x0 SWAP2 ADD MSTORE JUMP JUMPDEST DUP2 DUP2 ADD MLOAD DUP4 DUP3 ADD MSTORE PUSH1 0x20 ADD PUSH2 0xBE8 JUMP JUMPDEST SWAP1 PUSH1 0x20 SWAP2 PUSH2 0xC21 DUP2 MLOAD DUP1 SWAP3 DUP2 DUP6 MSTORE DUP6 DUP1 DUP7 ADD SWAP2 ADD PUSH2 0xBE5 JUMP JUMPDEST PUSH1 0x1F ADD PUSH1 0x1F NOT AND ADD ADD SWAP1 JUMP JUMPDEST PUSH1 0x3 SLOAD DUP2 LT ISZERO PUSH2 0xC48 JUMPI PUSH1 0x3 PUSH1 0x0 MSTORE PUSH1 0x20 PUSH1 0x0 KECCAK256 ADD SWAP1 PUSH1 0x0 SWAP1 JUMP JUMPDEST PUSH4 0x4E487B71 PUSH1 0xE0 SHL PUSH1 0x0 MSTORE PUSH1 0x32 PUSH1 0x4 MSTORE PUSH1 0x24 PUSH1 0x0 REVERT JUMPDEST SWAP1 PUSH1 0x1F DUP1 NOT SWAP2 ADD AND DUP2 ADD SWAP1 DUP2 LT PUSH8 0xFFFFFFFFFFFFFFFF DUP3 GT OR PUSH2 0x531 JUMPI PUSH1 0x40 MSTORE JUMP JUMPDEST PUSH1 0x20 DUP2 DUP4 SUB SLT PUSH2 0x25D JUMPI DUP1 MLOAD SWAP1 PUSH8 0xFFFFFFFFFFFFFFFF DUP3 GT PUSH2 0x25D JUMPI ADD DUP2 PUSH1 0x1F DUP3 ADD SLT ISZERO PUSH2 0x25D JUMPI DUP1 MLOAD PUSH8 0xFFFFFFFFFFFFFFFF DUP2 GT PUSH2 0x531 JUMPI PUSH1 0x40 MLOAD SWAP3 PUSH2 0xCD1 PUSH1 0x1F DUP4 ADD PUSH1 0x1F NOT AND PUSH1 0x20 ADD DUP6 PUSH2 0xC5E JUMP JUMPDEST DUP2 DUP5 MSTORE PUSH1 0x20 DUP3 DUP5 ADD ADD GT PUSH2 0x25D JUMPI PUSH2 0xCEF SWAP2 PUSH1 0x20 DUP1 DUP6 ADD SWAP2 ADD PUSH2 0xBE5 JUMP JUMPDEST SWAP1 JUMP JUMPDEST ISZERO PUSH2 0xCF9 JUMPI JUMP JUMPDEST PUSH1 0x40 MLOAD PUSH3 0x461BCD PUSH1 0xE5 SHL DUP2 MSTORE PUSH1 0x20 PUSH1 0x4 DUP3 ADD MSTORE PUSH1 0x15 PUSH1 0x24 DUP3 ADD MSTORE PUSH21 0x496E76616C696420746F6B656E2061646472657373 PUSH1 0x58 SHL PUSH1 0x44 DUP3 ADD MSTORE PUSH1 0x64 SWAP1 REVERT JUMPDEST ISZERO PUSH2 0xD3D JUMPI JUMP JUMPDEST PUSH1 0x40 MLOAD PUSH3 0x461BCD PUSH1 0xE5 SHL DUP2 MSTORE PUSH1 0x20 PUSH1 0x4 DUP3 ADD MSTORE PUSH1 0x2A PUSH1 0x24 DUP3 ADD MSTORE PUSH32 0x4D757374207761697420323420686F757273206265747765656E206661756365 PUSH1 0x44 DUP3 ADD MSTORE PUSH10 0x74207265717565737473 PUSH1 0xB0 SHL PUSH1 0x64 DUP3 ADD MSTORE PUSH1 0x84 SWAP1 REVERT JUMPDEST SWAP1 DUP2 PUSH1 0x20 SWAP2 SUB SLT PUSH2 0x25D JUMPI MLOAD DUP1 ISZERO ISZERO DUP2 SUB PUSH2 0x25D JUMPI SWAP1 JUMP JUMPDEST ISZERO PUSH2 0xDB4 JUMPI JUMP JUMPDEST PUSH1 0x40 MLOAD PUSH3 0x461BCD PUSH1 0xE5 SHL DUP2 MSTORE PUSH1 0x20 PUSH1 0x4 DUP3 ADD MSTORE PUSH1 0x1D PUSH1 0x24 DUP3 ADD MSTORE PUSH32 0x416D6F756E74206D7573742062652067726561746572207468616E2030000000 PUSH1 0x44 DUP3 ADD MSTORE PUSH1 0x64 SWAP1 REVERT JUMPDEST PUSH1 0x1 PUSH1 0x1 PUSH1 0xA0 SHL SUB AND PUSH1 0x0 SWAP1 DUP2 MSTORE PUSH1 0x1 PUSH1 0x20 MSTORE PUSH1 0x40 SWAP1 KECCAK256 SLOAD DUP1 ISZERO PUSH2 0xE46 JUMPI PUSH3 0x15180 DUP2 ADD SWAP1 DUP2 DUP2 GT PUSH2 0x20C JUMPI DUP2 TIMESTAMP LT ISZERO PUSH2 0xE3F JUMPI TIMESTAMP SWAP1 SUB PUSH3 0x15180 ADD SWAP1 DUP2 GT PUSH2 0x20C JUMPI SWAP1 JUMP JUMPDEST POP POP PUSH1 0x0 SWAP1 JUMP JUMPDEST POP PUSH1 0x0 SWAP1 JUMP JUMPDEST PUSH1 0x0 SLOAD PUSH1 0x1 PUSH1 0x1 PUSH1 0xA0 SHL SUB AND CALLER SUB PUSH2 0xE60 JUMPI JUMP JUMPDEST PUSH4 0x118CDAA7 PUSH1 0xE0 SHL PUSH1 0x0 MSTORE CALLER PUSH1 0x4 MSTORE PUSH1 0x24 PUSH1 0x0 REVERT INVALID LOG2 PUSH5 0x6970667358 0x22 SLT KECCAK256 0xA6 PUSH10 0x24A724FACA33119E4B47 DUP13 PUSH28 0xC36B4150E9F136D70238DAF58F0EC45FE42564736F6C634300081C00 CALLER "},"methodIdentifiers":{"FAUCET_COOLDOWN()":"7d1d5d19","addToken(address,uint256)":"af81c5b9","emergencyWithdraw(address,uint256)":"95ccea67","faucetAmounts(address)":"14c47fbd","getSupportedTokens()":"d3c7c2c7","getTimeUntilNextFaucet(address)":"e21430d3","getTokenInfo(address)":"1f69565f","lastFaucetTime(address)":"7bc1f6cc","owner()":"8da5cb5b","removeToken(address)":"5fa7b584","renounceOwnership()":"715018a6","requestAllFaucets()":"ffc80e55","requestFaucet(address)":"2a707541","supportedTokens(uint256)":"c6255626","transferOwnership(address)":"f2fde38b","updateFaucetAmount(address,uint256)":"3e6a099c"}}}}}