{"contracts/SimpleDEX.sol":{"SimpleDEX":{"abi":[{"anonymous":false,"inputs":[{"indexed":true,"internalType":"address","name":"token0","type":"address"},{"indexed":true,"internalType":"address","name":"token1","type":"address"},{"indexed":false,"internalType":"uint256","name":"amount0","type":"uint256"},{"indexed":false,"internalType":"uint256","name":"amount1","type":"uint256"},{"indexed":false,"internalType":"uint256","name":"liquidity","type":"uint256"},{"indexed":true,"internalType":"address","name":"provider","type":"address"}],"name":"LiquidityAdded","type":"event"},{"anonymous":false,"inputs":[{"indexed":true,"internalType":"address","name":"token0","type":"address"},{"indexed":true,"internalType":"address","name":"token1","type":"address"},{"indexed":false,"internalType":"uint256","name":"amount0","type":"uint256"},{"indexed":false,"internalType":"uint256","name":"amount1","type":"uint256"},{"indexed":false,"internalType":"uint256","name":"liquidity","type":"uint256"},{"indexed":true,"internalType":"address","name":"provider","type":"address"}],"name":"LiquidityRemoved","type":"event"},{"anonymous":false,"inputs":[{"indexed":true,"internalType":"address","name":"tokenIn","type":"address"},{"indexed":true,"internalType":"address","name":"tokenOut","type":"address"},{"indexed":false,"internalType":"uint256","name":"amountIn","type":"uint256"},{"indexed":false,"internalType":"uint256","name":"amountOut","type":"uint256"},{"indexed":true,"internalType":"address","name":"trader","type":"address"}],"name":"Swap","type":"event"},{"inputs":[],"name":"FEE_DENOMINATOR","outputs":[{"internalType":"uint256","name":"","type":"uint256"}],"stateMutability":"view","type":"function"},{"inputs":[],"name":"SWAP_FEE","outputs":[{"internalType":"uint256","name":"","type":"uint256"}],"stateMutability":"view","type":"function"},{"inputs":[{"internalType":"address","name":"token0","type":"address"},{"internalType":"address","name":"token1","type":"address"},{"internalType":"uint256","name":"amount0Desired","type":"uint256"},{"internalType":"uint256","name":"amount1Desired","type":"uint256"}],"name":"addLiquidity","outputs":[{"internalType":"uint256","name":"liquidity","type":"uint256"}],"stateMutability":"nonpayable","type":"function"},{"inputs":[{"internalType":"address","name":"token0","type":"address"},{"internalType":"address","name":"token1","type":"address"},{"internalType":"address","name":"user","type":"address"}],"name":"getBalance","outputs":[{"internalType":"uint256","name":"","type":"uint256"}],"stateMutability":"view","type":"function"},{"inputs":[{"internalType":"address","name":"token0","type":"address"},{"internalType":"address","name":"token1","type":"address"}],"name":"getLiquidity","outputs":[{"internalType":"uint256","name":"","type":"uint256"}],"stateMutability":"view","type":"function"},{"inputs":[{"internalType":"address","name":"token0","type":"address"},{"internalType":"address","name":"token1","type":"address"}],"name":"getPrice","outputs":[{"internalType":"uint256","name":"","type":"uint256"}],"stateMutability":"view","type":"function"},{"inputs":[{"internalType":"address","name":"token0","type":"address"},{"internalType":"address","name":"token1","type":"address"}],"name":"getReserves","outputs":[{"internalType":"uint256","name":"reserve0","type":"uint256"},{"internalType":"uint256","name":"reserve1","type":"uint256"}],"stateMutability":"view","type":"function"},{"inputs":[{"internalType":"address","name":"","type":"address"},{"internalType":"address","name":"","type":"address"}],"name":"pools","outputs":[{"internalType":"uint256","name":"reserve0","type":"uint256"},{"internalType":"uint256","name":"reserve1","type":"uint256"},{"internalType":"uint256","name":"totalSupply","type":"uint256"}],"stateMutability":"view","type":"function"},{"inputs":[{"internalType":"address","name":"token0","type":"address"},{"internalType":"address","name":"token1","type":"address"},{"internalType":"uint256","name":"liquidity","type":"uint256"}],"name":"removeLiquidity","outputs":[{"internalType":"uint256","name":"amount0","type":"uint256"},{"internalType":"uint256","name":"amount1","type":"uint256"}],"stateMutability":"nonpayable","type":"function"},{"inputs":[{"internalType":"address","name":"tokenIn","type":"address"},{"internalType":"address","name":"tokenOut","type":"address"},{"internalType":"uint256","name":"amountIn","type":"uint256"}],"name":"swap","outputs":[{"internalType":"uint256","name":"amountOut","type":"uint256"}],"stateMutability":"nonpayable","type":"function"},{"inputs":[{"internalType":"address","name":"tokenIn","type":"address"},{"internalType":"address","name":"tokenOut","type":"address"},{"internalType":"uint256","name":"amountIn","type":"uint256"}],"name":"swapExactTokensForTokens","outputs":[{"internalType":"uint256","name":"amountOut","type":"uint256"}],"stateMutability":"nonpayable","type":"function"},{"inputs":[{"internalType":"address","name":"tokenIn","type":"address"},{"internalType":"address","name":"tokenOut","type":"address"},{"internalType":"uint256","name":"amountOut","type":"uint256"}],"name":"swapTokensForExactTokens","outputs":[{"internalType":"uint256","name":"amountIn","type":"uint256"}],"stateMutability":"nonpayable","type":"function"}],"evm":{"bytecode":{"linkReferences":{},"object":"60808060405234601557611056908161001b8239f35b600080fdfe6080604052600436101561001257600080fd5b60003560e01c80634b916e6714610880578063768aebde14610864578063901754d7146107f8578063ac41865a146107c4578063bdedcbc014610113578063cf6c62ea146104c9578063d52bb6f41461044f578063d6bd603c146103b3578063d73792a914610396578063d752fab214610118578063df791e50146101135763ea526de7146100a057600080fd5b3461010e57604036600319011261010e576100b9610a6f565b6100c1610a85565b906001600160a01b038083169082161015610108575b6001600160a01b03908116600090815260208181526040808320949093168252928352819020600201549051908152f35b906100d7565b600080fd5b610ad5565b3461010e5761012636610a9b565b90916001600160a01b0380841690821661014281831415610cdc565b61014d841515610f72565b1015610390575b6001600160a01b039081166000818152602081815260408083209487168352938152838220338352600381019182905293909120549194929390929091821161034b576101a2845483610e63565b60028501946101b386548093610e76565b956101cc60018301936101c7855488610e63565b610e76565b9587151580610342575b6101df90610f72565b60018060a01b03331660005260205260406000206101fe868254610fbe565b905561020b858254610fbe565b9055610218868254610fbe565b9055610225848254610fbe565b905560405163a9059cbb60e01b81523360048201526024810185905260208160448160008a5af1801561031957610325575b5060405163a9059cbb60e01b815233600482015260248101849052946001600160a01b0391909116906020866044816000865af1958615610319576040966102ec575b507faa29d8bbadb22be3bb6dbe493ae8a0f5b6bba22ed4da0ab6c4808bab559de8358651806102dd3396888a846040919493926060820195825260208201520152565b0390a482519182526020820152f35b61030d9060203d602011610312575b6103058183610dfb565b810190610e33565b61029a565b503d6102fb565b6040513d6000823e3d90fd5b61033d9060203d602011610312576103058183610dfb565b610257565b508615156101d6565b60405162461bcd60e51b815260206004820152601e60248201527f494e53554646494349454e545f4c49515549444954595f42414c414e434500006044820152606490fd5b91610154565b3461010e57600036600319011261010e5760206040516103e88152f35b3461010e57606036600319011261010e576103cc610a6f565b6103d4610a85565b604435906001600160a01b038216820361010e576003926001600160a01b038281169082161015610449575b60018060a01b0316600052600060205260406000209060018060a01b031660005260205260406000209060018060a01b0316600052016020526020604060002054604051908152f35b90610400565b3461010e57604036600319011261010e57610468610a6f565b610470610a85565b906001600160a01b0380831690821610156104c3575b60018060a01b0316600052600060205260406000209060018060a01b03166000526020526040806000206001815491015482519182526020820152f35b90610486565b3461010e57608036600319011261010e576104e2610a6f565b6104ea610a85565b6064356044356001600160a01b0383811690851661050a81831415610cdc565b821515806107bb575b61051c90610daf565b109384156107b55792935b156107af5790915b6001600160a01b03908116600081815260208181526040808320948816835293815283822093516323b872dd60e01b815233600482015230602482015260448101869052939692939182906064908290875af1801561031957610792575b506040516323b872dd60e01b8152336004820152306024820152604481018590526001600160a01b039190911691906020816064816000875af1801561031957610775575b50600285018054959086610731576105ea8686610e63565b600060038211156107235750808060011c6001810180911161070d57905b8282106106ee5750505b955b86156106a957600383889361066a8560209c6106528c7fa7c0bc175494aac705fdccdb501213f94fb9a6f1dd9be0b3488298cb2dc160889a54610f65565b855560018501610663888254610f65565b9055610f65565b905533600090815291018952604090208054610687908490610f65565b90556040805196875260208701919091528501523393606090a4604051908152f35b60405162461bcd60e51b815260206004820152601d60248201527f494e53554646494349454e545f4c49515549444954595f4d494e5445440000006044820152606490fd5b909150610704826106ff8184610e76565b610f65565b60011c90610608565b634e487b7160e01b600052601160045260246000fd5b901561061257506001610612565b61074661073e8887610e63565b835490610e76565b61075e6107538989610e63565b600185015490610e76565b8082101561076e57505b95610614565b9050610768565b61078d9060203d602011610312576103058183610dfb565b6105d2565b6107aa9060203d602011610312576103058183610dfb565b61058d565b9161052f565b93610527565b50831515610513565b3461010e57604036600319011261010e5760206107f06107e2610a6f565b6107ea610a85565b90610e96565b604051908152f35b3461010e57604036600319011261010e576040610813610a6f565b61081b610a85565b6001600160a01b03918216600090815260208181528482209290931681529082529190912080546001820154600290920154604080519283529382019290925291820152606090f35b3461010e57600036600319011261010e57602060405160038152f35b3461010e5761088e36610a9b565b6001600160a01b0383811693908316906108aa85831415610cdc565b6108b5831515610d1e565b8185108015610a6657604085835b60018060a01b031660005260006020528160002060009160018060a01b031682526020522090815480151580610a59575b6108fd90610d6a565b8115610a4b5761090d8682610e63565b906103e88202918083046103e8149015171561070d576109409215610a42575061093a6001840154610e4b565b90610e76565b946001860180961161070d57610957861515610daf565b6040516323b872dd60e01b8152336004820152306024820152604481018790529260208460648160008c5af19384156103195761099b94610a25575b508587610fcb565b60405163a9059cbb60e01b815233600482015260248101839052936020856044816000865af194851561031957602095610a0a575b5060405192848452858401527fb39c9bc43f811e1a7ce159c5f147458fdb80266bf23c17322013316e27e086d060403394a4604051908152f35b610a2090863d8811610312576103058183610dfb565b6109d0565b610a3d9060203d602011610312576103058183610dfb565b610993565b61093a90610e4b565b61090d866001850154610e63565b50600183015415156108f4565b604082866108c3565b600435906001600160a01b038216820361010e57565b602435906001600160a01b038216820361010e57565b606090600319011261010e576004356001600160a01b038116810361010e57906024356001600160a01b038116810361010e579060443590565b3461010e57610ae336610a9b565b6001600160a01b03808416939290811690600090610b0386841415610cdc565b610b0e841515610daf565b8286108015610cd55781865b60018060a01b0316845283602052604084209060018060a01b0316845260205260408320928354151580610cc8575b610b5290610d6a565b6040516323b872dd60e01b815233600482015230602482015260448101879052602081606481858d5af18015610cbd57610ca0575b50610b9186610e4b565b908215610c9657610ba760018601545b83610e63565b9215610c8b578454905b6103e88202918083046103e81490151715610c7757509161093a610bda92610bed969594610f65565b95610be6871515610d1e565b8686610fcb565b60405163a9059cbb60e01b815233600482015260248101849052936020856044816000865af194851561031957602095610c5c575b5060405192835283858401527fb39c9bc43f811e1a7ce159c5f147458fdb80266bf23c17322013316e27e086d060403394a4604051908152f35b610c7290863d8811610312576103058183610dfb565b610c22565b634e487b7160e01b81526011600452602490fd5b600185015490610bb1565b610ba78554610ba1565b610cb89060203d602011610312576103058183610dfb565b610b87565b6040513d84823e3d90fd5b5060018401541515610b49565b8582610b1a565b15610ce357565b60405162461bcd60e51b81526020600482015260136024820152724944454e544943414c5f41444452455353455360681b6044820152606490fd5b15610d2557565b60405162461bcd60e51b815260206004820152601a60248201527f494e53554646494349454e545f4f55545055545f414d4f554e540000000000006044820152606490fd5b15610d7157565b60405162461bcd60e51b8152602060048201526016602482015275494e53554646494349454e545f4c495155494449545960501b6044820152606490fd5b15610db657565b60405162461bcd60e51b815260206004820152601960248201527f494e53554646494349454e545f494e5055545f414d4f554e54000000000000006044820152606490fd5b90601f8019910116810190811067ffffffffffffffff821117610e1d57604052565b634e487b7160e01b600052604160045260246000fd5b9081602091031261010e5751801515810361010e5790565b906103e58202918083046103e5149015171561070d57565b8181029291811591840414171561070d57565b8115610e80570490565b634e487b7160e01b600052601260045260246000fd5b6001600160a01b0380831690821610916040918315610f5f575b6001600160a01b03908116600090815260208181528482209390921681529190522080549091811590818015610f53575b610f4a5715610f1e5750906001015490670de0b6b3a7640000820291808304670de0b6b3a7640000149015171561070d57610f1b91610e76565b90565b670de0b6b3a76400008202918204670de0b6b3a764000014171561070d576001610f1b92015490610e76565b50505050600090565b50600184015415610ee1565b90610eb0565b9190820180921161070d57565b15610f7957565b60405162461bcd60e51b815260206004820152601d60248201527f494e53554646494349454e545f4c49515549444954595f4255524e45440000006044820152606490fd5b9190820391821161070d57565b90939290916001600160a01b03918216911610156110035781610ff4600192610fff9454610f65565b815501918254610fbe565b9055565b9181611015600192610fff9454610fbe565b815501918254610f6556fea2646970667358221220d2470ffc1f9de4c6d7a675ea8f30f5936a67099b904349376e4b40f2b556857364736f6c634300081c0033","opcodes":"PUSH1 0x80 DUP1 PUSH1 0x40 MSTORE CALLVALUE PUSH1 0x15 JUMPI PUSH2 0x1056 SWAP1 DUP2 PUSH2 0x1B DUP3 CODECOPY RETURN JUMPDEST PUSH1 0x0 DUP1 REVERT INVALID PUSH1 0x80 PUSH1 0x40 MSTORE PUSH1 0x4 CALLDATASIZE LT ISZERO PUSH2 0x12 JUMPI PUSH1 0x0 DUP1 REVERT JUMPDEST PUSH1 0x0 CALLDATALOAD PUSH1 0xE0 SHR DUP1 PUSH4 0x4B916E67 EQ PUSH2 0x880 JUMPI DUP1 PUSH4 0x768AEBDE EQ PUSH2 0x864 JUMPI DUP1 PUSH4 0x901754D7 EQ PUSH2 0x7F8 JUMPI DUP1 PUSH4 0xAC41865A EQ PUSH2 0x7C4 JUMPI DUP1 PUSH4 0xBDEDCBC0 EQ PUSH2 0x113 JUMPI DUP1 PUSH4 0xCF6C62EA EQ PUSH2 0x4C9 JUMPI DUP1 PUSH4 0xD52BB6F4 EQ PUSH2 0x44F JUMPI DUP1 PUSH4 0xD6BD603C EQ PUSH2 0x3B3 JUMPI DUP1 PUSH4 0xD73792A9 EQ PUSH2 0x396 JUMPI DUP1 PUSH4 0xD752FAB2 EQ PUSH2 0x118 JUMPI DUP1 PUSH4 0xDF791E50 EQ PUSH2 0x113 JUMPI PUSH4 0xEA526DE7 EQ PUSH2 0xA0 JUMPI PUSH1 0x0 DUP1 REVERT JUMPDEST CALLVALUE PUSH2 0x10E JUMPI PUSH1 0x40 CALLDATASIZE PUSH1 0x3 NOT ADD SLT PUSH2 0x10E JUMPI PUSH2 0xB9 PUSH2 0xA6F JUMP JUMPDEST PUSH2 0xC1 PUSH2 0xA85 JUMP JUMPDEST SWAP1 PUSH1 0x1 PUSH1 0x1 PUSH1 0xA0 SHL SUB DUP1 DUP4 AND SWAP1 DUP3 AND LT ISZERO PUSH2 0x108 JUMPI JUMPDEST PUSH1 0x1 PUSH1 0x1 PUSH1 0xA0 SHL SUB SWAP1 DUP2 AND PUSH1 0x0 SWAP1 DUP2 MSTORE PUSH1 0x20 DUP2 DUP2 MSTORE PUSH1 0x40 DUP1 DUP4 KECCAK256 SWAP5 SWAP1 SWAP4 AND DUP3 MSTORE SWAP3 DUP4 MSTORE DUP2 SWAP1 KECCAK256 PUSH1 0x2 ADD SLOAD SWAP1 MLOAD SWAP1 DUP2 MSTORE RETURN JUMPDEST SWAP1 PUSH2 0xD7 JUMP JUMPDEST PUSH1 0x0 DUP1 REVERT JUMPDEST PUSH2 0xAD5 JUMP JUMPDEST CALLVALUE PUSH2 0x10E JUMPI PUSH2 0x126 CALLDATASIZE PUSH2 0xA9B JUMP JUMPDEST SWAP1 SWAP2 PUSH1 0x1 PUSH1 0x1 PUSH1 0xA0 SHL SUB DUP1 DUP5 AND SWAP1 DUP3 AND PUSH2 0x142 DUP2 DUP4 EQ ISZERO PUSH2 0xCDC JUMP JUMPDEST PUSH2 0x14D DUP5 ISZERO ISZERO PUSH2 0xF72 JUMP JUMPDEST LT ISZERO PUSH2 0x390 JUMPI JUMPDEST PUSH1 0x1 PUSH1 0x1 PUSH1 0xA0 SHL SUB SWAP1 DUP2 AND PUSH1 0x0 DUP2 DUP2 MSTORE PUSH1 0x20 DUP2 DUP2 MSTORE PUSH1 0x40 DUP1 DUP4 KECCAK256 SWAP5 DUP8 AND DUP4 MSTORE SWAP4 DUP2 MSTORE DUP4 DUP3 KECCAK256 CALLER DUP4 MSTORE PUSH1 0x3 DUP2 ADD SWAP2 DUP3 SWAP1 MSTORE SWAP4 SWAP1 SWAP2 KECCAK256 SLOAD SWAP2 SWAP5 SWAP3 SWAP4 SWAP1 SWAP3 SWAP1 SWAP2 DUP3 GT PUSH2 0x34B JUMPI PUSH2 0x1A2 DUP5 SLOAD DUP4 PUSH2 0xE63 JUMP JUMPDEST PUSH1 0x2 DUP6 ADD SWAP5 PUSH2 0x1B3 DUP7 SLOAD DUP1 SWAP4 PUSH2 0xE76 JUMP JUMPDEST SWAP6 PUSH2 0x1CC PUSH1 0x1 DUP4 ADD SWAP4 PUSH2 0x1C7 DUP6 SLOAD DUP9 PUSH2 0xE63 JUMP JUMPDEST PUSH2 0xE76 JUMP JUMPDEST SWAP6 DUP8 ISZERO ISZERO DUP1 PUSH2 0x342 JUMPI JUMPDEST PUSH2 0x1DF SWAP1 PUSH2 0xF72 JUMP JUMPDEST PUSH1 0x1 DUP1 PUSH1 0xA0 SHL SUB CALLER AND PUSH1 0x0 MSTORE PUSH1 0x20 MSTORE PUSH1 0x40 PUSH1 0x0 KECCAK256 PUSH2 0x1FE DUP7 DUP3 SLOAD PUSH2 0xFBE JUMP JUMPDEST SWAP1 SSTORE PUSH2 0x20B DUP6 DUP3 SLOAD PUSH2 0xFBE JUMP JUMPDEST SWAP1 SSTORE PUSH2 0x218 DUP7 DUP3 SLOAD PUSH2 0xFBE JUMP JUMPDEST SWAP1 SSTORE PUSH2 0x225 DUP5 DUP3 SLOAD PUSH2 0xFBE JUMP JUMPDEST SWAP1 SSTORE PUSH1 0x40 MLOAD PUSH4 0xA9059CBB PUSH1 0xE0 SHL DUP2 MSTORE CALLER PUSH1 0x4 DUP3 ADD MSTORE PUSH1 0x24 DUP2 ADD DUP6 SWAP1 MSTORE PUSH1 0x20 DUP2 PUSH1 0x44 DUP2 PUSH1 0x0 DUP11 GAS CALL DUP1 ISZERO PUSH2 0x319 JUMPI PUSH2 0x325 JUMPI JUMPDEST POP PUSH1 0x40 MLOAD PUSH4 0xA9059CBB PUSH1 0xE0 SHL DUP2 MSTORE CALLER PUSH1 0x4 DUP3 ADD MSTORE PUSH1 0x24 DUP2 ADD DUP5 SWAP1 MSTORE SWAP5 PUSH1 0x1 PUSH1 0x1 PUSH1 0xA0 SHL SUB SWAP2 SWAP1 SWAP2 AND SWAP1 PUSH1 0x20 DUP7 PUSH1 0x44 DUP2 PUSH1 0x0 DUP7 GAS CALL SWAP6 DUP7 ISZERO PUSH2 0x319 JUMPI PUSH1 0x40 SWAP7 PUSH2 0x2EC JUMPI JUMPDEST POP PUSH32 0xAA29D8BBADB22BE3BB6DBE493AE8A0F5B6BBA22ED4DA0AB6C4808BAB559DE835 DUP7 MLOAD DUP1 PUSH2 0x2DD CALLER SWAP7 DUP9 DUP11 DUP5 PUSH1 0x40 SWAP2 SWAP5 SWAP4 SWAP3 PUSH1 0x60 DUP3 ADD SWAP6 DUP3 MSTORE PUSH1 0x20 DUP3 ADD MSTORE ADD MSTORE JUMP JUMPDEST SUB SWAP1 LOG4 DUP3 MLOAD SWAP2 DUP3 MSTORE PUSH1 0x20 DUP3 ADD MSTORE RETURN JUMPDEST PUSH2 0x30D SWAP1 PUSH1 0x20 RETURNDATASIZE PUSH1 0x20 GT PUSH2 0x312 JUMPI JUMPDEST PUSH2 0x305 DUP2 DUP4 PUSH2 0xDFB JUMP JUMPDEST DUP2 ADD SWAP1 PUSH2 0xE33 JUMP JUMPDEST PUSH2 0x29A JUMP JUMPDEST POP RETURNDATASIZE PUSH2 0x2FB JUMP JUMPDEST PUSH1 0x40 MLOAD RETURNDATASIZE PUSH1 0x0 DUP3 RETURNDATACOPY RETURNDATASIZE SWAP1 REVERT JUMPDEST PUSH2 0x33D SWAP1 PUSH1 0x20 RETURNDATASIZE PUSH1 0x20 GT PUSH2 0x312 JUMPI PUSH2 0x305 DUP2 DUP4 PUSH2 0xDFB JUMP JUMPDEST PUSH2 0x257 JUMP JUMPDEST POP DUP7 ISZERO ISZERO PUSH2 0x1D6 JUMP JUMPDEST PUSH1 0x40 MLOAD PUSH3 0x461BCD PUSH1 0xE5 SHL DUP2 MSTORE PUSH1 0x20 PUSH1 0x4 DUP3 ADD MSTORE PUSH1 0x1E PUSH1 0x24 DUP3 ADD MSTORE PUSH32 0x494E53554646494349454E545F4C49515549444954595F42414C414E43450000 PUSH1 0x44 DUP3 ADD MSTORE PUSH1 0x64 SWAP1 REVERT JUMPDEST SWAP2 PUSH2 0x154 JUMP JUMPDEST CALLVALUE PUSH2 0x10E JUMPI PUSH1 0x0 CALLDATASIZE PUSH1 0x3 NOT ADD SLT PUSH2 0x10E JUMPI PUSH1 0x20 PUSH1 0x40 MLOAD PUSH2 0x3E8 DUP2 MSTORE RETURN JUMPDEST CALLVALUE PUSH2 0x10E JUMPI PUSH1 0x60 CALLDATASIZE PUSH1 0x3 NOT ADD SLT PUSH2 0x10E JUMPI PUSH2 0x3CC PUSH2 0xA6F JUMP JUMPDEST PUSH2 0x3D4 PUSH2 0xA85 JUMP JUMPDEST PUSH1 0x44 CALLDATALOAD SWAP1 PUSH1 0x1 PUSH1 0x1 PUSH1 0xA0 SHL SUB DUP3 AND DUP3 SUB PUSH2 0x10E JUMPI PUSH1 0x3 SWAP3 PUSH1 0x1 PUSH1 0x1 PUSH1 0xA0 SHL SUB DUP3 DUP2 AND SWAP1 DUP3 AND LT ISZERO PUSH2 0x449 JUMPI JUMPDEST PUSH1 0x1 DUP1 PUSH1 0xA0 SHL SUB AND PUSH1 0x0 MSTORE PUSH1 0x0 PUSH1 0x20 MSTORE PUSH1 0x40 PUSH1 0x0 KECCAK256 SWAP1 PUSH1 0x1 DUP1 PUSH1 0xA0 SHL SUB AND PUSH1 0x0 MSTORE PUSH1 0x20 MSTORE PUSH1 0x40 PUSH1 0x0 KECCAK256 SWAP1 PUSH1 0x1 DUP1 PUSH1 0xA0 SHL SUB AND PUSH1 0x0 MSTORE ADD PUSH1 0x20 MSTORE PUSH1 0x20 PUSH1 0x40 PUSH1 0x0 KECCAK256 SLOAD PUSH1 0x40 MLOAD SWAP1 DUP2 MSTORE RETURN JUMPDEST SWAP1 PUSH2 0x400 JUMP JUMPDEST CALLVALUE PUSH2 0x10E JUMPI PUSH1 0x40 CALLDATASIZE PUSH1 0x3 NOT ADD SLT PUSH2 0x10E JUMPI PUSH2 0x468 PUSH2 0xA6F JUMP JUMPDEST PUSH2 0x470 PUSH2 0xA85 JUMP JUMPDEST SWAP1 PUSH1 0x1 PUSH1 0x1 PUSH1 0xA0 SHL SUB DUP1 DUP4 AND SWAP1 DUP3 AND LT ISZERO PUSH2 0x4C3 JUMPI JUMPDEST PUSH1 0x1 DUP1 PUSH1 0xA0 SHL SUB AND PUSH1 0x0 MSTORE PUSH1 0x0 PUSH1 0x20 MSTORE PUSH1 0x40 PUSH1 0x0 KECCAK256 SWAP1 PUSH1 0x1 DUP1 PUSH1 0xA0 SHL SUB AND PUSH1 0x0 MSTORE PUSH1 0x20 MSTORE PUSH1 0x40 DUP1 PUSH1 0x0 KECCAK256 PUSH1 0x1 DUP2 SLOAD SWAP2 ADD SLOAD DUP3 MLOAD SWAP2 DUP3 MSTORE PUSH1 0x20 DUP3 ADD MSTORE RETURN JUMPDEST SWAP1 PUSH2 0x486 JUMP JUMPDEST CALLVALUE PUSH2 0x10E JUMPI PUSH1 0x80 CALLDATASIZE PUSH1 0x3 NOT ADD SLT PUSH2 0x10E JUMPI PUSH2 0x4E2 PUSH2 0xA6F JUMP JUMPDEST PUSH2 0x4EA PUSH2 0xA85 JUMP JUMPDEST PUSH1 0x64 CALLDATALOAD PUSH1 0x44 CALLDATALOAD PUSH1 0x1 PUSH1 0x1 PUSH1 0xA0 SHL SUB DUP4 DUP2 AND SWAP1 DUP6 AND PUSH2 0x50A DUP2 DUP4 EQ ISZERO PUSH2 0xCDC JUMP JUMPDEST DUP3 ISZERO ISZERO DUP1 PUSH2 0x7BB JUMPI JUMPDEST PUSH2 0x51C SWAP1 PUSH2 0xDAF JUMP JUMPDEST LT SWAP4 DUP5 ISZERO PUSH2 0x7B5 JUMPI SWAP3 SWAP4 JUMPDEST ISZERO PUSH2 0x7AF JUMPI SWAP1 SWAP2 JUMPDEST PUSH1 0x1 PUSH1 0x1 PUSH1 0xA0 SHL SUB SWAP1 DUP2 AND PUSH1 0x0 DUP2 DUP2 MSTORE PUSH1 0x20 DUP2 DUP2 MSTORE PUSH1 0x40 DUP1 DUP4 KECCAK256 SWAP5 DUP9 AND DUP4 MSTORE SWAP4 DUP2 MSTORE DUP4 DUP3 KECCAK256 SWAP4 MLOAD PUSH4 0x23B872DD PUSH1 0xE0 SHL DUP2 MSTORE CALLER PUSH1 0x4 DUP3 ADD MSTORE ADDRESS PUSH1 0x24 DUP3 ADD MSTORE PUSH1 0x44 DUP2 ADD DUP7 SWAP1 MSTORE SWAP4 SWAP7 SWAP3 SWAP4 SWAP2 DUP3 SWAP1 PUSH1 0x64 SWAP1 DUP3 SWAP1 DUP8 GAS CALL DUP1 ISZERO PUSH2 0x319 JUMPI PUSH2 0x792 JUMPI JUMPDEST POP PUSH1 0x40 MLOAD PUSH4 0x23B872DD PUSH1 0xE0 SHL DUP2 MSTORE CALLER PUSH1 0x4 DUP3 ADD MSTORE ADDRESS PUSH1 0x24 DUP3 ADD MSTORE PUSH1 0x44 DUP2 ADD DUP6 SWAP1 MSTORE PUSH1 0x1 PUSH1 0x1 PUSH1 0xA0 SHL SUB SWAP2 SWAP1 SWAP2 AND SWAP2 SWAP1 PUSH1 0x20 DUP2 PUSH1 0x64 DUP2 PUSH1 0x0 DUP8 GAS CALL DUP1 ISZERO PUSH2 0x319 JUMPI PUSH2 0x775 JUMPI JUMPDEST POP PUSH1 0x2 DUP6 ADD DUP1 SLOAD SWAP6 SWAP1 DUP7 PUSH2 0x731 JUMPI PUSH2 0x5EA DUP7 DUP7 PUSH2 0xE63 JUMP JUMPDEST PUSH1 0x0 PUSH1 0x3 DUP3 GT ISZERO PUSH2 0x723 JUMPI POP DUP1 DUP1 PUSH1 0x1 SHR PUSH1 0x1 DUP2 ADD DUP1 SWAP2 GT PUSH2 0x70D JUMPI SWAP1 JUMPDEST DUP3 DUP3 LT PUSH2 0x6EE JUMPI POP POP JUMPDEST SWAP6 JUMPDEST DUP7 ISZERO PUSH2 0x6A9 JUMPI PUSH1 0x3 DUP4 DUP9 SWAP4 PUSH2 0x66A DUP6 PUSH1 0x20 SWAP13 PUSH2 0x652 DUP13 PUSH32 0xA7C0BC175494AAC705FDCCDB501213F94FB9A6F1DD9BE0B3488298CB2DC16088 SWAP11 SLOAD PUSH2 0xF65 JUMP JUMPDEST DUP6 SSTORE PUSH1 0x1 DUP6 ADD PUSH2 0x663 DUP9 DUP3 SLOAD PUSH2 0xF65 JUMP JUMPDEST SWAP1 SSTORE PUSH2 0xF65 JUMP JUMPDEST SWAP1 SSTORE CALLER PUSH1 0x0 SWAP1 DUP2 MSTORE SWAP2 ADD DUP10 MSTORE PUSH1 0x40 SWAP1 KECCAK256 DUP1 SLOAD PUSH2 0x687 SWAP1 DUP5 SWAP1 PUSH2 0xF65 JUMP JUMPDEST SWAP1 SSTORE PUSH1 0x40 DUP1 MLOAD SWAP7 DUP8 MSTORE PUSH1 0x20 DUP8 ADD SWAP2 SWAP1 SWAP2 MSTORE DUP6 ADD MSTORE CALLER SWAP4 PUSH1 0x60 SWAP1 LOG4 PUSH1 0x40 MLOAD SWAP1 DUP2 MSTORE RETURN JUMPDEST PUSH1 0x40 MLOAD PUSH3 0x461BCD PUSH1 0xE5 SHL DUP2 MSTORE PUSH1 0x20 PUSH1 0x4 DUP3 ADD MSTORE PUSH1 0x1D PUSH1 0x24 DUP3 ADD MSTORE PUSH32 0x494E53554646494349454E545F4C49515549444954595F4D494E544544000000 PUSH1 0x44 DUP3 ADD MSTORE PUSH1 0x64 SWAP1 REVERT JUMPDEST SWAP1 SWAP2 POP PUSH2 0x704 DUP3 PUSH2 0x6FF DUP2 DUP5 PUSH2 0xE76 JUMP JUMPDEST PUSH2 0xF65 JUMP JUMPDEST PUSH1 0x1 SHR SWAP1 PUSH2 0x608 JUMP JUMPDEST PUSH4 0x4E487B71 PUSH1 0xE0 SHL PUSH1 0x0 MSTORE PUSH1 0x11 PUSH1 0x4 MSTORE PUSH1 0x24 PUSH1 0x0 REVERT JUMPDEST SWAP1 ISZERO PUSH2 0x612 JUMPI POP PUSH1 0x1 PUSH2 0x612 JUMP JUMPDEST PUSH2 0x746 PUSH2 0x73E DUP9 DUP8 PUSH2 0xE63 JUMP JUMPDEST DUP4 SLOAD SWAP1 PUSH2 0xE76 JUMP JUMPDEST PUSH2 0x75E PUSH2 0x753 DUP10 DUP10 PUSH2 0xE63 JUMP JUMPDEST PUSH1 0x1 DUP6 ADD SLOAD SWAP1 PUSH2 0xE76 JUMP JUMPDEST DUP1 DUP3 LT ISZERO PUSH2 0x76E JUMPI POP JUMPDEST SWAP6 PUSH2 0x614 JUMP JUMPDEST SWAP1 POP PUSH2 0x768 JUMP JUMPDEST PUSH2 0x78D SWAP1 PUSH1 0x20 RETURNDATASIZE PUSH1 0x20 GT PUSH2 0x312 JUMPI PUSH2 0x305 DUP2 DUP4 PUSH2 0xDFB JUMP JUMPDEST PUSH2 0x5D2 JUMP JUMPDEST PUSH2 0x7AA SWAP1 PUSH1 0x20 RETURNDATASIZE PUSH1 0x20 GT PUSH2 0x312 JUMPI PUSH2 0x305 DUP2 DUP4 PUSH2 0xDFB JUMP JUMPDEST PUSH2 0x58D JUMP JUMPDEST SWAP2 PUSH2 0x52F JUMP JUMPDEST SWAP4 PUSH2 0x527 JUMP JUMPDEST POP DUP4 ISZERO ISZERO PUSH2 0x513 JUMP JUMPDEST CALLVALUE PUSH2 0x10E JUMPI PUSH1 0x40 CALLDATASIZE PUSH1 0x3 NOT ADD SLT PUSH2 0x10E JUMPI PUSH1 0x20 PUSH2 0x7F0 PUSH2 0x7E2 PUSH2 0xA6F JUMP JUMPDEST PUSH2 0x7EA PUSH2 0xA85 JUMP JUMPDEST SWAP1 PUSH2 0xE96 JUMP JUMPDEST PUSH1 0x40 MLOAD SWAP1 DUP2 MSTORE RETURN JUMPDEST CALLVALUE PUSH2 0x10E JUMPI PUSH1 0x40 CALLDATASIZE PUSH1 0x3 NOT ADD SLT PUSH2 0x10E JUMPI PUSH1 0x40 PUSH2 0x813 PUSH2 0xA6F JUMP JUMPDEST PUSH2 0x81B PUSH2 0xA85 JUMP JUMPDEST PUSH1 0x1 PUSH1 0x1 PUSH1 0xA0 SHL SUB SWAP2 DUP3 AND PUSH1 0x0 SWAP1 DUP2 MSTORE PUSH1 0x20 DUP2 DUP2 MSTORE DUP5 DUP3 KECCAK256 SWAP3 SWAP1 SWAP4 AND DUP2 MSTORE SWAP1 DUP3 MSTORE SWAP2 SWAP1 SWAP2 KECCAK256 DUP1 SLOAD PUSH1 0x1 DUP3 ADD SLOAD PUSH1 0x2 SWAP1 SWAP3 ADD SLOAD PUSH1 0x40 DUP1 MLOAD SWAP3 DUP4 MSTORE SWAP4 DUP3 ADD SWAP3 SWAP1 SWAP3 MSTORE SWAP2 DUP3 ADD MSTORE PUSH1 0x60 SWAP1 RETURN JUMPDEST CALLVALUE PUSH2 0x10E JUMPI PUSH1 0x0 CALLDATASIZE PUSH1 0x3 NOT ADD SLT PUSH2 0x10E JUMPI PUSH1 0x20 PUSH1 0x40 MLOAD PUSH1 0x3 DUP2 MSTORE RETURN JUMPDEST CALLVALUE PUSH2 0x10E JUMPI PUSH2 0x88E CALLDATASIZE PUSH2 0xA9B JUMP JUMPDEST PUSH1 0x1 PUSH1 0x1 PUSH1 0xA0 SHL SUB DUP4 DUP2 AND SWAP4 SWAP1 DUP4 AND SWAP1 PUSH2 0x8AA DUP6 DUP4 EQ ISZERO PUSH2 0xCDC JUMP JUMPDEST PUSH2 0x8B5 DUP4 ISZERO ISZERO PUSH2 0xD1E JUMP JUMPDEST DUP2 DUP6 LT DUP1 ISZERO PUSH2 0xA66 JUMPI PUSH1 0x40 DUP6 DUP4 JUMPDEST PUSH1 0x1 DUP1 PUSH1 0xA0 SHL SUB AND PUSH1 0x0 MSTORE PUSH1 0x0 PUSH1 0x20 MSTORE DUP2 PUSH1 0x0 KECCAK256 PUSH1 0x0 SWAP2 PUSH1 0x1 DUP1 PUSH1 0xA0 SHL SUB AND DUP3 MSTORE PUSH1 0x20 MSTORE KECCAK256 SWAP1 DUP2 SLOAD DUP1 ISZERO ISZERO DUP1 PUSH2 0xA59 JUMPI JUMPDEST PUSH2 0x8FD SWAP1 PUSH2 0xD6A JUMP JUMPDEST DUP2 ISZERO PUSH2 0xA4B JUMPI PUSH2 0x90D DUP7 DUP3 PUSH2 0xE63 JUMP JUMPDEST SWAP1 PUSH2 0x3E8 DUP3 MUL SWAP2 DUP1 DUP4 DIV PUSH2 0x3E8 EQ SWAP1 ISZERO OR ISZERO PUSH2 0x70D JUMPI PUSH2 0x940 SWAP3 ISZERO PUSH2 0xA42 JUMPI POP PUSH2 0x93A PUSH1 0x1 DUP5 ADD SLOAD PUSH2 0xE4B JUMP JUMPDEST SWAP1 PUSH2 0xE76 JUMP JUMPDEST SWAP5 PUSH1 0x1 DUP7 ADD DUP1 SWAP7 GT PUSH2 0x70D JUMPI PUSH2 0x957 DUP7 ISZERO ISZERO PUSH2 0xDAF JUMP JUMPDEST PUSH1 0x40 MLOAD PUSH4 0x23B872DD PUSH1 0xE0 SHL DUP2 MSTORE CALLER PUSH1 0x4 DUP3 ADD MSTORE ADDRESS PUSH1 0x24 DUP3 ADD MSTORE PUSH1 0x44 DUP2 ADD DUP8 SWAP1 MSTORE SWAP3 PUSH1 0x20 DUP5 PUSH1 0x64 DUP2 PUSH1 0x0 DUP13 GAS CALL SWAP4 DUP5 ISZERO PUSH2 0x319 JUMPI PUSH2 0x99B SWAP5 PUSH2 0xA25 JUMPI JUMPDEST POP DUP6 DUP8 PUSH2 0xFCB JUMP JUMPDEST PUSH1 0x40 MLOAD PUSH4 0xA9059CBB PUSH1 0xE0 SHL DUP2 MSTORE CALLER PUSH1 0x4 DUP3 ADD MSTORE PUSH1 0x24 DUP2 ADD DUP4 SWAP1 MSTORE SWAP4 PUSH1 0x20 DUP6 PUSH1 0x44 DUP2 PUSH1 0x0 DUP7 GAS CALL SWAP5 DUP6 ISZERO PUSH2 0x319 JUMPI PUSH1 0x20 SWAP6 PUSH2 0xA0A JUMPI JUMPDEST POP PUSH1 0x40 MLOAD SWAP3 DUP5 DUP5 MSTORE DUP6 DUP5 ADD MSTORE PUSH32 0xB39C9BC43F811E1A7CE159C5F147458FDB80266BF23C17322013316E27E086D0 PUSH1 0x40 CALLER SWAP5 LOG4 PUSH1 0x40 MLOAD SWAP1 DUP2 MSTORE RETURN JUMPDEST PUSH2 0xA20 SWAP1 DUP7 RETURNDATASIZE DUP9 GT PUSH2 0x312 JUMPI PUSH2 0x305 DUP2 DUP4 PUSH2 0xDFB JUMP JUMPDEST PUSH2 0x9D0 JUMP JUMPDEST PUSH2 0xA3D SWAP1 PUSH1 0x20 RETURNDATASIZE PUSH1 0x20 GT PUSH2 0x312 JUMPI PUSH2 0x305 DUP2 DUP4 PUSH2 0xDFB JUMP JUMPDEST PUSH2 0x993 JUMP JUMPDEST PUSH2 0x93A SWAP1 PUSH2 0xE4B JUMP JUMPDEST PUSH2 0x90D DUP7 PUSH1 0x1 DUP6 ADD SLOAD PUSH2 0xE63 JUMP JUMPDEST POP PUSH1 0x1 DUP4 ADD SLOAD ISZERO ISZERO PUSH2 0x8F4 JUMP JUMPDEST PUSH1 0x40 DUP3 DUP7 PUSH2 0x8C3 JUMP JUMPDEST PUSH1 0x4 CALLDATALOAD SWAP1 PUSH1 0x1 PUSH1 0x1 PUSH1 0xA0 SHL SUB DUP3 AND DUP3 SUB PUSH2 0x10E JUMPI JUMP JUMPDEST PUSH1 0x24 CALLDATALOAD SWAP1 PUSH1 0x1 PUSH1 0x1 PUSH1 0xA0 SHL SUB DUP3 AND DUP3 SUB PUSH2 0x10E JUMPI JUMP JUMPDEST PUSH1 0x60 SWAP1 PUSH1 0x3 NOT ADD SLT PUSH2 0x10E JUMPI PUSH1 0x4 CALLDATALOAD PUSH1 0x1 PUSH1 0x1 PUSH1 0xA0 SHL SUB DUP2 AND DUP2 SUB PUSH2 0x10E JUMPI SWAP1 PUSH1 0x24 CALLDATALOAD PUSH1 0x1 PUSH1 0x1 PUSH1 0xA0 SHL SUB DUP2 AND DUP2 SUB PUSH2 0x10E JUMPI SWAP1 PUSH1 0x44 CALLDATALOAD SWAP1 JUMP JUMPDEST CALLVALUE PUSH2 0x10E JUMPI PUSH2 0xAE3 CALLDATASIZE PUSH2 0xA9B JUMP JUMPDEST PUSH1 0x1 PUSH1 0x1 PUSH1 0xA0 SHL SUB DUP1 DUP5 AND SWAP4 SWAP3 SWAP1 DUP2 AND SWAP1 PUSH1 0x0 SWAP1 PUSH2 0xB03 DUP7 DUP5 EQ ISZERO PUSH2 0xCDC JUMP JUMPDEST PUSH2 0xB0E DUP5 ISZERO ISZERO PUSH2 0xDAF JUMP JUMPDEST DUP3 DUP7 LT DUP1 ISZERO PUSH2 0xCD5 JUMPI DUP2 DUP7 JUMPDEST PUSH1 0x1 DUP1 PUSH1 0xA0 SHL SUB AND DUP5 MSTORE DUP4 PUSH1 0x20 MSTORE PUSH1 0x40 DUP5 KECCAK256 SWAP1 PUSH1 0x1 DUP1 PUSH1 0xA0 SHL SUB AND DUP5 MSTORE PUSH1 0x20 MSTORE PUSH1 0x40 DUP4 KECCAK256 SWAP3 DUP4 SLOAD ISZERO ISZERO DUP1 PUSH2 0xCC8 JUMPI JUMPDEST PUSH2 0xB52 SWAP1 PUSH2 0xD6A JUMP JUMPDEST PUSH1 0x40 MLOAD PUSH4 0x23B872DD PUSH1 0xE0 SHL DUP2 MSTORE CALLER PUSH1 0x4 DUP3 ADD MSTORE ADDRESS PUSH1 0x24 DUP3 ADD MSTORE PUSH1 0x44 DUP2 ADD DUP8 SWAP1 MSTORE PUSH1 0x20 DUP2 PUSH1 0x64 DUP2 DUP6 DUP14 GAS CALL DUP1 ISZERO PUSH2 0xCBD JUMPI PUSH2 0xCA0 JUMPI JUMPDEST POP PUSH2 0xB91 DUP7 PUSH2 0xE4B JUMP JUMPDEST SWAP1 DUP3 ISZERO PUSH2 0xC96 JUMPI PUSH2 0xBA7 PUSH1 0x1 DUP7 ADD SLOAD JUMPDEST DUP4 PUSH2 0xE63 JUMP JUMPDEST SWAP3 ISZERO PUSH2 0xC8B JUMPI DUP5 SLOAD SWAP1 JUMPDEST PUSH2 0x3E8 DUP3 MUL SWAP2 DUP1 DUP4 DIV PUSH2 0x3E8 EQ SWAP1 ISZERO OR ISZERO PUSH2 0xC77 JUMPI POP SWAP2 PUSH2 0x93A PUSH2 0xBDA SWAP3 PUSH2 0xBED SWAP7 SWAP6 SWAP5 PUSH2 0xF65 JUMP JUMPDEST SWAP6 PUSH2 0xBE6 DUP8 ISZERO ISZERO PUSH2 0xD1E JUMP JUMPDEST DUP7 DUP7 PUSH2 0xFCB JUMP JUMPDEST PUSH1 0x40 MLOAD PUSH4 0xA9059CBB PUSH1 0xE0 SHL DUP2 MSTORE CALLER PUSH1 0x4 DUP3 ADD MSTORE PUSH1 0x24 DUP2 ADD DUP5 SWAP1 MSTORE SWAP4 PUSH1 0x20 DUP6 PUSH1 0x44 DUP2 PUSH1 0x0 DUP7 GAS CALL SWAP5 DUP6 ISZERO PUSH2 0x319 JUMPI PUSH1 0x20 SWAP6 PUSH2 0xC5C JUMPI JUMPDEST POP PUSH1 0x40 MLOAD SWAP3 DUP4 MSTORE DUP4 DUP6 DUP5 ADD MSTORE PUSH32 0xB39C9BC43F811E1A7CE159C5F147458FDB80266BF23C17322013316E27E086D0 PUSH1 0x40 CALLER SWAP5 LOG4 PUSH1 0x40 MLOAD SWAP1 DUP2 MSTORE RETURN JUMPDEST PUSH2 0xC72 SWAP1 DUP7 RETURNDATASIZE DUP9 GT PUSH2 0x312 JUMPI PUSH2 0x305 DUP2 DUP4 PUSH2 0xDFB JUMP JUMPDEST PUSH2 0xC22 JUMP JUMPDEST PUSH4 0x4E487B71 PUSH1 0xE0 SHL DUP2 MSTORE PUSH1 0x11 PUSH1 0x4 MSTORE PUSH1 0x24 SWAP1 REVERT JUMPDEST PUSH1 0x1 DUP6 ADD SLOAD SWAP1 PUSH2 0xBB1 JUMP JUMPDEST PUSH2 0xBA7 DUP6 SLOAD PUSH2 0xBA1 JUMP JUMPDEST PUSH2 0xCB8 SWAP1 PUSH1 0x20 RETURNDATASIZE PUSH1 0x20 GT PUSH2 0x312 JUMPI PUSH2 0x305 DUP2 DUP4 PUSH2 0xDFB JUMP JUMPDEST PUSH2 0xB87 JUMP JUMPDEST PUSH1 0x40 MLOAD RETURNDATASIZE DUP5 DUP3 RETURNDATACOPY RETURNDATASIZE SWAP1 REVERT JUMPDEST POP PUSH1 0x1 DUP5 ADD SLOAD ISZERO ISZERO PUSH2 0xB49 JUMP JUMPDEST DUP6 DUP3 PUSH2 0xB1A JUMP JUMPDEST ISZERO PUSH2 0xCE3 JUMPI JUMP JUMPDEST PUSH1 0x40 MLOAD PUSH3 0x461BCD PUSH1 0xE5 SHL DUP2 MSTORE PUSH1 0x20 PUSH1 0x4 DUP3 ADD MSTORE PUSH1 0x13 PUSH1 0x24 DUP3 ADD MSTORE PUSH19 0x4944454E544943414C5F414444524553534553 PUSH1 0x68 SHL PUSH1 0x44 DUP3 ADD MSTORE PUSH1 0x64 SWAP1 REVERT JUMPDEST ISZERO PUSH2 0xD25 JUMPI JUMP JUMPDEST PUSH1 0x40 MLOAD PUSH3 0x461BCD PUSH1 0xE5 SHL DUP2 MSTORE PUSH1 0x20 PUSH1 0x4 DUP3 ADD MSTORE PUSH1 0x1A PUSH1 0x24 DUP3 ADD MSTORE PUSH32 0x494E53554646494349454E545F4F55545055545F414D4F554E54000000000000 PUSH1 0x44 DUP3 ADD MSTORE PUSH1 0x64 SWAP1 REVERT JUMPDEST ISZERO PUSH2 0xD71 JUMPI JUMP JUMPDEST PUSH1 0x40 MLOAD PUSH3 0x461BCD PUSH1 0xE5 SHL DUP2 MSTORE PUSH1 0x20 PUSH1 0x4 DUP3 ADD MSTORE PUSH1 0x16 PUSH1 0x24 DUP3 ADD MSTORE PUSH22 0x494E53554646494349454E545F4C4951554944495459 PUSH1 0x50 SHL PUSH1 0x44 DUP3 ADD MSTORE PUSH1 0x64 SWAP1 REVERT JUMPDEST ISZERO PUSH2 0xDB6 JUMPI JUMP JUMPDEST PUSH1 0x40 MLOAD PUSH3 0x461BCD PUSH1 0xE5 SHL DUP2 MSTORE PUSH1 0x20 PUSH1 0x4 DUP3 ADD MSTORE PUSH1 0x19 PUSH1 0x24 DUP3 ADD MSTORE PUSH32 0x494E53554646494349454E545F494E5055545F414D4F554E5400000000000000 PUSH1 0x44 DUP3 ADD MSTORE PUSH1 0x64 SWAP1 REVERT JUMPDEST SWAP1 PUSH1 0x1F DUP1 NOT SWAP2 ADD AND DUP2 ADD SWAP1 DUP2 LT PUSH8 0xFFFFFFFFFFFFFFFF DUP3 GT OR PUSH2 0xE1D JUMPI PUSH1 0x40 MSTORE JUMP JUMPDEST PUSH4 0x4E487B71 PUSH1 0xE0 SHL PUSH1 0x0 MSTORE PUSH1 0x41 PUSH1 0x4 MSTORE PUSH1 0x24 PUSH1 0x0 REVERT JUMPDEST SWAP1 DUP2 PUSH1 0x20 SWAP2 SUB SLT PUSH2 0x10E JUMPI MLOAD DUP1 ISZERO ISZERO DUP2 SUB PUSH2 0x10E JUMPI SWAP1 JUMP JUMPDEST SWAP1 PUSH2 0x3E5 DUP3 MUL SWAP2 DUP1 DUP4 DIV PUSH2 0x3E5 EQ SWAP1 ISZERO OR ISZERO PUSH2 0x70D JUMPI JUMP JUMPDEST DUP2 DUP2 MUL SWAP3 SWAP2 DUP2 ISZERO SWAP2 DUP5 DIV EQ OR ISZERO PUSH2 0x70D JUMPI JUMP JUMPDEST DUP2 ISZERO PUSH2 0xE80 JUMPI DIV SWAP1 JUMP JUMPDEST PUSH4 0x4E487B71 PUSH1 0xE0 SHL PUSH1 0x0 MSTORE PUSH1 0x12 PUSH1 0x4 MSTORE PUSH1 0x24 PUSH1 0x0 REVERT JUMPDEST PUSH1 0x1 PUSH1 0x1 PUSH1 0xA0 SHL SUB DUP1 DUP4 AND SWAP1 DUP3 AND LT SWAP2 PUSH1 0x40 SWAP2 DUP4 ISZERO PUSH2 0xF5F JUMPI JUMPDEST PUSH1 0x1 PUSH1 0x1 PUSH1 0xA0 SHL SUB SWAP1 DUP2 AND PUSH1 0x0 SWAP1 DUP2 MSTORE PUSH1 0x20 DUP2 DUP2 MSTORE DUP5 DUP3 KECCAK256 SWAP4 SWAP1 SWAP3 AND DUP2 MSTORE SWAP2 SWAP1 MSTORE KECCAK256 DUP1 SLOAD SWAP1 SWAP2 DUP2 ISZERO SWAP1 DUP2 DUP1 ISZERO PUSH2 0xF53 JUMPI JUMPDEST PUSH2 0xF4A JUMPI ISZERO PUSH2 0xF1E JUMPI POP SWAP1 PUSH1 0x1 ADD SLOAD SWAP1 PUSH8 0xDE0B6B3A7640000 DUP3 MUL SWAP2 DUP1 DUP4 DIV PUSH8 0xDE0B6B3A7640000 EQ SWAP1 ISZERO OR ISZERO PUSH2 0x70D JUMPI PUSH2 0xF1B SWAP2 PUSH2 0xE76 JUMP JUMPDEST SWAP1 JUMP JUMPDEST PUSH8 0xDE0B6B3A7640000 DUP3 MUL SWAP2 DUP3 DIV PUSH8 0xDE0B6B3A7640000 EQ OR ISZERO PUSH2 0x70D JUMPI PUSH1 0x1 PUSH2 0xF1B SWAP3 ADD SLOAD SWAP1 PUSH2 0xE76 JUMP JUMPDEST POP POP POP POP PUSH1 0x0 SWAP1 JUMP JUMPDEST POP PUSH1 0x1 DUP5 ADD SLOAD ISZERO PUSH2 0xEE1 JUMP JUMPDEST SWAP1 PUSH2 0xEB0 JUMP JUMPDEST SWAP2 SWAP1 DUP3 ADD DUP1 SWAP3 GT PUSH2 0x70D JUMPI JUMP JUMPDEST ISZERO PUSH2 0xF79 JUMPI JUMP JUMPDEST PUSH1 0x40 MLOAD PUSH3 0x461BCD PUSH1 0xE5 SHL DUP2 MSTORE PUSH1 0x20 PUSH1 0x4 DUP3 ADD MSTORE PUSH1 0x1D PUSH1 0x24 DUP3 ADD MSTORE PUSH32 0x494E53554646494349454E545F4C49515549444954595F4255524E4544000000 PUSH1 0x44 DUP3 ADD MSTORE PUSH1 0x64 SWAP1 REVERT JUMPDEST SWAP2 SWAP1 DUP3 SUB SWAP2 DUP3 GT PUSH2 0x70D JUMPI JUMP JUMPDEST SWAP1 SWAP4 SWAP3 SWAP1 SWAP2 PUSH1 0x1 PUSH1 0x1 PUSH1 0xA0 SHL SUB SWAP2 DUP3 AND SWAP2 AND LT ISZERO PUSH2 0x1003 JUMPI DUP2 PUSH2 0xFF4 PUSH1 0x1 SWAP3 PUSH2 0xFFF SWAP5 SLOAD PUSH2 0xF65 JUMP JUMPDEST DUP2 SSTORE ADD SWAP2 DUP3 SLOAD PUSH2 0xFBE JUMP JUMPDEST SWAP1 SSTORE JUMP JUMPDEST SWAP2 DUP2 PUSH2 0x1015 PUSH1 0x1 SWAP3 PUSH2 0xFFF SWAP5 SLOAD PUSH2 0xFBE JUMP JUMPDEST DUP2 SSTORE ADD SWAP2 DUP3 SLOAD PUSH2 0xF65 JUMP INVALID LOG2 PUSH5 0x6970667358 0x22 SLT KECCAK256 0xD2 SELFBALANCE 0xF 0xFC 0x1F SWAP14 0xE4 0xC6 0xD7 0xA6 PUSH22 0xEA8F30F5936A67099B904349376E4B40F2B556857364 PUSH20 0x6F6C634300081C00330000000000000000000000 "},"methodIdentifiers":{"FEE_DENOMINATOR()":"d73792a9","SWAP_FEE()":"768aebde","addLiquidity(address,address,uint256,uint256)":"cf6c62ea","getBalance(address,address,address)":"d6bd603c","getLiquidity(address,address)":"ea526de7","getPrice(address,address)":"ac41865a","getReserves(address,address)":"d52bb6f4","pools(address,address)":"901754d7","removeLiquidity(address,address,uint256)":"d752fab2","swap(address,address,uint256)":"df791e50","swapExactTokensForTokens(address,address,uint256)":"bdedcbc0","swapTokensForExactTokens(address,address,uint256)":"4b916e67"}}}}}