{"contracts/LiquidityMining.sol":{"LiquidityMining":{"abi":[{"inputs":[{"internalType":"address","name":"_rewardToken","type":"address"},{"internalType":"uint256","name":"_totalRewards","type":"uint256"},{"internalType":"uint256","name":"_duration","type":"uint256"}],"stateMutability":"nonpayable","type":"constructor"},{"anonymous":false,"inputs":[{"indexed":true,"internalType":"address","name":"token0","type":"address"},{"indexed":true,"internalType":"address","name":"token1","type":"address"},{"indexed":false,"internalType":"uint256","name":"rewardRate","type":"uint256"}],"name":"PoolAdded","type":"event"},{"anonymous":false,"inputs":[{"indexed":true,"internalType":"address","name":"user","type":"address"},{"indexed":false,"internalType":"uint256","name":"amount","type":"uint256"}],"name":"RewardsClaimed","type":"event"},{"anonymous":false,"inputs":[{"indexed":true,"internalType":"address","name":"user","type":"address"},{"indexed":true,"internalType":"address","name":"token0","type":"address"},{"indexed":true,"internalType":"address","name":"token1","type":"address"},{"indexed":false,"internalType":"uint256","name":"amount","type":"uint256"}],"name":"Staked","type":"event"},{"anonymous":false,"inputs":[{"indexed":true,"internalType":"address","name":"user","type":"address"},{"indexed":true,"internalType":"address","name":"token0","type":"address"},{"indexed":true,"internalType":"address","name":"token1","type":"address"},{"indexed":false,"internalType":"uint256","name":"amount","type":"uint256"}],"name":"Withdrawn","type":"event"},{"inputs":[{"internalType":"address","name":"token0","type":"address"},{"internalType":"address","name":"token1","type":"address"},{"internalType":"uint256","name":"rewardRate","type":"uint256"}],"name":"addPool","outputs":[],"stateMutability":"nonpayable","type":"function"},{"inputs":[],"name":"claimRewards","outputs":[],"stateMutability":"nonpayable","type":"function"},{"inputs":[{"internalType":"address","name":"user","type":"address"},{"internalType":"address","name":"token0","type":"address"}],"name":"earned","outputs":[{"internalType":"uint256","name":"","type":"uint256"}],"stateMutability":"view","type":"function"},{"inputs":[],"name":"endTime","outputs":[{"internalType":"uint256","name":"","type":"uint256"}],"stateMutability":"view","type":"function"},{"inputs":[{"internalType":"address","name":"token0","type":"address"}],"name":"getPoolInfo","outputs":[{"components":[{"internalType":"address","name":"token0","type":"address"},{"internalType":"address","name":"token1","type":"address"},{"internalType":"uint256","name":"rewardRate","type":"uint256"},{"internalType":"uint256","name":"totalStaked","type":"uint256"},{"internalType":"uint256","name":"lastUpdateTime","type":"uint256"},{"internalType":"uint256","name":"rewardPerTokenStored","type":"uint256"}],"internalType":"struct LiquidityMining.Pool","name":"","type":"tuple"}],"stateMutability":"view","type":"function"},{"inputs":[{"internalType":"address","name":"user","type":"address"},{"internalType":"address","name":"token0","type":"address"}],"name":"getUserStake","outputs":[{"components":[{"internalType":"uint256","name":"amount","type":"uint256"},{"internalType":"uint256","name":"rewardPerTokenPaid","type":"uint256"},{"internalType":"uint256","name":"rewards","type":"uint256"}],"internalType":"struct LiquidityMining.UserStake","name":"","type":"tuple"}],"stateMutability":"view","type":"function"},{"inputs":[{"internalType":"address","name":"","type":"address"}],"name":"pools","outputs":[{"internalType":"address","name":"token0","type":"address"},{"internalType":"address","name":"token1","type":"address"},{"internalType":"uint256","name":"rewardRate","type":"uint256"},{"internalType":"uint256","name":"totalStaked","type":"uint256"},{"internalType":"uint256","name":"lastUpdateTime","type":"uint256"},{"internalType":"uint256","name":"rewardPerTokenStored","type":"uint256"}],"stateMutability":"view","type":"function"},{"inputs":[],"name":"rewardToken","outputs":[{"internalType":"contract IERC20","name":"","type":"address"}],"stateMutability":"view","type":"function"},{"inputs":[{"internalType":"address","name":"token0","type":"address"},{"internalType":"address","name":"token1","type":"address"},{"internalType":"uint256","name":"amount","type":"uint256"}],"name":"stake","outputs":[],"stateMutability":"nonpayable","type":"function"},{"inputs":[],"name":"startTime","outputs":[{"internalType":"uint256","name":"","type":"uint256"}],"stateMutability":"view","type":"function"},{"inputs":[],"name":"totalRewards","outputs":[{"internalType":"uint256","name":"","type":"uint256"}],"stateMutability":"view","type":"function"},{"inputs":[{"internalType":"address","name":"","type":"address"},{"internalType":"address","name":"","type":"address"}],"name":"userStakes","outputs":[{"internalType":"uint256","name":"amount","type":"uint256"},{"internalType":"uint256","name":"rewardPerTokenPaid","type":"uint256"},{"internalType":"uint256","name":"rewards","type":"uint256"}],"stateMutability":"view","type":"function"},{"inputs":[{"internalType":"address","name":"token0","type":"address"},{"internalType":"address","name":"token1","type":"address"},{"internalType":"uint256","name":"amount","type":"uint256"}],"name":"withdraw","outputs":[],"stateMutability":"nonpayable","type":"function"}],"evm":{"bytecode":{"linkReferences":{},"object":"60803460a157601f610b3838819003918201601f19168301916001600160401b0383118484101760a65780849260609460405283398101031260a15780516001600160a01b038116919082900360a157604060208201519101519160018060a01b03196002541617600255600355426004554201804211608b57600555604051610a7b90816100bd8239f35b634e487b7160e01b600052601160045260246000fd5b600080fd5b634e487b7160e01b600052604160045260246000fdfe608080604052600436101561001357600080fd5b60003560e01c90816306bfa9381461081e575080630e15561a14610800578063211dc32d146106ed5780633197cbb6146106cf5780633710d4c71461062d578063372500ab146105e157806378e97925146105c35780637e29d6c214610470578063862d2d7c14610405578063a4063dbc14610384578063bf6eac2f14610262578063d9caed12146100dc5763f7c618c1146100ae57600080fd5b346100d75760003660031901126100d7576002546040516001600160a01b039091168152602090f35b600080fd5b346100d7576100ea36610933565b9160018060a01b031690816000526000602052604060002061011660018060a01b038254161515610a08565b33600052600160205260408060002060009085825260205220908482541061022757836000526000602052604060002091600383015492836101b2575b600393506004429101556101688682546109bb565b9055016101768482546109bb565b90556040519283526001600160a01b03169133907fa4195c37c2947bbe89165f03e320b6903116f0b10d8cfdb522330f7ce6f9fa2490602090a4005b6101ce6101c36004830154426109bb565b6002830154906109c8565b670de0b6b3a7640000810290808204670de0b6b3a76400001490151715610211576003946101fb916109db565b61020a600583019182546109fb565b9055610153565b634e487b7160e01b600052601160045260246000fd5b60405162461bcd60e51b8152602060048201526013602482015272125b9cdd59999a58da595b9d081cdd185ad959606a1b6044820152606490fd5b346100d75761027036610933565b9160018060a01b031690816000526000602052604060002061029c60018060a01b038254161515610a08565b82600052600060205260406000209060038201549182610330575b6003925060044291015533600052600160205260406000208460005260205260406000206102e68682546109fb565b9055016102f48482546109fb565b90556040519283526001600160a01b03169133907f6e613e504dcbe267f60e295b08e0a211b63db8690d660e5ed4f864d409bb662090602090a4005b6103416101c36004830154426109bb565b670de0b6b3a7640000810290808204670de0b6b3a764000014901517156102115760039361036e916109db565b61037d600583019182546109fb565b90556102b7565b346100d75760203660031901126100d7576001600160a01b036103a5610907565b16600052600060205260c0604060002060018060a01b038154169060018060a01b036001820154169060028101546003820154906005600484015493015493604051958652602086015260408501526060840152608083015260a0820152f35b346100d75760403660031901126100d75760606040610422610907565b61042a61091d565b9060018060a01b031660005260016020528160002060009160018060a01b0316825260205220805490600260018201549101549060405192835260208301526040820152f35b346100d75761047e36610933565b6001600160a01b0391821692909116908183146105905780156105555760207f616f4319a54dcbbb5a18b8b2f702faa1d9c1030304616fc770ae877f0934fcdd916040516104cb8161096d565b8481528281018681526040808301848152600060608501818152426080870190815260a087018381528b8452838a5292859020965187546001600160a01b03199081166001600160a01b03928316178955965160018901805490981691161790955591516002860155905160038501559151600484015590516005929092019190915551908152a3005b60405162461bcd60e51b8152602060048201526013602482015272496e76616c696420726577617264207261746560681b6044820152606490fd5b60405162461bcd60e51b815260206004820152600b60248201526a53616d6520746f6b656e7360a81b6044820152606490fd5b346100d75760003660031901126100d7576020600454604051908152f35b346100d75760003660031901126100d75760405162461bcd60e51b81526020600482015260136024820152724e6f207265776172647320746f20636c61696d60681b6044820152606490fd5b346100d75760403660031901126100d7576060604061064a610907565b61065261091d565b9060008380516106618161099f565b828152826020820152015260018060a01b031660005260016020528160002060009160018060a01b031682526020522060405161069d8161099f565b815491828252604060026001830154926020850193845201549201918252604051928352516020830152516040820152f35b346100d75760003660031901126100d7576020600554604051908152f35b346100d75760403660031901126100d757610706610907565b604061071061091d565b6001600160a01b0390811660008181526020818152848220959093168152600183528381209181529152206005820154600383015490928161078b575b6020610783846002670de0b6b3a7640000610779896107738554916001870154906109bb565b906109c8565b04910154906109fb565b604051908152f35b8060026107a260046107ab949695960154426109bb565b910154906109c8565b91670de0b6b3a7640000830292808404670de0b6b3a7640000149015171561021157670de0b6b3a76400006107796107f46020966107ee600295610783986109db565b906109fb565b9550505081925061074d565b346100d75760003660031901126100d7576020600354604051908152f35b346100d75760203660031901126100d757600060a061083b610907565b926108458161096d565b828152826020820152826040820152826060820152826080820152015260018060a01b0316600052600060205260c060406000206040516108858161096d565b60018060a01b038254169182825260018060a01b03600182015416602083019081526002820154604084019081526003830154916060850192835260a06005600486015495608088019687520154950194855260405195865260018060a01b0390511660208601525160408501525160608401525160808301525160a0820152f35b600435906001600160a01b03821682036100d757565b602435906001600160a01b03821682036100d757565b60609060031901126100d7576004356001600160a01b03811681036100d757906024356001600160a01b03811681036100d7579060443590565b60c0810190811067ffffffffffffffff82111761098957604052565b634e487b7160e01b600052604160045260246000fd5b6060810190811067ffffffffffffffff82111761098957604052565b9190820391821161021157565b8181029291811591840414171561021157565b81156109e5570490565b634e487b7160e01b600052601260045260246000fd5b9190820180921161021157565b15610a0f57565b60405162461bcd60e51b815260206004820152600e60248201526d141bdbdb081b9bdd08199bdd5b9960921b6044820152606490fdfea264697066735822122083ea0ceb384e382b620cef62027a1c5f4307e30a7a99d66cf8eaf95bd6e9f91564736f6c634300081c0033","opcodes":"PUSH1 0x80 CALLVALUE PUSH1 0xA1 JUMPI PUSH1 0x1F PUSH2 0xB38 CODESIZE DUP2 SWAP1 SUB SWAP2 DUP3 ADD PUSH1 0x1F NOT AND DUP4 ADD SWAP2 PUSH1 0x1 PUSH1 0x1 PUSH1 0x40 SHL SUB DUP4 GT DUP5 DUP5 LT OR PUSH1 0xA6 JUMPI DUP1 DUP5 SWAP3 PUSH1 0x60 SWAP5 PUSH1 0x40 MSTORE DUP4 CODECOPY DUP2 ADD SUB SLT PUSH1 0xA1 JUMPI DUP1 MLOAD PUSH1 0x1 PUSH1 0x1 PUSH1 0xA0 SHL SUB DUP2 AND SWAP2 SWAP1 DUP3 SWAP1 SUB PUSH1 0xA1 JUMPI PUSH1 0x40 PUSH1 0x20 DUP3 ADD MLOAD SWAP2 ADD MLOAD SWAP2 PUSH1 0x1 DUP1 PUSH1 0xA0 SHL SUB NOT PUSH1 0x2 SLOAD AND OR PUSH1 0x2 SSTORE PUSH1 0x3 SSTORE TIMESTAMP PUSH1 0x4 SSTORE TIMESTAMP ADD DUP1 TIMESTAMP GT PUSH1 0x8B JUMPI PUSH1 0x5 SSTORE PUSH1 0x40 MLOAD PUSH2 0xA7B SWAP1 DUP2 PUSH2 0xBD DUP3 CODECOPY RETURN JUMPDEST PUSH4 0x4E487B71 PUSH1 0xE0 SHL PUSH1 0x0 MSTORE PUSH1 0x11 PUSH1 0x4 MSTORE PUSH1 0x24 PUSH1 0x0 REVERT JUMPDEST PUSH1 0x0 DUP1 REVERT JUMPDEST PUSH4 0x4E487B71 PUSH1 0xE0 SHL PUSH1 0x0 MSTORE PUSH1 0x41 PUSH1 0x4 MSTORE PUSH1 0x24 PUSH1 0x0 REVERT INVALID PUSH1 0x80 DUP1 PUSH1 0x40 MSTORE PUSH1 0x4 CALLDATASIZE LT ISZERO PUSH2 0x13 JUMPI PUSH1 0x0 DUP1 REVERT JUMPDEST PUSH1 0x0 CALLDATALOAD PUSH1 0xE0 SHR SWAP1 DUP2 PUSH4 0x6BFA938 EQ PUSH2 0x81E JUMPI POP DUP1 PUSH4 0xE15561A EQ PUSH2 0x800 JUMPI DUP1 PUSH4 0x211DC32D EQ PUSH2 0x6ED JUMPI DUP1 PUSH4 0x3197CBB6 EQ PUSH2 0x6CF JUMPI DUP1 PUSH4 0x3710D4C7 EQ PUSH2 0x62D JUMPI DUP1 PUSH4 0x372500AB EQ PUSH2 0x5E1 JUMPI DUP1 PUSH4 0x78E97925 EQ PUSH2 0x5C3 JUMPI DUP1 PUSH4 0x7E29D6C2 EQ PUSH2 0x470 JUMPI DUP1 PUSH4 0x862D2D7C EQ PUSH2 0x405 JUMPI DUP1 PUSH4 0xA4063DBC EQ PUSH2 0x384 JUMPI DUP1 PUSH4 0xBF6EAC2F EQ PUSH2 0x262 JUMPI DUP1 PUSH4 0xD9CAED12 EQ PUSH2 0xDC JUMPI PUSH4 0xF7C618C1 EQ PUSH2 0xAE JUMPI PUSH1 0x0 DUP1 REVERT JUMPDEST CALLVALUE PUSH2 0xD7 JUMPI PUSH1 0x0 CALLDATASIZE PUSH1 0x3 NOT ADD SLT PUSH2 0xD7 JUMPI PUSH1 0x2 SLOAD PUSH1 0x40 MLOAD PUSH1 0x1 PUSH1 0x1 PUSH1 0xA0 SHL SUB SWAP1 SWAP2 AND DUP2 MSTORE PUSH1 0x20 SWAP1 RETURN JUMPDEST PUSH1 0x0 DUP1 REVERT JUMPDEST CALLVALUE PUSH2 0xD7 JUMPI PUSH2 0xEA CALLDATASIZE PUSH2 0x933 JUMP JUMPDEST SWAP2 PUSH1 0x1 DUP1 PUSH1 0xA0 SHL SUB AND SWAP1 DUP2 PUSH1 0x0 MSTORE PUSH1 0x0 PUSH1 0x20 MSTORE PUSH1 0x40 PUSH1 0x0 KECCAK256 PUSH2 0x116 PUSH1 0x1 DUP1 PUSH1 0xA0 SHL SUB DUP3 SLOAD AND ISZERO ISZERO PUSH2 0xA08 JUMP JUMPDEST CALLER PUSH1 0x0 MSTORE PUSH1 0x1 PUSH1 0x20 MSTORE PUSH1 0x40 DUP1 PUSH1 0x0 KECCAK256 PUSH1 0x0 SWAP1 DUP6 DUP3 MSTORE PUSH1 0x20 MSTORE KECCAK256 SWAP1 DUP5 DUP3 SLOAD LT PUSH2 0x227 JUMPI DUP4 PUSH1 0x0 MSTORE PUSH1 0x0 PUSH1 0x20 MSTORE PUSH1 0x40 PUSH1 0x0 KECCAK256 SWAP2 PUSH1 0x3 DUP4 ADD SLOAD SWAP3 DUP4 PUSH2 0x1B2 JUMPI JUMPDEST PUSH1 0x3 SWAP4 POP PUSH1 0x4 TIMESTAMP SWAP2 ADD SSTORE PUSH2 0x168 DUP7 DUP3 SLOAD PUSH2 0x9BB JUMP JUMPDEST SWAP1 SSTORE ADD PUSH2 0x176 DUP5 DUP3 SLOAD PUSH2 0x9BB JUMP JUMPDEST SWAP1 SSTORE PUSH1 0x40 MLOAD SWAP3 DUP4 MSTORE PUSH1 0x1 PUSH1 0x1 PUSH1 0xA0 SHL SUB AND SWAP2 CALLER SWAP1 PUSH32 0xA4195C37C2947BBE89165F03E320B6903116F0B10D8CFDB522330F7CE6F9FA24 SWAP1 PUSH1 0x20 SWAP1 LOG4 STOP JUMPDEST PUSH2 0x1CE PUSH2 0x1C3 PUSH1 0x4 DUP4 ADD SLOAD TIMESTAMP PUSH2 0x9BB JUMP JUMPDEST PUSH1 0x2 DUP4 ADD SLOAD SWAP1 PUSH2 0x9C8 JUMP JUMPDEST PUSH8 0xDE0B6B3A7640000 DUP2 MUL SWAP1 DUP1 DUP3 DIV PUSH8 0xDE0B6B3A7640000 EQ SWAP1 ISZERO OR ISZERO PUSH2 0x211 JUMPI PUSH1 0x3 SWAP5 PUSH2 0x1FB SWAP2 PUSH2 0x9DB JUMP JUMPDEST PUSH2 0x20A PUSH1 0x5 DUP4 ADD SWAP2 DUP3 SLOAD PUSH2 0x9FB JUMP JUMPDEST SWAP1 SSTORE PUSH2 0x153 JUMP JUMPDEST PUSH4 0x4E487B71 PUSH1 0xE0 SHL PUSH1 0x0 MSTORE PUSH1 0x11 PUSH1 0x4 MSTORE PUSH1 0x24 PUSH1 0x0 REVERT JUMPDEST PUSH1 0x40 MLOAD PUSH3 0x461BCD PUSH1 0xE5 SHL DUP2 MSTORE PUSH1 0x20 PUSH1 0x4 DUP3 ADD MSTORE PUSH1 0x13 PUSH1 0x24 DUP3 ADD MSTORE PUSH19 0x125B9CDD59999A58DA595B9D081CDD185AD959 PUSH1 0x6A SHL PUSH1 0x44 DUP3 ADD MSTORE PUSH1 0x64 SWAP1 REVERT JUMPDEST CALLVALUE PUSH2 0xD7 JUMPI PUSH2 0x270 CALLDATASIZE PUSH2 0x933 JUMP JUMPDEST SWAP2 PUSH1 0x1 DUP1 PUSH1 0xA0 SHL SUB AND SWAP1 DUP2 PUSH1 0x0 MSTORE PUSH1 0x0 PUSH1 0x20 MSTORE PUSH1 0x40 PUSH1 0x0 KECCAK256 PUSH2 0x29C PUSH1 0x1 DUP1 PUSH1 0xA0 SHL SUB DUP3 SLOAD AND ISZERO ISZERO PUSH2 0xA08 JUMP JUMPDEST DUP3 PUSH1 0x0 MSTORE PUSH1 0x0 PUSH1 0x20 MSTORE PUSH1 0x40 PUSH1 0x0 KECCAK256 SWAP1 PUSH1 0x3 DUP3 ADD SLOAD SWAP2 DUP3 PUSH2 0x330 JUMPI JUMPDEST PUSH1 0x3 SWAP3 POP PUSH1 0x4 TIMESTAMP SWAP2 ADD SSTORE CALLER PUSH1 0x0 MSTORE PUSH1 0x1 PUSH1 0x20 MSTORE PUSH1 0x40 PUSH1 0x0 KECCAK256 DUP5 PUSH1 0x0 MSTORE PUSH1 0x20 MSTORE PUSH1 0x40 PUSH1 0x0 KECCAK256 PUSH2 0x2E6 DUP7 DUP3 SLOAD PUSH2 0x9FB JUMP JUMPDEST SWAP1 SSTORE ADD PUSH2 0x2F4 DUP5 DUP3 SLOAD PUSH2 0x9FB JUMP JUMPDEST SWAP1 SSTORE PUSH1 0x40 MLOAD SWAP3 DUP4 MSTORE PUSH1 0x1 PUSH1 0x1 PUSH1 0xA0 SHL SUB AND SWAP2 CALLER SWAP1 PUSH32 0x6E613E504DCBE267F60E295B08E0A211B63DB8690D660E5ED4F864D409BB6620 SWAP1 PUSH1 0x20 SWAP1 LOG4 STOP JUMPDEST PUSH2 0x341 PUSH2 0x1C3 PUSH1 0x4 DUP4 ADD SLOAD TIMESTAMP PUSH2 0x9BB JUMP JUMPDEST PUSH8 0xDE0B6B3A7640000 DUP2 MUL SWAP1 DUP1 DUP3 DIV PUSH8 0xDE0B6B3A7640000 EQ SWAP1 ISZERO OR ISZERO PUSH2 0x211 JUMPI PUSH1 0x3 SWAP4 PUSH2 0x36E SWAP2 PUSH2 0x9DB JUMP JUMPDEST PUSH2 0x37D PUSH1 0x5 DUP4 ADD SWAP2 DUP3 SLOAD PUSH2 0x9FB JUMP JUMPDEST SWAP1 SSTORE PUSH2 0x2B7 JUMP JUMPDEST CALLVALUE PUSH2 0xD7 JUMPI PUSH1 0x20 CALLDATASIZE PUSH1 0x3 NOT ADD SLT PUSH2 0xD7 JUMPI PUSH1 0x1 PUSH1 0x1 PUSH1 0xA0 SHL SUB PUSH2 0x3A5 PUSH2 0x907 JUMP JUMPDEST AND PUSH1 0x0 MSTORE PUSH1 0x0 PUSH1 0x20 MSTORE PUSH1 0xC0 PUSH1 0x40 PUSH1 0x0 KECCAK256 PUSH1 0x1 DUP1 PUSH1 0xA0 SHL SUB DUP2 SLOAD AND SWAP1 PUSH1 0x1 DUP1 PUSH1 0xA0 SHL SUB PUSH1 0x1 DUP3 ADD SLOAD AND SWAP1 PUSH1 0x2 DUP2 ADD SLOAD PUSH1 0x3 DUP3 ADD SLOAD SWAP1 PUSH1 0x5 PUSH1 0x4 DUP5 ADD SLOAD SWAP4 ADD SLOAD SWAP4 PUSH1 0x40 MLOAD SWAP6 DUP7 MSTORE PUSH1 0x20 DUP7 ADD MSTORE PUSH1 0x40 DUP6 ADD MSTORE PUSH1 0x60 DUP5 ADD MSTORE PUSH1 0x80 DUP4 ADD MSTORE PUSH1 0xA0 DUP3 ADD MSTORE RETURN JUMPDEST CALLVALUE PUSH2 0xD7 JUMPI PUSH1 0x40 CALLDATASIZE PUSH1 0x3 NOT ADD SLT PUSH2 0xD7 JUMPI PUSH1 0x60 PUSH1 0x40 PUSH2 0x422 PUSH2 0x907 JUMP JUMPDEST PUSH2 0x42A PUSH2 0x91D JUMP JUMPDEST SWAP1 PUSH1 0x1 DUP1 PUSH1 0xA0 SHL SUB AND PUSH1 0x0 MSTORE PUSH1 0x1 PUSH1 0x20 MSTORE DUP2 PUSH1 0x0 KECCAK256 PUSH1 0x0 SWAP2 PUSH1 0x1 DUP1 PUSH1 0xA0 SHL SUB AND DUP3 MSTORE PUSH1 0x20 MSTORE KECCAK256 DUP1 SLOAD SWAP1 PUSH1 0x2 PUSH1 0x1 DUP3 ADD SLOAD SWAP2 ADD SLOAD SWAP1 PUSH1 0x40 MLOAD SWAP3 DUP4 MSTORE PUSH1 0x20 DUP4 ADD MSTORE PUSH1 0x40 DUP3 ADD MSTORE RETURN JUMPDEST CALLVALUE PUSH2 0xD7 JUMPI PUSH2 0x47E CALLDATASIZE PUSH2 0x933 JUMP JUMPDEST PUSH1 0x1 PUSH1 0x1 PUSH1 0xA0 SHL SUB SWAP2 DUP3 AND SWAP3 SWAP1 SWAP2 AND SWAP1 DUP2 DUP4 EQ PUSH2 0x590 JUMPI DUP1 ISZERO PUSH2 0x555 JUMPI PUSH1 0x20 PUSH32 0x616F4319A54DCBBB5A18B8B2F702FAA1D9C1030304616FC770AE877F0934FCDD SWAP2 PUSH1 0x40 MLOAD PUSH2 0x4CB DUP2 PUSH2 0x96D JUMP JUMPDEST DUP5 DUP2 MSTORE DUP3 DUP2 ADD DUP7 DUP2 MSTORE PUSH1 0x40 DUP1 DUP4 ADD DUP5 DUP2 MSTORE PUSH1 0x0 PUSH1 0x60 DUP6 ADD DUP2 DUP2 MSTORE TIMESTAMP PUSH1 0x80 DUP8 ADD SWAP1 DUP2 MSTORE PUSH1 0xA0 DUP8 ADD DUP4 DUP2 MSTORE DUP12 DUP5 MSTORE DUP4 DUP11 MSTORE SWAP3 DUP6 SWAP1 KECCAK256 SWAP7 MLOAD DUP8 SLOAD PUSH1 0x1 PUSH1 0x1 PUSH1 0xA0 SHL SUB NOT SWAP1 DUP2 AND PUSH1 0x1 PUSH1 0x1 PUSH1 0xA0 SHL SUB SWAP3 DUP4 AND OR DUP10 SSTORE SWAP7 MLOAD PUSH1 0x1 DUP10 ADD DUP1 SLOAD SWAP1 SWAP9 AND SWAP2 AND OR SWAP1 SWAP6 SSTORE SWAP2 MLOAD PUSH1 0x2 DUP7 ADD SSTORE SWAP1 MLOAD PUSH1 0x3 DUP6 ADD SSTORE SWAP2 MLOAD PUSH1 0x4 DUP5 ADD SSTORE SWAP1 MLOAD PUSH1 0x5 SWAP3 SWAP1 SWAP3 ADD SWAP2 SWAP1 SWAP2 SSTORE MLOAD SWAP1 DUP2 MSTORE LOG3 STOP JUMPDEST PUSH1 0x40 MLOAD PUSH3 0x461BCD PUSH1 0xE5 SHL DUP2 MSTORE PUSH1 0x20 PUSH1 0x4 DUP3 ADD MSTORE PUSH1 0x13 PUSH1 0x24 DUP3 ADD MSTORE PUSH19 0x496E76616C6964207265776172642072617465 PUSH1 0x68 SHL PUSH1 0x44 DUP3 ADD MSTORE PUSH1 0x64 SWAP1 REVERT JUMPDEST PUSH1 0x40 MLOAD PUSH3 0x461BCD PUSH1 0xE5 SHL DUP2 MSTORE PUSH1 0x20 PUSH1 0x4 DUP3 ADD MSTORE PUSH1 0xB PUSH1 0x24 DUP3 ADD MSTORE PUSH11 0x53616D6520746F6B656E73 PUSH1 0xA8 SHL PUSH1 0x44 DUP3 ADD MSTORE PUSH1 0x64 SWAP1 REVERT JUMPDEST CALLVALUE PUSH2 0xD7 JUMPI PUSH1 0x0 CALLDATASIZE PUSH1 0x3 NOT ADD SLT PUSH2 0xD7 JUMPI PUSH1 0x20 PUSH1 0x4 SLOAD PUSH1 0x40 MLOAD SWAP1 DUP2 MSTORE RETURN JUMPDEST CALLVALUE PUSH2 0xD7 JUMPI PUSH1 0x0 CALLDATASIZE PUSH1 0x3 NOT ADD SLT PUSH2 0xD7 JUMPI PUSH1 0x40 MLOAD PUSH3 0x461BCD PUSH1 0xE5 SHL DUP2 MSTORE PUSH1 0x20 PUSH1 0x4 DUP3 ADD MSTORE PUSH1 0x13 PUSH1 0x24 DUP3 ADD MSTORE PUSH19 0x4E6F207265776172647320746F20636C61696D PUSH1 0x68 SHL PUSH1 0x44 DUP3 ADD MSTORE PUSH1 0x64 SWAP1 REVERT JUMPDEST CALLVALUE PUSH2 0xD7 JUMPI PUSH1 0x40 CALLDATASIZE PUSH1 0x3 NOT ADD SLT PUSH2 0xD7 JUMPI PUSH1 0x60 PUSH1 0x40 PUSH2 0x64A PUSH2 0x907 JUMP JUMPDEST PUSH2 0x652 PUSH2 0x91D JUMP JUMPDEST SWAP1 PUSH1 0x0 DUP4 DUP1 MLOAD PUSH2 0x661 DUP2 PUSH2 0x99F JUMP JUMPDEST DUP3 DUP2 MSTORE DUP3 PUSH1 0x20 DUP3 ADD MSTORE ADD MSTORE PUSH1 0x1 DUP1 PUSH1 0xA0 SHL SUB AND PUSH1 0x0 MSTORE PUSH1 0x1 PUSH1 0x20 MSTORE DUP2 PUSH1 0x0 KECCAK256 PUSH1 0x0 SWAP2 PUSH1 0x1 DUP1 PUSH1 0xA0 SHL SUB AND DUP3 MSTORE PUSH1 0x20 MSTORE KECCAK256 PUSH1 0x40 MLOAD PUSH2 0x69D DUP2 PUSH2 0x99F JUMP JUMPDEST DUP2 SLOAD SWAP2 DUP3 DUP3 MSTORE PUSH1 0x40 PUSH1 0x2 PUSH1 0x1 DUP4 ADD SLOAD SWAP3 PUSH1 0x20 DUP6 ADD SWAP4 DUP5 MSTORE ADD SLOAD SWAP3 ADD SWAP2 DUP3 MSTORE PUSH1 0x40 MLOAD SWAP3 DUP4 MSTORE MLOAD PUSH1 0x20 DUP4 ADD MSTORE MLOAD PUSH1 0x40 DUP3 ADD MSTORE RETURN JUMPDEST CALLVALUE PUSH2 0xD7 JUMPI PUSH1 0x0 CALLDATASIZE PUSH1 0x3 NOT ADD SLT PUSH2 0xD7 JUMPI PUSH1 0x20 PUSH1 0x5 SLOAD PUSH1 0x40 MLOAD SWAP1 DUP2 MSTORE RETURN JUMPDEST CALLVALUE PUSH2 0xD7 JUMPI PUSH1 0x40 CALLDATASIZE PUSH1 0x3 NOT ADD SLT PUSH2 0xD7 JUMPI PUSH2 0x706 PUSH2 0x907 JUMP JUMPDEST PUSH1 0x40 PUSH2 0x710 PUSH2 0x91D JUMP JUMPDEST PUSH1 0x1 PUSH1 0x1 PUSH1 0xA0 SHL SUB SWAP1 DUP2 AND PUSH1 0x0 DUP2 DUP2 MSTORE PUSH1 0x20 DUP2 DUP2 MSTORE DUP5 DUP3 KECCAK256 SWAP6 SWAP1 SWAP4 AND DUP2 MSTORE PUSH1 0x1 DUP4 MSTORE DUP4 DUP2 KECCAK256 SWAP2 DUP2 MSTORE SWAP2 MSTORE KECCAK256 PUSH1 0x5 DUP3 ADD SLOAD PUSH1 0x3 DUP4 ADD SLOAD SWAP1 SWAP3 DUP2 PUSH2 0x78B JUMPI JUMPDEST PUSH1 0x20 PUSH2 0x783 DUP5 PUSH1 0x2 PUSH8 0xDE0B6B3A7640000 PUSH2 0x779 DUP10 PUSH2 0x773 DUP6 SLOAD SWAP2 PUSH1 0x1 DUP8 ADD SLOAD SWAP1 PUSH2 0x9BB JUMP JUMPDEST SWAP1 PUSH2 0x9C8 JUMP JUMPDEST DIV SWAP2 ADD SLOAD SWAP1 PUSH2 0x9FB JUMP JUMPDEST PUSH1 0x40 MLOAD SWAP1 DUP2 MSTORE RETURN JUMPDEST DUP1 PUSH1 0x2 PUSH2 0x7A2 PUSH1 0x4 PUSH2 0x7AB SWAP5 SWAP7 SWAP6 SWAP7 ADD SLOAD TIMESTAMP PUSH2 0x9BB JUMP JUMPDEST SWAP2 ADD SLOAD SWAP1 PUSH2 0x9C8 JUMP JUMPDEST SWAP2 PUSH8 0xDE0B6B3A7640000 DUP4 MUL SWAP3 DUP1 DUP5 DIV PUSH8 0xDE0B6B3A7640000 EQ SWAP1 ISZERO OR ISZERO PUSH2 0x211 JUMPI PUSH8 0xDE0B6B3A7640000 PUSH2 0x779 PUSH2 0x7F4 PUSH1 0x20 SWAP7 PUSH2 0x7EE PUSH1 0x2 SWAP6 PUSH2 0x783 SWAP9 PUSH2 0x9DB JUMP JUMPDEST SWAP1 PUSH2 0x9FB JUMP JUMPDEST SWAP6 POP POP POP DUP2 SWAP3 POP PUSH2 0x74D JUMP JUMPDEST CALLVALUE PUSH2 0xD7 JUMPI PUSH1 0x0 CALLDATASIZE PUSH1 0x3 NOT ADD SLT PUSH2 0xD7 JUMPI PUSH1 0x20 PUSH1 0x3 SLOAD PUSH1 0x40 MLOAD SWAP1 DUP2 MSTORE RETURN JUMPDEST CALLVALUE PUSH2 0xD7 JUMPI PUSH1 0x20 CALLDATASIZE PUSH1 0x3 NOT ADD SLT PUSH2 0xD7 JUMPI PUSH1 0x0 PUSH1 0xA0 PUSH2 0x83B PUSH2 0x907 JUMP JUMPDEST SWAP3 PUSH2 0x845 DUP2 PUSH2 0x96D JUMP JUMPDEST DUP3 DUP2 MSTORE DUP3 PUSH1 0x20 DUP3 ADD MSTORE DUP3 PUSH1 0x40 DUP3 ADD MSTORE DUP3 PUSH1 0x60 DUP3 ADD MSTORE DUP3 PUSH1 0x80 DUP3 ADD MSTORE ADD MSTORE PUSH1 0x1 DUP1 PUSH1 0xA0 SHL SUB AND PUSH1 0x0 MSTORE PUSH1 0x0 PUSH1 0x20 MSTORE PUSH1 0xC0 PUSH1 0x40 PUSH1 0x0 KECCAK256 PUSH1 0x40 MLOAD PUSH2 0x885 DUP2 PUSH2 0x96D JUMP JUMPDEST PUSH1 0x1 DUP1 PUSH1 0xA0 SHL SUB DUP3 SLOAD AND SWAP2 DUP3 DUP3 MSTORE PUSH1 0x1 DUP1 PUSH1 0xA0 SHL SUB PUSH1 0x1 DUP3 ADD SLOAD AND PUSH1 0x20 DUP4 ADD SWAP1 DUP2 MSTORE PUSH1 0x2 DUP3 ADD SLOAD PUSH1 0x40 DUP5 ADD SWAP1 DUP2 MSTORE PUSH1 0x3 DUP4 ADD SLOAD SWAP2 PUSH1 0x60 DUP6 ADD SWAP3 DUP4 MSTORE PUSH1 0xA0 PUSH1 0x5 PUSH1 0x4 DUP7 ADD SLOAD SWAP6 PUSH1 0x80 DUP9 ADD SWAP7 DUP8 MSTORE ADD SLOAD SWAP6 ADD SWAP5 DUP6 MSTORE PUSH1 0x40 MLOAD SWAP6 DUP7 MSTORE PUSH1 0x1 DUP1 PUSH1 0xA0 SHL SUB SWAP1 MLOAD AND PUSH1 0x20 DUP7 ADD MSTORE MLOAD PUSH1 0x40 DUP6 ADD MSTORE MLOAD PUSH1 0x60 DUP5 ADD MSTORE MLOAD PUSH1 0x80 DUP4 ADD MSTORE MLOAD PUSH1 0xA0 DUP3 ADD MSTORE RETURN JUMPDEST PUSH1 0x4 CALLDATALOAD SWAP1 PUSH1 0x1 PUSH1 0x1 PUSH1 0xA0 SHL SUB DUP3 AND DUP3 SUB PUSH2 0xD7 JUMPI JUMP JUMPDEST PUSH1 0x24 CALLDATALOAD SWAP1 PUSH1 0x1 PUSH1 0x1 PUSH1 0xA0 SHL SUB DUP3 AND DUP3 SUB PUSH2 0xD7 JUMPI JUMP JUMPDEST PUSH1 0x60 SWAP1 PUSH1 0x3 NOT ADD SLT PUSH2 0xD7 JUMPI PUSH1 0x4 CALLDATALOAD PUSH1 0x1 PUSH1 0x1 PUSH1 0xA0 SHL SUB DUP2 AND DUP2 SUB PUSH2 0xD7 JUMPI SWAP1 PUSH1 0x24 CALLDATALOAD PUSH1 0x1 PUSH1 0x1 PUSH1 0xA0 SHL SUB DUP2 AND DUP2 SUB PUSH2 0xD7 JUMPI SWAP1 PUSH1 0x44 CALLDATALOAD SWAP1 JUMP JUMPDEST PUSH1 0xC0 DUP2 ADD SWAP1 DUP2 LT PUSH8 0xFFFFFFFFFFFFFFFF DUP3 GT OR PUSH2 0x989 JUMPI PUSH1 0x40 MSTORE JUMP JUMPDEST PUSH4 0x4E487B71 PUSH1 0xE0 SHL PUSH1 0x0 MSTORE PUSH1 0x41 PUSH1 0x4 MSTORE PUSH1 0x24 PUSH1 0x0 REVERT JUMPDEST PUSH1 0x60 DUP2 ADD SWAP1 DUP2 LT PUSH8 0xFFFFFFFFFFFFFFFF DUP3 GT OR PUSH2 0x989 JUMPI PUSH1 0x40 MSTORE JUMP JUMPDEST SWAP2 SWAP1 DUP3 SUB SWAP2 DUP3 GT PUSH2 0x211 JUMPI JUMP JUMPDEST DUP2 DUP2 MUL SWAP3 SWAP2 DUP2 ISZERO SWAP2 DUP5 DIV EQ OR ISZERO PUSH2 0x211 JUMPI JUMP JUMPDEST DUP2 ISZERO PUSH2 0x9E5 JUMPI DIV SWAP1 JUMP JUMPDEST PUSH4 0x4E487B71 PUSH1 0xE0 SHL PUSH1 0x0 MSTORE PUSH1 0x12 PUSH1 0x4 MSTORE PUSH1 0x24 PUSH1 0x0 REVERT JUMPDEST SWAP2 SWAP1 DUP3 ADD DUP1 SWAP3 GT PUSH2 0x211 JUMPI JUMP JUMPDEST ISZERO PUSH2 0xA0F JUMPI JUMP JUMPDEST PUSH1 0x40 MLOAD PUSH3 0x461BCD PUSH1 0xE5 SHL DUP2 MSTORE PUSH1 0x20 PUSH1 0x4 DUP3 ADD MSTORE PUSH1 0xE PUSH1 0x24 DUP3 ADD MSTORE PUSH14 0x141BDBDB081B9BDD08199BDD5B99 PUSH1 0x92 SHL PUSH1 0x44 DUP3 ADD MSTORE PUSH1 0x64 SWAP1 REVERT INVALID LOG2 PUSH5 0x6970667358 0x22 SLT KECCAK256 DUP4 0xEA 0xC 0xEB CODESIZE 0x4E CODESIZE 0x2B PUSH3 0xCEF62 MUL PUSH27 0x1C5F4307E30A7A99D66CF8EAF95BD6E9F91564736F6C634300081C STOP CALLER "},"methodIdentifiers":{"addPool(address,address,uint256)":"7e29d6c2","claimRewards()":"372500ab","earned(address,address)":"211dc32d","endTime()":"3197cbb6","getPoolInfo(address)":"06bfa938","getUserStake(address,address)":"3710d4c7","pools(address)":"a4063dbc","rewardToken()":"f7c618c1","stake(address,address,uint256)":"bf6eac2f","startTime()":"78e97925","totalRewards()":"0e15561a","userStakes(address,address)":"862d2d7c","withdraw(address,address,uint256)":"d9caed12"}}}}}