{"contracts/SimpleDEX.sol":{"SimpleDEX":{"abi":[{"anonymous":false,"inputs":[{"indexed":true,"internalType":"address","name":"token0","type":"address"},{"indexed":true,"internalType":"address","name":"token1","type":"address"},{"indexed":false,"internalType":"uint256","name":"amount0","type":"uint256"},{"indexed":false,"internalType":"uint256","name":"amount1","type":"uint256"},{"indexed":false,"internalType":"uint256","name":"liquidity","type":"uint256"},{"indexed":true,"internalType":"address","name":"provider","type":"address"}],"name":"LiquidityAdded","type":"event"},{"anonymous":false,"inputs":[{"indexed":true,"internalType":"address","name":"tokenIn","type":"address"},{"indexed":true,"internalType":"address","name":"tokenOut","type":"address"},{"indexed":false,"internalType":"uint256","name":"amountIn","type":"uint256"},{"indexed":false,"internalType":"uint256","name":"amountOut","type":"uint256"},{"indexed":true,"internalType":"address","name":"trader","type":"address"}],"name":"Swap","type":"event"},{"inputs":[{"internalType":"address","name":"token0","type":"address"},{"internalType":"address","name":"token1","type":"address"},{"internalType":"uint256","name":"amount0Desired","type":"uint256"},{"internalType":"uint256","name":"amount1Desired","type":"uint256"}],"name":"addLiquidity","outputs":[{"internalType":"uint256","name":"liquidity","type":"uint256"}],"stateMutability":"nonpayable","type":"function"},{"inputs":[{"internalType":"address","name":"token0","type":"address"},{"internalType":"address","name":"token1","type":"address"},{"internalType":"address","name":"user","type":"address"}],"name":"getBalance","outputs":[{"internalType":"uint256","name":"","type":"uint256"}],"stateMutability":"view","type":"function"},{"inputs":[{"internalType":"address","name":"token0","type":"address"},{"internalType":"address","name":"token1","type":"address"}],"name":"getLiquidity","outputs":[{"internalType":"uint256","name":"","type":"uint256"}],"stateMutability":"view","type":"function"},{"inputs":[{"internalType":"address","name":"token0","type":"address"},{"internalType":"address","name":"token1","type":"address"}],"name":"getReserves","outputs":[{"internalType":"uint256","name":"reserve0","type":"uint256"},{"internalType":"uint256","name":"reserve1","type":"uint256"}],"stateMutability":"view","type":"function"},{"inputs":[{"internalType":"address","name":"","type":"address"},{"internalType":"address","name":"","type":"address"}],"name":"pools","outputs":[{"internalType":"uint256","name":"reserve0","type":"uint256"},{"internalType":"uint256","name":"reserve1","type":"uint256"},{"internalType":"uint256","name":"totalSupply","type":"uint256"}],"stateMutability":"view","type":"function"},{"inputs":[{"internalType":"address","name":"token0","type":"address"},{"internalType":"address","name":"token1","type":"address"},{"internalType":"uint256","name":"liquidity","type":"uint256"}],"name":"removeLiquidity","outputs":[{"internalType":"uint256","name":"amount0","type":"uint256"},{"internalType":"uint256","name":"amount1","type":"uint256"}],"stateMutability":"nonpayable","type":"function"},{"inputs":[{"internalType":"address","name":"tokenIn","type":"address"},{"internalType":"address","name":"tokenOut","type":"address"},{"internalType":"uint256","name":"amountIn","type":"uint256"}],"name":"swap","outputs":[{"internalType":"uint256","name":"amountOut","type":"uint256"}],"stateMutability":"nonpayable","type":"function"}],"evm":{"bytecode":{"linkReferences":{},"object":"60808060405234601557610c4b908161001b8239f35b600080fdfe6080604052600436101561001257600080fd5b60003560e01c8063901754d7146109cc578063cf6c62ea146106e7578063d52bb6f41461066d578063d6bd603c146105d1578063d752fab2146103b3578063df791e50146100dc5763ea526de71461006957600080fd5b346100d75760403660031901126100d757610082610a38565b61008a610a4e565b906001600160a01b0380831690821610156100d1575b6001600160a01b03908116600090815260208181526040808320949093168252928352819020600201549051908152f35b906100a0565b600080fd5b346100d7576100ea36610a64565b6001600160a01b03838116939083169061010685831415610a9e565b60408315946101158615610ae0565b8387109283156103ad575b60018060a01b031660005260006020528160002060009160018060a01b03168252602052209384541515806103a0575b15610362576040516323b872dd60e01b81523360048201523060248201526044810185905260208160648160008b5af180156102aa57610345575b506103e58402908482046103e514171561031b57811561033b576101b460018601545b82610b7c565b82156103315785545b6103e88102908082046103e8149015171561031b576101e5926101df91610baf565b90610b8f565b9384156102d657600191156102b6576101ff848254610baf565b81550161020d848254610c08565b90555b60405163a9059cbb60e01b815233600482015260248101849052936020856044816000865af19485156102aa5760209561027f575b5060405192835283858401527fb39c9bc43f811e1a7ce159c5f147458fdb80266bf23c17322013316e27e086d060403394a4604051908152f35b61029e90863d88116102a3575b6102968183610b2c565b810190610b64565b610245565b503d61028c565b6040513d6000823e3d90fd5b6102c1858254610c08565b8155016102cf838254610baf565b9055610210565b60405162461bcd60e51b815260206004820152601a60248201527f494e53554646494349454e545f4f55545055545f414d4f554e540000000000006044820152606490fd5b634e487b7160e01b600052601160045260246000fd5b60018601546101bd565b6101b485546101ae565b61035d9060203d6020116102a3576102968183610b2c565b61018b565b60405162461bcd60e51b8152602060048201526016602482015275494e53554646494349454e545f4c495155494449545960501b6044820152606490fd5b5060018501541515610150565b90610120565b346100d7576103c136610a64565b90916001600160a01b038084169082166103dd81831415610a9e565b6103e8841515610bbc565b10156105cb575b6001600160a01b03908116600081815260208181526040808320948716835293815283822033835260038101918290529390912054909290841161058657610438815485610b7c565b90600281016104a061044c82548095610b8f565b966104656001850195610460875484610b7c565b610b8f565b968815158061057d575b61047890610bbc565b60018060a01b0333166000526020526040600020610497828254610c08565b90558254610c08565b90556104ad858254610c08565b90556104ba838254610c08565b905560405163a9059cbb60e01b81523360048201526024810184905290602090829060449082906000905af180156102aa57610560575b5060405163a9059cbb60e01b81523360048201526024810182905292602090849060449082906000906001600160a01b03165af19283156102aa57604093610541575b5082519182526020820152f35b6105599060203d6020116102a3576102968183610b2c565b5083610534565b6105789060203d6020116102a3576102968183610b2c565b6104f1565b5087151561046f565b60405162461bcd60e51b815260206004820152601e60248201527f494e53554646494349454e545f4c49515549444954595f42414c414e434500006044820152606490fd5b916103ef565b346100d75760603660031901126100d7576105ea610a38565b6105f2610a4e565b604435906001600160a01b03821682036100d7576003926001600160a01b038281169082161015610667575b60018060a01b0316600052600060205260406000209060018060a01b031660005260205260406000209060018060a01b0316600052016020526020604060002054604051908152f35b9061061e565b346100d75760403660031901126100d757610686610a38565b61068e610a4e565b906001600160a01b0380831690821610156106e1575b60018060a01b0316600052600060205260406000209060018060a01b03166000526020526040806000206001815491015482519182526020820152f35b906106a4565b346100d75760803660031901126100d757610700610a38565b610708610a4e565b6064356044356001600160a01b0383811690851661072881831415610a9e565b821515806109c3575b61073a90610ae0565b109384156109bd5792935b156109b75790915b6001600160a01b03908116600081815260208181526040808320948816835293815283822093516323b872dd60e01b815233600482015230602482015260448101869052939692939182906064908290875af180156102aa5761099a575b506040516323b872dd60e01b8152336004820152306024820152604481018590526001600160a01b039190911691906020816064816000875af180156102aa5761097d575b50600285018054959086610939576108088686610b7c565b6000600382111561092b5750808060011c6001810180911161031b57905b82821061090c5750505b955b86156108c75760038388936108888560209c6108708c7fa7c0bc175494aac705fdccdb501213f94fb9a6f1dd9be0b3488298cb2dc160889a54610baf565b855560018501610881888254610baf565b9055610baf565b9055336000908152910189526040902080546108a5908490610baf565b90556040805196875260208701919091528501523393606090a4604051908152f35b60405162461bcd60e51b815260206004820152601d60248201527f494e53554646494349454e545f4c49515549444954595f4d494e5445440000006044820152606490fd5b9091506109228261091d8184610b8f565b610baf565b60011c90610826565b901561083057506001610830565b61094e6109468887610b7c565b835490610b8f565b61096661095b8989610b7c565b600185015490610b8f565b8082101561097657505b95610832565b9050610970565b6109959060203d6020116102a3576102968183610b2c565b6107f0565b6109b29060203d6020116102a3576102968183610b2c565b6107ab565b9161074d565b93610745565b50831515610731565b346100d75760403660031901126100d75760406109e7610a38565b6109ef610a4e565b6001600160a01b03918216600090815260208181528482209290931681529082529190912080546001820154600290920154604080519283529382019290925291820152606090f35b600435906001600160a01b03821682036100d757565b602435906001600160a01b03821682036100d757565b60609060031901126100d7576004356001600160a01b03811681036100d757906024356001600160a01b03811681036100d7579060443590565b15610aa557565b60405162461bcd60e51b81526020600482015260136024820152724944454e544943414c5f41444452455353455360681b6044820152606490fd5b15610ae757565b60405162461bcd60e51b815260206004820152601960248201527f494e53554646494349454e545f494e5055545f414d4f554e54000000000000006044820152606490fd5b90601f8019910116810190811067ffffffffffffffff821117610b4e57604052565b634e487b7160e01b600052604160045260246000fd5b908160209103126100d7575180151581036100d75790565b8181029291811591840414171561031b57565b8115610b99570490565b634e487b7160e01b600052601260045260246000fd5b9190820180921161031b57565b15610bc357565b60405162461bcd60e51b815260206004820152601d60248201527f494e53554646494349454e545f4c49515549444954595f4255524e45440000006044820152606490fd5b9190820391821161031b5756fea26469706673582212203b7495200d975b8ded0f11a080d9449336edb8b98508c9354da50ccd0c6ff87964736f6c634300081c0033","opcodes":"PUSH1 0x80 DUP1 PUSH1 0x40 MSTORE CALLVALUE PUSH1 0x15 JUMPI PUSH2 0xC4B SWAP1 DUP2 PUSH2 0x1B DUP3 CODECOPY RETURN JUMPDEST PUSH1 0x0 DUP1 REVERT INVALID PUSH1 0x80 PUSH1 0x40 MSTORE PUSH1 0x4 CALLDATASIZE LT ISZERO PUSH2 0x12 JUMPI PUSH1 0x0 DUP1 REVERT JUMPDEST PUSH1 0x0 CALLDATALOAD PUSH1 0xE0 SHR DUP1 PUSH4 0x901754D7 EQ PUSH2 0x9CC JUMPI DUP1 PUSH4 0xCF6C62EA EQ PUSH2 0x6E7 JUMPI DUP1 PUSH4 0xD52BB6F4 EQ PUSH2 0x66D JUMPI DUP1 PUSH4 0xD6BD603C EQ PUSH2 0x5D1 JUMPI DUP1 PUSH4 0xD752FAB2 EQ PUSH2 0x3B3 JUMPI DUP1 PUSH4 0xDF791E50 EQ PUSH2 0xDC JUMPI PUSH4 0xEA526DE7 EQ PUSH2 0x69 JUMPI PUSH1 0x0 DUP1 REVERT JUMPDEST CALLVALUE PUSH2 0xD7 JUMPI PUSH1 0x40 CALLDATASIZE PUSH1 0x3 NOT ADD SLT PUSH2 0xD7 JUMPI PUSH2 0x82 PUSH2 0xA38 JUMP JUMPDEST PUSH2 0x8A PUSH2 0xA4E JUMP JUMPDEST SWAP1 PUSH1 0x1 PUSH1 0x1 PUSH1 0xA0 SHL SUB DUP1 DUP4 AND SWAP1 DUP3 AND LT ISZERO PUSH2 0xD1 JUMPI JUMPDEST PUSH1 0x1 PUSH1 0x1 PUSH1 0xA0 SHL SUB SWAP1 DUP2 AND PUSH1 0x0 SWAP1 DUP2 MSTORE PUSH1 0x20 DUP2 DUP2 MSTORE PUSH1 0x40 DUP1 DUP4 KECCAK256 SWAP5 SWAP1 SWAP4 AND DUP3 MSTORE SWAP3 DUP4 MSTORE DUP2 SWAP1 KECCAK256 PUSH1 0x2 ADD SLOAD SWAP1 MLOAD SWAP1 DUP2 MSTORE RETURN JUMPDEST SWAP1 PUSH2 0xA0 JUMP JUMPDEST PUSH1 0x0 DUP1 REVERT JUMPDEST CALLVALUE PUSH2 0xD7 JUMPI PUSH2 0xEA CALLDATASIZE PUSH2 0xA64 JUMP JUMPDEST PUSH1 0x1 PUSH1 0x1 PUSH1 0xA0 SHL SUB DUP4 DUP2 AND SWAP4 SWAP1 DUP4 AND SWAP1 PUSH2 0x106 DUP6 DUP4 EQ ISZERO PUSH2 0xA9E JUMP JUMPDEST PUSH1 0x40 DUP4 ISZERO SWAP5 PUSH2 0x115 DUP7 ISZERO PUSH2 0xAE0 JUMP JUMPDEST DUP4 DUP8 LT SWAP3 DUP4 ISZERO PUSH2 0x3AD JUMPI JUMPDEST PUSH1 0x1 DUP1 PUSH1 0xA0 SHL SUB AND PUSH1 0x0 MSTORE PUSH1 0x0 PUSH1 0x20 MSTORE DUP2 PUSH1 0x0 KECCAK256 PUSH1 0x0 SWAP2 PUSH1 0x1 DUP1 PUSH1 0xA0 SHL SUB AND DUP3 MSTORE PUSH1 0x20 MSTORE KECCAK256 SWAP4 DUP5 SLOAD ISZERO ISZERO DUP1 PUSH2 0x3A0 JUMPI JUMPDEST ISZERO PUSH2 0x362 JUMPI PUSH1 0x40 MLOAD PUSH4 0x23B872DD PUSH1 0xE0 SHL DUP2 MSTORE CALLER PUSH1 0x4 DUP3 ADD MSTORE ADDRESS PUSH1 0x24 DUP3 ADD MSTORE PUSH1 0x44 DUP2 ADD DUP6 SWAP1 MSTORE PUSH1 0x20 DUP2 PUSH1 0x64 DUP2 PUSH1 0x0 DUP12 GAS CALL DUP1 ISZERO PUSH2 0x2AA JUMPI PUSH2 0x345 JUMPI JUMPDEST POP PUSH2 0x3E5 DUP5 MUL SWAP1 DUP5 DUP3 DIV PUSH2 0x3E5 EQ OR ISZERO PUSH2 0x31B JUMPI DUP2 ISZERO PUSH2 0x33B JUMPI PUSH2 0x1B4 PUSH1 0x1 DUP7 ADD SLOAD JUMPDEST DUP3 PUSH2 0xB7C JUMP JUMPDEST DUP3 ISZERO PUSH2 0x331 JUMPI DUP6 SLOAD JUMPDEST PUSH2 0x3E8 DUP2 MUL SWAP1 DUP1 DUP3 DIV PUSH2 0x3E8 EQ SWAP1 ISZERO OR ISZERO PUSH2 0x31B JUMPI PUSH2 0x1E5 SWAP3 PUSH2 0x1DF SWAP2 PUSH2 0xBAF JUMP JUMPDEST SWAP1 PUSH2 0xB8F JUMP JUMPDEST SWAP4 DUP5 ISZERO PUSH2 0x2D6 JUMPI PUSH1 0x1 SWAP2 ISZERO PUSH2 0x2B6 JUMPI PUSH2 0x1FF DUP5 DUP3 SLOAD PUSH2 0xBAF JUMP JUMPDEST DUP2 SSTORE ADD PUSH2 0x20D DUP5 DUP3 SLOAD PUSH2 0xC08 JUMP JUMPDEST SWAP1 SSTORE JUMPDEST PUSH1 0x40 MLOAD PUSH4 0xA9059CBB PUSH1 0xE0 SHL DUP2 MSTORE CALLER PUSH1 0x4 DUP3 ADD MSTORE PUSH1 0x24 DUP2 ADD DUP5 SWAP1 MSTORE SWAP4 PUSH1 0x20 DUP6 PUSH1 0x44 DUP2 PUSH1 0x0 DUP7 GAS CALL SWAP5 DUP6 ISZERO PUSH2 0x2AA JUMPI PUSH1 0x20 SWAP6 PUSH2 0x27F JUMPI JUMPDEST POP PUSH1 0x40 MLOAD SWAP3 DUP4 MSTORE DUP4 DUP6 DUP5 ADD MSTORE PUSH32 0xB39C9BC43F811E1A7CE159C5F147458FDB80266BF23C17322013316E27E086D0 PUSH1 0x40 CALLER SWAP5 LOG4 PUSH1 0x40 MLOAD SWAP1 DUP2 MSTORE RETURN JUMPDEST PUSH2 0x29E SWAP1 DUP7 RETURNDATASIZE DUP9 GT PUSH2 0x2A3 JUMPI JUMPDEST PUSH2 0x296 DUP2 DUP4 PUSH2 0xB2C JUMP JUMPDEST DUP2 ADD SWAP1 PUSH2 0xB64 JUMP JUMPDEST PUSH2 0x245 JUMP JUMPDEST POP RETURNDATASIZE PUSH2 0x28C JUMP JUMPDEST PUSH1 0x40 MLOAD RETURNDATASIZE PUSH1 0x0 DUP3 RETURNDATACOPY RETURNDATASIZE SWAP1 REVERT JUMPDEST PUSH2 0x2C1 DUP6 DUP3 SLOAD PUSH2 0xC08 JUMP JUMPDEST DUP2 SSTORE ADD PUSH2 0x2CF DUP4 DUP3 SLOAD PUSH2 0xBAF JUMP JUMPDEST SWAP1 SSTORE PUSH2 0x210 JUMP JUMPDEST PUSH1 0x40 MLOAD PUSH3 0x461BCD PUSH1 0xE5 SHL DUP2 MSTORE PUSH1 0x20 PUSH1 0x4 DUP3 ADD MSTORE PUSH1 0x1A PUSH1 0x24 DUP3 ADD MSTORE PUSH32 0x494E53554646494349454E545F4F55545055545F414D4F554E54000000000000 PUSH1 0x44 DUP3 ADD MSTORE PUSH1 0x64 SWAP1 REVERT JUMPDEST PUSH4 0x4E487B71 PUSH1 0xE0 SHL PUSH1 0x0 MSTORE PUSH1 0x11 PUSH1 0x4 MSTORE PUSH1 0x24 PUSH1 0x0 REVERT JUMPDEST PUSH1 0x1 DUP7 ADD SLOAD PUSH2 0x1BD JUMP JUMPDEST PUSH2 0x1B4 DUP6 SLOAD PUSH2 0x1AE JUMP JUMPDEST PUSH2 0x35D SWAP1 PUSH1 0x20 RETURNDATASIZE PUSH1 0x20 GT PUSH2 0x2A3 JUMPI PUSH2 0x296 DUP2 DUP4 PUSH2 0xB2C JUMP JUMPDEST PUSH2 0x18B JUMP JUMPDEST PUSH1 0x40 MLOAD PUSH3 0x461BCD PUSH1 0xE5 SHL DUP2 MSTORE PUSH1 0x20 PUSH1 0x4 DUP3 ADD MSTORE PUSH1 0x16 PUSH1 0x24 DUP3 ADD MSTORE PUSH22 0x494E53554646494349454E545F4C4951554944495459 PUSH1 0x50 SHL PUSH1 0x44 DUP3 ADD MSTORE PUSH1 0x64 SWAP1 REVERT JUMPDEST POP PUSH1 0x1 DUP6 ADD SLOAD ISZERO ISZERO PUSH2 0x150 JUMP JUMPDEST SWAP1 PUSH2 0x120 JUMP JUMPDEST CALLVALUE PUSH2 0xD7 JUMPI PUSH2 0x3C1 CALLDATASIZE PUSH2 0xA64 JUMP JUMPDEST SWAP1 SWAP2 PUSH1 0x1 PUSH1 0x1 PUSH1 0xA0 SHL SUB DUP1 DUP5 AND SWAP1 DUP3 AND PUSH2 0x3DD DUP2 DUP4 EQ ISZERO PUSH2 0xA9E JUMP JUMPDEST PUSH2 0x3E8 DUP5 ISZERO ISZERO PUSH2 0xBBC JUMP JUMPDEST LT ISZERO PUSH2 0x5CB JUMPI JUMPDEST PUSH1 0x1 PUSH1 0x1 PUSH1 0xA0 SHL SUB SWAP1 DUP2 AND PUSH1 0x0 DUP2 DUP2 MSTORE PUSH1 0x20 DUP2 DUP2 MSTORE PUSH1 0x40 DUP1 DUP4 KECCAK256 SWAP5 DUP8 AND DUP4 MSTORE SWAP4 DUP2 MSTORE DUP4 DUP3 KECCAK256 CALLER DUP4 MSTORE PUSH1 0x3 DUP2 ADD SWAP2 DUP3 SWAP1 MSTORE SWAP4 SWAP1 SWAP2 KECCAK256 SLOAD SWAP1 SWAP3 SWAP1 DUP5 GT PUSH2 0x586 JUMPI PUSH2 0x438 DUP2 SLOAD DUP6 PUSH2 0xB7C JUMP JUMPDEST SWAP1 PUSH1 0x2 DUP2 ADD PUSH2 0x4A0 PUSH2 0x44C DUP3 SLOAD DUP1 SWAP6 PUSH2 0xB8F JUMP JUMPDEST SWAP7 PUSH2 0x465 PUSH1 0x1 DUP6 ADD SWAP6 PUSH2 0x460 DUP8 SLOAD DUP5 PUSH2 0xB7C JUMP JUMPDEST PUSH2 0xB8F JUMP JUMPDEST SWAP7 DUP9 ISZERO ISZERO DUP1 PUSH2 0x57D JUMPI JUMPDEST PUSH2 0x478 SWAP1 PUSH2 0xBBC JUMP JUMPDEST PUSH1 0x1 DUP1 PUSH1 0xA0 SHL SUB CALLER AND PUSH1 0x0 MSTORE PUSH1 0x20 MSTORE PUSH1 0x40 PUSH1 0x0 KECCAK256 PUSH2 0x497 DUP3 DUP3 SLOAD PUSH2 0xC08 JUMP JUMPDEST SWAP1 SSTORE DUP3 SLOAD PUSH2 0xC08 JUMP JUMPDEST SWAP1 SSTORE PUSH2 0x4AD DUP6 DUP3 SLOAD PUSH2 0xC08 JUMP JUMPDEST SWAP1 SSTORE PUSH2 0x4BA DUP4 DUP3 SLOAD PUSH2 0xC08 JUMP JUMPDEST SWAP1 SSTORE PUSH1 0x40 MLOAD PUSH4 0xA9059CBB PUSH1 0xE0 SHL DUP2 MSTORE CALLER PUSH1 0x4 DUP3 ADD MSTORE PUSH1 0x24 DUP2 ADD DUP5 SWAP1 MSTORE SWAP1 PUSH1 0x20 SWAP1 DUP3 SWAP1 PUSH1 0x44 SWAP1 DUP3 SWAP1 PUSH1 0x0 SWAP1 GAS CALL DUP1 ISZERO PUSH2 0x2AA JUMPI PUSH2 0x560 JUMPI JUMPDEST POP PUSH1 0x40 MLOAD PUSH4 0xA9059CBB PUSH1 0xE0 SHL DUP2 MSTORE CALLER PUSH1 0x4 DUP3 ADD MSTORE PUSH1 0x24 DUP2 ADD DUP3 SWAP1 MSTORE SWAP3 PUSH1 0x20 SWAP1 DUP5 SWAP1 PUSH1 0x44 SWAP1 DUP3 SWAP1 PUSH1 0x0 SWAP1 PUSH1 0x1 PUSH1 0x1 PUSH1 0xA0 SHL SUB AND GAS CALL SWAP3 DUP4 ISZERO PUSH2 0x2AA JUMPI PUSH1 0x40 SWAP4 PUSH2 0x541 JUMPI JUMPDEST POP DUP3 MLOAD SWAP2 DUP3 MSTORE PUSH1 0x20 DUP3 ADD MSTORE RETURN JUMPDEST PUSH2 0x559 SWAP1 PUSH1 0x20 RETURNDATASIZE PUSH1 0x20 GT PUSH2 0x2A3 JUMPI PUSH2 0x296 DUP2 DUP4 PUSH2 0xB2C JUMP JUMPDEST POP DUP4 PUSH2 0x534 JUMP JUMPDEST PUSH2 0x578 SWAP1 PUSH1 0x20 RETURNDATASIZE PUSH1 0x20 GT PUSH2 0x2A3 JUMPI PUSH2 0x296 DUP2 DUP4 PUSH2 0xB2C JUMP JUMPDEST PUSH2 0x4F1 JUMP JUMPDEST POP DUP8 ISZERO ISZERO PUSH2 0x46F JUMP JUMPDEST PUSH1 0x40 MLOAD PUSH3 0x461BCD PUSH1 0xE5 SHL DUP2 MSTORE PUSH1 0x20 PUSH1 0x4 DUP3 ADD MSTORE PUSH1 0x1E PUSH1 0x24 DUP3 ADD MSTORE PUSH32 0x494E53554646494349454E545F4C49515549444954595F42414C414E43450000 PUSH1 0x44 DUP3 ADD MSTORE PUSH1 0x64 SWAP1 REVERT JUMPDEST SWAP2 PUSH2 0x3EF JUMP JUMPDEST CALLVALUE PUSH2 0xD7 JUMPI PUSH1 0x60 CALLDATASIZE PUSH1 0x3 NOT ADD SLT PUSH2 0xD7 JUMPI PUSH2 0x5EA PUSH2 0xA38 JUMP JUMPDEST PUSH2 0x5F2 PUSH2 0xA4E JUMP JUMPDEST PUSH1 0x44 CALLDATALOAD SWAP1 PUSH1 0x1 PUSH1 0x1 PUSH1 0xA0 SHL SUB DUP3 AND DUP3 SUB PUSH2 0xD7 JUMPI PUSH1 0x3 SWAP3 PUSH1 0x1 PUSH1 0x1 PUSH1 0xA0 SHL SUB DUP3 DUP2 AND SWAP1 DUP3 AND LT ISZERO PUSH2 0x667 JUMPI JUMPDEST PUSH1 0x1 DUP1 PUSH1 0xA0 SHL SUB AND PUSH1 0x0 MSTORE PUSH1 0x0 PUSH1 0x20 MSTORE PUSH1 0x40 PUSH1 0x0 KECCAK256 SWAP1 PUSH1 0x1 DUP1 PUSH1 0xA0 SHL SUB AND PUSH1 0x0 MSTORE PUSH1 0x20 MSTORE PUSH1 0x40 PUSH1 0x0 KECCAK256 SWAP1 PUSH1 0x1 DUP1 PUSH1 0xA0 SHL SUB AND PUSH1 0x0 MSTORE ADD PUSH1 0x20 MSTORE PUSH1 0x20 PUSH1 0x40 PUSH1 0x0 KECCAK256 SLOAD PUSH1 0x40 MLOAD SWAP1 DUP2 MSTORE RETURN JUMPDEST SWAP1 PUSH2 0x61E JUMP JUMPDEST CALLVALUE PUSH2 0xD7 JUMPI PUSH1 0x40 CALLDATASIZE PUSH1 0x3 NOT ADD SLT PUSH2 0xD7 JUMPI PUSH2 0x686 PUSH2 0xA38 JUMP JUMPDEST PUSH2 0x68E PUSH2 0xA4E JUMP JUMPDEST SWAP1 PUSH1 0x1 PUSH1 0x1 PUSH1 0xA0 SHL SUB DUP1 DUP4 AND SWAP1 DUP3 AND LT ISZERO PUSH2 0x6E1 JUMPI JUMPDEST PUSH1 0x1 DUP1 PUSH1 0xA0 SHL SUB AND PUSH1 0x0 MSTORE PUSH1 0x0 PUSH1 0x20 MSTORE PUSH1 0x40 PUSH1 0x0 KECCAK256 SWAP1 PUSH1 0x1 DUP1 PUSH1 0xA0 SHL SUB AND PUSH1 0x0 MSTORE PUSH1 0x20 MSTORE PUSH1 0x40 DUP1 PUSH1 0x0 KECCAK256 PUSH1 0x1 DUP2 SLOAD SWAP2 ADD SLOAD DUP3 MLOAD SWAP2 DUP3 MSTORE PUSH1 0x20 DUP3 ADD MSTORE RETURN JUMPDEST SWAP1 PUSH2 0x6A4 JUMP JUMPDEST CALLVALUE PUSH2 0xD7 JUMPI PUSH1 0x80 CALLDATASIZE PUSH1 0x3 NOT ADD SLT PUSH2 0xD7 JUMPI PUSH2 0x700 PUSH2 0xA38 JUMP JUMPDEST PUSH2 0x708 PUSH2 0xA4E JUMP JUMPDEST PUSH1 0x64 CALLDATALOAD PUSH1 0x44 CALLDATALOAD PUSH1 0x1 PUSH1 0x1 PUSH1 0xA0 SHL SUB DUP4 DUP2 AND SWAP1 DUP6 AND PUSH2 0x728 DUP2 DUP4 EQ ISZERO PUSH2 0xA9E JUMP JUMPDEST DUP3 ISZERO ISZERO DUP1 PUSH2 0x9C3 JUMPI JUMPDEST PUSH2 0x73A SWAP1 PUSH2 0xAE0 JUMP JUMPDEST LT SWAP4 DUP5 ISZERO PUSH2 0x9BD JUMPI SWAP3 SWAP4 JUMPDEST ISZERO PUSH2 0x9B7 JUMPI SWAP1 SWAP2 JUMPDEST PUSH1 0x1 PUSH1 0x1 PUSH1 0xA0 SHL SUB SWAP1 DUP2 AND PUSH1 0x0 DUP2 DUP2 MSTORE PUSH1 0x20 DUP2 DUP2 MSTORE PUSH1 0x40 DUP1 DUP4 KECCAK256 SWAP5 DUP9 AND DUP4 MSTORE SWAP4 DUP2 MSTORE DUP4 DUP3 KECCAK256 SWAP4 MLOAD PUSH4 0x23B872DD PUSH1 0xE0 SHL DUP2 MSTORE CALLER PUSH1 0x4 DUP3 ADD MSTORE ADDRESS PUSH1 0x24 DUP3 ADD MSTORE PUSH1 0x44 DUP2 ADD DUP7 SWAP1 MSTORE SWAP4 SWAP7 SWAP3 SWAP4 SWAP2 DUP3 SWAP1 PUSH1 0x64 SWAP1 DUP3 SWAP1 DUP8 GAS CALL DUP1 ISZERO PUSH2 0x2AA JUMPI PUSH2 0x99A JUMPI JUMPDEST POP PUSH1 0x40 MLOAD PUSH4 0x23B872DD PUSH1 0xE0 SHL DUP2 MSTORE CALLER PUSH1 0x4 DUP3 ADD MSTORE ADDRESS PUSH1 0x24 DUP3 ADD MSTORE PUSH1 0x44 DUP2 ADD DUP6 SWAP1 MSTORE PUSH1 0x1 PUSH1 0x1 PUSH1 0xA0 SHL SUB SWAP2 SWAP1 SWAP2 AND SWAP2 SWAP1 PUSH1 0x20 DUP2 PUSH1 0x64 DUP2 PUSH1 0x0 DUP8 GAS CALL DUP1 ISZERO PUSH2 0x2AA JUMPI PUSH2 0x97D JUMPI JUMPDEST POP PUSH1 0x2 DUP6 ADD DUP1 SLOAD SWAP6 SWAP1 DUP7 PUSH2 0x939 JUMPI PUSH2 0x808 DUP7 DUP7 PUSH2 0xB7C JUMP JUMPDEST PUSH1 0x0 PUSH1 0x3 DUP3 GT ISZERO PUSH2 0x92B JUMPI POP DUP1 DUP1 PUSH1 0x1 SHR PUSH1 0x1 DUP2 ADD DUP1 SWAP2 GT PUSH2 0x31B JUMPI SWAP1 JUMPDEST DUP3 DUP3 LT PUSH2 0x90C JUMPI POP POP JUMPDEST SWAP6 JUMPDEST DUP7 ISZERO PUSH2 0x8C7 JUMPI PUSH1 0x3 DUP4 DUP9 SWAP4 PUSH2 0x888 DUP6 PUSH1 0x20 SWAP13 PUSH2 0x870 DUP13 PUSH32 0xA7C0BC175494AAC705FDCCDB501213F94FB9A6F1DD9BE0B3488298CB2DC16088 SWAP11 SLOAD PUSH2 0xBAF JUMP JUMPDEST DUP6 SSTORE PUSH1 0x1 DUP6 ADD PUSH2 0x881 DUP9 DUP3 SLOAD PUSH2 0xBAF JUMP JUMPDEST SWAP1 SSTORE PUSH2 0xBAF JUMP JUMPDEST SWAP1 SSTORE CALLER PUSH1 0x0 SWAP1 DUP2 MSTORE SWAP2 ADD DUP10 MSTORE PUSH1 0x40 SWAP1 KECCAK256 DUP1 SLOAD PUSH2 0x8A5 SWAP1 DUP5 SWAP1 PUSH2 0xBAF JUMP JUMPDEST SWAP1 SSTORE PUSH1 0x40 DUP1 MLOAD SWAP7 DUP8 MSTORE PUSH1 0x20 DUP8 ADD SWAP2 SWAP1 SWAP2 MSTORE DUP6 ADD MSTORE CALLER SWAP4 PUSH1 0x60 SWAP1 LOG4 PUSH1 0x40 MLOAD SWAP1 DUP2 MSTORE RETURN JUMPDEST PUSH1 0x40 MLOAD PUSH3 0x461BCD PUSH1 0xE5 SHL DUP2 MSTORE PUSH1 0x20 PUSH1 0x4 DUP3 ADD MSTORE PUSH1 0x1D PUSH1 0x24 DUP3 ADD MSTORE PUSH32 0x494E53554646494349454E545F4C49515549444954595F4D494E544544000000 PUSH1 0x44 DUP3 ADD MSTORE PUSH1 0x64 SWAP1 REVERT JUMPDEST SWAP1 SWAP2 POP PUSH2 0x922 DUP3 PUSH2 0x91D DUP2 DUP5 PUSH2 0xB8F JUMP JUMPDEST PUSH2 0xBAF JUMP JUMPDEST PUSH1 0x1 SHR SWAP1 PUSH2 0x826 JUMP JUMPDEST SWAP1 ISZERO PUSH2 0x830 JUMPI POP PUSH1 0x1 PUSH2 0x830 JUMP JUMPDEST PUSH2 0x94E PUSH2 0x946 DUP9 DUP8 PUSH2 0xB7C JUMP JUMPDEST DUP4 SLOAD SWAP1 PUSH2 0xB8F JUMP JUMPDEST PUSH2 0x966 PUSH2 0x95B DUP10 DUP10 PUSH2 0xB7C JUMP JUMPDEST PUSH1 0x1 DUP6 ADD SLOAD SWAP1 PUSH2 0xB8F JUMP JUMPDEST DUP1 DUP3 LT ISZERO PUSH2 0x976 JUMPI POP JUMPDEST SWAP6 PUSH2 0x832 JUMP JUMPDEST SWAP1 POP PUSH2 0x970 JUMP JUMPDEST PUSH2 0x995 SWAP1 PUSH1 0x20 RETURNDATASIZE PUSH1 0x20 GT PUSH2 0x2A3 JUMPI PUSH2 0x296 DUP2 DUP4 PUSH2 0xB2C JUMP JUMPDEST PUSH2 0x7F0 JUMP JUMPDEST PUSH2 0x9B2 SWAP1 PUSH1 0x20 RETURNDATASIZE PUSH1 0x20 GT PUSH2 0x2A3 JUMPI PUSH2 0x296 DUP2 DUP4 PUSH2 0xB2C JUMP JUMPDEST PUSH2 0x7AB JUMP JUMPDEST SWAP2 PUSH2 0x74D JUMP JUMPDEST SWAP4 PUSH2 0x745 JUMP JUMPDEST POP DUP4 ISZERO ISZERO PUSH2 0x731 JUMP JUMPDEST CALLVALUE PUSH2 0xD7 JUMPI PUSH1 0x40 CALLDATASIZE PUSH1 0x3 NOT ADD SLT PUSH2 0xD7 JUMPI PUSH1 0x40 PUSH2 0x9E7 PUSH2 0xA38 JUMP JUMPDEST PUSH2 0x9EF PUSH2 0xA4E JUMP JUMPDEST PUSH1 0x1 PUSH1 0x1 PUSH1 0xA0 SHL SUB SWAP2 DUP3 AND PUSH1 0x0 SWAP1 DUP2 MSTORE PUSH1 0x20 DUP2 DUP2 MSTORE DUP5 DUP3 KECCAK256 SWAP3 SWAP1 SWAP4 AND DUP2 MSTORE SWAP1 DUP3 MSTORE SWAP2 SWAP1 SWAP2 KECCAK256 DUP1 SLOAD PUSH1 0x1 DUP3 ADD SLOAD PUSH1 0x2 SWAP1 SWAP3 ADD SLOAD PUSH1 0x40 DUP1 MLOAD SWAP3 DUP4 MSTORE SWAP4 DUP3 ADD SWAP3 SWAP1 SWAP3 MSTORE SWAP2 DUP3 ADD MSTORE PUSH1 0x60 SWAP1 RETURN JUMPDEST PUSH1 0x4 CALLDATALOAD SWAP1 PUSH1 0x1 PUSH1 0x1 PUSH1 0xA0 SHL SUB DUP3 AND DUP3 SUB PUSH2 0xD7 JUMPI JUMP JUMPDEST PUSH1 0x24 CALLDATALOAD SWAP1 PUSH1 0x1 PUSH1 0x1 PUSH1 0xA0 SHL SUB DUP3 AND DUP3 SUB PUSH2 0xD7 JUMPI JUMP JUMPDEST PUSH1 0x60 SWAP1 PUSH1 0x3 NOT ADD SLT PUSH2 0xD7 JUMPI PUSH1 0x4 CALLDATALOAD PUSH1 0x1 PUSH1 0x1 PUSH1 0xA0 SHL SUB DUP2 AND DUP2 SUB PUSH2 0xD7 JUMPI SWAP1 PUSH1 0x24 CALLDATALOAD PUSH1 0x1 PUSH1 0x1 PUSH1 0xA0 SHL SUB DUP2 AND DUP2 SUB PUSH2 0xD7 JUMPI SWAP1 PUSH1 0x44 CALLDATALOAD SWAP1 JUMP JUMPDEST ISZERO PUSH2 0xAA5 JUMPI JUMP JUMPDEST PUSH1 0x40 MLOAD PUSH3 0x461BCD PUSH1 0xE5 SHL DUP2 MSTORE PUSH1 0x20 PUSH1 0x4 DUP3 ADD MSTORE PUSH1 0x13 PUSH1 0x24 DUP3 ADD MSTORE PUSH19 0x4944454E544943414C5F414444524553534553 PUSH1 0x68 SHL PUSH1 0x44 DUP3 ADD MSTORE PUSH1 0x64 SWAP1 REVERT JUMPDEST ISZERO PUSH2 0xAE7 JUMPI JUMP JUMPDEST PUSH1 0x40 MLOAD PUSH3 0x461BCD PUSH1 0xE5 SHL DUP2 MSTORE PUSH1 0x20 PUSH1 0x4 DUP3 ADD MSTORE PUSH1 0x19 PUSH1 0x24 DUP3 ADD MSTORE PUSH32 0x494E53554646494349454E545F494E5055545F414D4F554E5400000000000000 PUSH1 0x44 DUP3 ADD MSTORE PUSH1 0x64 SWAP1 REVERT JUMPDEST SWAP1 PUSH1 0x1F DUP1 NOT SWAP2 ADD AND DUP2 ADD SWAP1 DUP2 LT PUSH8 0xFFFFFFFFFFFFFFFF DUP3 GT OR PUSH2 0xB4E JUMPI PUSH1 0x40 MSTORE JUMP JUMPDEST PUSH4 0x4E487B71 PUSH1 0xE0 SHL PUSH1 0x0 MSTORE PUSH1 0x41 PUSH1 0x4 MSTORE PUSH1 0x24 PUSH1 0x0 REVERT JUMPDEST SWAP1 DUP2 PUSH1 0x20 SWAP2 SUB SLT PUSH2 0xD7 JUMPI MLOAD DUP1 ISZERO ISZERO DUP2 SUB PUSH2 0xD7 JUMPI SWAP1 JUMP JUMPDEST DUP2 DUP2 MUL SWAP3 SWAP2 DUP2 ISZERO SWAP2 DUP5 DIV EQ OR ISZERO PUSH2 0x31B JUMPI JUMP JUMPDEST DUP2 ISZERO PUSH2 0xB99 JUMPI DIV SWAP1 JUMP JUMPDEST PUSH4 0x4E487B71 PUSH1 0xE0 SHL PUSH1 0x0 MSTORE PUSH1 0x12 PUSH1 0x4 MSTORE PUSH1 0x24 PUSH1 0x0 REVERT JUMPDEST SWAP2 SWAP1 DUP3 ADD DUP1 SWAP3 GT PUSH2 0x31B JUMPI JUMP JUMPDEST ISZERO PUSH2 0xBC3 JUMPI JUMP JUMPDEST PUSH1 0x40 MLOAD PUSH3 0x461BCD PUSH1 0xE5 SHL DUP2 MSTORE PUSH1 0x20 PUSH1 0x4 DUP3 ADD MSTORE PUSH1 0x1D PUSH1 0x24 DUP3 ADD MSTORE PUSH32 0x494E53554646494349454E545F4C49515549444954595F4255524E4544000000 PUSH1 0x44 DUP3 ADD MSTORE PUSH1 0x64 SWAP1 REVERT JUMPDEST SWAP2 SWAP1 DUP3 SUB SWAP2 DUP3 GT PUSH2 0x31B JUMPI JUMP INVALID LOG2 PUSH5 0x6970667358 0x22 SLT KECCAK256 EXTCODESIZE PUSH21 0x95200D975B8DED0F11A080D9449336EDB8B98508C9 CALLDATALOAD 0x4D 0xA5 0xC 0xCD 0xC PUSH16 0xF87964736F6C634300081C0033000000 "},"methodIdentifiers":{"addLiquidity(address,address,uint256,uint256)":"cf6c62ea","getBalance(address,address,address)":"d6bd603c","getLiquidity(address,address)":"ea526de7","getReserves(address,address)":"d52bb6f4","pools(address,address)":"901754d7","removeLiquidity(address,address,uint256)":"d752fab2","swap(address,address,uint256)":"df791e50"}}}}}