{
  "_format": "hh-sol-artifact-1",
  "contractName": "Liquidity",
  "sourceName": "contracts/Liquidity.sol",
  "abi": [
    {
      "inputs": [
        {
          "internalType": "address",
          "name": "_positionManager",
          "type": "address"
        }
      ],
      "stateMutability": "nonpayable",
      "type": "constructor"
    },
    {
      "inputs": [
        {
          "internalType": "address",
          "name": "token0",
          "type": "address"
        },
        {
          "internalType": "address",
          "name": "token1",
          "type": "address"
        },
        {
          "internalType": "uint24",
          "name": "fee",
          "type": "uint24"
        },
        {
          "internalType": "int24",
          "name": "tickLower",
          "type": "int24"
        },
        {
          "internalType": "int24",
          "name": "tickUpper",
          "type": "int24"
        },
        {
          "internalType": "uint128",
          "name": "amount",
          "type": "uint128"
        }
      ],
      "name": "addLiquidity",
      "outputs": [],
      "stateMutability": "nonpayable",
      "type": "function"
    },
    {
      "inputs": [],
      "name": "positionManager",
      "outputs": [
        {
          "internalType": "contract IV4PositionManager",
          "name": "",
          "type": "address"
        }
      ],
      "stateMutability": "view",
      "type": "function"
    }
  ],
  "bytecode": "0x608060405234801561001057600080fd5b50604051610605380380610605833981810160405281019061003291906100db565b806000806101000a81548173ffffffffffffffffffffffffffffffffffffffff021916908373ffffffffffffffffffffffffffffffffffffffff16021790555050610108565b600080fd5b600073ffffffffffffffffffffffffffffffffffffffff82169050919050565b60006100a88261007d565b9050919050565b6100b88161009d565b81146100c357600080fd5b50565b6000815190506100d5816100af565b92915050565b6000602082840312156100f1576100f0610078565b5b60006100ff848285016100c6565b91505092915050565b6104ee806101176000396000f3fe608060405234801561001057600080fd5b50600436106100365760003560e01c8063791b98bc1461003b578063cf682acc14610059575b600080fd5b610043610075565b60405161005091906101c7565b60405180910390f35b610073600480360381019061006e91906102e1565b610099565b005b60008054906101000a900473ffffffffffffffffffffffffffffffffffffffff1681565b60008054906101000a900473ffffffffffffffffffffffffffffffffffffffff1673ffffffffffffffffffffffffffffffffffffffff1663c9272d0a8787878787876040518763ffffffff1660e01b81526004016100fc969594939291906103e1565b6020604051808303816000875af115801561011b573d6000803e3d6000fd5b505050506040513d601f19601f8201168201806040525081019061013f919061048b565b50505050505050565b600073ffffffffffffffffffffffffffffffffffffffff82169050919050565b6000819050919050565b600061018d61018861018384610148565b610168565b610148565b9050919050565b600061019f82610172565b9050919050565b60006101b182610194565b9050919050565b6101c1816101a6565b82525050565b60006020820190506101dc60008301846101b8565b92915050565b600080fd5b60006101f282610148565b9050919050565b610202816101e7565b811461020d57600080fd5b50565b60008135905061021f816101f9565b92915050565b600062ffffff82169050919050565b61023d81610225565b811461024857600080fd5b50565b60008135905061025a81610234565b92915050565b60008160020b9050919050565b61027681610260565b811461028157600080fd5b50565b6000813590506102938161026d565b92915050565b60006fffffffffffffffffffffffffffffffff82169050919050565b6102be81610299565b81146102c957600080fd5b50565b6000813590506102db816102b5565b92915050565b60008060008060008060c087890312156102fe576102fd6101e2565b5b600061030c89828a01610210565b965050602061031d89828a01610210565b955050604061032e89828a0161024b565b945050606061033f89828a01610284565b935050608061035089828a01610284565b92505060a061036189828a016102cc565b9150509295509295509295565b610377816101e7565b82525050565b61038681610225565b82525050565b61039581610260565b82525050565b6103a481610299565b82525050565b600082825260208201905092915050565b50565b60006103cb6000836103aa565b91506103d6826103bb565b600082019050919050565b600060e0820190506103f6600083018961036e565b610403602083018861036e565b610410604083018761037d565b61041d606083018661038c565b61042a608083018561038c565b61043760a083018461039b565b81810360c0830152610448816103be565b9050979650505050505050565b6000819050919050565b61046881610455565b811461047357600080fd5b50565b6000815190506104858161045f565b92915050565b6000602082840312156104a1576104a06101e2565b5b60006104af84828501610476565b9150509291505056fea2646970667358221220348b26b53f08cb3934418f797ab7bf6005288a76030f38bae0257c375ff8d9ab64736f6c634300081c0033",
  "linkReferences": {},
  "deployedLinkReferences": {}
}